:100000000C9484130C94BC130C94BC130C94BC136C
:100010000C94BC130C94BC130C94BC130C94BC1324
:100020000C94BC130C94BC130C94E87D0C94B17E1E
:100030000C94BC130C94BC130C94BC130C94BC1304
:100040000C94BC130C94BC130C94BC130C94BC13F4
:100050000C94BC130C94BC130C94BC130C94BC13E4
:100060000C94BC130C94BC130C94781E0C946E1E50
:100070000C94BC130C94081C0C94BC130C94BC136F
:100080000C946A140C94BC130C94BC130C94BC1305
:100090000C94BC130C94BC138842564256429442B2
:1000A000A24294429442944294429442BF42884273
:1000B0005642884288425642564288428842884286
:1000C0008842C742C7422F7F5A7F4B805A7F4B805E
:1000D0009D7FC07F4B8019802980207F0000000019
:1000E0000000000000005F5F07000000000707003D
:1000F00007070000227F7F227F7F2200242E2A7F95
:100100002A3A10004625130864523100367F495FB1
:1001100076605000000007070000000000001C3E51
:10012000634100000041633E1C000000082A3E1CA1
:100130003E2A08000008083E3E0808000080E060F3
:1001400000000000000808080808080000006060BF
:100150000000000040201008040201001C3E614124
:10016000433E1C000040427F7F404000627379594B
:100170005D4F46002061494D4F7B3100181C16131E
:100180007F7F100027674545457D38003C7E4B4901
:1001900049793000030371790D070300364F4D593B
:1001A00059763000064F4949693F1E000000363637
:1001B00000000000004076360000000000081C36F9
:1001C0006341000014141414141414000041633625
:1001D0001C080000060753535B0F06003E415D55A7
:1001E0005D511E007C7E1311137E7C007F7F494988
:1001F000497F36001C3E6341416322007F7F4141BD
:10020000633E1C007F7F4949494941007F7F0909BE
:10021000090901001C3E6341497979007F7F080884
:10022000087F7F000041417F7F41410020604040C6
:10023000407F3F007F7F183C76634100007F7F4016
:10024000404040007F7F0E1C0E7F7F007F7F0E1C92
:10025000387F7F003E7F4141417F3E007F7F11110B
:10026000111F0E003E7F4151713F5E007F7F1131B3
:10027000796F4E00266F49494B7A30000001017FAB
:100280007F0101003F7F4040407F3F000F1F3870DB
:10029000381F0F007F7F381C387F7F0063773E1C3C
:1002A0003E77630000070F78780F07006171795D72
:1002B0004F47430000007F7F4141000001020408D6
:1002C000102040000041417F7F0000000002030138
:1002D0000302000080808080808080000000000198
:1002E0000200000020745454547C78003F7F444442
:1002F000447C3800387C444444444400387C4444C2
:10030000447F7F00387C5454545C18000004047E01
:100310007F05050018BCA4A4A4FC7C007F7F040416
:10032000047C78000040447D7D4040000080808453
:10033000FD7D00007F7F18387C6C44000040417FC9
:100340007F4040007C047C7C047C78007C7C04043E
:10035000047C7800387C4444447C3800FCFC242431
:10036000243C1800183C242424FCFC00007C7C085D
:1003700004040400485C5454547420000004047FB6
:100380007F0404003C7C4040407C7C00001C3C60BE
:10039000603C1C003C407C7C407C7C006C6C3838B1
:1003A000386C6C001CBCA0A0A0FC7C004464747C75
:1003B0005C4C44000000083E774100000000007FD4
:1003C0007F0000000041773E0800000008040C1C7C
:1003D000181008000060600060600000000001006C
:1003E00001000200030003000400050005000600F0
:1003F00007000800080009000A000B000B000C00B1
:100400000D000E000E000F0010001100120012006F
:10041000130014001500150016001700180019002D
:1004200019001A001B001C001D001E001E001F00EA
:1004300020002100220022002300240025002600A5
:1004400027002700280029002A002B002C002D005F
:100450002D002E002F00300031003200320033001A
:1004600034003500360037003800380039003A00D3
:100470003B003C003D003E003F003F00400041008B
:100480004200430044004500460046004700480043
:1004900049004A004B004C004D004D004E004F00FB
:1004A00050005100520053005400550055005600B2
:1004B0005700580059005A005B005C005D005D0069
:1004C0005E005F0060006100620063006400650020
:1004D000660066006700680069006A006B006C00D7
:1004E0006D006E006F00700070007100720073008C
:1004F0007400750076007700780079007A007A0041
:100500007B007C007D007E007F00800081008200F7
:1005100083008400850086008600870088008900AB
:100520008A008B008C008D008E008F00900091005F
:100530009200920093009400950096009700980016
:1005400099009A009B009C009D009E009F00A000C7
:10055000A000A100A200A300A400A500A600A7007F
:10056000A800A900AA00AB00AC00AD00AE00AF002F
:10057000B000B000B100B200B300B400B500B600E6
:10058000B700B800B900BA00BB00BC00BD00BE0097
:10059000BF00C000C100C200C200C300C400C5004B
:1005A000C600C700C800C900CA00CB00CC00CD00FF
:1005B000CE00CF00D000D100D200D300D400D500AF
:1005C000D600D700D800D800D900DA00DB00DC0064
:1005D000DD00DE00DF00E000E100E200E300E40017
:1005E000E500E600E700E800E900EA00EB00EC00C7
:1005F000ED00EE00EF00F000F100F200F200F30079
:10060000F400F500F600F700F800F900FA00FB002E
:10061000FC00FD00FE00FF000001010102010301DA
:100620000401050106010701080109010A010B0186
:100630000C010D010E010F01100111011201130136
:1006400014011501160117011801180119011A01E9
:100650001B011C011D011E011F012001210122019E
:1006600023012401250126012701280129012A014E
:100670002B012C012D012E012F01300131013201FE
:1006800033013401350136013701380139013A01AE
:100690003B013C013D013E013F014001410142015E
:1006A00043014401450146014701480149014A010E
:1006B0004B014C014D014E014F01500151015201BE
:1006C00053015401550156015701580159015A016E
:1006D0005B015C015D015E015F016001610162011E
:1006E00063016401650166016701680169016A01CE
:1006F0006B016C016D016E016F017001710172017E
:1007000073017401750176017701780179017A012D
:100710007B017C017D017E017F01800181018201DD
:1007200083018401850186018701880189018A018D
:100730008B018C018D018E018F019001910192013D
:1007400093019401950196019701980199019A01ED
:100750009B019C019D019E019F01A001A101A2019D
:10076000A301A401A501A601A701A801A901AA014D
:10077000AB01AC01AD01AE01AF01B001B101B201FD
:10078000B301B401B501B601B701B801B901BA01AD
:10079000BB01BC01BD01BE01C001C101C201C30159
:1007A000C401C501C601C701C801C901CA01CB0105
:1007B000CC01CD01CE01CF01D001D101D201D301B5
:1007C000D401D501D601D701D801D901DA01DB0165
:1007D000DC01DD01DE01DF01E001E101E201E30115
:1007E000E401E501E601E701E801E901EA01EB01C5
:1007F000EC01ED01EF01F001F101F201F301F4016F
:10080000F501F601F701F801F901FA01FB01FC011C
:10081000FD01FE01FF0100020102020203020402C7
:10082000050206020702080209020A020B020C0274
:100830000D020E020F021002120213021402150220
:1008400016021702180219021A021B021C021D02CC
:100850001E021F022002210222022302240225027C
:1008600026022702280229022A022B022C022D022C
:100870002E022F02310232023302340235023602D6
:100880003702380239023A023B023C023D023E0284
:100890003F02400241024202430244024502460234
:1008A0004702480249024A024C024D024E024F02E0
:1008B000500251025202530254025502560257028C
:1008C000580259025A025B025C025D025E025F023C
:1008D00060026102620263026502660267026802E8
:1008E00069026A026B026C026D026E026F02700294
:1008F0007102720273027402750276027702780244
:1009000079027A027C027D027E027F0280028102ED
:10091000820283028402850286028702880289029B
:100920008A028B028C028D028E028F029102920249
:1009300093029402950296029702980299029A02F3
:100940009B029C029D029E029F02A002A102A202A3
:10095000A302A402A602A702A802A902AA02AB024D
:10096000AC02AD02AE02AF02B002B102B202B302FB
:10097000B402B502B602B702B802BA02BB02BC02A8
:10098000BD02BE02BF02C002C102C202C302C40253
:10099000C502C602C702C802C902CA02CC02CD0201
:1009A000CE02CF02D002D102D202D302D402D502AB
:1009B000D602D702D802D902DA02DB02DC02DD025B
:1009C000DF02E002E102E202E302E402E502E60203
:1009D000E702E802E902EA02EB02EC02ED02EE02B3
:1009E000F002F102F202F302F402F502F602F7025B
:1009F000F802F902FA02FB02FC02FD02FE02FF020B
:100A000001030203030304030503060307030803AA
:100A100009030A030B030C030D030E030F0310035A
:100A20001203130314031503160317031803190302
:100A30001A031B031C031D031E031F0320032203B1
:100A400023032403250326032703280329032A035A
:100A50002B032C032D032E032F0330033203330308
:100A60003403350336033703380339033A033B03B2
:100A70003C033D033E033F0341034203430344035E
:100A8000450346034703480349034A034B034C030A
:100A90004D034E03500351035203530354035503B4
:100AA00056035703580359035A035B035C035D0362
:100AB0005F0360036103620363036403650366030A
:100AC0006703680369036A036B036C036E036F03B8
:100AD0007003710372037303740375037603770362
:100AE000780379037A037C037D037E037F0380030D
:100AF00081038203830384038503860387038803BA
:100B00008A038B038C038D038E038F039003910361
:100B100092039303940395039603980399039A030E
:100B20009B039C039D039E039F03A003A103A203B9
:100B3000A303A503A603A703A803A903AA03AB0362
:100B4000AC03AD03AE03AF03B003B103B303B4030F
:100B5000B503B603B703B803B903BA03BB03BC03B9
:100B6000BD03BE03C003C103C203C303C403C50363
:100B7000C603C703C803C903CA03CB03CD03CE030F
:100B8000CF03D003D103D203D303D403D503D603B9
:100B9000D703D803DA03DB03DC03DD03DE03DF0363
:100BA000E003E103E203E303E403E503E703E8030F
:100BB000E903EA03EB03EC03ED03EE03EF03F003B9
:100BC000F103F303F403F503F603F703F803F90362
:100BD000FA03FB03FC03FD03FF03456E74657269B2
:100BE0006E672075736572206D656E752E0A0050F4
:100BF00061642065646974206D6F646520656E743E
:100C0000657265642E0A00547279696E6720746F8C
:100C100020656E746572207061642065646974205B
:100C20006D6F64652E2E2E0A0043616C69627261DD
:100C300074652070726573737572650043616C69C9
:100C4000627261746520590043616C6962726174FB
:100C500065205800466163746F7279207265736510
:100C6000740044657669636520696E666F00506143
:100C7000642063616C6962726174696F6E004F66B3
:100C800066206368616E6E656C004F6E20636861FC
:100C90006E6E656C2F302076656C004469736162FE
:100CA0006C656400456E61626C656400506F6C79C0
:100CB000004368616E6E656C005479706520320087
:100CC000547970652031004D4D432B43430043431D
:100CD000004D4D430050697463682062656E642066
:100CE00074797065005472616E73706F72742063F2
:100CF0006F6E74726F6C73004E6F7465206F6666F2
:100D000020747970650052756E6E696E6720737419
:100D100061747573004166746572746F75636820E1
:100D200074797065004578706F6E656E7469616C7A
:100D3000004C6F6761726974686D6963004C696E1D
:100D40006561720048617264004D656469756D008B
:100D5000536F6674004D4944492073657474696E1D
:100D600067730043757276650053656E73697469C5
:100D7000766974790056656C6F6369747920736560
:100D80007474696E677300466163746F7279207260
:100D9000657365740044657669636520696E666F86
:100DA0000045786974696E67206D656E750A005B31
:100DB000205D005B785D0053657276696365206D28
:100DC000656E750053657474696E6773004D4944B0
:100DD00049206368616E6E656C3A20004D49444954
:100DE0003A20005261773A20005072657373757231
:100DF000652063616C696272617465640043616C53
:100E00006962726174696E67207A6F6E652000484E
:100E10006F6C64207061640043616C69627261741C
:100E2000696F6E206F6E0043616C696272617469F4
:100E30006F6E206F666600500050616420656469C3
:100E400074696E67007061643A2000504200434349
:100E5000000D0D0E050E10100AC80EBA0EAB0EA531
:100E60000E960E850E740E690E55736572207363AF
:100E7000616C65004D616A6F722050656E746174BB
:100E80006F6E6963004D696E6F722050656E74619C
:100E9000746F6E6963004861726D6F6E6963204D97
:100EA000616A6F72004D616A6F72004861726D6FA6
:100EB0006E6963204D696E6F72004D656C6F646979
:100EC00063204D696E6F72004E61747572616C20A3
:100ED0004D696E6F7200496E6974696174696E67FD
:100EE000207265626F6F742E00466163746F727951
:100EF0002072657365742066696E69736865642E17
:100F000000506C6561736520776169742E005065CF
:100F100072666F726D696E6720666163746F727955
:100F20002072657365742E002043616E63656C3AB0
:100F300020616E79206F746865720020315B205DDE
:100F400020375B205D20395B205D0020436F6E669B
:100F500069726D207769746820706164733A004823
:100F6000617264776172653A2000536F66747761CD
:100F700072653A20002A2A2A464143544F5259208A
:100F800052455345542A2A2A000102010201010256
:100F90000102010201FD0FFA0FF80FF50FF30FF137
:100FA0000FEE0FEC0FE90FE70FE40FE20F61743A59
:100FB0002000763A200041737369676E6564206E85
:100FC0006F7465733A004F637461766520003C6E00
:100FD0006F2061737369676E6564206E6F746573EB
:100FE0003E004200412300410047230047004623C2
:100FF0000046004500442300440043230043000012
:10100000000E040407070602020B0608120006067B
:101010000C0C0707070709090000000000FF10FA81
:1010200010F510ED10E510DE10DB10D810CC10C557
:1010300010BC10A9100000A2109B108E1081107916
:101040001071106910611057104D10000059206385
:10105000757276653A2000582063757276653A207D
:101060000059206D61783A200059206D696E3A2050
:101070000058206D61783A200058206D696E3A2042
:1010800000592050697463682062656E64005820BE
:1010900050697463682062656E6400592043433A66
:1010A0002000582043433A20004E6F746520736837
:1010B000696674206C6576656C3A20004F637461D4
:1010C00076653A20004E6F74657320004166746542
:1010D00072746F75636820005920005820005370A7
:1010E0006C69742000546F6E69633A200052656326
:1010F0006F7264200053746F7000506C6179004D02
:10110000494449206368616E6E656C3A2000130E95
:10111000130B11151BA41195118111751163114D3C
:10112000113111416C6C2070616473005061642056
:1011300000707265646566696E6564207363616CD6
:1011400065206E6F742061637469766500757365E0
:1011500072207363616C65206E6F742061637469C3
:1011600076650070616473206E6F742072656C65C3
:1011700061736564006E6F7420616C6C6F77656479
:101180000076616C756573206F7574206F662072D0
:10119000616E67650076616C756573206368616E6A
:1011A000676564006E6F206368616E676520696EB5
:1011B0002076616C7565730082127612631250128C
:1011C0003A12271218120F120612FB11F411E6112F
:1011D000D2114569676874207761766573207570F0
:1011E00020646F776E00466976652073746570734E
:1011F00020757000537769746368004C6F672065D1
:101200007870207570004C6F672075702032004C2C
:101210006F67207570203100466C61742063656EC5
:10122000746572207570004C696E65617220646F20
:10123000776E2062726F6B656E004C696E656172CD
:1012400020757020646F776E2062726F6B656E0020
:101250004C696E6561722075702062726F6B656E8D
:101260002032004C696E6561722075702062726F69
:101270006B656E2031004C696E65617220646F771A
:101280006E004C696E656172207570001513190B44
:101290000B0D12181919221C14181A1212131313F9
:1012A00013151511C514B11497148B147F147114F0
:1012B0005E1445142B141114EE13D113BC13A31395
:1012C0008813751362134E133A1326131213FC126C
:1012D000E612D4124D656E7520656E7472792065C4
:1012E00072726F723A005920637572766520636876
:1012F000616E6765206572726F723A00582063757F
:10130000727665206368616E6765206572726F72C0
:101310003A0059206D6178206368616E67652065C9
:1013200072726F723A0059206D696E206368616E47
:101330006765206572726F723A0058206D6178207F
:101340006368616E6765206572726F723A0058203B
:101350006D696E206368616E6765206572726F7279
:101360003A0059204343206368616E6765206572C7
:10137000726F723A0058204343206368616E67655C
:10138000206572726F723A005061642065646974FE
:10139000206D6F646520656E747279206572726F5E
:1013A000723A004E6F7465207368696674206368D2
:1013B000616E6765206572726F723A004F63746187
:1013C0007665206368616E6765206572726F723A38
:1013D000004E6F74652073656E64206D6F646520C8
:1013E0006368616E6765206572726F723A0041666C
:1013F000746572746F7563682073656E64206D6FB9
:101400006465206368616E6765206572726F723A09
:1014100000592073656E64206D6F64652063686198
:101420006E6765206572726F723A00582073656E40
:1014300064206D6F6465206368616E676520657206
:10144000726F723A0053706C6974206D6F6465201E
:101450006368616E6765206572726F723A004E6FE5
:101460007465206368616E6765206572726F723A99
:10147000005265636F7264206572726F723A005336
:10148000746F70206572726F723A00506C617920CF
:101490006572726F723A004D494449206368616E0B
:1014A0006E656C206368616E6765206572726F722D
:1014B000005363616C65206368616E6765206572C7
:1014C000726F723A0050726F6772616D206368616B
:1014D0006E6765206572726F723A000E150B150902
:1014E00015061504150215FF14FD14FA14F814F569
:1014F00014F31442004123004100472300470046F3
:1015000023004600450044230044004323004300D9
:1015100000081019212A323B434C545D656E767FDA
:1015200000081019212A323B434C545D656E767FCA
:1015300000081019212A323B434C545D656E767FBA
:1015400000081019212A323B434C545D656E767FAA
:1015500000081019212A323B434C545D656E767F9A
:1015600000081019212A323B434C545D656E767F8A
:1015700000081019212A323B434C545D656E767F7A
:1015800000081019212A323B434C545D656E767F6A
:10159000000000000000000000000000000000004B
:1015A000000000000000000000001F1F1F1F1F1F81
:1015B0001F1F1F1F1F1F1F1F1F1F1F1F1F1F1F1F3B
:1015C0001F1F1F3F3F3F3F3F3F3F3F3F3F3F3F3F8B
:1015D0003F3F3F3F3F3F3F3F3F3F3F3F3F5F5F5FBB
:1015E0005F5F5F5F5F5F5F5F5F5F5F5F5F5F5F5F0B
:1015F0005F5F5F5F5F5F7F7F7F7F7F7F7F7F7F7FBB
:101600007F7F7F7F7F7F7F7F7F7F7F7F7F7F7F7FEA
:1016100000000000000000000000000000000000CA
:1016200000000000000000000000000000000000BA
:1016300000000000000000000000000000000000AA
:10164000000000000000000000000000000000009A
:101650007F7F7F7F7F7F7F7F7F7F7F7F7F7F7F7F9A
:101660007F7F7F7F7F7F7F7F7F7F7F7F7F7F7F7F8A
:101670007F7F7F7F7F7F7F7F7F7F7F7F7F7F7F7F7A
:101680007F7F7F7F7F7F7F7F7F7F7F7F7F7F7F7F6A
:10169000000000000000000000000000000000004A
:1016A000000000000000000000000000000000003A
:1016B000000000000000000000000000000000002A
:1016C0000000000000000000000000000000000218
:1016D00002040606090C0C0E1010131316181A1A21
:1016E0001D202022242427292C2C2E313333363858
:1016F0003B3D3D4042454747494C4F515356565953
:101700005B5D60636567696D6F717377797B7E7F01
:1017100000000000000000000000000000000000C9
:1017200000000206090C0F1214171A1C1E21232593
:1017300027292B2C2E3032333537383A3B3C3E3F6D
:1017400041424344464748494A4C4D4E4F505152FE
:1017500053545556575859595A5B5C5D5E5F5F60EC
:101760006162636364656666676869696A6B6B6C0E
:101770006D6D6E6F6F707171727273747475757652
:101780007777787879797A7A7B7B7C7C7D7D7E7FB0
:10179000000A0E1215171A1C1E2022232527282A9C
:1017A0002B2C2E2F30323334353637393A3B3C3DF3
:1017B0003E3F40414243444545464748494A4B4CD9
:1017C0004C4D4E4F505051525353545556565758F6
:1017D00059595A5B5B5C5D5E5E5F6060616262632B
:1017E000646465656667676869696A6A6B6C6C6D75
:1017F0006D6E6F6F707071717273737474757576CE
:101800007777787879797A7A7B7B7C7C7D7D7E7F2F
:1018100000010203050607090A0B0D0E0F10121333
:10182000141617181A1B1C1D1F20212324252728D6
:10183000292A2C2D2E30313234353637393A3B3D7A
:101840003E3F3F3F3F3F3F3F3F3F3F3F3F3F3F3FA9
:101850003F3F3F3F3F3F3F3F3F3F3F3F3F3F3F4097
:10186000414344454748494B4C4D4E5051525455C5
:101870005658595A5B5D5E5F616263656667686A68
:101880006B6C6E6F70727374757778797B7C7D7F0B
:101890007F7F7D7C797877767472716F6E6D6A69FF
:1018A0006866656361605F5D5B5A58575653525175
:1018B000504E4C4A494847444342403F3C3B3A39EA
:1018C0003735343231302D2C2B2928262423222160
:1018D0001E1D1B1A1916151413110F0D0C0B0A07D8
:1018E00006050302000000000000000000000000E8
:1018F00000000000000000000000000000000000E8
:1019000000000000000000000000000000000000D7
:10191000000205070A0D0F1214171A1C1F21242795
:10192000292C2E313436393B3E414346484B4E50EC
:101930005355585B5D606265686A6D6F7275777A42
:101940007C7F7F7F7F7F7F7F7F7F7F7F7F7F7F7FAA
:101950007F7F7F7F7F7F7F7F7F7F7F7F7F7F7F7C9A
:101960007A7775726F6D6A686562605D5B58555312
:10197000504E4B484643413E3B393634312E2C299C
:101980002724211F1C1A1714120F0D0A0705020025
:101990000000030507090B0D0F11131517191B1D67
:1019A0001F21232527292B2D2F31333537393B3D57
:1019B0003F424446484A4C4E50525456585A5C5E38
:1019C00060626466686A6C6E70727476787A7C7E27
:1019D0007F7F7F7F7F7F7F7F7F7F7F7F7F7F7F7F17
:1019E0007F7F7F7F7F7F7F7F7F7F7F7F7F7F7F7F07
:1019F0007F7F7F7F7F7F7F7F7F7F7F7F7F7F7F7FF7
:101A00007F7F7F7F7F7F7F7F7F7F7F7F7F7F7F7FE6
:101A100000000000000000000000000000000000C6
:101A200000000000000000000000000000000000B6
:101A300000000000000000000203050607090A0C70
:101A40000D0F101113141617191A1C1D1E20212317
:101A5000242627282A2B2D2E303132343537383A98
:101A60003B3D3E3F414244454748494B4C4E4F5118
:101A70005253555658595B5C5E5F60626365666899
:101A8000696A6C6D6F707273747677797A7C7D7F1A
:101A90007F7E7D7C7B7A79787776757473727170CE
:101AA0006F6E6D6C6B6A69686766656463626160BE
:101AB0005F5E5D5C5B5A59585756555453525150AE
:101AC0004F4E4D4C4B4A494847464544434241409E
:101AD0003F3E3D3C3B3A393837363534333231308E
:101AE0002F2E2D2C2B2A292827262524232221207E
:101AF0001F1E1D1C1B1A191817161514131211106E
:101B00000F0E0D0C0B0A090807060504030201005D
:101B1000000102030405060708090A0B0C0D0E0F4D
:101B2000101112131415161718191A1B1C1D1E1F3D
:101B3000202122232425262728292A2B2C2D2E2F2D
:101B4000303132333435363738393A3B3C3D3E3F1D
:101B5000404142434445464748494A4B4C4D4E4F0D
:101B6000505152535455565758595A5B5C5D5E5FFD
:101B7000606162636465666768696A6B6C6D6E6FED
:101B8000707172737475767778797A7B7C7D7E7FDD
:101B900053656E64696E67206368616E6E656C2064
:101BA0006166746572746F7563683A2025640A0013
:101BB00053656E64696E67206B6579206166746534
:101BC00072746F7563682C207061642025643A20FC
:101BD00025640A0053656E64696E672070697463DA
:101BE000682062656E64203020666F7220637572B3
:101BF00072656E74207061642E0A0025640A0050BC
:101C000061642025642072656C65617365642E20B3
:101C10004E6F7465733A200A0056656C6F63697481
:101C2000793A2025640A0025640A00506164202561
:101C30006420707265737365642E204E6F746573D3
:101C40003A0A005920666F72207061642025643A58
:101C50002025642C2043432025640A005920666F08
:101C600072207061642025643A2025640A0058209F
:101C7000666F72207061642025643A2025642C20F0
:101C800043432025640A005820666F722070616407
:101C90002025643A2025640A0043616C6962726100
:101CA00074696E67206D61782076616C7565206659
:101CB0006F7220592C207061642025643A202564BD
:101CC0000A0043616C6962726174696E67206D69B4
:101CD0006E2076616C756520666F7220592C2070BD
:101CE00061642025643A2025640A0043616C6962BE
:101CF000726174696E67206D61782076616C7565BC
:101D000020666F7220582C207061642025643A2070
:101D100025640A0043616C6962726174696E6720B0
:101D20006D696E2076616C756520666F7220582C27
:101D3000207061642025643A2025640A004D617892
:101D4000696D756D206368616E6E656C2061667487
:101D50006572746F75636820757064617465643A48
:101D600020256400506164206F66662C20637572C4
:101D700072656E742074696D653A2025640A00529C
:101D80006573746F72696E672064617461206F6E31
:101D9000204C43442066726F6D206C617374207018
:101DA00061642E0A000A0055707065722059206C1B
:101DB000696D697420666F72207061642025643AD1
:101DC0002025640A004C6F7765722059206C696D7C
:101DD000697420666F72207061642025643A202542
:101DE000640A005072696E74696E67206F757420A2
:101DF00059206C696D69747320666F72207061641C
:101E0000730A000A0055707065722058206C696D65
:101E1000697420666F72207061642025643A202501
:101E2000640A004C6F7765722058206C696D697484
:101E300020666F72207061642025643A2025640A50
:101E4000005072696E74696E67206F757420582037
:101E50006C696D69747320666F7220706164730AB7
:101E6000005570706572206166746572746F756379
:101E700068206C696D697420666F722070616420DF
:101E800025643A2025640A004C6F776572206166EC
:101E9000746572746F756368206C696D697420660F
:101EA0006F72207061642025643A2025640A005016
:101EB00072696E74696E67206F75742061667465EF
:101EC00072746F756368206C696D69747320666FD6
:101ED0007220706164732E0055707065722070728C
:101EE000657373757265206C696D697420666F72B5
:101EF000207061642025643A2025640A00507269CC
:101F00006E74696E67206F7574206C696D69747387
:101F100020666F7220706164730A0053686966748A
:101F20003A2025640A00546F6E69633A2025640ADA
:101F3000004F63746176653A2025640A004D494478
:101F400049206368616E6E656C3A2025640A005012
:101F5000616420637572766520666F7220593A203D
:101F600025640A0050616420637572766520666F8F
:101F70007220583A2025640A004343205920757086
:101F8000706572206C696D69743A2025640A00439B
:101F9000432059206C6F776572206C696D69743AC3
:101FA0002025640A00434320582075707065722014
:101FB0006C696D69743A2025640A004343205820F7
:101FC0006C6F776572206C696D69743A2025640ABC
:101FD0000043432059204D4944492049443A202593
:101FE000640A0043432058204D4944492049443A5B
:101FF0002025640A004166746572746F75636820F9
:1020000073656E6420656E61626C65643A20256458
:102010000A004E6F74652073656E6420656E6162A0
:102020006C65643A2025640A00592073656E64204B
:10203000656E61626C65643A2025640A00582073FD
:10204000656E6420656E61626C65643A2025640A81
:10205000002D2D2D2D2D2D2D2D2D2D2D2D2D2D2DDD
:102060002D2D2D2D2D2D2D0A5061642025640A2D36
:102070002D2D2D2D2D2D2D2D2D2D2D2D2D2D2D2D90
:102080002D2D2D2D2D0A0050616473206861766519
:1020900020696E646976696475616C207365747417
:1020A000696E67730A004D494449206368616E6E2A
:1020B000656C3A2025640A0050616420637572766D
:1020C0006520666F7220593A2025640A00506164C9
:1020D00020637572766520666F7220583A202564F9
:1020E0000A0043432059207570706572206C696D39
:1020F00069743A2025640A0043432059206C6F77A5
:102100006572206C696D69743A2025640A00434346
:102110002058207570706572206C696D69743A2062
:1021200025640A0043432058206C6F776572206C49
:10213000696D69743A2025640A0043432059204D93
:102140004944492049443A2025640A004343205821
:10215000204D4944492049443A2025640A005069E9
:102160007463682062656E6420592073656E642014
:1021700025730A0050697463682062656E64205894
:102180002073656E642025730A004166746572745D
:102190006F7563682073656E642025730A004E6F47
:1021A00074652073656E642025730A005920736579
:1021B0006E642025730A00582073656E64202573B1
:1021C0000A00416C6C2070616420706172616D6501
:1021D000746572732061726520676C6F62616C2038
:1021E0002D2073706C6974206973206F66662E0AE7
:1021F000005072696E74696E67206F75742070612B
:102200006420636F6E66696775726174696F6E0AC8
:1022100000416374697665207363616C653A2025BB
:10222000640A004163746976652070726F67726139
:102230006D3A2025640A002D2D2D2D2D2D2D2D2DAF
:102240002D2D2D2D2D2D2D2D2D2D2D2D2D0A507279
:10225000696E74696E67206F75742070726F677233
:10226000616D2073657474696E67730A2D2D2D2D51
:102270002D2D2D2D2D2D2D2D2D2D2D2D2D2D2D2D8E
:102280002D2D0A0050697463682062656E64206FAA
:102290006E20257320666F7220616C6C2070616403
:1022A000732025730A0050697463682062656E6448
:1022B000206F6E20257320666F7220706164202568
:1022C000642025730A004F6F70732C206275666658
:1022D00065722066756C6C2E2057616974696E6733
:1022E0002E2E2E0A004E6F74652025643A20256438
:1022F0000A004E6F746573207368696674656420A4
:102300002573005368696674206C6576656C20647B
:102310006966666572656E63653A2025640A004EDB
:102320006F206368616E676520696E2073686966F7
:1023300074206C6576656C2E0A0063757272656E2A
:1023400074206E6F74652025643A2025640A005459
:102350007279696E6720746F20736574206E6F7474
:1023600065207368696674206C6576656C202564E9
:102370002C206F63746176652073686966743A20F7
:1023800025640A000A00256420004E6577206E6FE0
:1023900074657320666F72207061642025643A2032
:1023A000004E6577206E6F746520666F72207061D5
:1023B000642025643A2025640A00556E61626C65CC
:1023C00020746F20706572666F726D206F63746128
:1023D0007665206368616E67653A206F6E65206F71
:1023E00072206D6F726520706164206E6F7465730A
:1023F0002061726520746F6F2025732E0A004E6F66
:10240000206368616E676520696E206F6374617612
:10241000652E0A00547279696E6720746F207365A7
:10242000747570206F63746176652025642E0A00D0
:1024300025642C20746F207061642025640052652F
:102440006D6F76696E67206E6F74652000416464FD
:10245000696E67206E6F7465200043616C696272FB
:102460006174696E6720707265737375726520663A
:102470006F72207061642025642E204E657720766F
:10248000616C75653A2025640A00616C6C2070618E
:1024900064733A2025640A007061642025643A2040
:1024A00025640A006D696E20666F7220006D617888
:1024B00020666F7220005920006D696E20666F7271
:1024C00020006D617820666F722000582000616CDA
:1024D0006C20706164733A2025640A007061642086
:1024E00025643A2025640A005920434320666F7210
:1024F00020005820434320666F722000616C6C20DE
:10250000706164733A2025640A0070616420256458
:102510003A2025640A005920637572766520666F3B
:102520007220005820637572766520666F722000F5
:102530004368616E676564206166746572746F7567
:102540006368206D6F6465202D204368616E6E6541
:102550006C206166746572746F7563680A00436805
:10256000616E676564206166746572746F75636817
:10257000206D6F6465202D204B6579206166746540
:1025800072746F7563680A00257320666F7220701D
:1025900061642025642E0A00257320666F72206115
:1025A0006C6C20706164732E0A0059200058200062
:1025B0004166746572746F75636820004E6F746550
:1025C00073200053706C69742025730A0045646998
:1025D00074696E67207061642025640A00556E611D
:1025E000626C6520746F206368616E676520746F2C
:1025F0006E69633A206F6E65206F72206D6F726531
:1026000020706164206E6F74657320617265207440
:102610006F6F2025730A00546F6E696320636861D1
:102620006E6765642C2061637469766520746F6ED3
:1026300069632025640A004E6F206368616E6765D8
:1026400020696E20746F6E69632E0A0018035A00A9
:10265000760075006B003900200044004500420000
:1026600055004700000016034100640020004200AE
:102670006900740020004C004C004300000004037B
:10268000090409023E00020100C0320904000001F1
:10269000020201000524001001042402060524069C
:1026A0000001070582030800FF09040100020A0077
:1026B000000007050402100005070583021000054D
:1026C0001201100102000008EB0344200100010286
:1026D000DC01506C6561736520776169742E2E2E64
:1026E0000046697273742074696D6520696E69743F
:1026F00069616C697A6174696F6E2E00EB1E8B2DB7
:10270000943AAB46B265908111241FBECFEFD0E260
:10271000DEBFCDBF84B7877F84BF0FB6F894A8957E
:1027200080916000886180936000109260000FBE0D
:1027300013E0A0E0B1E0EEE4FCE001E00BBF02C07A
:1027400007900D92A838B107D9F72DE0A8E8B3E0BB
:1027500001C01D92A63CB207E1F713E1C4E8D3E142
:1027600004C02197FE010E948082CE37D107C9F7AD
:102770000E949C810C9425860C940000662349F0ED
:10278000613029F467E48FEF9FE00E9407860C9484
:102790001F1E6FEF8FEF9FE00E9407860C941F1E95
:1027A000E62FF0E0E757FC4F808108959FB7F8943B
:1027B00070E0FB01E751FC4F808110829FBFFB015D
:1027C000E65CFE4F9081911101C0089581950895B6
:1027D000EAE5F1E08191861731F081E0E436F8070F
:1027E000C9F780E0089581E00895CF93DF93EC016D
:1027F0000E94CB1DCE0106D00E94EE1DCE01DF91BE
:10280000CF9169C7CF93DF9310929000E1E9F0E098
:1028100010821092950010929400A1E7B0E01C92F3
:10282000C8E9D0E01982188210929B0010929A0099
:1028300010929D0010929C0080818860808380812E
:10284000836080838EE390E0998388838C9182609B
:102850008C9380E890E0FC011082A1E8B0E01C922B
:102860001092820010926F001092850010928400E6
:10287000109289001092880010928B0010928A00AA
:1028800010928D0010928C00C0EBD0E0188241EBCA
:1028900050E0FA011082109270001092B200109273
:1028A000B3001092B400FC01208121602083888154
:1028B000816088838C9181608C93FA018081816032
:1028C000808314BC15BC16BC10926E0017BCDF913F
:1028D000CF9108951F920F920FB60F9211240BB64D
:1028E0000F92CF92DF92EF92FF920F931F932F934D
:1028F0003F934F935F936F937F938F939F93AF9388
:10290000BF93CF93DF93EF93FF93809129048F5F61
:1029100080932904843001F180917A00806480934F
:102920007A00FF91EF91DF91CF91BF91AF919F918D
:102930008F917F916F915F914F913F912F911F9157
:102940000F91FF90EF90DF90CF900F900BBE0F9004
:102950000FBE0F901F9018958091B0008F778093D5
:10296000B000809180008F778093800080918000FC
:102970008F7D80938000E0910001F09101018081C2
:1029800080618083E0910201F09103018081806287
:102990008083E0910401F09105018081806480834F
:1029A00080918804883009F4F6C188B1887F88B99D
:1029B000E091880498B10E2E000CFF0BE159FE4FF8
:1029C0008081892B88B980918704882351F1809177
:1029D0004F0490915004A0915104B0915204892B5E
:1029E0008A2B8B2BF1F480E090E007C020812860D7
:1029F000208301968831910571F0FC01E359FB4F6A
:102A0000208122FFF6CF209186042111EFCF208173
:102A1000277F2083EECF9091860481E089278093E1
:102A20008604C0E0D1E0A4E6B1E0F12C80E041E012
:102A300050E090918804980F692F70E0FB01E359F2
:102A4000FB4F908190FFFEC03081008110E0159512
:102A500007951595079515950795232F30E0359522
:102A60002795359527952027312720FDEBC09081AC
:102A700094FD6AC10EE610E02EE6E22E90918504E8
:102A80009111E5C0F801E956FE4F20812F3F09F46E
:102A900073C1222391F0209591E0F91609F497C1B2
:102AA000E2E0FE128CC130E030938B0020938A006C
:102AB00090918000906290938000885F229611969A
:102AC000F394883109F0B5CF809188048F5F8093AB
:102AD000880480914F0490915004A0915104B091CA
:102AE00052040196A11DB11D80934F049093500490
:102AF000A0935104B093520480916B0490916C04A4
:102B000040914F04509150046091510470915204CF
:102B1000A0E0B0E0481759076A077B0708F00BC12F
:102B200080912B0490912C04A0912D04B0912E043F
:102B30000196A11DB11D80932B0490932C04A093AA
:102B40002D04B0932E0437E6C32E31E0D32E20E0BF
:102B500030E061E088B1877C88B988B1F601919155
:102B60006F01892B88B9722F5F9800005F9A58E334
:102B7000520FC1E047E089B185FB882780F986279D
:102B800090912A04990F90932A0490912A04982BEB
:102B900090932A0490912A04937090932A04E52F2D
:102BA000F0E0E757FC4F90818068990F892B808374
:102BB0005E9A00005E98C1119FC0E42FEE0FEE0FE9
:102BC000E70FF0E0EF01C75FDB4F8881F82EFF1CB5
:102BD000FF24FF1C90912A04880F880F892B982FBF
:102BE0009F789883FF2009F489C0892F80688883A3
:102BF000082F0F7010E0D801A15FBD4F9C91992361
:102C000091F011E019160CF07FC0DF01A753BC4F03
:102C1000EC909E0D9C93112309F473C08068888307
:102C2000F11609F451C0C1E0415058504F3F09F02E
:102C3000A2CF2F5F3F4F2830310509F08BCF109284
:102C400029046ACE9091850400E010E0E12C9B01FC
:102C50002D5A3B4FF9019081E92F990FFF0BE9564F
:102C6000FE4F9081992369F0F9019081E92F990F26
:102C7000FF0BE956FE4F60816F3F09F48FC0611171
:102C800068C0F9016081062E000C770B6017710790
:102C900009F413CF6081062E000C770B60177107C3
:102CA000DCF560918504908170E0690F711D97FDDE
:102CB0007A9560836081062E000C770B0617170744
:102CC0000CF0FBCEE082F9CE892F990F990B97FD7E
:102CD0001FC0EF01C958DE4FC881D0E08C179D0797
:102CE0000CF4A1CFE751FC4F8081F1100FC09FEF92
:102CF000890F80831C9297CFC0E096CF8F70888316
:102D000077CF8F7788838CCF10E07FCF91E0F0CFA3
:102D1000919581959109DDCF90918504F9016081AC
:102D2000062E000C770B691B71096083908197FF59
:102D3000C4CE1082C2CE10924F0410925004109252
:102D4000510410925204ECCE07E710E097E7E92E09
:102D500095CE6095F1E0FF1609F44CC092E0F912AF
:102D600041C070E070938B0060938A009091800066
:102D700090629093800085CFE881F9812081BA012B
:102D80000C9002C0660F771F0A94E2F7962F909579
:102D90009223908392CE1092880407CEC880D98067
:102DA000F6016081FA010C9002C0EE0FFF1F0A9439
:102DB000E2F79E2F90959623F601908362CF2093A1
:102DC000B3009091B00090689093B00076CE30E060
:102DD00030938900209388009091800090689093B0
:102DE00080006BCE6093B3009091B0009068909398
:102DF000B00047CF70E07093890060938800909195
:102E000080009068909380003CCFCF93DF93DC01EB
:102E10001C96ED91FC911D9784913196E491681771
:102E200010F0E61720F4FA01CA0108961DC070E000
:102E3000681B7109660F771F660F771F660F771F74
:102E40009B012E5F3F4FEA01665F7F4F1C96ED911D
:102E5000FC911D97E20FF31FE491E9932F5F3F4F21
:102E60002617370799F70CC01192E817F907E1F711
:102E700007C0808180958193E417F507D1F708C0DA
:102E800051968C91882321F0FA01485F5F4FF1CF72
:102E9000DF91CF910895FC01758764870895CF92E3
:102EA000DF92EF92FF920F931F93CF93DF93CDB7F3
:102EB000DEB728970FB6F894DEBF0FBECDBF7C01FA
:102EC000D62EC42EAE014F5F5F4F622F9EDF8E0164
:102ED0000F5F1F4F21E04C2D6D2DC7012FD128967C
:102EE0000FB6F894DEBF0FBECDBFDF91CF911F911B
:102EF0000F91FF90EF90DF90CF900895462FDC0167
:102F00001896ED91FC91199720E030E060E2099568
:102F100008959A01DC011896ED91FC911997462FBE
:102F200067E109950895CF93DF931F92CDB7DEB780
:102F30006983AE014F5F5F4F61E0EBDF0F90DF9180
:102F4000CF910895462FDC011696ED91FC911797CD
:102F500020E030E065E109950895462FDC011696E2
:102F6000ED91FC91179720E030E066E10995089516
:102F70009A01DC011696ED91FC911797462F67E1B7
:102F800009950895DC011696ED91FC91179720E0C4
:102F900030E040E068E109950895DC011696ED9176
:102FA000FC91179720E030E040E069E10995089531
:102FB000EF92FF920F931F93CF93DF931F92CDB7A2
:102FC000DEB77C018B01D8016C916731C1F018F438
:102FD000653130F436C06A31F0F06E3F49F131C0EE
:102FE000F80141814983D7011696ED91FC9117971D
:102FF00020E030E0C70109950E5F1F4FE4CFF801D4
:1030000081818983AE014F5F5F4F61E0C701B0DF0F
:103010000E5F1F4FD8CF0F5F1F4FD7011696ED9150
:10302000FC91179720E030E040E0C7010995CBCF35
:10303000F8014181498369E2C7011BD20E5F1F4F2E
:10304000C2CF0F90DF91CF911F910F91FF90EF9022
:103050000895EF92FF920F931F93CF93DF938C010C
:10306000C62FD42F7901663191F028F46431C1F074
:10307000653131F020C0673189F06A31E0F410C069
:1030800060E03CDF6D2FC8014EDF81E015C061E0DC
:1030900035DF6D2FC80147DF81E00EC061E02EDF14
:1030A000D8011896ED91FC91199797014D2F6C2F2F
:1030B000C801099501C080E0DF91CF911F910F9168
:1030C000FF90EF900895FC0171836083FB012289DA
:1030D000FC01208B0895CF93DF93EC01EA85FB85FB
:1030E00020E030E040E068E20995EE81FF8120E0D9
:1030F00030E040E064E1CE01099541E06BE4CE01AF
:10310000B8D1E881F981448169E2CE01B2D140E0D1
:103110006BE4CE01AED1E881F981448169E2CE0150
:10312000A8D141E06BE4CE01A4D1E881F9814581C9
:1031300069E2CE019ED1DF91CF9108950F931F9345
:10314000CF93DF9300D000D01F92CDB7DEB76C8352
:103150004D832B831A830983DC011496ED91FC9136
:1031600015979E012F5F3F4F41E06FE009950F904B
:103170000F900F900F900F90DF91CF911F910F91B3
:103180000895DC011496ED91FC91159720E030E054
:1031900040E069E009950895DC011496ED91FC91F9
:1031A000159720E030E040E06AE009950895462F49
:1031B000DC011496ED91FC91159720E030E06BE076
:1031C00009950895462FDC011496ED91FC91159711
:1031D00020E030E06DE009950895CF92DF92FF92F4
:1031E0000F931F93CF93DF9300D000D01F92CDB7E2
:1031F000DEB78C011C8281E08B837A836983D801DE
:10320000ED91FC91F1881D82F801A081B181C4800B
:10321000D5809E012F5F3F4F50964C916FE0C801C3
:10322000F60109959D819F5F9D839F1568F30F901F
:103230000F900F900F900F90DF91CF911F910F91F2
:10324000FF90DF90CF900895CF93DF93CDB7DEB797
:1032500028970FB6F894DEBF0FBECDBFBE016F5FDB
:103260007F4F28E0FB0111922A95E9F7B6DF2896F7
:103270000FB6F894DEBF0FBECDBFDF91CF9108959A
:103280002F923F924F925F926F927F928F929F9276
:10329000AF92BF92CF92DF92EF92FF920F931F9364
:1032A000CF93DF9300D01F92CDB7DEB78C01342EC1
:1032B00049016D30F9F028F46A3049F06B3071F053
:1032C000B8C06E3089F16F3009F439C0B2C003DF85
:1032D00063E572E0C8016CDE81E0ACC0411105C05D
:1032E0006EE472E065DE81E0A5C069E472E060DE54
:1032F00081E0A0C041110CC060E472E059DED80149
:10330000ED91FC911197828950968C9381E092C047
:1033100067E372E04DDED801ED91FC91119783894E
:1033200050968C9381E086C02DDE61E8C8010ADEEC
:10333000632DC80112DEC80130DE81E07BC022DED1
:10334000F4018381880FD80150962C90280E548068
:10335000550C550C550C0F2EF3E3EF2EF4E0FF2E19
:10336000F02D0F2EF7E04F2EF02D450C0F2EFFE223
:10337000AF2EF4E0BF2EF02DF401F281F983D401D9
:10338000CD90DC90BFEFCB1ADB0A6F2E722C65E17B
:10339000C801D8DD672DC801E0DD61E0670DC80117
:1033A000DCDD65E7C801CEDD652DC801D6DD642D05
:1033B000C801D3DD6CE5C801C5DD9501DB82CA8299
:1033C000F9018A819B810197DC015C91AA81BB8113
:1033D0004C91C901809650FF02C060EF01C060E0CF
:1033E00040FD6F6060833496569546958E179F0713
:1033F00091F7EA81FB813296FB83EA832F5F3F4F8F
:103400002E153F05E9F6A50160E2C801B1DD739410
:1034100073946A94F8E0CF0ED11C6110B8CF898103
:10342000880F280E3A943110A7CFC801B6DD81E08D
:1034300001C080E00F900F900F90DF91CF911F910E
:103440000F91FF90EF90DF90CF90BF90AF909F9043
:103450008F907F906F905F904F903F902F90089546
:10346000693029F46FE172E02EDE81E0089508CF23
:103470000895DC011A96ED91FC911B9720E030E055
:103480000995089580E00895FC011182108282E47C
:103490009AE1958384839783868391878087938736
:1034A0008287118A148A158A8FEF828B878B089501
:1034B000AF92BF92CF92DF92EF92FF920F931F9342
:1034C000CF93DF93EC015B016A017901DDDFBD82FF
:1034D000AC82DF82CE82F986E8861B870A87CE011E
:1034E00050DEDF91CF911F910F91FF90EF90DF9011
:1034F000CF90BF90AF9008956C3268F46A3290F428
:103500006832A1F0693281F4642F70E080E090E0CD
:10351000D3D381E00895693469F06A3429F44423EF
:1035200071F0139A81E0089580E008950C9A0B9A47
:1035300081E00895442331F0149A81E008951398AE
:1035400081E00895149881E00895EF92FF920F931F
:103550001F93CF93DF9300D0CDB7DEB779016831E9
:1035600009F43EC0B0F46431B9F1673121F5442368
:1035700071F04150042F10E00F5F1F4F020F131F17
:10358000D7018D917D0186D3E016F106C9F781E060
:1035900009C0693191F0603271F4442309F45CC0D0
:1035A000139A81E00F900F90DF91CF911F910F91AF
:1035B000FF90EF90089580E0F5CFFC01A081B181EC
:1035C0000285138520E030E013964C916CE2F801FF
:1035D0000995149A81E0E6CF149A4ED381E0E2CFA8
:1035E000DC01ED91FC91E485E150E33098F5F0E0E9
:1035F000EA55FD4F108189839A833ED389819A8150
:10360000DC01ED91FC9137812CB52C7F363440F0F4
:103610003C3828F42CBD2DB52E7F2DBD05C0216072
:103620002CBD2DB521602DBD2CB5237F212B2CBDAC
:103630002CB52F7D2CBD1498FC01A081B181028591
:10364000138520E030E012964C916CE2F801099568
:1036500081E0A8CF10E0CFCF139881E0A3CF84986A
:10366000869A859A879A8C988E988D9A8F9A0895C3
:10367000849A8698859A879A8C988E988D9A8F9A34
:10368000089584988698859A879A8C988E988D9AB2
:103690008F980895849A869A859887988C988E9AA0
:1036A0008D988F98089580FF0BC0899A81FF0BC079
:1036B000889A82FF0BC08A9A83FD0BC08B9808956D
:1036C000899881FDF5CF889882FDF5CF8A9883FF90
:1036D000F5CF8B9A0895C3DF80917C00807F846052
:1036E00080937C00899888988A988B988FE29BE1D8
:1036F00090938A048093890488E39BE190938C04DF
:1037000080938B0481E49BE190938E0480938D04DD
:103710008AE49BE19093900480938F0460E070E0D2
:103720004FEF5FEF80E090E09B01220F331F220FED
:10373000331F220F331F260F371FF901E80FF91F20
:10374000EE0FFF1FED56FB4F5183408301968930EA
:10375000910599F76F5F7F4F6330710519F780917D
:103760007A00886080937A0008958FB7F894A62F26
:10377000B0E0FD01EE0FFF1FE954FB4F0190F08117
:10378000E02DAA0FBB1FA753BB4F2D913C91119762
:1037900011961C921E924091840B5091850B8FBF05
:1037A00021153105D9F4EF3F8FEFF807A1F0EE0FA7
:1037B000FF1FE452FC4F85919491863091056CF483
:1037C00002C0569547956A95E2F740FF04C08330E2
:1037D00091050CF0089580E090E00895C9010895E6
:1037E0002FB7F894E62FF0E0EE0FFF1FED56FB4FDA
:1037F000808191812FBF08952FB7F894E62FF0E0D4
:10380000EE0FFF1FEB55FB4F808191812FBF089575
:103810001F920F920FB60F9211240BB60F922F9397
:103820003F934F935F936F937F938F939F93AF9348
:10383000BF93CF93DF93EF93FF93E0919104E23036
:1038400088F1E23009F44EC0E33009F463C0F0E0DF
:10385000EE0FFF1FE757FB4F0190F081E02D099518
:1038600080917C00E0919104F0E0E755FD4F90815C
:103870009F70807F892B80937C00FF91EF91DF9177
:10388000CF91BF91AF919F918F917F916F915F91F8
:103890004F913F912F910F900BBE0F900FBE0F9045
:1038A0001F9018958091EF04A82FB0E02091780028
:1038B00030917900AA0FBB1FA051BB4F11963C93CA
:1038C0002E938F5F8093EF04E130E1F1E091920459
:1038D000F0E0EA5FFE4F9081891709F495C0E0E0BF
:1038E000F0E0B6CF80917800909179002091F004BB
:1038F0003091F104820F931F9093F1048093F004B0
:103900008091EF048F5F8093EF04823049F1E2E011
:10391000F0E09ECF80917800909179002091F004A2
:103920003091F104820F931F9093F1048093F0047F
:103930008091EF048F5F8093EF04823061F1E3E0C8
:10394000F0E086CF90919204292F30E0F901EA5FF0
:10395000FE4F4081841709F47EC0E1E0F0E078CFAB
:10396000E0919204F0E08091F0049091F10496953A
:103970008795EE0FFF1FED56FB4F918380831092CA
:10398000EF041092F1041092F00483E0809391040C
:10399000E3E0F0E05DCF80919204E82FF0E0209129
:1039A000F0043091F10436952795EE0FFF1FEB558B
:1039B000FB4F318320831092EF041092F104109298
:1039C000F0041092F3041092F2041092F504109295
:1039D000F404109291048F5F809392048930A1F1D6
:1039E00080FF22C0899A282F2270982F94708870A7
:1039F000222319F1889A9923F1F08A9A81111FC024
:103A00008B98E091910423CF1092EF048091F00401
:103A10009091F1049093EE048093ED0481E0809303
:103A20009104E1E0F0E014CF282F2270982F9470D9
:103A300088708998DDCF8A98E1CF8898DCCF8B9AFF
:103A4000E0919104F0E004CF1092920480E090E0C5
:103A500020E08998CDCF4091F0045091F10460911D
:103A6000F2047091F3044617570720F44091F204D2
:103A70005091F3046091F4047091F50446175707D0
:103A800020F44091F4045091F5046091ED0470919C
:103A9000EE04460F571FB9016E5E7F4FDB01AA0F80
:103AA000BB1FAD56BB4F11965C934E934091840B58
:103AB0005091850B092E02C0569547950A94E2F75E
:103AC00040FF1DC082E080939104220F331FD90173
:103AD000A552BB4F1D921C9281E080831092F1048D
:103AE0001092F0041092F3041092F2041092F50474
:103AF0001092F404E2E0F0E01092EF04A9CE4D91B0
:103B00005C91119746305105CCF0220F331FE9012B
:103B1000C552DB4F48815981452B59F58FEF9FEFF7
:103B200011969C938E9381E090E09983888383E043
:103B3000808310929104E0E0F0E0DECF4D915C9143
:103B400046305105DCF0220F331FD901A552BB4F7F
:103B50004D915C91452B91F0660F771FFB01ED565F
:103B6000FB4F80819181F901E753FB4F9183808363
:103B7000E0CF4D915C914630510574F781E0808330
:103B8000890F893021F0809392048DDDD2CF10927D
:103B9000920480E0FACF249A259A269A2C9A2D9A9C
:103BA0002E9A389A399A3A9A409841984298849A2B
:103BB000869A859A879A819A809A829A839A899816
:103BC00088988A988B988C9A8E9A8D9A8F9A559805
:103BD000579A569A3B9A3C9A3D9A0895ACE7B0E0C2
:103BE0001C92EAE7F0E010828081866080838C91ED
:103BF00080648C9380818068808308951FBA10BE92
:103C00001CBC1DBA1092680010927A0010926E00CF
:103C100010926F0010927000109271001092C90003
:103C20001092BC0012B815B818B81BB81EB811BA5B
:103C300011B814B817B81AB81DB810BA0895F89486
:103C400084B7877F84BF809160008061809360002B
:103C5000109260008FE19EE40197F1F700C0000030
:103C6000CDDF98E088E10FB6F894A89580936000C6
:103C70000FBE90936000FFCF9FB7F894209A289AC8
:103C80008CB580618CBD8CB580648CBD219A229AE4
:103C90009FBF08958EBD0DB407FEFDCF8EB508956C
:103CA0002FB7F89460912B0470912C0480912D040F
:103CB00090912E042FBF089561157105810591051E
:103CC00061F0DC01CB01EFE9FFE03197F1F700C0D3
:103CD00000000197A109B109B1F708951F920F9251
:103CE0000FB60F9211240F900FBE0F901F901895D2
:103CF0001F920F920FB60F9211240BB60F922F93B3
:103D00003F938F939F93EF93FF939FB7F894809186
:103D100018059FBF811110C088E48093C900FF91EE
:103D2000EF919F918F913F912F910F900BBE0F902C
:103D30000FBE0F901F901895E0911605F091170592
:103D40009191F0931705E0931605E451F54059F071
:103D50002FB7F894809118058150809318052FBFD4
:103D60009093CE00DCCF26EF34E0309317052093FC
:103D70001605EECFCF93DF93EC016BD1CE01DF912F
:103D8000CF912AC3CF93DF93EC01B8D4CE01DF915A
:103D9000CF9155C10F931F93CF93DF938C01C0E058
:103DA000D0E09E0140E064E0C80147D26F32710567
:103DB0008105910551F42196CA30D10591F781E032
:103DC000DF91CF911F910F91089580E0DF91CF9106
:103DD0001F910F91089589E195E015C26F927F922E
:103DE0008F929F92AF92BF92CF92EF92FF920F93DA
:103DF0001F93CF93DF93C12CE12CF12C870120E09E
:103E000030E040E060E089E195E03AD6C0E0D0E003
:103E1000C12CE12CF12C87019E0141E060E089E199
:103E200095E02ED62196CF30D10591F7812C912C9B
:103E300087EC92E03C0160947094C7ECD2E05301AF
:103E4000A80CB91CE990F12C00E010E095012C0FB2
:103E50003D1FC12C42E060E089E195E011D682E08F
:103E6000C73DD80779F7E0E18E0E911CF0EF8F1671
:103E7000910419F787E8682E712C430187E8881AA6
:103E8000910898EBA92E92E0B92EE401F501E1909A
:103E90005F01F12C00E010E0C12C9E0143E060E0E6
:103EA00089E195E0EDD52196F7ECAF16F2E0BF067B
:103EB00069F78FE0880E911C8614970411F734017E
:103EC000E7E86E0E711CF0E76F16F8E07F06A9F6C2
:103ED000DF91CF911F910F91FF90EF90CF90BF9006
:103EE000AF909F908F907F906F9008956F927F9288
:103EF0008F929F92AF92BF92CF92EF92FF920F93C9
:103F00001F93CF93DF9335E1632E712C430185E13D
:103F1000881A910825EBA22E22E0B22EE401F501C9
:103F2000E1905F01F12C00E010E0C12C9E0140E027
:103F300061E089E195E0A4D52196F8EBAF16F2E0B7
:103F4000BF0669F783E0880E911C8614970411F769
:103F50003401E5E16E0E711CF0E56F16F1E07F06AD
:103F6000A9F68FE3882E912CE401EF975E01E7E03C
:103F7000AE0EB11CC12C10E8E12EF12C00E010E0D7
:103F80009E0141E061E089E195E07AD52196CA156C
:103F9000DB0581F7C815D90549F74E01FFE38F0E00
:103FA000911C85EB881682E09806F1F6DF91CF919F
:103FB0001F910F91FF90EF90CF90BF90AF909F9087
:103FC0008F907F906F900895AF92BF92CF92EF92B3
:103FD000FF920F931F93CF93DF938DEAA82E82E079
:103FE000B82EC0E0D0E0F501E1905F01F12C00E0D7
:103FF00010E0C12C9E0140E063E089E195E040D5EE
:104000002196C830D10579F7E12CF12C870120E009
:1040100030E041E063E089E195E032D521E030E035
:1040200041E063E089E195E02BD5DF91CF911F91CD
:104030000F91FF90EF90CF90BF90AF900895CF93E6
:10404000DF93EC01CBDECE0151DFCE01DF91CF91CA
:10405000BBCF7F928F929F92AF92BF92CF92DF920F
:10406000EF92FF920F931F93CF93DF93CDB7DEB7FD
:1040700027970FB6F894DEBF0FBECDBF6C0165E089
:1040800059D1BB24B394EB2C1E821D821F8299242C
:1040900093949B821C82F12C01E010E020E03E8191
:1040A00040E060E0C60157D18FE0E82E0B811C8113
:1040B0002D813E814F8160E0C6014DD180EFE82E19
:1040C0000B811C812D813E814F8160E0C60143D16F
:1040D00089EEE82E87E0F82E0B811C812D813E8130
:1040E0004F8160E0C60137D18BE3E82EFF24F394C3
:1040F0000B811C812D813E814F8161E0C6012BD156
:1041000086E7E82E92E0F92E0B811C812D813E81FD
:104110004F8161E0C6011FD189E0E82E89831A82B0
:1041200080E9282F82E08B839C82F12C02E011E051
:1041300031E04F8162E0C6010ED1AA24AA942A2D53
:10414000E980FA800B811C8133E04F8162E0C60177
:1041500002D11E821D82E980FA800B811C8120E041
:104160003E814F8162E0C601F6D02A2DE980FA80B7
:104170000B811C8133E04F8162E0C601ECD01E82CE
:104180001D82E980FA800B811C8120E03E814F81F5
:1041900062E0C601E0D088E0E82E2B2D9B821C82D5
:1041A000F12C01E010E030E04F8163E0C601D3D094
:1041B00082E0E82E1E821D820B811C8120E03E8160
:1041C0004F8163E0C601C7D08AE0E82E8FE2282F36
:1041D0000B811C8130E04F8164E0C601BCD0279682
:1041E0000FB6F894DEBF0FBECDBFDF91CF911F9108
:1041F0000F91FF90EF90DF90CF90BF90AF909F9086
:104200008F907F900895CF93DF93EC01FC0174961B
:104210009C01245C3F4FD9011992119211921D9279
:104220001D92E217F307C1F7FC01EC59FF4F108212
:1042300031961082DF91CF910895CF93DF9350E0B4
:10424000FA0181E2689FE00DF11D1124EE0FFF1FBE
:10425000EC57FA4F82E4689FB0011124EB01CC5770
:10426000DA4FA381B48189819A81A80FB91FFA011D
:10427000EE0FFF1FEE0FFF1FEE0FFF1FE41BF50BEE
:104280006E0F7F1FFB01EC57FA4F9389913009F4B1
:1042900045C010F1923069F09330C1F4C901880F24
:1042A000991F880F991F8A0F9B1FDF91CF910C9444
:1042B000DF85C901880F991F8A0F9B1F0E94E48523
:1042C000BC0180E090E0DF91CF91089560E070E064
:1042D000CB01DF91CF910895A90156954795569549
:1042E000479556954795842F880F880F880FC22FC2
:1042F000C81BCD01840F911D0E94D785682F70E0E7
:1043000002C075956795CA95E2F761707727072E09
:10431000000C880B990BDF91CF910895CD01820F8E
:10432000931F0E94D785682F70E080E090E0DF91B6
:10433000CF910895FC01EA59FF4F9081262F30E07C
:10434000290F311D2630310524F4960F908381E02A
:10435000089580E00895EF92FF920F931F93CF93FB
:10436000DF93CDB7DEB727970FB6F894DEBF0FBE49
:10437000CDBFE982FA820B831C832D833E8382E4C6
:10438000689FF0011124DF01AC57BA4F8C91873040
:1043900008F597E0899FE00DF11D1124EC57FA4FC5
:1043A000038B148B2D813E81368B258B29813A819D
:1043B000328B218B8F5F8C9381E027960FB6F89418
:1043C000DEBF0FBECDBFDF91CF911F910F91FF9048
:1043D000EF90089580E0F1CF2F923F924F925F923D
:1043E0006F927F928F929F92AF92BF92CF92DF9205
:1043F000EF92FF920F931F93CF93DF9300D000D0E3
:1044000000D0CDB7DEB79C0129593F4F3A832983AD
:10441000D9011D921D921D921C921397FC01EA591D
:10442000FF4F2080312C2114310409F4F1C0210107
:10443000B1E04B1A510804E815E066246394712C2E
:10444000812C912CC12CD12C760192E4A92ED8017B
:10445000BC902B2D30E02115310509F47DC0F80109
:1044600080E090E01E830D831C830B8312C0AB8120
:10447000BC8114961C921E921397019637964D811B
:104480005E814E5F5F4F5E834D838217930709F411
:1044900061C0009761F344854130C1F0B8F142300A
:1044A00021F1433051F762857385660F771F660FE0
:1044B000771FAD81BE8111964D915C911297460F89
:1044C000571F14965C934E931397D7CFAD81BE813F
:1044D00011966D917C91129742855385460F571F17
:1044E00014965C934E931397C8CF62857385660FBD
:1044F000771FAD81BE8111964D915C911297460F49
:10450000571F14965C934E931397B7CF42855385EC
:10451000569547955695479556954795AD81BE81D9
:1045200011966D917C9112978A01060F171F618970
:1045300072896770772741E050E0672B11F440E003
:1045400050E0400F511FAD81BE8114965C934E9395
:10455000139793CF0B811C81BA948B2D90E0A89C6C
:10456000F001A99CF00D112457E0B59EE00DF11D5E
:104570001124EC57FA4F2389213009F4A7C008F41D
:104580007EC0223009F461C0233009F05AC051E2E4
:10459000589D9001599D300D1124D901A80FB91FC4
:1045A000AA0FBB1FAC57BA4F81899289880F991FF8
:1045B000880F991F13964D915C911497480F591FBE
:1045C00060E070E0C3018414950464F4F801ED5BCD
:1045D000FF4FD80111962D913C911297240F351F52
:1045E00031832083C40ED51EE61EF71EE981FA81B1
:1045F000C082D182E282F382FFEF8F1A9F0A0E5BA4
:104600001F4F2FEF621A720A821593050CF41FCF09
:1046100026960FB6F894DEBF0FBECDBFDF91CF91C7
:104620001F910F91FF90EF90DF90CF90BF90AF90D0
:104630009F908F907F906F905F904F903F902F90C2
:10464000089540E050E0BA01BDCF41E2489D90019D
:10465000499D300D1124D901A80FB91FAA0FBB1F06
:10466000AC57BA4F81899289880F991F13964D9143
:104670005C911497480F591F60E070E0A3CF218927
:104680003289B9016770772741E050E0672B11F458
:1046900040E050E036952795369527953695279535
:1046A000420F531FA1E2A89DB001A99D700D1124D6
:1046B000FB01E80FF91FEE0FFF1FEC57FA4F2381A4
:1046C0003481420F531F60E070E07CCFB1E2B89DAF
:1046D0009001B99D300D1124D901A80FB91FAA0F5F
:1046E000BB1FAC57BA4F13968D919C91149741897B
:1046F0005289480F591F60E070E064CF2F923F92BB
:104700004F925F926F927F928F929F92AF92BF92E1
:10471000CF92DF92EF92FF920F931F93CF93DF938D
:10472000CDB7DEB729970FB6F894DEBF0FBECDBF69
:104730008A599F4F9F838E83FC018081882309F4CF
:10474000ABC06B8324E835E03A8329831D821C8249
:10475000E981FA812081222309F488C07796F987BC
:10476000E887A980BA80C12CD12CE885F9853397D8
:104770008081882321F03B81332309F466C0F50151
:1047800063807480E981FA8181819281680E791E4B
:10479000E885F985329700811181E885F98536979A
:1047A000E080F180E885F98534978081813009F4D3
:1047B0008CC0A0F1823009F4ACC0833009F045C050
:1047C0001801412C512C4701F1E08F1A910821E08A
:1047D000E21A20ECF20AEE0CFF1CEE0CFF1C6E0C31
:1047E0007F1C0DC0480D591D611D711DC3010E9424
:1047F000FB85F1E08F1A910824E0621A71083FEFFF
:1048000083169306F9F0E885F9858081B201A1014C
:104810008111E8CFC3010E94FB85EBCFF694E794AA
:10482000F694E794F694E794C3010196E80EF91E16
:10483000602FC3010E94E9852FEF621A720A6E147D
:104840007F04B1F7E981FA812081FFEFCF1ADF0AF7
:1048500032E0A30EB11C88859985079699878887D1
:10486000822F90E0C816D9060CF47FCF2C813D81B1
:104870002F5F3F4F3D832C8329813A812E5B3F4F31
:104880003A832983EE81FF81808190E02C813D81F4
:10489000281739070CF45CCF29960FB6F894DEBFC1
:1048A0000FBECDBFDF91CF911F910F91FF90EF9081
:1048B000DF90CF90BF90AF909F908F907F906F9040
:1048C0005F904F903F902F90089543018E0C9F1C56
:1048D00091E0891A9108E1E0EE1AF108E00EF1E0AA
:1048E0006F1A710808C06E2DC4010E94E985F1E0BD
:1048F0008F1A9108EA948614970409F4A3CFE885E7
:10490000F98580818111EFCF602FC4010E94E98574
:10491000EECFC70181509048880F991F680E791E0D
:10492000E00EF11E31E0E31AF108480181E0881A37
:1049300091080AC0B701C3010E940386F2E06F1A12
:10494000710821E0E21AF108E814F90409F47ACFB9
:10495000E885F98580818111EDCFB801C3010E94FE
:104960000386ECCF0F931F93CF938C010B591F4FEE
:10497000F801C081319720812C1799F1CF5FC431A4
:10498000E0F42C2F30E0FC01E20FF31F40814230B5
:10499000E8F0423059F4220F331FFC01E20FF31FFD
:1049A0006489758984AD95AD0E940386F801C08342
:1049B00081E0CF911F910F91089520E030E0C0E099
:1049C000FC01E20FF31F4081423018F7220F331F22
:1049D000FC01E20FF31F648984AD95AD0E94E98567
:1049E000E5CF80E0CF911F910F9108958F929F9214
:1049F000AF92BF92CF92DF92EF92FF920F931F93ED
:104A0000CF93DF93EC014B015A01E22E6C0184E657
:104A1000C80ED11CF601F080F394F3E1FF1560F1AC
:104A20000F2D10E0FE01EB59FF4F80818F15D9F05B
:104A3000FE01E00FF11FE082000F111FC00FD11F18
:104A4000BD8AAC8A9DAE8CAEF601F082DF91CF912B
:104A50001F910F91FF90EF90DF90CF90BF90AF909C
:104A60009F908F900895CE017DDF8111E1CFCE011F
:104A700079DF8823C1F3DCCF00E010E0F12CD2CF46
:104A80004F925F926F927F928F929F92AF92BF925E
:104A9000CF92DF92EF92FF920F931F93CF93DF930A
:104AA00000D0CDB7DEB75C01D62E942E2701380199
:104AB000A42FB0E0FD0181E2689FE00DF11D1124FB
:104AC000EE0FFF1FEC57FA4F82E4689FA0011124FC
:104AD0008A010C571A4F83819481F8016181728198
:104AE000FB01E80FF91FE13080E1F807A0F5CD01E7
:104AF000880F991F880F991F880F991F8A1B9B0B7E
:104B0000480F591FDA01AC57BA4F53968C91813038
:104B1000B9F108F44DC0823009F43EC08330D9F4B5
:104B2000C110A4C0C901880F991F880F991FB30134
:104B3000A2018E0F9F1F29833A830E94FB85298142
:104B40003A81492D6D2DC50178DB21E0641575058D
:104B50008605970509F020E0822F0F900F90DF91D6
:104B6000CF911F910F91FF90EF90DF90CF90BF906A
:104B7000AF909F908F907F906F905F904F9008952F
:104B8000CC2009F443C0BF01620F731F21E0A201D2
:104B9000C5012CDF21E0E0CFCC2009F44DC0BF01DE
:104BA000620F731F22E0A201C50120DF21E0D4CFF4
:104BB000A901569547955695479556954795842F43
:104BC000880F880F880F022F081B4F01840E911C3D
:104BD000C4010E94D78541E050E060E070E004C06D
:104BE000440F551F661F771F0A95D2F745284628A0
:104BF0004728C1F1182F142BCC2049F1412F50E048
:104C000020E0B401C501F2DE21E0A6CF8F01020F42
:104C1000131F642DC8010E94E985C8010E94D78531
:104C2000482F50E060E070E021E04415550566052E
:104C3000770509F090CF90CFC901880F991FB20175
:104C40008E0F9F1F29833A830E94038678CF612F9E
:104C5000C4010E94E985C4010E94D78521E0811327
:104C60007ACF7ACF4095182F1423C6CFBF01620F99
:104C7000731F23E0A201C501B9DE21E06DCF1F93B0
:104C8000CF93DF93C82FD62F86E89BE00E940B5668
:104C9000882321F0DF91CF911F9108958EE698E04F
:104CA0000E9461398111F6CF6C2F80E997E0F3D62D
:104CB00081111CC0D111EECFC63109F460C0C432DD
:104CC00049F720E040E066E089E69BE00E944A4721
:104CD00086E89BE00E948A56482F440F66E089E6EA
:104CE0009BE0DF91CF911F910C941147DD2391F050
:104CF000C63161F0C43271F621E041E066E089E638
:104D00009BE0DF91CF911F910C944A4721E041E055
:104D100062E0F5CF86E89BE00E94BB55D82FC531F5
:104D200009F466C008F040C0CD3009F47BC0CE3035
:104D300009F0B0CF49E0682F86E89BE00E942E5E24
:104D400041E0482769E086E89BE00E94B568C82FEB
:104D500049E06D2F86E89BE00E942E5ED9E081112C
:104D60009CC010E064E0C13009F4A4C04C2F6D2F4A
:104D70008EED99E0DF91CF911F910C94EF4120E0EF
:104D800040E062E089E69BE00E944A4786E89BE0BB
:104D90000E94BB554BE0682F86E89BE00E942E5E88
:104DA000482F440F62E09BCFC63109F455C0C4328E
:104DB00009F070CF86E89BE00E948A5661E0682780
:104DC00086E89BE00E946368C82F86E89BE00E940B
:104DD0008A5681116AC0D0E020E040E066E089E6B2
:104DE0009BE00E944A47C13009F480C0D7E0BECFA3
:104DF0004AE0682F86E89BE00E942E5E41E048274B
:104E00006AE086E89BE00E94B568C82F4AE06D2FF3
:104E100086E89BE00E942E5EDAE0811141C010E03E
:104E200063E0A1CF48E0682F86E89BE00E942E5EF9
:104E300041E0482768E086E89BE00E94B568C82FFB
:104E400048E06D2F86E89BE00E942E5ED8E081113D
:104E50002EC010E065E087CF4BE0682F86E89BE02E
:104E60000E942E5E41E048276BE086E89BE00E94AE
:104E7000B568C82F4BE06D2F86E89BE00E942E5E40
:104E8000811111C010E020E040E062E089E69BE083
:104E90000E944A47DBE062E066CF12E064E063CF45
:104EA00012E063E060CF12E0EECFD2E095CF12E0E7
:104EB00065E059CF412F89E69BE00E94114786E8C3
:104EC0009BE00E948A5681110FC022E041E050E031
:104ED000111102C040E050E06D2F8EED99E0DF919E
:104EE000CF911F910C942C4221E0F0CF4D2F66E022
:104EF00089E69BE00E94114741E050E0D11102C0D9
:104F000040E050E020E067E0E8CFCF93DF93C82F88
:104F1000D62F86E89BE00E940B56882319F0DF917C
:104F2000CF9108958EE698E00E946139811130C0DA
:104F3000D111F5CFCB3109F45CC0CC31B1F1C33123
:104F400071F786E89BE00E948857882309F459C0CE
:104F500086E89BE00E948D5781116AC06DE089E66A
:104F60009BE00E946A47823009F48AC042E06DE00B
:104F700089E69BE00E94114786E89BE00E948D57DE
:104F800041E0682F8EED99E0DF91CF910C94373F8F
:104F900086E89BE00E948857882309F4C0CFC3317C
:104FA00009F0BDCFDD2369F2BACF6DE089E69BE061
:104FB0000E946A47C82F40E06FE089E69BE00E94AC
:104FC000114740E06EE089E69BE00E941147C11165
:104FD00027C0C4E06DE089E69BE00E946A47482F45
:104FE00050E020E06C2F8EED99E0DF91CF910C9492
:104FF0002C4242E06FE089E69BE00E941147C3E04B
:10500000E9CF6DE089E69BE00E946A47823081F13A
:1050100042E06DE089E69BE00E941147C5E0DACFEF
:1050200040E06DE089E69BE00E941147C4E0D2CFEA
:1050300086E89BE00E948D57813009F48FCF6DE0A8
:1050400089E69BE00E946A47823031F142E06DE0E0
:1050500089E69BE00E94114786E89BE00E948D57FD
:1050600041E0682F8EED99E0DF91CF910C94D43E12
:1050700040E06DE089E69BE00E941147C5E0AACFC1
:1050800040E06DE089E69BE00E94114786E89BE0E6
:105090000E948D5740E075CF40E06DE089E69BE0CF
:1050A0000E94114786E89BE00E948D5740E0D9CFCF
:1050B000EF92FF920F931F93CF93DF9300D0CDB762
:1050C000DEB7F82EE62E682F80E997E0E4D4811150
:1050D00009C00F900F90DF91CF911F910F91FF901A
:1050E000EF9008958EE698E00E9461398111F1CF2A
:1050F00086E89BE00E94BB55082F11E08EE1F81274
:1051000010E06DE180E997E028D3811191C086E835
:105110009BE00E940B568130D1F581E0E81609F43E
:105120005DC061E086E89BE0112309F45CC00E9449
:10513000505661E0680F41E086E89BE00E941271E2
:1051400061E086E89BE00E945056482F86E89BE08D
:105150004A830E94BB5561E0680F20E04A818EEDD2
:1051600099E00E944940402F61E089E69BE00E945F
:10517000974742E060E089E69BE00F900F90DF9157
:10518000CF911F910F91FF90EF900C94114766E122
:1051900080E997E0E2D28111BCC0E110B4C060E0C8
:1051A00086E89BE0112309F411C10E94505661E08A
:1051B000680F40E086E89BE00E941271823008F0A0
:1051C000FEC060E086E89BE00E945056482F50E009
:1051D00020E06CE08EED99E00E942C4240E011232B
:1051E00029F160E0C8CF0E9450566FEF680F41E090
:1051F00086E89BE00E94127161E086E89BE00E94D5
:105200005056482F86E89BE04A830E94BB5561E0D8
:10521000680F20E04A818EED99E00E944940402FBE
:1052200061E089E69BE00E94974742E061E0A3CFFE
:105230006EE180E997E091D2882309F468CF87E096
:105240009CE09F938F930E94068386E89BE00E94D8
:105250000B560F900F9081112EC086E89BE00E94A4
:10526000BB55482F61E086E89BE00E94FB678130D8
:10527000A9F1482F6EE08EED99E00E94EF4140E0E9
:1052800061E089E69BE00E94114740E060E089E62A
:105290009BE00E9411476EE180E997E0CED36DE17B
:1052A00080E997E00F900F90DF91CF911F910F91C0
:1052B000FF90EF90C2C340E061E089E69BE00E946E
:1052C000114740E060E089E69BE00E94114740E022
:1052D00060E086E89BE00E94FB67DDCF8FEE9BE0FD
:1052E0009F938F930E94068342E061E089E69BE0F2
:1052F0000E94114742E060E089E69BE00E9411476E
:105300000F900F90C8CF41E0112309F48FCF60E0D8
:1053100032CF66E180E997E020D2882309F4D9CE24
:10532000E11059C0112309F45BC086E89BE00E949C
:10533000E65661E0680F40E086E89BE00E948C72D0
:10534000823008F061C040E060E089E69BE00E94A6
:10535000114766E180E997E070D386E89BE00E9400
:10536000E656082F86E89BE00E941056282F86E814
:105370009BE029830E94F255482F86E89BE04A83F0
:105380000E94ED5561E0680F29814A818EED99E018
:105390000E94973A86E89BE00E94E656482F880FC5
:1053A000550B20E06DE08EED99E00F900F90DF91AE
:1053B000CF911F910F91FF90EF900C942C42482FAA
:1053C0006CE08EED99E00E94EF4108CF0E945056AC
:1053D0006FEF680FEECE42E0111103CF61E0CBCE4C
:1053E00086E89BE00E94E6566FEF680F40E086E893
:1053F0009BE00E948C72823038F440E061E089E6E4
:105400009BE00E941147A5CF482F6DE08EED99E0FB
:105410000F900F90DF91CF911F910F91FF90EF9020
:105420000C94EF410F931F93CF93DF9300D0CDB730
:10543000DEB7662339F00F900F90DF91CF911F9167
:105440000F910895082F682F80E997E024D38823CF
:1054500091F38EE698E00E9461398111ECCF602FC4
:1054600080E997E02CD3082F86E89BE00E940B563A
:1054700081113EC040E0602F86E89BE00E94A56657
:10548000823008F042C040E060E089E69BE00E9484
:10549000974786E89BE00E94E656082F86E89BE047
:1054A0000E941056282F86E89BE02A830E94F2551E
:1054B000482F86E89BE049830E94ED5561E0680F24
:1054C0002A8149818EED99E00E94973A86E89BE017
:1054D0000E941056482F50E020E066E08EED99E0E3
:1054E0000F900F90DF91CF911F910F910C942C4250
:1054F00086E89BE00E94BB55182F402F682F86E856
:105500009BE00E94E76F823060F0482F66E08EEDEE
:1055100099E00F900F90DF91CF911F910F910C9414
:10552000EF4161E08EED99E00E94E13B412F61E0A7
:1055300089E69BE00F900F90DF91CF911F910F9123
:105540000C949747611101C0089586E89BE00E9482
:105550000B568111F9CF8EE698E00E9461398111D6
:105560000CC086E89BE00E94D855882359F044E09F
:1055700069E18EED99E00C94EF4161E08EE698E0F0
:105580000C94683961E08EE698E00E94D3388AED89
:105590009BE09F938F930E9406830F900F90089536
:1055A000CF93DF931F92CDB7DEB7611104C00F9088
:1055B000DF91CF91089586E89BE00E940B56811100
:1055C000F6CF8EE698E00E9461398823A1F060E072
:1055D0008EE698E00E94683986E89BE00E94885732
:1055E000882329F340E060E086E89BE00F90DF919C
:1055F000CF910C94FB6D61E080E997E082D286E860
:105600009BE00E948A56282F86E89BE029830E940F
:10561000BB55682F86E89BE00E947B57482F50E0DF
:10562000298162E08EED99E00F90DF91CF910C948B
:105630002C42E0E1F7E01192119287E0E039F8079F
:10564000D1F785E897E290934707809346079093B8
:1056500049078093480790933707809336078FE375
:1056600096E290933D0780933C0790933B0780938D
:105670003A0790932B0780932A0790932D078093E6
:105680002C07909359078093580788E598E29093E8
:105690004B0780934A0790934D0780934C0782E114
:1056A0009AE2909339078093380790932707809365
:1056B00026079093290780932807909317078093D4
:1056C0001607909319078093180790938707809384
:1056D0008607909389078093880790937707809334
:1056E0007607909379078093780790936707809364
:1056F0006607909369078093680790935707809394
:10570000560782EA9AE290931D0780931C0780ED6A
:105710009AE290931B0780931A070895FC01DC011D
:10572000A25BBF4F1C9281E087A3119682E08C930D
:1057300083E0868F199784E08C93119685E08C9393
:1057400086E0878F87E086AF88E0868B89E087AF29
:105750008AE0878B8BE086AB0895262F26952695C9
:105760002695820F911DFC01EC5AFF4F808190E03D
:10577000220F220F220F621B02C0959587956A9512
:10578000E2F781700895DF92EF92FF920F931F93DB
:10579000CF93DF934F3F59F0403809F47CC0DF913D
:1057A000CF911F910F91FF90EF90DF900895262FDA
:1057B000269526952695EC01C20FD11DFE01EC5AC7
:1057C000FF4F5081220F220F220F462F421BE42E43
:1057D000252F30E0042E02C0359527950A94E2F774
:1057E00020FDDDCF01E010E020E030E004C0000F3C
:1057F000111F221F331F4A95D2F7052B008331E07A
:10580000FC01ED5AFF4F6083FC012585222339F20C
:10581000D62E8C01E62FF0E0EE0FFF1FE05FF84F71
:105820000190F081E02D632F8D2D09952C8130E0C2
:105830000E2C02C0359527950A94E2F720FDAFCFD4
:10584000CC5ADF4F888190E002C095958795EA9405
:10585000E2F780FDA4CFFFEFDF1609F447C09D2DCE
:10586000D7FC48C0959595959595F801E90FF11DE0
:10587000990F990F990FD91A41E050E060E070E05C
:1058800004C0440F551F661F771FDA94D2F7848136
:10589000482B448384CF262F269526952695EC0108
:1058A000C20FD11DFE01EC5AFF4F4081220F220F83
:1058B000220F562F521BE52E242F30E0052E02C05A
:1058C000359527950A94E2F720FF69CF01E010E0B3
:1058D00020E030E004C0000F111F221F331F5A9533
:1058E000D2F700950423008330E08ACF81E0F801ED
:1058F000858755CF97E09D0DB5CFEF92FF920F931F
:105900001F93CF93DF937C0100E117E0C0E0F80123
:10591000219131918F01232B49F06C2F88E893E07E
:105920000E94D013482F6C2FC7012DDFCF5FC034EA
:1059300071F7E701C35ADF4F8881811107C0DF91FA
:10594000CF911F910F91FF90EF9008958EED99E008
:105950000E94A8468111F3CF1882DF91CF911F9149
:105960000F91FF90EF900895CF92DF92EF92FF9208
:10597000CF93DF93EC01D2DE5CDE0E94501E6B0100
:105980007C011D8623E030E040E063E089E195E0A2
:105990000E941D216A8BCE01B0DF0E94501EDC01E7
:1059A000CB018C199D09AE09BF0984369105A1056B
:1059B000B10588F3FE01EC5AFF4F80818076803676
:1059C00029F462E08EE698E00E94D33881E08D876A
:1059D000DF91CF91FF90EF90DF90CF9008950F93DC
:1059E0001F93FC016F3F09F1962F67FD23C095952A
:1059F00095959595E90FF11D990F990F990F691BD1
:105A000001E010E020E030E0D901C80104C0880FB7
:105A1000991FAA1FBB1F6A95D2F7AC01BD018481F3
:105A2000482B44831F910F91089581E085871F9132
:105A30000F91089597E0960FDACF0F931F93FC0113
:105A40006F3F11F1962F67FD23C09595959595951C
:105A5000E90FF11D990F990F990F691B01E010E0F3
:105A600020E030E0D901C80104C0880F991FAA1FA7
:105A7000BB1F6A95D2F7AC01BD01409584814823D4
:105A800044831F910F91089515861F910F910895DA
:105A900097E0960FDACF262F269526952695820F2A
:105AA000911DFC01848190E0220F220F220F621BC6
:105AB00002C0959587956A95E2F781700895860FE3
:105AC000911DFC0183890895CF92EF92FF920F936D
:105AD0001F93FC01628BE62EF12C00E010E0C12C3C
