:100000000C94C10D0C94EB0D0C94EB0D0C94EB0DBA
:100010000C94EB0D0C94EB0D0C94EB0D0C94EB0D80
:100020000C94EB0D0C94EB0D0C941B0F0C94F00F37
:100030000C94EB0D0C94EB0D0C94EB0D0C94EB0D60
:100040000C94EB0D0C94EB0D0C94EB0D0C94EB0D50
:100050000C94EB0D0C94EB0D0C94EB0D0C94EB0D40
:100060000C94EB0D0C94BB170C94FD170C94EB0D3A
:100070000C94EB0D0C94C2120C94EB0D0C94EB0D44
:100080000C9416150C94EB0D0C94EB0D0C94EB0DDD
:100090000C94EB0D0C94EB0D00000000000001002F
:1000A0000100020003000300040005000500060033
:1000B00007000800080009000A000B000B000C00F4
:1000C0000D000E000E000F001000110012001200B3
:1000D0001300140015001500160017001800190071
:1000E00019001A001B001C001D001E001E001F002E
:1000F00020002100220022002300240025002600E9
:1001000027002700280029002A002B002C002D00A2
:100110002D002E002F00300031003200320033005D
:1001200034003500360037003800380039003A0016
:100130003B003C003D003E003F003F0040004100CE
:100140004200430044004500460046004700480086
:1001500049004A004B004C004D004D004E004F003E
:1001600050005100520053005400550055005600F5
:100170005700580059005A005B005C005D005D00AC
:100180005E005F0060006100620063006400650063
:10019000660066006700680069006A006B006C001A
:1001A0006D006E006F0070007000710072007300CF
:1001B0007400750076007700780079007A007A0084
:1001C0007B007C007D007E007F008000810082003B
:1001D00083008400850086008600870088008900EF
:1001E0008A008B008C008D008E008F0090009100A3
:1001F000920092009300940095009600970098005A
:1002000099009A009B009C009D009E009F00A0000A
:10021000A000A100A200A300A400A500A600A700C2
:10022000A800A900AA00AB00AC00AD00AE00AF0072
:10023000B000B000B100B200B300B400B500B60029
:10024000B700B800B900BA00BB00BC00BD00BE00DA
:10025000BF00C000C100C200C200C300C400C5008E
:10026000C600C700C800C900CA00CB00CC00CD0042
:10027000CE00CF00D000D100D200D300D400D500F2
:10028000D600D700D800D800D900DA00DB00DC00A7
:10029000DD00DE00DF00E000E100E200E300E4005A
:1002A000E500E600E700E800E900EA00EB00EC000A
:1002B000ED00EE00EF00F000F100F200F200F300BC
:1002C000F400F500F600F700F800F900FA00FB0072
:1002D000FC00FD00FE00FF0000010101020103011E
:1002E0000401050106010701080109010A010B01CA
:1002F0000C010D010E010F0110011101120113017A
:1003000014011501160117011801180119011A012C
:100310001B011C011D011E011F01200121012201E1
:1003200023012401250126012701280129012A0191
:100330002B012C012D012E012F0130013101320141
:1003400033013401350136013701380139013A01F1
:100350003B013C013D013E013F01400141014201A1
:1003600043014401450146014701480149014A0151
:100370004B014C014D014E014F0150015101520101
:1003800053015401550156015701580159015A01B1
:100390005B015C015D015E015F0160016101620161
:1003A00063016401650166016701680169016A0111
:1003B0006B016C016D016E016F01700171017201C1
:1003C00073017401750176017701780179017A0171
:1003D0007B017C017D017E017F0180018101820121
:1003E00083018401850186018701880189018A01D1
:1003F0008B018C018D018E018F0190019101920181
:1004000093019401950196019701980199019A0130
:100410009B019C019D019E019F01A001A101A201E0
:10042000A301A401A501A601A701A801A901AA0190
:10043000AB01AC01AD01AE01AF01B001B101B20140
:10044000B301B401B501B601B701B801B901BA01F0
:10045000BB01BC01BD01BE01C001C101C201C3019C
:10046000C401C501C601C701C801C901CA01CB0148
:10047000CC01CD01CE01CF01D001D101D201D301F8
:10048000D401D501D601D701D801D901DA01DB01A8
:10049000DC01DD01DE01DF01E001E101E201E30158
:1004A000E401E501E601E701E801E901EA01EB0108
:1004B000EC01ED01EF01F001F101F201F301F401B2
:1004C000F501F601F701F801F901FA01FB01FC0160
:1004D000FD01FE01FF01000201020202030204020B
:1004E000050206020702080209020A020B020C02B8
:1004F0000D020E020F021002120213021402150264
:1005000016021702180219021A021B021C021D020F
:100510001E021F02200221022202230224022502BF
:1005200026022702280229022A022B022C022D026F
:100530002E022F0231023202330234023502360219
:100540003702380239023A023B023C023D023E02C7
:100550003F02400241024202430244024502460277
:100560004702480249024A024C024D024E024F0223
:1005700050025102520253025402550256025702CF
:10058000580259025A025B025C025D025E025F027F
:10059000600261026202630265026602670268022B
:1005A00069026A026B026C026D026E026F027002D7
:1005B0007102720273027402750276027702780287
:1005C00079027A027C027D027E027F028002810231
:1005D00082028302840285028602870288028902DF
:1005E0008A028B028C028D028E028F02910292028D
:1005F00093029402950296029702980299029A0237
:100600009B029C029D029E029F02A002A102A202E6
:10061000A302A402A602A702A802A902AA02AB0290
:10062000AC02AD02AE02AF02B002B102B202B3023E
:10063000B402B502B602B702B802BA02BB02BC02EB
:10064000BD02BE02BF02C002C102C202C302C40296
:10065000C502C602C702C802C902CA02CC02CD0244
:10066000CE02CF02D002D102D202D302D402D502EE
:10067000D602D702D802D902DA02DB02DC02DD029E
:10068000DF02E002E102E202E302E402E502E60246
:10069000E702E802E902EA02EB02EC02ED02EE02F6
:1006A000F002F102F202F302F402F502F602F7029E
:1006B000F802F902FA02FB02FC02FD02FE02FF024E
:1006C00001030203030304030503060307030803EE
:1006D00009030A030B030C030D030E030F0310039E
:1006E0001203130314031503160317031803190346
:1006F0001A031B031C031D031E031F0320032203F5
:1007000023032403250326032703280329032A039D
:100710002B032C032D032E032F033003320333034B
:100720003403350336033703380339033A033B03F5
:100730003C033D033E033F034103420343034403A1
:10074000450346034703480349034A034B034C034D
:100750004D034E03500351035203530354035503F7
:1007600056035703580359035A035B035C035D03A5
:100770005F0360036103620363036403650366034D
:100780006703680369036A036B036C036E036F03FB
:1007900070037103720373037403750376037703A5
:1007A000780379037A037C037D037E037F03800350
:1007B00081038203830384038503860387038803FD
:1007C0008A038B038C038D038E038F0390039103A5
:1007D00092039303940395039603980399039A0352
:1007E0009B039C039D039E039F03A003A103A203FD
:1007F000A303A503A603A703A803A903AA03AB03A6
:10080000AC03AD03AE03AF03B003B103B303B40352
:10081000B503B603B703B803B903BA03BB03BC03FC
:10082000BD03BE03C003C103C203C303C403C503A6
:10083000C603C703C803C903CA03CB03CD03CE0352
:10084000CF03D003D103D203D303D403D503D603FC
:10085000D703D803DA03DB03DC03DD03DE03DF03A6
:10086000E003E103E203E303E403E503E703E80352
:10087000E903EA03EB03EC03ED03EE03EF03F003FC
:10088000F103F303F403F503F603F703F803F903A5
:10089000FA03FB03FC03FD03FF0312034F00700088
:1008A00065006E004400650063006B0000002203D9
:1008B0005300680061006E00740065006100200054
:1008C00043006F006E00740072006F006C007300D4
:1008D00000000403090409026500020100C0320996
:1008E00004000000010100000924010001090001C9
:1008F0000109040100020103000007240100014175
:100900000006240201010006240202020009240359
:10091000010301020100092403020401010100098D
:1009200005020240000500000525010101090581BD
:10093000024000050000052501010312010002002C
:1009400000000809127284010001020001207F00EA
:100950000000000000000000005F5F0700000000D2
:1009600007070007070000227F7F227F7F220024E5
:100970002E2A7F2A3A100046251308645231003689
:100980007F495F766050000000070700000000000C
:10099000001C3E634100000041633E1C0000000853
:1009A0002A3E1C3E2A08000008083E3E08080000B7
:1009B00080E0600000000000080808080808000047
:1009C0000060600000000040201008040201001CCC
:1009D0003E6141433E1C000040427F7F4040006238
:1009E0007379595D4F46002061494D4F7B310018A6
:1009F0001C16137F7F100027674545457D38003C56
:100A00007E4B4949793000030371790D07030036A5
:100A10004F4D5959763000064F4949693F1E000035
:100A2000003636000000000040763600000000006E
:100A3000081C36634100001414141414141400002C
:100A40004163361C080000060753535B0F06003E47
:100A5000415D555D511E007C7E1311137E7C007F2D
:100A60007F4949497F36001C3E6341416322007F34
:100A70007F4141633E1C007F7F4949494941007FD6
:100A80007F0909090901001C3E6341497979007F0A
:100A90007F0808087F7F000041417F7F414100209F
:100AA000604040407F3F007F7F183C7663410000FC
:100AB0007F7F40404040007F7F0E1C0E7F7F007F85
:100AC0007F0E1C387F7F003E7F4141417F3E007F8B
:100AD0007F1111111F0E003E7F4151713F5E007F5B
:100AE0007F1131796F4E00266F49494B7A300000F3
:100AF00001017F7F0101003F7F4040407F3F000FA9
:100B00001F3870381F0F007F7F381C387F7F0063CD
:100B1000773E1C3E77630000070F78780F0700616F
:100B200071795D4F47430000007F7F414100000124
:100B3000020408102040000041417F7F00000000B7
:100B4000020301030200008080808080808000001A
:100B50000000010200000020745454547C78003FCF
:100B60007F4444447C3800387C4444444444003846
:100B70007C4444447F7F00387C5454545C1800000B
:100B800004047E7F05050018BCA4A4A4FC7C007F9F
:100B90007F0404047C78000040447D7D40400000D8
:100BA000808084FD7D00007F7F18387C6C440000CD
:100BB00040417F7F4040007C047C7C047C78007C4A
:100BC0007C0404047C7800387C4444447C3800FC79
:100BD000FC2424243C1800183C242424FCFC0000A1
:100BE0007C7C0804040400485C54545474200000C5
:100BF00004047F7F0404003C7C4040407C7C000077
:100C00001C3C60603C1C003C407C7C407C7C006C5C
:100C10006C3838386C6C001CBCA0A0A0FC7C004474
:100C200064747C5C4C44000000083E774100000086
:100C300000007F7F0000000041773E0800000008B0
:100C4000040C1C18100800006060006060000000C8
:100C5000081019212A323B434C545D656E767F00A3
:100C6000081019212A323B434C545D656E767F0093
:100C7000081019212A323B434C545D656E767F0083
:100C8000081019212A323B434C545D656E767F0073
:100C9000081019212A323B434C545D656E767F0063
:100CA000081019212A323B434C545D656E767F0053
:100CB000081019212A323B434C545D656E767F0043
:100CC000081019212A323B434C545D656E767F0033
:100CD0000000000000000000000000000000000014
:100CE0000000000000000000001F1F1F1F1F1F1F2B
:100CF0001F1F1F1F1F1F1F1F1F1F1F1F1F1F1F1F04
:100D00001F1F3F3F3F3F3F3F3F3F3F3F3F3F3F3F33
:100D10003F3F3F3F3F3F3F3F3F3F3F3F5F5F5F5F63
:100D20005F5F5F5F5F5F5F5F5F5F5F5F5F5F5F5FD3
:100D30005F5F5F5F5F7F7F7F7F7F7F7F7F7F7F7F63
:100D40007F7F7F7F7F7F7F7F7F7F7F7F7F7F7F0032
:100D50000000000000000000000000000000000093
:100D60000000000000000000000000000000000083
:100D70000000000000000000000000000000000073
:100D80000000000000000000000000000000007FE4
:100D90007F7F7F7F7F7F7F7F7F7F7F7F7F7F7F7F63
:100DA0007F7F7F7F7F7F7F7F7F7F7F7F7F7F7F7F53
:100DB0007F7F7F7F7F7F7F7F7F7F7F7F7F7F7F7F43
:100DC0007F7F7F7F7F7F7F7F7F7F7F7F7F7F7F00B2
:100DD0000000000000000000000000000000000013
:100DE0000000000000000000000000000000000003
:100DF00000000000000000000000000000000000F3
:100E000000000000000000000000000000000202DE
:100E1000040606090C0C0E1010131316181A1A1DCE
:100E2000202022242427292C2C2E31333336383B02
:100E30003D3D4042454747494C4F51535656595BFB
:100E40005D60636567696D6F717377797B7E7F0025
:100E50000000000000000000000000000000000092
:100E6000000206090C0F1214171A1C1E2123252735
:100E7000292B2C2E3032333537383A3B3C3E3F411C
:100E8000424344464748494A4C4D4E4F50515253B5
:100E9000545556575859595A5B5C5D5E5F5F6061A7
:100EA00062636364656666676869696A6B6B6C6DCB
:100EB0006D6E6F6F70717172727374747575767711
:100EC00077787879797A7A7B7B7C7C7D7D7E7F00F0
:100ED0000A0E1215171A1C1E2022232527282A2B3A
:100EE0002C2E2F30323334353637393A3B3C3D3EA9
:100EF0003F40414243444545464748494A4B4C4C94
:100F00004D4E4F50505152535354555656575859B1
:100F1000595A5B5B5C5D5E5E5F60606162626364E8
:100F20006465656667676869696A6A6B6C6C6D6D34
:100F30006E6F6F707071717273737474757576778C
:100F400077787879797A7A7B7B7C7C7D7D7E7F006F
:100F5000010203050607090A0B0D0E0F10121314E8
:100F60001617181A1B1C1D1F20212324252728298A
:100F70002A2C2D2E30313234353637393A3B3D3E2E
:100F80003F3F3F3F3F3F3F3F3F3F3F3F3F3F3F3F71
:100F90003F3F3F3F3F3F3F3F3F3F3F3F3F3F40415E
:100FA0004344454748494B4C4D4E50515254555679
:100FB00058595A5B5D5E5F616263656667686A6B1C
:100FC0006C6E6F70727374757778797B7C7D7F7FC0
:100FD0007F7D7C797877767472716F6E6D6A6968DF
:100FE00066656361605F5D5B5A5857565352515056
:100FF0004E4C4A494847444342403F3C3B3A3937CC
:1010000035343231302D2C2B292826242322211E41
:101010001D1B1A1916151413110F0D0C0B0A0706B8
:1010200005030200000000000000000000000000B6
:1010300000000000000000000000000000000000B0
:1010400000000000000000000000000000000000A0
:101050000205070A0D0F1214171A1C1F2124272935
:101060002C2E313436393B3E414346484B4E50538B
:1010700055585B5D606265686A6D6F7275777A7CE2
:101080007F7F7F7F7F7F7F7F7F7F7F7F7F7F7F7F70
:101090007F7F7F7F7F7F7F7F7F7F7F7F7F7F7C7A68
:1010A0007775726F6D6A686562605D5B5855535005
:1010B0004E4B484643413E3B393634312E2C29278E
:1010C00024211F1C1A1714120F0D0A070502000015
:1010D00000030507090B0D0F11131517191B1D1F11
:1010E00021232527292B2D2F31333537393B3D3F00
:1010F000424446484A4C4E50525456585A5C5E60E0
:10110000626466686A6C6E70727476787A7C7E7FD0
:101110007F7F7F7F7F7F7F7F7F7F7F7F7F7F7F7FDF
:101120007F7F7F7F7F7F7F7F7F7F7F7F7F7F7F7FCF
:101130007F7F7F7F7F7F7F7F7F7F7F7F7F7F7F7FBF
:101140007F7F7F7F7F7F7F7F7F7F7F7F7F7F7F002E
:10115000000000000000000000000000000000008F
:10116000000000000000000000000000000000007F
:10117000000000000000000203050607090A0C0D2C
:101180000F101113141617191A1C1D1E20212324C9
:101190002627282A2B2D2E303132343537383A3B4A
:1011A0003D3E3F414244454748494B4C4E4F5152CA
:1011B00053555658595B5C5E5F606263656668694B
:1011C0006A6C6D6F707273747677797A7C7D7F7FCD
:1011D0007E7D7C7B7A797877767574737271706FA7
:1011E0006E6D6C6B6A696867666564636261605F97
:1011F0005E5D5C5B5A595857565554535251504F87
:101200004E4D4C4B4A494847464544434241403F76
:101210003E3D3C3B3A393837363534333231302F66
:101220002E2D2C2B2A292827262524232221201F56
:101230001E1D1C1B1A191817161514131211100F46
:101240000E0D0C0B0A090807060504030201000035
:101250000102030405060708090A0B0C0D0E0F1006
:101260001112131415161718191A1B1C1D1E1F20F6
:101270002122232425262728292A2B2C2D2E2F30E6
:101280003132333435363738393A3B3C3D3E3F40D6
:101290004142434445464748494A4B4C4D4E4F50C6
:1012A0005152535455565758595A5B5C5D5E5F60B6
:1012B0006162636465666768696A6B6C6D6E6F70A6
:1012C0007172737475767778797A7B7C7D7E7F4DC9
:1012D000494449206368616E6E656C3A20004D494F
:1012E00044493A20005261773A2000507265737386
:1012F0007572652063616C69627261746564004334
:10130000616C6962726174696E67207A6F6E6520C4
:1013100000486F6C64207061640043616C696272A4
:101320006174696F6E206F6E0043616C69627261F7
:1013300074696F6E206F66660050005061642065AE
:10134000646974696E67007061643A2000504200FD
:10135000434300C213B413A5139F1390137F136E5E
:1013600013631355736572207363616C65004D617F
:101370006A6F722050656E7461746F6E6963004DA0
:10138000696E6F722050656E7461746F6E69630070
:101390004861726D6F6E6963204D616A6F72004DB6
:1013A000616A6F72004861726D6F6E6963204D698A
:1013B0006E6F72004D656C6F646963204D696E6F6E
:1013C00072004E61747572616C204D696E6F7200AF
:1013D000496E6974696174696E67207265626F6FC6
:1013E000742E00466163746F727920726573657440
:1013F0002066696E69736865642E00506C65617360
:101400006520776169742E00506572666F726D6930
:101410006E6720666163746F72792072657365749C
:101420002E002043616E63656C3A20616E79206FF7
:10143000746865720020315B205D20375B205D2081
:10144000395B205D0020436F6E6669726D2077699D
:10145000746820706164733A0048617264776172E5
:10146000653A2000536F6674776172653A20002AEE
:101470002A2A464143544F52592052455345542A33
:101480002A2A00EB14E814E614E314E114DF14DC58
:1014900014DA14D714D514D214D01461743A20007D
:1014A000763A200041737369676E6564206E6F74CD
:1014B00065733A004F637461766520003C6E6F205F
:1014C00061737369676E6564206E6F7465733E0047
:1014D00042004123004100472300470046230046C5
:1014E0000045004423004400432300430000000063
:1014F00000D315CE15C915C115B915B215AF15AC68
:1015000015A015991590157D15000076156F1562BB
:101510001555154D1545153D1535152B152115007E
:1015200000592063757276653A2000582063757201
:1015300076653A200059206D61783A200059206D77
:10154000696E3A200058206D61783A200058206D6D
:10155000696E3A2000592050697463682062656E94
:101560006400582050697463682062656E64005995
:101570002043433A2000582043433A20004E6F74E2
:1015800065207368696674206C6576656C3A200026
:101590004F63746176653A20004E6F746573200066
:1015A0004166746572746F75636820005920005835
:1015B000200053706C69742000546F6E69633A2088
:1015C000005265636F7264200053746F7000506C3A
:1015D0006179004D494449206368616E6E656C3ADB
:1015E0002000711662164E16421630161A16FE1597
:1015F000416C6C20706164730050616420007072F3
:1016000065646566696E6564207363616C65206EF0
:101610006F742061637469766500757365722073F9
:1016200063616C65206E6F74206163746976650018
:1016300070616473206E6F742072656C6561736590
:1016400064006E6F7420616C6C6F77656400766106
:101650006C756573206F7574206F662072616E679C
:10166000650076616C756573206368616E6765649B
:10167000006E6F206368616E676520696E20766119
:101680006C756573004F17431730171D170717F454
:1016900016E516DC16D316C816C116B3169F1645E6
:1016A0006967687420776176657320757020646F50
:1016B000776E004669766520737465707320757067
:1016C00000537769746368004C6F672065787020F9
:1016D0007570004C6F672075702032004C6F67206A
:1016E0007570203100466C61742063656E7465729C
:1016F000207570004C696E65617220646F776E2092
:1017000062726F6B656E004C696E656172207570F8
:1017100020646F776E2062726F6B656E004C696E2D
:101720006561722075702062726F6B656E20320089
:101730004C696E6561722075702062726F6B656EA8
:101740002031004C696E65617220646F776E004CC9
:10175000696E656172207570004669726D7761729D
:101760006520757064617465642100536F667477D9
:101770006172653A20009719831969195D19511929
:10178000431930191719FD18E318C018A3188E183B
:1017900075185A184718341820180C18F817E41739
:1017A000CE17B817A6174D656E7520656E747279E1
:1017B000206572726F723A005920637572766520E7
:1017C0006368616E6765206572726F723A005820B7
:1017D0006375727665206368616E676520657272F5
:1017E0006F723A0059206D6178206368616E676599
:1017F000206572726F723A0059206D696E206368BD
:10180000616E6765206572726F723A0058206D6173
:1018100078206368616E6765206572726F723A0046
:1018200058206D696E206368616E6765206572720D
:101830006F723A0059204343206368616E676520E8
:101840006572726F723A0058204343206368616E7C
:101850006765206572726F723A005061642065643A
:101860006974206D6F646520656E7472792065728D
:10187000726F723A004E6F746520736869667420E7
:101880006368616E6765206572726F723A004F63BC
:1018900074617665206368616E6765206572726F3A
:1018A000723A004E6F74652073656E64206D6F64CC
:1018B00065206368616E6765206572726F723A00B9
:1018C0004166746572746F7563682073656E642019
:1018D0006D6F6465206368616E6765206572726F05
:1018E000723A00592073656E64206D6F64652063E1
:1018F00068616E6765206572726F723A0058207376
:10190000656E64206D6F6465206368616E67652035
:101910006572726F723A0053706C6974206D6F64F7
:1019200065206368616E6765206572726F723A0048
:101930004E6F7465206368616E6765206572726FB3
:10194000723A005265636F7264206572726F723A08
:101950000053746F70206572726F723A00506C6140
:1019600079206572726F723A004D4944492063686C
:10197000616E6E656C206368616E6765206572726A
:101980006F72005363616C65206368616E676520E8
:101990006572726F723A0050726F6772616D206388
:1019A00068616E6765206572726F723A00E019DDDA
:1019B00019DB19D819D619D419D119CF19CC19CACC
:1019C00019C719C5194200412300410047230047A8
:1019D0000046230046004500442300440043230002
:1019E00043004F6666206368616E6E656C004F6EE3
:1019F000206368616E6E656C2F302076656C0044E4
:101A0000697361626C656400456E61626C65640057
:101A1000506F6C79004368616E6E656C005479702C
:101A200065203200547970652031004D4D432B43C1
:101A300043004343004D4D43005069746368206286
:101A4000656E642074797065005472616E73706F96
:101A5000727420636F6E74726F6C73004E6F746576
:101A6000206F666620747970650052756E6E696EBF
:101A70006720737461747573004166746572746F66
:101A80007563682074797065004578706F6E656E57
:101A90007469616C004C6F6761726974686D696329
:101AA000004C696E6561720048617264004D656446
:101AB00069756D00536F6674004D49444920736524
:101AC0007474696E67730043757276650053656E52
:101AD00073697469766974790056656C6F636974AB
:101AE000792073657474696E677300466163746FFF
:101AF0007279207265736574004465766963652048
:101B0000696E666F0043616C696272617465207012
:101B1000726573737572650043616C69627261749A
:101B20006520590043616C696272617465205800D8
:101B3000466163746F7279207265736574004465E1
:101B40007669636520696E666F0050616420636129
:101B50006C6962726174696F6E005B205D005B7816
:101B60005D0053657276696365206D656E7500531F
:101B7000657474696E6773003F1DB420804DAD5766
:101B8000EA7311241FBECFEFD0E2DEBFCDBF13E05A
:101B9000A0E0B1E0E2E5FFEF00E00BBF02C007907C
:101BA0000D92A83DB107D9F72CE0A8EDB3E001C034
:101BB0001D92A334B207E1F71DE0C1ECDDE004C0E3
:101BC0002197FE010E94FE7ECC3BD107C9F70E94FF
:101BD000177E0C94A77F0C9400002091410C30914B
:101BE000420C2617370750F06115710599F52091C1
:101BF000E8002E772093E80020E030E0FC0190E040
:101C00000EC0853049F18091E80083FD27C08091A6
:101C1000E80082FD19C08091E80080FD21C02115F7
:101C2000310511F4992381F080913A0C8111E9CFAB
:101C300082E0089580913A0C8823D1F3853061F0D9
:101C40008091E80083FD0AC08091E80082FFF2CF16
:101C500080E008959B01D2CF83E0089581E008954C
:101C60004091F2005091F3002115310519F04830F0
:101C7000510570F091E04830510509F090E08091F5
:101C8000E8008E778093E800CACF4830510591F381
:101C900081918093F100215031094F5F5F4F2115F1
:101CA000310599F7E7CF2091410C3091420C26176E
:101CB000370750F06115710599F52091E8002E77EE
:101CC0002093E80020E030E0FC0190E00EC0853079
:101CD00049F18091E80083FD27C08091E80082FDF2
:101CE00019C08091E80080FD21C02115310511F453
:101CF000992381F080913A0C8111E9CF82E0089517
:101D000080913A0C8823D1F3853061F08091E8000E
:101D100083FD0AC08091E80082FFF2CF80E0089541
:101D20009B01D2CF83E0089581E008954091F200B5
:101D30005091F3002115310519F04830510570F02C
:101D400091E04830510509F090E08091E8008E77ED
:101D50008093E800CACF4830510591F38491809375
:101D6000F1003196215031094F5F5F4F2115310548
:101D700091F7E6CF873098F58093E900982F242FCC
:101D8000762F50E021FF19C03091EB003E7F309359
:101D9000EB003091ED003D7F3093ED003091EB0092
:101DA00031603093EB007093EC002093ED00509382
:101DB000F0002091EE0027FF1BC09F5F973079F065
:101DC0009093E900891781F07091EC002091ED006B
:101DD0005091F00021FDD8CF9F5F973089F78F7029
:101DE0008093E90081E00895242F762F50E0CACF38
:101DF00080E0089580913B0C87FF05C012C0809160
:101E00003A0C882349F08091E80080FFF8CF809158
:101E1000E8008E778093E800089580913A0C88233B
:101E2000D9F38091E80082FFF8CF8091E8008B77AA
:101E30008093E80008951F920F920FB60F9211241D
:101E40000BB60F922F933F934F935F936F937F93B4
:101E50008F939F93AF93BF93EF93FF938091E10094
:101E600082FF04C08091E20082FD93C08091DA007D
:101E700080FF04C08091D80080FD52C08091E100B5
:101E800080FF04C08091E20080FD8AC08091E10063
:101E900084FF2BC08091E20084FF27C084E189BDCC
:101EA00086E189BD09B400FEFDCF8091D8008F7D09
:101EB0008093D8008091E1008F7E8093E100809133
:101EC000E2008F7E8093E2008091E2008160809347
:101ED000E2008091360C811178C08091E30087FD8B
:101EE0007DC081E080933A0C28D28091E10083FF8D
:101EF00004C08091E20083FD28C0FF91EF91BF9163
:101F0000AF919F918F917F916F915F914F913F9191
:101F10002F910F900BBE0F900FBE0F901F90189532
:101F20008091DA008E7F8093DA008091D90080FF63
:101F300050C084E189BD86E189BD09B400FEFDCFB2
:101F400081E080933A0CF9D199CF8091E100877FAD
:101F50008093E10082E080933A0C1092360C8091DD
:101F6000E1008E7F8093E1008091E2008E7F80937C
:101F7000E2008091E20080618093E20042E060E054
:101F800080E0F8DE8091F00088608093F000D5D189
:101F9000B4CF8091E1008B7F8093E100CED166CFFA
:101FA0008091E2008E7F8093E2008091E200806168
:101FB0008093E2008091D80080628093D80019BCA1
:101FC00085E080933A0CB9D161CF84E080933A0CDC
:101FD0008BCF19BC10923A0CB0D150CF83E082CF96
:101FE0001F920F920FB60F9211240BB60F922F93E0
:101FF0003F934F935F936F937F938F939F93AF9391
:10200000BF93CF93EF93FF93C091E900CF7080917E
:10201000EC001092E9008091F000877F8093F0003F
:1020200078941DD01092E9008091F0008860809330
:10203000F000C093E900FF91EF91CF91BF91AF9174
:102040009F918F917F916F915F914F913F912F91D0
:102050000F900BBE0F900FBE0F901F9018951F93FF
:10206000CF93DF93CDB7DEB7AA970FB6F894DEBF54
:102070000FBECDBFEBE3FCE08091F10081932CE03B
:10208000E334F207C9F759D18091E80083FF10C00B
:1020900090913B0C80913C0C8530A1F108F47AC002
:1020A0008830F1F0893009F4B6C0863009F44AC0AE
:1020B0008091E80083FF0AC08091E800877F8093C9
:1020C000E8008091EB0080628093EB00AA960FB647
:1020D000F894DEBF0FBECDBFDF91CF911F91089561
:1020E000903831F78091E800877F8093E8008091F5
:1020F000360C8093F1008091E8008E778093E800A1
:1021000079DED6CF9111D4CF10913D0C1F778091FD
:10211000E3008078812B8093E3008091E800877F43
:102120008093E80067DE8091E80080FFFCCF80911B
:10213000E30080688093E3001111C1C082E08093C6
:102140003A0CB6CF9058923008F0B2CF80913D0C47
:1021500090913E0C8C3D53E0950709F4B2C060911C
:102160003F0C7091400CAE014F5F5F4F0E944619CB
:10217000BC01892B09F49CCF9091E800977F909344
:10218000E80089819A818FDD8091E8008B778093C8
:10219000E8008ECF813029F008F459C0833009F06F
:1021A00087CF992309F477C0923009F081CF9091BD
:1021B0003D0C911127C090913F0C9F702FEF290F7C
:1021C000263008F075CF9093E9002091EB0020FFB6
:1021D00019C0833009F4ABC08091EB00806180931B
:1021E000EB0021E030E0A90102C0440F551F9A9591
:1021F000E2F74093EA001092EA008091EB008860D9
:102200008093EB001092E9008091E800877F809333
:10221000E800F0DD4DCF91114BCF80913D0C823025
:1022200008F046CF9091E800977F9093E800809364
:10223000360CE0DD8091360C811177C08091E3008F
:1022400087FD73C081E080933A0C8BD631CF9038F4
:1022500071F1923809F02CCF80913F0C8F7087304C
:1022600008F026CF8093E9008091EB0085FB88275A
:1022700080F91092E9009091E800977F9093E80030
:102280008093F1001092F1008091E8008E778093A6
:10229000E800B0DD0DCF90913D0C913009F008CFF2
:1022A00091E0833009F090E09093380CABCF8091AF
:1022B000370C9091380C9923F1F28260DCCF83E0E7
:1022C0003ECF83E08A838AE289835FB7F894DE0198
:1022D000139620E03EE041E207C090E0C7968D9360
:1022E0009D932F5F243181F0E32FF0E0409357005E
:1022F000849120FF03C082958F703F5F8F708A307A
:1023000060F790E0C096EBCF5FBF8091E800877FD9
:102310008093E8006AE270E0CE0101965EDC809175
:10232000E8008B778093E800C3CE84E08CCF809167
:10233000EB0080628093EB0065CF08959FB7F8941F
:1023400070E0FB01E850FC4F808110829FBFFB01D1
:10235000E454FE4F9081911101C008958195089534
:10236000ECEDF1E08191861731F081E0E63EF8076F
:10237000C9F780E0089581E008958498869A859A47
:10238000879A8C988E988D9A8F9A0895849A8698B9
:10239000859A879A8C988E988D9A8F9A08958498AA
:1023A0008698859A879A8C988E988D9A8F9808959A
:1023B000849A869A859887988C988E9A8D988F980B
:1023C000089580FF0BC0899A81FF0BC0889A82FF15
:1023D0000BC08A9A83FD0BC08B980895899881FD64
:1023E000F5CF889882FDF5CF8A9883FFF5CF8B9A39
:1023F000089510927C0010927A0080917A00876094
:1024000080937A0080917C00806480937C0080912E
:102410007A00806880937A008FE39FE10197F1F75B
:1024200000C0000025E030E080917A008064809355
:102430007A0080917A0086FDFCCF8091780090919F
:1024400079002150310981F7089597DF80917C0050
:10245000807F846080937C00899888988A988B9884
:102460008DEB91E1909339048093380486EC91E1EF
:1024700090933B0480933A048FEC91E190933D0458
:1024800080933C0488ED91E190933F0480933E0457
:1024900060E070E04FEF5FEF80E090E09B01220F83
:1024A000331F220F331F220F331F260F371FF9014F
:1024B000E80FF91FEE0FFF1FEE5BFB4F51834083C8
:1024C00001968930910599F76F5F7F4F63307105F1
:1024D00019F780917A00886080937A0008958FB709
:1024E000F894A62FB0E0FD01EE0FFF1FEA59FB4F55
:1024F0000190F081E02DAA0FBB1FA858BB4F2D9172
:102500003C91119711961C921E924091D3075091C5
:10251000D4078FBF21153105D9F4EF3F8FEFF807AE
:10252000A1F0EE0FFF1FE456FF4F85919491863086
:1025300091056CF402C0569547956A95E2F740FF05
:1025400004C0833091050CF0089580E090E0089578
:10255000C90108952FB7F894E62FF0E0EE0FFF1FA2
:10256000EE5BFB4F808191812FBF08952FB7F894C8
:10257000E62FF0E0EE0FFF1FEC5AFB4F80819181B8
:102580002FBF08951F920F920FB60F9211240BB612
:102590000F922F933F934F935F936F937F938F93FC
:1025A0009F93AF93BF93CF93DF93EF93FF93E0910C
:1025B0004004E23088F1E23009F44EC0E33009F41F
:1025C00063C0F0E0EE0FFF1FE85CFB4F0190F0816D
:1025D000E02D099580917C00E0914004F0E0EA5103
:1025E000FE4F90819F70807F892B80937C00FF91AC
:1025F000EF91DF91CF91BF91AF919F918F917F919B
:102600006F915F914F913F912F910F900BBE0F9063
:102610000FBE0F901F90189580919E04A82FB0E0D8
:102620002091780030917900AA0FBB1FA156BB4FB3
:1026300011963C932E938F5F80939E04E130E1F1DD
:10264000E0914104F0E0E050FF4F9081891709F4D8
:1026500095C0E0E0F0E0B6CF8091780090917900ED
:1026600020919F043091A004820F931F9093A004A7
:1026700080939F0480919E048F5F80939E0482309C
:1026800049F1E2E0F0E09ECF8091780090917900EE
:1026900020919F043091A004820F931F9093A00477
:1026A00080939F0480919E048F5F80939E0482306C
:1026B00061F1E3E0F0E086CF90914104292F30E012
:1026C000F901E050FF4F4081841709F47EC0E1E03A
:1026D000F0E078CFE0914104F0E080919F04909188
:1026E000A00496958795EE0FFF1FEE5BFB4F91833D
:1026F000808310929E041092A00410929F0483E0A5
:1027000080934004E3E0F0E05DCF80914104E82F46
:10271000F0E020919F043091A00436952795EE0FAC
:10272000FF1FEC5AFB4F3183208310929E041092BE
:10273000A00410929F041092A2041092A10410927F
:10274000A4041092A304109240048F5F809341046C
:102750008930A1F180FF22C0899A282F2270982FFA
:1027600094708870222319F1889A9923F1F08A9A3B
:1027700081111FC08B98E091400423CF10929E04DA
:1027800080919F049091A00490939D0480939C0459
:1027900081E080934004E1E0F0E014CF282F227024
:1027A000982F947088708998DDCF8A98E1CF8898A7
:1027B000DCCF8B9AE0914004F0E004CF109241040A
:1027C00080E090E020E08998CDCF40919F04509127
:1027D000A0046091A1047091A2044617570720F449
:1027E0004091A1045091A2046091A3047091A404AB
:1027F0004617570720F44091A3045091A404609118
:102800009C0470919D04460F571FB9016E5E7F4F67
:10281000DB01AA0FBB1FAE5BBB4F11965C934E93BF
:102820004091D3075091D407092E02C05695479581
:102830000A94E2F740FF1DC082E080934004220F1B
:10284000331FD901A657BB4F1D921C9281E0808394
:102850001092A00410929F041092A2041092A1045E
:102860001092A4041092A304E2E0F0E010929E04FF
:10287000A9CE4D915C91119746305105CCF0220FB5
:10288000331FE901C657DB4F48815981452B59F564
:102890008FEF9FEF11969C938E9381E090E0998348
:1028A000888383E0808310924004E0E0F0E0DECF94
:1028B0004D915C9146305105DCF0220F331FD90158
:1028C000A657BB4F4D915C91452B91F0660F771F3A
:1028D000FB01EE5BFB4F80819181F901E858FB4FD2
:1028E00091838083E0CF4D915C914630510574F720
:1028F00081E08083890F893021F08093410461DD7C
:10290000D2CF1092410480E0FACFE62FF0E0EB55F1
:10291000FB4F80810895249A259A269A2C9A2D9A05
:102920002E9A389A399A3A9A409841984298849ABD
:10293000869A859A879A819A809A829A839A8998A8
:1029400088988A988B988C9A8E9A8D9A8F9A559897
:10295000579A569A3B9A3C9A3D9A0895CF93DF93A3
:1029600010929000E1E9F0E0108210929500109230
:102970009400A1E7B0E01C92C8E9D0E01982188267
:1029800010929B0010929A0010929D0010929C0051
:102990008081886080838081836080838EE390E083
:1029A000998388838C9182608C9380E890E0FC010D
:1029B0001082A1E8B0E01C921092820010926F0089
:1029C0001092850010928400109289001092880065
:1029D00010928B0010928A0010928D0010928C0041
:1029E000C0EBD0E0188241EB50E0FA011082109267
:1029F00070001092B2001092B3001092B400FC016B
:102A00002081216020838881816088838C9181600E
:102A10008C93FA0180818160808314BC15BC16BC44
:102A200010926E0017BCDF91CF9108951F920F9204
:102A30000FB60F9211240BB60F92CF92DF92EF9246
:102A4000FF920F931F932F933F934F935F936F9337
:102A50007F938F939F93AF93BF93CF93DF93EF9326
:102A6000FF9380911F058F5F80931F05843001F1D4
:102A700080917A00806480937A00FF91EF91DF91DA
:102A8000CF91BF91AF919F918F917F916F915F9106
:102A90004F913F912F911F910F91FF90EF90DF90F9
:102AA000CF900F900BBE0F900FBE0F901F901895F8
:102AB0008091B0008F778093B000809180008F77F5
:102AC00080938000809180008F7D80938000E091D2
:102AD0000901F0910A01808180618083E0910B01FE
:102AE000F0910C01808180628083E0910D01F09172
:102AF0000E0180818064808380911E05883009F4F6
:102B0000F6C188B1887F88B9E0911E0598B10E2E74
:102B1000000CFF0BEB50FE4F8081892B88B9809110
:102B20001D05882351F18091E5049091E604A09160
:102B3000E704B091E804892B8A2B8B2BF1F480E019
:102B400090E007C02081286020830196883191059C
:102B500071F0FC01ED5FFA4F208122FFF6CF20914A
:102B60001C052111EFCF2081277F2083EECF90918C
:102B70001C0581E0892780931C05C9E0D1E0AAEEFD
:102B8000B1E0F12C80E041E050E090911E05980FFB
:102B9000692F70E0FB01ED5FFA4F908190FFFEC05E
:102BA0003081008110E015950795159507951595CD
:102BB0000795232F30E035952795359527952027C4
:102BC000312720FDEBC0908194FD6AC10EE610E034
:102BD0002EE6E22E90911B059111E5C0F801E35E0F
:102BE000FD4F20812F3F09F473C1222391F02095DE
:102BF00091E0F91609F497C1E2E0FE128CC130E0D1
:102C000030938B0020938A00909180009062909383
:102C10008000885F22961196F394883109F0B5CF31
:102C200080911E058F5F80931E058091E504909131
:102C3000E604A091E704B091E8040196A11DB11D3E
:102C40008093E5049093E604A093E704B093E8042E
:102C500080910105909102054091E5045091E604B0
:102C60006091E7047091E804A0E0B0E048175907CC
:102C70006A077B0708F00BC180912105909122051E
:102C8000A0912305B09124050196A11DB11D80934B
:102C9000210590932205A0932305B09324053DEED2
:102CA000C32E31E0D32E20E030E061E088B1877C94
:102CB00088B988B1F60191916F01892B88B9722F7B
:102CC0005F9800005F9A58E3520FC1E047E089B176
:102CD00085FB882780F9862790912005990F90938E
:102CE000200590912005982B909320059091200528
:102CF000937090932005E52FF0E0EB55FB4F90810A
:102D00008068990F892B80835E9A00005E98C111BC
:102D10009FC0E42FEE0FEE0FE70FF0E0EF01C85E6B
:102D2000DB4F8881F82EFF1CFF24FF1C90912005AB
:102D3000880F880F892B982F9F789883FF2009F49C
:102D400089C0892F80688883082F0F7010E0D80110
:102D5000AB56BD4F9C91992391F011E019160CF0E0
:102D60007FC0DF01A852BC4FEC909E0D9C931123B5
:102D700009F473C080688883F11609F451C0C1E07A
:102D8000415058504F3F09F0A2CF2F5F3F4F28309E
:102D9000310509F08BCF10921F056ACE90911B056B
:102DA00000E010E0E12C9B0127513B4FF90190819D
:102DB000E92F990FFF0BE35EFD4F9081992369F096
:102DC000F9019081E92F990FFF0BE35EFD4F6081C0
:102DD0006F3F09F48FC0611168C0F9016081062E50
:102DE000000C770B6017710709F413CF6081062E72
:102DF000000C770B60177107DCF560911B05908163
:102E000070E0690F711D97FD7A9560836081062ED1
:102E1000000C770B061717070CF0FBCEE082F9CEFB
:102E2000892F990F990B97FD1FC0EF01C350DE4FFB
:102E3000C881D0E08C179D070CF4A1CFE850FC4F5F
:102E40008081F1100FC09FEF890F80831C9297CF74
:102E5000C0E096CF8F70888377CF8F7788838CCFB1
:102E600010E07FCF91E0F0CF919581959109DDCF72
:102E700090911B05F9016081062E000C770B691BF0
:102E800071096083908197FFC4CE1082C2CE1092E8
:102E9000E5041092E6041092E7041092E804ECCEE8
:102EA00007E710E097E7E92E95CE6095F1E0FF1671
:102EB00009F44CC092E0F91241C070E070938B00AD
:102EC00060938A009091800090629093800085CFFB
:102ED000E881F9812081BA010C9002C0660F771F4A
:102EE0000A94E2F7962F90959223908392CE1092B7
:102EF0001E0507CEC880D980F6016081FA010C90CA
:102F000002C0EE0FFF1F0A94E2F79E2F90959623C2
:102F1000F601908362CF2093B3009091B000906847
:102F20009093B00076CE30E03093890020938800F3
:102F3000909180009068909380006BCE6093B30076
:102F40009091B00090689093B00047CF70E070937C
:102F50008900609388009091800090689093800031
:102F60003CCF42E361E881E00E94BA0E42E360E8B0
:102F700082E00C94BA0E1F920F920FB60F9211249A
:102F80000BB60F922F938F939F93EF93FF93209104
:102F9000CE009FB7F89480915B059FBF823361F4A8
:102FA000FF91EF919F918F912F910F900BBE0F90FA
:102FB0000FBE0F901F901895E0915705F09158059E
:102FC000208380915705909158050196909358055C
:102FD000809357058755954049F09FB7F8948091A5
:102FE0005B058F5F80935B059FBFDACF85E295E03D
:102FF0009093580580935705F0CF1F920F920FB60C
:103000000F9211240BB60F922F933F938F939F93A0
:10301000EF93FF939FB7F894809192059FBF811122
:1030200012C08091C9008F7D8093C900FF91EF91FC
:103030009F918F913F912F910F900BBE0F900FBEDC
:103040000F901F901895E0919005F0919105919146
:10305000F0939105E0939005EE58F54059F02FB7A5
:10306000F894809192058150809392052FBF9093A0
:10307000CE00DCCF2CE535E0309391052093900510
:10308000EECFCF93DF93EC0146DCCE0167DCCE01BF
:10309000B0D9CE01DF91CF91D8C96C32D8F46A3261
:1030A000B8F4683209F16932E9F450E060E070E0A8
:1030B000411551056105710559F08FE99FE00197B0
:1030C000F1F700C000004150510961097109A9F7E9
:1030D00081E00895693461F06A3421F4442369F091
:1030E000139AF6CF80E008950C9A0B9A81E0089528
:1030F000442331F0149A81E00895139881E00895F3
:10310000149881E00895EF92FF920F931F93CF934D
:10311000DF9300D0CDB7DEB77901683109F440C044
:10312000B8F46431C1F1673129F5442379F0415095
:10313000042F10E00F5F1F4F020F131FD7018D9157
:103140007D010E94117EE016F106C1F781E009C001
:10315000693191F0603271F4442309F45EC0139A2E
:1031600081E00F900F90DF91CF911F910F91FF9011
:10317000EF90089580E0F5CFFC01A081B181028538
:10318000138520E030E013964C916CE2F80109952C
:10319000149A81E0E6CF149A0E94037E81E0E1CF89
:1031A000DC01ED91FC91E485E150E330A0F5F0E025
:1031B000EB55FD4F108189839A830E94037E89819C
:1031C0009A81DC01ED91FC9137812CB52C7F36344E
:1031D00040F03C3828F42CBD2DB52E7F2DBD05C008
:1031E00021602CBD2DB521602DBD2CB5237F212B59
:1031F0002CBD2CB52F7D2CBD1498FC01A081B18174
:103200000285138520E030E012964C916CE2F801C3
:10321000099581E0A6CF10E0CECF139881E0A1CF31
:10322000662349F0613029F467E48FEF9FE00E9444
:10323000897F0C94E67D6FEF8FEF9FE00E94897F7E
:103240000C94E67DCF92DF92EF92FF92E8E9F0E0F6
:10325000C590D590E590F4908DEF9FE00E94667F39
:10326000F601659174918617970751F08DEF9FE0F5
:103270000E94857F81E0FF90EF90DF90CF900895CE
:1032800080E0FF90EF90DF90CF900895292F3327B3
:103290002230310529F12330310599F021303105F3
:1032A00041F080E090E020E030E0FA0131832083BB
:1032B000089582E190E02BE339E0FA013183208325
:1032C000089599278130910599F082309105B1F0E8
:1032D000892B39F7E2EDF8E0849190E09F01E5CF8A
:1032E00085E690E026ED38E0FA01318320830895E9
:1032F000EEEAF8E0849190E09F01D7CFEAE9F8E0A8
:10330000849190E09F01D1CF0F931F93FC01118214
:103310001082118A148A158A8FEF828B878B7583AE
:103320006483578346833187208713870287CF01C1
:103330001F910F91A8C10F931F93CF93DF93FC01AF
:10334000A081B181FD0154913196E491451798F126
:10335000E41788F1C42FD0E0C51BD109CC0FDD1FC5
:10336000CC0FDD1FCC0FDD1FAE014E5F5F4F89011B
:103370002A9603C0FC01A081B181FD01E40FF51F75
:10338000E491D801ED938D014F5F5F4F4C175D07BE
:1033900089F7FB018081882349F0F901285F3F4FBD
:1033A000808180958193E217F307D1F7DF91CF9168
:1033B0001F910F910895F901C90108961192E8171C
:1033C000F907E1F7E6CFFC01758764870895CF928E
:1033D000DF92EF92FF920F931F93CF93DF93CDB7BE
:1033E000DEB728970FB6F894DEBF0FBECDBF7C01C5
:1033F000D62EC42E422FBC016F5E7F4F9E012F5FE1
:103400003F4F0C9698DF8E010F5F1F4F21E04C2D30
:103410006D2DC70115D128960FB6F894DEBF0FBEEB
:10342000CDBFDF91CF911F910F91FF90EF90DF9073
:10343000CF9008957F928F929F92AF92BF92CF923A
:10344000DF92EF92FF920F931F93CF93DF93EC01E4
:10345000942E79016D3009F498C000F56A3051F06E
:103460006B3009F090C04111A4C067ED72E0DDD16E
:1034700081E006C0B3D06CED72E0CE01D6D181E020
:10348000DF91CF911F910F91FF90EF90DF90CF9040
:10349000BF90AF909F908F907F9008956E3009F409
:1034A00067C06F3009F06FC0ACD1D70113968C9113
:1034B0001397880F8888880E1496BC90BB0CBB0CA1
:1034C000BB0C87E0A82EAB0CF70172800081118144
:1034D0000F5F1F4FC72CD82C65E1CE0175D16D2D24
:1034E000CE017CD161E06D0DCE0178D165E7CE01D2
:1034F0006BD16B2DCE0172D16A2DCE016FD16CE5EF
:10350000CE0162D124E935E0C801F901DC0111974F
:103510005C91DC014C91D90190960AC060EF40FDAE
:103520006F606083349656954695EA17FB0721F045
:1035300050FDF4CF60E0F3CF02962F5F3F4FB5E030
:1035400028393B0711F744E955E060E2CE0150D13C
:10355000D394D394CA94085F1F4FC110BDCF770C8A
:10356000870C9A949110B0CFCE0155D181E088CFCD
:1035700048D161E8CE0128D1692DCE012FD1CE01ED
:103580004AD181E07DCF80E07BCF411109C069EC59
:1035900072E04BD1E881F9818289888B81E070CF1C
:1035A00060EC72E042D1E881F9818389888B81E007
:1035B00067CF62ED72E039D181E062CF693009F006
:1035C00039CF68EA72E002D081E00895FC0171838E
:1035D0006083FB012289FC01208B0895CF93DF9348
:1035E000EC01EA85FB8520E030E040E068E20995E7
:1035F000EE81FF8120E030E040E064E1CE010995FA
:1036000041E06BE4CE01A9D1E881F981448169E20E
:10361000CE01A3D140E06BE4CE019FD1E881F981D6
:10362000448169E2CE0199D141E06BE4CE0195D1AC
:10363000E881F981458169E2CE01DF91CF918DC1A9
:103640000F931F93CF93DF9300D000D01F92CDB77D
:10365000DEB76C834D832B831A830983DC011496B8
:10366000ED91FC9115979E012F5F3F4F41E06FE078
:1036700009950F900F900F900F900F90DF91CF91C1
:103680001F910F910895DC011496ED91FC9115970F
:1036900020E030E040E069E00994DC011496ED910F
:1036A000FC91159720E030E040E06AE00994462F55
:1036B000DC011496ED91FC91159720E030E06BE071
:1036C0000994462FDC011496ED91FC91159720E0AA
:1036D00030E06DE00994CF92DF92FF920F931F9339
:1036E000CF93DF9300D000D01F92CDB7DEB78C010F
:1036F0001C8281E08B837A836983F801A081B18188
:103700005196FC9051971D8203C0F801A081B181B0
:10371000F801C480D5809E012F5F3F4F50964C9199
:103720006FE0C801F60109959D819F5F9D839F15FC
:1037300060F30F900F900F900F900F90DF91CF914B
:103740001F910F91FF90DF90CF900895CF93DF935B
:10375000CDB7DEB728970FB6F894DEBF0FBECDBF4A
:10376000BE016F5F7F4F28E0FB0111922A95E9F7B8
:10377000B2DF28960FB6F894DEBF0FBECDBFDF9143
:10378000CF910895462FDC011896ED91FC91199781
:1037900020E030E060E209949A01DC011896ED9196
:1037A000FC911997462F67E10994CF93DF931F92FD
:1037B000CDB7DEB76983AE014F5F5F4F61E0ECDFED
:1037C0000F90DF91CF910895462FDC011696ED9171
:1037D000FC91179720E030E065E10994462FDC0169
:1037E0001696ED91FC91179720E030E066E1099480
:1037F0009A01DC011696ED91FC911797462F67E12F
:103800000994DC011696ED91FC91179720E030E0C9
:1038100040E068E10994DC011696ED91FC91179760
:1038200020E030E040E069E10994EF92FF920F93CD
:103830001F93CF93DF931F92CDB7DEB77C018B012F
:10384000D8016C91673191F06831E0F06A3198F1FC
:103850006E3F49F5F8014181498369E2C7017DD096
:103860000E5F1F4FD8016C91673171F7F8018181AC
:103870008983AE014F5F5F4F61E0C701B9DF0E5F23
:103880001F4FDECF653178F0F80141814983D701C0
:103890001696ED91FC91179720E030E0C70109954D
:1038A0000E5F1F4FCDCF0F90DF91CF911F910F91E2
:1038B000FF90EF9008950F5F1F4FD7011696ED917F
:1038C000FC91179720E030E040E0C7010995B8CFA0
:1038D0000F931F93CF93DF9300D000D0CDB7DEB707
:1038E0008C01562F6631B9F1B0F4643121F16531A4
:1038F000B1F460E0C8014C8345DF4C81642FC801FE
:1039000054DF81E00F900F900F900F90DF91CF91D7
:103910001F910F910895673121F06A3160F080E0C6
:10392000F1CF61E02A833B834C8359832BDF59819C
:103930004C813B812A81D8011896ED91FC91199711
:10394000652FC8010F900F900F900F90DF91CF91CE
:103950001F910F91099461E0CDCFDC011A96ED9192
:10396000FC911B9720E030E00994CF93DF93E901AD
:103970004330D0F0433059F0CB010E94617F68831F
:1039800079838A839B8381E0DF91CF910895CB0176
:103990000E94667FA0E0B0E088839983AA83BB83FE
:1039A00081E0DF91CF910895CB010E94597F90E093
:1039B000A0E0B0E088839983AA83BB8381E0DF9194
:1039C000CF9108950F93DC01CB01BA01033070F061
:1039D000033031F0A9010E947D7F81E00F910895AD
:1039E000B9010E94857F81E00F910895622F0E94A6
:1039F0006B7F81E00F910895CF93DF931F92CDB736
:103A0000DEB7813031F00E94D57C0F90DF91CF91ED
:103A10004BC189830E94A97C89810E94D57C0F902B
:103A2000DF91CF9141C1CF93DF93C0E0D0E0AE01F1
:103A300060E084E00E94AB7A6F32710581059105E8
:103A400041F42196CA30D10591F781E0DF91CF9101
:103A5000089580E0DF91CF91089565E08FE091E0D7
:103A60000E94417885EB9CE10E94BB7D82EE9CE147
:103A70000E94C07DD8DF8111089581E0BDCF84EB25
:103A800095E00C942A78AF92BF92CF92DF92EF929A
:103A9000FF920F931F93CF93DF9300E010E0980104
:103AA00040E050E060E080E00E94CB7AC0E0D0E0EF
:103AB00000E010E09801AE0161E080E00E94CB7A66
:103AC0002196CF30D105A1F7C12CD12C89E493E008
:103AD0005C01A094B094C9E4D3E07501EC0CFD1C2A
:103AE000099110E020E030E0A7014C0F5D1F62E07B
:103AF00080E00E94CB7A83E0C935D80789F7E0E1FE
:103B0000CE0ED11CF0EFCF16D10429F787E8A82EEE
:103B1000B12C650187E8C81AD1089AE3E92E93E031
:103B2000F92EE601F70101917F0110E020E030E07D
:103B3000AE0163E080E00E94CB7A2196F9E4EF16B3
:103B4000F3E0FF0679F78FE0C80ED11CCA14DB043E
:103B500021F75601E7E8AE0EB11CF0E7AF16F8E02A
:103B6000BF06B9F6DF91CF911F910F91FF90EF90B3
:103B7000DF90CF90BF90AF900895AF92BF92CF9259
:103B8000DF92EF92FF920F931F93CF93DF9325E184
:103B9000A22EB12C650185E1C81AD10897E3E92E60
:103BA00093E0F92EE601F70101917F0110E020E09A
:103BB00030E0AE0160E081E00E94CB7A2196FAE32A
:103BC000EF16F3E0FF0679F783E0C80ED11CCA14A4
:103BD000DB0421F75601E5E1AE0EB11CF0E5AF16AE
:103BE000F1E0BF06B9F68FE3C82ED12CE601EF97BE
:103BF0007E01E7E0EE0EF11C00E810E020E030E08E
:103C0000AE0161E081E00E94CB7A2196CE15DF05FE
:103C100099F7CC15DD0561F76E01FFE3CF0ED11CDE
:103C200085EBC81682E0D80609F7DF91CF911F9186
:103C30000F91FF90EF90DF90CF90BF90AF900895DD
:103C4000EF92FF920F931F93CF93DF938FE2E82EB3
:103C500083E0F82EC0E0D0E0F70101917F0110E091
:103C600020E030E0AE0160E083E00E94CB7A219654
:103C7000C830D10589F700E010E0980140E050E03D
:103C800061E083E00E94CB7A00E010E0980141E01F
:103C900050E061E083E00E94CB7ADF91CF911F91E9
:103CA0000F91FF90EF900895EEDE67DFC9CF0F937D
:103CB0001F93CF93DF938C01C62F40E00E94DF3625
:103CC000811114C0F801EC0FF11DC7FDFA95EF0149
:103CD000C156DE4FDF01AE56BF4F488160818C91E7
:103CE000DF91CF911F910F910C94D8776C2FCC0F4F
:103CF000770BD801A60FB71FA156BE4F6A5C7F4F46
:103D0000660F771FF801E60FF71F6C918081918194
:103D1000DF91CF911F910F910C94E7770F931F9331
:103D2000CF93DF938C01C62F41E00E94DF368111D3
:103D300014C0F801EC0FF11DC7FDFA95EF01C15653
:103D4000DE4FDF01A556BF4F488161858C91DF9121
:103D5000CF911F910F910C94D8776C2FCC0F770BCC
:103D6000D801A60FB71FA156BE4F615C7F4F660FEB
:103D7000771FF801E60FF71F6C9180819181DF9129
:103D8000CF911F910F910C94E7772F923F924F9212
:103D90005F926F927F928F929F92AF92BF92CF92DB
:103DA000DF92EF92FF920F931F93CF93DF93CDB7E4
:103DB000DEB728970FB6F894DEBF0FBECDBF3C012B
:103DC000362EF42E222E21E04BE0221248C00E9413
:103DD000802B882309F406C1332D87E03802800147
:103DE0001124580190EAA91A9EEFB90AA60CB71C33
:103DF00009591E4F060D171D6301C30CD11C37FC5A
:103E0000DA94E1E6CE1AEEEFDE0AF50181915F0168
:103E1000803829F0F60140816F2D0E94C877A016E6
:103E2000B10699F7422D632DC30128960FB6F89479
:103E3000DEBF0FBECDBFDF91CF911F910F91FF90DD
:103E4000EF90DF90CF90BF90AF909F908F907F903A
:103E50006F905F904F903F902F900C94B5430E94CD
:103E6000802B882309F470C0E32C032C000CFF087E
:103E7000C301F32D27E0F202800D911D1124FC01F6
:103E8000E05AFE4F6F015301F0EAAF1AFEEFBF0A8E
:103E9000930129593E4F3C832B83285C3F4F3E833F
:103EA0002D83C3018E0D9F1D43013EED830E911C9A
:103EB0009C0121563E4F3A832983F6018081803848
:103EC000B9F10D811E819501412C512CE414F504AA
:103ED000E1F0642DC3012F8338870E94CC2A2F8103
:103EE0003885882391F0F40180819181042C02C0EF
:103EF000969587950A94E2F780FF07C0F9019081B3
:103F0000F6018081981709F465C0FFEF4F1A5F0A28
:103F1000295F3F4F0F5F1F4F89E048165104B1F6EC
:103F2000E981FA81408160E0F60180810E94CD77CD
:103F3000FFEFCF1ADF0A2FEFA21AB20A2B813C81C2
:103F4000A216B30609F0B9CF41E1632DC3010E9467
:103F5000802B882309F45FC0032D032C000C110B68
:103F6000C12CD12C07C03FEFC31AD30A89E0C81671
:103F7000D10429F10C151D05B1F3FC2C6C2DC301E6
:103F80000E94CC2A882379F341E16C2DC3010E9461
:103F9000802B882309F447C06F2DC3010E94BF2CDA
:103FA000F82E632DC3010E94BF2CF81609F43ACFF6
:103FB0003FEFC31AD30A89E0C816D104D9F6060D1B
:103FC000171DF801E156FE4F608180E090E00E94ED
:103FD000E77728CFF8019081E981FA8180819813F1
:103FE00094CFA6CF28960FB6F894DEBF0FBECDBFF4
:103FF000DF91CF911F910F91FF90EF90DF90CF90C5
:10400000BF90AF909F908F907F906F905F904F90F8
:104010003F902F90089542E1632DC3010E94802BB1
:1040200081119ACFFFCE42E16C2DC3010E94802BFB
:104030008111B2CF98CF8F929F92AF92BF92CF92C1
:10404000DF92EF92FF920F931F93CF93DF938C0138
:10405000F62E262F062E000C330B5C0180E9A80EED
:10406000B11CF5018081918102C0969587956A9572
:10407000E2F7F80180FF2FC0E20FF31FE288D801BA
:10408000A855BE4F8C91882391F1813009F059C019
:10409000FF2D87E0F80260011124E601C05ADE4FCF
:1040A000C00FD11F99E9C91A9EEFD90AC00ED11EBF
:1040B000200F311F4901E1E68E1AEEEF9E0A899129
:1040C000803829F0F40140816E2D0E94DD77CC15F7
:1040D000DD05A9F715C0E855FE4F8081882321F042
:1040E0008130C9F4E12CD4CFF801E20FF31FE1567F
:1040F000FE4F6081F801E755FE4F80810E94E27714
:10410000F501808191810F2C02C0969587950A94C4
:10411000E2F780FD16C0F801E155FE4F81E090E026
:10412000A0E0B0E004C0880F991FAA1FBB1FFA943B
:10413000D2F78095909520813181822393239183BA
:104140008083DF91CF911F910F91FF90EF90DF90CF
:10415000CF90BF90AF909F908F9008950E942A3487
:1041600085ED97E00C94FD368F929F92AF92BF92AF
:10417000CF92DF92EF92FF920F931F93CF93DF9333
:1041800085EBC82E85E0D82E9EEBE92E95E0F92E22
:1041900001E216E063E376E0CDEFD5E0AFE0B6E014
:1041A00027ECA22E25E0B22E20E030E088248A946D
:1041B00040E85EE3E0E89E2EF60181926F01F70190
:1041C00081927F01F801419351938F01FB0141934B
:1041D0005193BF01499359934D935D93F50181929A
:1041E0005F01F901EB5EF84FC901845E984F91922F
:1041F000E817F907E1F7295F3F4F2F333105E1F663
:104200008FEF809361078093600784E0809363075A
:10421000DF91CF911F910F91FF90EF90DF90CF90A2
:10422000BF90AF909F908F900895AF92BF92CF9222
:10423000DF92EF92FF920F931F93CF93DF9343355B
:1042400023E0520768F010E0812FDF91CF911F919A
:104250000F91FF90EF90DF90CF90BF90AF900895B7
:104260007A01162FEC0120E00E946634FE01EE5424
:10427000FE4F0FE720E0482F608185ED97E00E9418
:104280006737882309F446C0612FCE010E94CC2AEB
:104290008111D9CF41E0612FCE010E942743C12E69
:1042A000012E000CDD0820E0A701612FCE010E9445
:1042B0006634FE01EC0DFD1D838FFE01E057FF4FBC
:1042C00081E090E0A0E0B0E004C0880F991FAA1F31
:1042D000BB1F1A95D2F720813181822B932B9183BA
:1042E00080832FB7F8948091210590912205A091A9
:1042F0002305B09124052FBFCC0CDD1CCC0CDD1C9C
:10430000CC0DDD1DCB50DE4F88839983AA83BB8300
:1043100011E09ACF2FB7F894809121059091220552
:10432000A0912305B09124052FBF5E01EBE3AE1AE7
:10433000EEEFBE0AF5014081518162817381841BD9
:10434000950BA60BB70B0A97A105B10508F47BCF17
:10435000612FCE010E94CC2A082F882309F473CF45
:1043600040E0612FCE010E942743C12E012E000C98
:10437000DD0820E0A701612FCE010E946634FE0116
:10438000EC0DFD1D838F9E0120573F4F81E090E093
:10439000A0E0B0E004C0880F991FAA1FBB1F1A95A8
:1043A000D2F780959095D9014D915C911197842316
:1043B00095238D939C938FEF808381879601220FA5
:1043C000331F2C0F3D1FF901E459FF4F80E89EE396
:1043D00091838083729691838083F6979183808303
:1043E000729691838083F50110821182128213826A
:1043F000CE010E94C82C182F882319F1FE01E1512B
:10440000FE4F8081823009F01FCF6DE081E29CE099
:104410000E949874811117C085EB95E00E94CD2C05
:1044200040E0682F8DE499E00E948161FE01E05137
:10443000FE4F1082CF50DE4F188219821A821B82E3
:1044400003CF102F01CF85EB95E00E94CD2C41E0EA
:10445000682F8DE499E00E948161E8CF8F929F924E
:10446000AF92BF92CF92DF92EF92FF920F931F9382
:10447000CF93DF93D9015FB7F89400912105109194
:10448000220520912305309124055FBFC62F062EFB
:10449000000CDD0BFC0154E06502E00DF11D112460
:1044A000EB50FE4FC080D180E280F3800C191D09D3
:1044B0002E093F09083C11052105310560F1F62E52
:1044C0008C01FC01E057FF4F80819181062E02C0D4
:1044D000969587950A94E2F780FD2BC04423D9F086
:1044E000680121E5C21A2EEFD20AF601808191817E
:1044F0009C0102C0369527956A95E2F720FF0BC014
:10450000C00FD11F1A8A37972081222309F459C07E
:10451000213009F441C080E0DF91CF911F910F91CC
:10452000FF90EF90DF90CF90BF90AF909F908F90D3
:10453000089521E0AD01C8010E946634E82EC00F45
:10454000D11FFE01E753FE4F90819F3F39F19F5FDE
:104550009083963018F58A898E15E9F2EA8AC75356
:10456000DE4F1882F801E155FE4F808191819C0158
:104570000F2C02C0369527950A94E2F720FD02C061
:10458000E11050C0F801E855FE4F8081882309F4FE
:1045900059C0813009F0BFCF81E0BECF2A898E2D6E
:1045A00090E0821B910997FDB2C00497BCF6E21619
:1045B00009F4B1CFE110AFCF1A8AC753DE4F18828A
:1045C000E1CFC0E0D0E0B12C7801F0EEEF0EF11CAD
:1045D00007C02196C930D105E9F0F60180819181AB
:1045E0000C2E02C0969587950A94E2F780FFF1CFD2
:1045F0006C2FC801D1D7882361F3F70180819181A5
:104600000C2E02C0969587950A94E2F780FFE1CFC1
:10461000B394DFCFB1107FCFF801E755FE4F108282
:1046200081E07ACF41E050E060E070E004C0440FE8
:10463000551F661F771FFA94D2F7482B592B5183C9
:104640004083A0CFC0E0D0E0F12C680181E5C81A1A
:104650008EEFD80A6C2FC8019FD7882359F0F60136
:10466000808191810C2E02C0969587950A94E2F77D
:1046700080FDF3942196C930D10561F721E0F2164F
:1046800009F449C051E05F1508F045CF680182E1A7
:10469000C80ED11CC0E0D0E0F12C5801E1E5AE1A03
:1046A000EEEFBE0A4801F0EE8F0E911C6C2FC80190
:1046B00073D78823D9F0F501808191810C2E02C037
:1046C000969587950A94E2F780FF10C0F4018081E7
:1046D00091810C2E02C0969587950A94E2F780FF8F
:1046E00005C0F6018081F81608F4F82E2196FFEF38
:1046F000CF1ADF0AC930D105C9F6F801E755FE4FD8
:104700008081F81609F407CFE08281E005CF91950A
:10471000819591094ACFF801E755FE4FE08281E08B
:10472000FBCE6F927F928F929F92AF92BF92CF9269
:10473000DF92EF92FF920F931F93CF93DF939C0131
:10474000962F8FB7F89440912105509122056091E2
:104750002305709124058FBFC92F092E000CDD0B96
:10476000F90184E09802E00DF11D1124EB50FE4F99
:10477000C080D180E280F3804C195D096E097F0909
:10478000433051056105710580F480E0DF91CF91E0
:104790001F910F91FF90EF90DF90CF90BF90AF905F
:1047A0009F908F907F906F900895F92E6901692FE7
:1047B00083E995E00E94AA124C0185559109823641
:1047C000934018F75E01AA0CBB1CAC0CBD1CF50194
:1047D00084A195A18815990509F0C4C0F601E2519C
:1047E000FE4F808181114CC03501F8E46F0E711CC1
:1047F000F3018081918180389E4309F4A8C0CC0DDB
:10480000DD1DFE01ED54FE4F80818F3F11F08F5F63
:10481000808340E06F2DC6010E94DF36882309F4B3
:1048200056C002E020E0A4016F2DC6010E94E534CD
:104830004C01FE01ED54FE4F8081F501E459FF4F1C
:10484000863008F472C0808191819401281B390B55
:10485000C90137FD5FC004970CF497CF40E06F2D7E
:10486000C6010E94DF36882309F466C0F501E459C9
:10487000FF4F91828082CD54DE4F188281E086CF37
:10488000319680818111B0CF6DE081E29CE00E9481
:104890009874882309F4A8CFF501E85EFE4F808163
:1048A00091818816990608F449C0F501E65DFE4F2E
:1048B000808191818815990508F096CFE12C8401BB
:1048C00021E040E06F2DC6010E94CA3E8DCF01E07D
:1048D00020E0A4016F2DC6010E94E534FE01E355DE
:1048E000FF4F008139972081482FB496608185ED74
:1048F00097E00E946737882E912CFE01ED54FE4F01
:104900008081863058F08881F401E81BF109CF01DD
:10491000F7FFA1CF9195819591099DCF888190E076
:104920008815990509F09ACF30CF8081918188153B
:10493000990509F093CF29CF88829DCFE12C84017E
:1049400020E040E06F2DC6010E94CA3E4DCF00E03E
:1049500020E0A4016F2DC6010E94E534F30191838C
:1049600080834DCF95A284A22FB7F8948091210522
:1049700090912205A0912305B09124052FBFF60147
:10498000EB53FE4F80839183A283B38327CF6F9233
:104990007F928F929F92AF92BF92CF92DF92EF92CF
:1049A000FF920F931F93CF93DF939C01962F8FB7A6
:1049B000F894409121055091220560912305709152
:1049C00024058FBFC92F092E000CDD0BF90184E0EF
:1049D0009802E00DF11D1124EB50FE4FC080D180F4
:1049E000E280F3804C195D096E097F09433051055F
:1049F0006105710580F480E0DF91CF911F910F91E7
:104A0000FF90EF90DF90CF90BF90AF909F908F90EE
:104A10007F906F900895F92E6901692F83E995E0E1
:104A20000E94B6124C01855591098236934018F7C1
:104A30005E01AA0CBB1CAC0CBD1CF50186A997A994
:104A40008815990509F0C5C0F601E251FE4F808135
:104A500081114CC03501FAE56F0E711CF3018081A4
:104A6000918180389E4309F4A9C0CC0DDD1DFE0163
:104A7000E454FE4F80818F3F11F08F5F808341E0CF
:104A80006F2DC6010E94DF36882309F457C002E06B
:104A900021E0A4016F2DC6010E94E5344C01FE0106
:104AA000E454FE4F8081F501E258FF4F863008F450
:104AB00073C0808191819401281B390BC90137FD96
:104AC00060C004970CF497CF41E06F2DC6010E949F
:104AD000DF36882309F467C0F501E258FF4F918261
:104AE0008082C454DE4F188281E086CF3196808167
:104AF000813009F0AFCF6DE081E29CE00E949874B4
:104B0000882309F4A7CFF501E45CFE4F80819181F1
:104B10008816990608F449C0F501E25BFE4F8081D2
:104B200091818815990508F095CFE12C840121E049
:104B300041E06F2DC6010E94CA3E8CCF01E021E00A
:104B4000A4016F2DC6010E94E534FE01E154FF4F20
:104B5000008139972081482F7B96608185ED97E011
:104B60000E946737882E912CFE01E454FE4F80810D
:104B7000863058F08985F401E81BF109CF01F7FF71
:104B8000A0CF9195819591099CCF898590E088155A
:104B9000990509F099CF2FCF8081918188159905CA
:104BA00009F092CF28CF89869CCFE12C840120E0A8
:104BB00041E06F2DC6010E94CA3E4CCF00E021E0CB
:104BC000A4016F2DC6010E94E534F3019183808317
:104BD0004CCF97AA86AA2FB7F8948091210590917F
:104BE0002205A0912305B09124052FBFF601EB53B8
:104BF000FE4F80839183A283B38326CF8F929F92AF
:104C0000AF92BF92CF92DF92EF92FF921F93CF931A
:104C1000DF93EC01C351DE4F2881FC01E451FE4FCC
:104C2000308132130DC080E0DF91CF911F91FF9052
:104C3000EF90DF90CF90BF90AF909F908F900895AE
:104C400011E0120F1031A0F5212F30E0EFB7F894EA
:104C50004091210550912205609123057091240512
:104C6000EFBFF901EE0FFF1FEE0FFF1FE80FF91F57
:104C7000EB50FE4F80809180A280B3804819590983
:104C80006A097B09463051056105710560F27C01B6
:104C9000280F391F690184E2C81A8EEFD80AF6017D
:104CA0006081C70179D4811107C0188381E0BCCF2E
:104CB00020E030E010E0CACFF6016081F701E60F96
:104CC000F11D21E0438DC70160D8EFCFCF92DF9275
:104CD000EF92FF920F931F93CF93DF9300D0CDB746
:104CE000DEB76C01162F002369F0FC01E652FF4F7E
:104CF00080819181062E02C0969587950A94E2F7ED
:104D000080FD72C0EE2069F0F601E452FF4F808111
:104D10009181012E02C0969587950A94E2F780FD55
:104D20006BC0222389F0E12E012E000CFF08F60152
:104D3000E052FF4F80819181012E02C096958795A8
:104D40000A94E2F780FD28C0442399F0F601E05769
:104D5000FF4F80819181012E02C0969587950A941C
:104D6000E2F780FF12C04BE0612FC601C9D4811168
:104D70004CC0C6010F900F90DF91CF911F910F9102
:104D8000FF90EF90DF90CF9039CF20E040E0612F8F
:104D9000C6010E94C51EEDCF612FC6014A834BD9C3
:104DA000612FC60136D64A81882371F2F601EE0DD5
:104DB000FF1D82898111C8CFF601E155FE4F81E0C8
:104DC00090E0A0E0B0E0012E04C0880F991FAA1F58
:104DD000BB1F0A94D2F78095909520813181822360
:104DE000932391838083B0CFC60129834A830E9495
:104DF000571E4A81298186CF612FC60129834A83A4
:104E00000E948E1E4A8129818CCF612FC6010E948B
:104E10003645AFCFCF92DF92EF92FF920F931F9361
:104E2000CF93DF936C01C62FD42FF22EB5D38823F6
:104E300009F447C01092A701002349F10C2F0C2E52
:104E4000000C110BF601E652FF4F808191810C2E70
:104E500002C0969587950A94E2F780FFC4C0C60108
:104E600097D5882309F4F6C0F601E00FF11F008101
:104E70000F3F69F06C2F83E995E00E94AA1210E0C1
:104E80009C0140EB60E08DE499E00E94C75DE11079
:104E900033C0F1107EC0D1115AC08091A6018C1789
:104EA00011F1C093A60161E06C0F8DE499E0DF91F0
:104EB000CF911F910F91FF90EF90DF90CF900C94C6
:104EC000115AC60177D381110EC08091A7018111BB
:104ED0000AC08DE499E00E94826081E08093A7017E
:104EE0008FEF8093A601DF91CF911F910F91FF90DB
:104EF000EF90DF90CF9008950C2F0C2E000C110B2B
:104F0000F601E452FF4F808191810C2E02C09695EC
:104F100087950A94E2F780FF74C0C60139D58823CB
:104F200009F4B0C0F601E00FF11F01850F3F09F44D
:104F3000B0CF6C2F83E995E00E94B61210E09C017F
:104F400040EB61E08DE499E00E94C75DA2CFC6010D
:104F50001FD5811167C040E157E2F601EC0FF11D4A
:104F6000C7FDFA95638D8DE499E00E94C55BC6018B
:104F70000FD5811192CF61E08DE499E00E949D5A96
:104F80006C2FC601FCD4682F8DE499E00E94ED5F80
:104F900084CF4AE06C2FC601B3D38823E9F12C2FCC
:104FA0000C2E000C330BF601E155FE4F80819181F0
:104FB0000C2E02C0969587950A94E2F780FF2CC0CC
:104FC000F601E855FE4F8081882309F493C08130B3
:104FD00009F061CFF601E20FF31F62898DE499E0D9
:104FE0000E94315D58CF00E117E220E137E240E056
:104FF00060E08DE499E00E94C75DEE2009F449CF9E
:105000007BCF00E117E220E137E240E061E08DE490
:1050100099E00E94C75D3DCF6FEF8DE499E00E945B
:10502000315D39CF6C2F83E995E00E946F128C01BE
:105030006C2F83E995E00E946F1221E0AC016C2F88
:10504000C6010E946634682FA8018DE499E00E9491
:10505000C55B8DCF40E06C2FC6010E94DF368823F0
:10506000C9F1F801F696EE0FFF1FEC0DFD1D208132
:10507000318100E117E240EE60E08DE499E00E94AA
:10508000C75D05CF41E06C2FC6010E94DF36882343
:1050900089F0F801FF96EE0FFF1FEC0DFD1D20813A
:1050A000318100E117E240EE61E08DE499E00E9479
:1050B000C75DEFCEF601E00FF11F018510E0E55668
:1050C000FF4F208130E040EB61E08DE499E00E94E9
:1050D000C75DDFCEF601E00FF11F008110E0EE5654
:1050E000FF4F208130E040EB60E08DE499E00E94CA
:1050F000C75DCDCEF601E755FE4F60818DE499E0A6
:105100000E94315DC8CE2F923F924F925F926F9274
:105110007F928F929F92AF92BF92CF92DF92EF9247
:10512000FF920F931F93CF93DF93CDB7DEB72B97EB
:105130000FB6F894DEBF0FBECDBF6C01612C712C91
:10514000212C4C0122E1821A2EEF920A81519E4FAE
:105150009D838C83F601E051FE4FFF83EE83029620
:1051600099878887560190E9A90EB11CE654F10988
:10517000FB83EA832982BB86AA86662D83E995E0B4
:105180000E946F122C01162DAC01662DC6014DD860
:10519000F82E662DC60100D28111CFC0312C212CF2
:1051A000512C612FC601F8D1882309F47BC06DE032
:1051B0008FE698E00E949F4B8111B6C06EE08FE6AB
:1051C00098E00E949F4B811183C066E18FE698E0D2
:1051D0000E949F4B882309F460C166E18FE698E046
:1051E0000E941B4D312C212C512CFF20A9F1C6010E
:1051F000C8D1082FEA85FB8540815181062C02C069
:10520000569547950A94E2F74170612FC6010E94B6
:105210007B44EA85FB8580819181062C02C09695AE
:1052200087950A94E2F780FF2BC1C601EFD1EA858A
:10523000FB858111E5C080819181062C02C0969585
:1052400087950A94E2F780FF05C0EA81FB8180819F
:1052500081114DC1FF24F394C601D8D1882309F4EC
:1052600043C0FFEF6F1A7F0A29E06216710409F04C
:1052700084CF2B960FB6F894DEBF0FBECDBFDF9163
:10528000CF911F910F91FF90EF90DF90CF90BF9043
:10529000AF909F908F907F906F905F904F903F90D6
:1052A0002F900895612FC60177D181119ECFFF20E5
:1052B00099F26DE08FE698E00E949F4B811134C017
:1052C0006EE08FE698E00E949F4B882309F4F6C0B9
:1052D0006EE08FE698E00E941B4D212C512CF12CA2
:1052E000C60194D18111BDCF81E09BE00E94B172D3
:1052F000882309F4BDC0F981C601FF2309F492C0D7
:1053000040D1182F81E09BE00E94B172882309F4FC
:10531000E5C0EA81FB819081992309F4A2CF612F36
:10532000C6010E944C439DCF6DE08FE698E00E943D
:105330001B4D312C512CF12CD3CF662DC601F1D948
:10534000282E662DC60123DB382E92014F2D662DA7
:10535000C60184D8582EF4018081882309F421CF16
:10536000EC81FD818081823009F01BCFEE81FF81CD
:105370008081853009F415CF6DE081E29CE00E94C8
:105380009874882309F40DCF2FB7F89480912105E4
:1053900090912205A0912305B09124052FBFE885A7
:1053A000F9854081518162817381841B950BA60B25
:1053B000B70B893E9340A105B10508F4F2CEEE810A
:1053C000FF8180818F5F8083853008F0B8C0813095
:1053D00009F0A5C0222011F03110D1C02FB7F894E8
:1053E0008091210590912205A0912305B09124057B
:1053F0002FBFE885F98580839183A283B383D1CEC3
:1054000080819181062C02C0969587950A94E2F7D7
:1054100080FF20CF412F61E0C6010E946239FF2446
:10542000F3941ACFAED090E06816790609F019CF40
:1054300081E09BE00E94B172882309F468C0F40106
:105440008081882309F40DCFEC81FD818081EE24D9
:10545000E394813009F0E12C01E0811100E041E0AA
:10546000823009F040E020E0612FC601D3DCF9CEA4
:10547000E32C022D252D4F2D612FC60127DC3BCFBC
:10548000C6017FD0801709F4D0CEC60193D08823FF
:1054900009F4CBCEF1E0F983C8CE65E18FE698E060
:1054A0000E949F4B882309F4A0CE65E18FE698E027
:1054B0000E941B4D312C212CF12C12CF66E18FE67E
:1054C00098E00E949F4B8823C9F066E18FE698E040
:1054D0000E941B4D312C212C512C89CEEE24E394BB
:1054E00001E021E041E0612FC60194DC12CF612F81
:1054F000C6010E944C43FF24F394AECE65E18FE6D3
:1055000098E00E949F4B882309F471CECECFE32C04
:10551000022D252D4F2D612FC6017CDCA2CE662DDC
:10552000C6010E94A636EE81FF81908165E0691B6D
:1055300020E0482F8DE499E00E94DE614FCF662D78
:10554000C6010E94A63621E0482F60E08DE499E074
:105550000E94DE61662D83E995E00E946F125C0176
:10556000662DC6010E94A63621E0AB2809F420E092
:10557000482F50E0612FC6010E94963E2FCF612F29
:10558000CFCFFC01E552FE4F2081820F911DFC011F
:10559000EE52FE4F808108952FB7F8948091D30783
:1055A0009091D4072FBF02C0969587956A95E2F730
:1055B0008170089520E030E080E09FB7F89440913A
:1055C000D3075091D4079FBF022E02C0569547952E
:1055D0000A94E2F740FD8F5F2F5F3F4F293031057E
:1055E00061F70895FC01E455FE4F80810895FC01A8
:1055F000E555FE4F8081089581E067300CF480E02E
:10560000089581E067300CF080E00895FC01E355D7
:10561000FE4F80810895FC01E555FE4F40814730E3
:1056200064F0EB54F10989599E4F21912038F1F42F
:10563000E817F907D1F78CE00895FC01E455FE4F17
:105640002081842F440F990BAC01440F551F480F44
:10565000591F85E12802400D511D11244F5F5F4FF6
:1056600060E081E00E94AB7A862F08958BE22802E9
:10567000812D1124859527FD8395682F660F860F50
:10568000880F880F281B822F0895FC01611127C005
:10569000E555FE4F20812730B4F09C0129593E4F3B
:1056A000AC014A555E4FF901379791919038D9F482
:1056B000E217F307D1F79F01295F3F4F2417350702
:1056C00091F784E00895FC01E05AFE4F90818BE24F
:1056D0009802812D1124859597FD83950895E255B3
:1056E000FE4F808108958BE29802812D11248595CB
:1056F00097FD83950895FC01E655FE4F808108953E
:105700004A3009F458C048F04131B9F0423109F447
:1057100044C04B3051F180E00895483091F1493058
:10572000D1F7FC01E452FF4F8081918102C0969530
:1057300087956A95E2F781700895FC01E652FF4F64
:1057400020813181062E02C0369527950A94E2F712
:1057500020FFE1CFE05CFE4F8081918102C09695F1
:1057600087956A95E2F781700895FC01E252FF4F38
:105770008081918102C0969587956A95E2F7817044
:105780000895FC01E652FF4F8081918102C09695F9
:1057900087956A95E2F781700895FC01E452FF4F06
:1057A00020813181062E02C0369527950A94E2F7B2
:1057B00020FFB1CFCFCFFC01E052FF4F808191811C
:1057C00002C0969587956A95E2F781700895FC016D
:1057D000E855FE4F8081089527E06202800D911DFB
:1057E0001124840F911D47FD9A95FC01E05AFE4F4C
:1057F00080810895AC0149595E4FDC01AA55BE4F26
:105800007BE2FA0137972191203871F02702912D20
:105810001124959527FD9395392F330F930F990FE9
:10582000990F291B621759F0E417F50761F7AF01CB
:10583000495F5F4F4A175B0721F780E0089581E0D9
:1058400008959BE26902912D1124959567FD93952A
:10585000892F880F980F990F990F862F891B08950C
:105860008BE26802812D1124859567FD839508954B
:10587000FC01E455FE4F208131978081082E000CF9
:10588000990BAC01440F551F480F591F85E12802A1
:10589000400D511D11244E5F5F4F60E081E00E947A
:1058A000AB7A862F0895442369F0413049F4860F7E
:1058B000911D67FD9A95FC01E556FF4F8081089583
:1058C00080E00895860F911D67FD9A95FC01EE56C4
:1058D000FF4F80810895442379F0413089F42130CD
:1058E000D1F021110DC0860F911D67FD9A95FC0125
:1058F000EA54FF4F808108952130B1F0222311F046
:1059000080E00895860F911D67FD9A95FC01EC5586
:10591000FF4F80810895860F911D67FD9A95FC01C8
:10592000E154FF4F80810895860F911D67FD9A9580
:10593000FC01E355FF4F80810895442369F0413015
:1059400049F4860F911D67FD9A95FC01EF52FF4FB8
:105950008081089580E00895860F911D67FD9A95D6
:10596000FC01E853FF4F80810895FC01EF54FE4F86
:1059700080810895FC01EE54FE4F80810895860FCA
:10598000911D67FD9A95FC01E156FE4F80810895B7
:10599000FC01E251FE4F80810895FC01E151FE4F70
:1059A00080810895442391F0413069F4211126C08B
:1059B00022E06202800D911D1124FC01E45CFE4F87
:1059C00080819181089580E090E0089521110BC0BD
:1059D00022E06202800D911D1124FC01E85EFE4F61
:1059E00080819181089522E06202800D911D112431
:1059F000FC01E65DFE4F80819181089522E0620204
:105A0000800D911D1124FC01E25BFE4F808191818C
:105A10000895FC01E155FE4F8081918102C0969569
:105A200087956A95E2F7817008952F923F924F9281
:105A30005F926F927F928F929F92AF92BF92CF921E
:105A4000DF92EF92FF920F931F93CF93DF93CDB727
:105A5000DEB76A970FB6F894DEBF0FBECDBF6C01FC
:105A600086559E4F988F8F8BFC0180818111D0C10C
:105A7000C6018E569F4F9E838D83EF50F140FE8767
:105A8000ED87429698878F837296F88BEF874296C0
:105A90009A8789877296FA8BE98B5601F8ECAF0EDC
:105AA000B11C4B969C8B8B8BF601E156FE4FFC870D
:105AB000EB8700E010E085529F4F7C01E55CF10927
:105AC0002F01805D91091C0134963F0104964C0121
:105AD000E45CFE4FFC83EB839601245E3D4FDE8A3F
