S01000004669726D776172652E73726563D7
S214000000CBC60000F3C60000F1C60000EFC6000035
S214000010EDC60000EBC60000E9C60000E7C600001B
S214000020E5C60000E3C600000C94CC1D0C94951E9B
S214000030DDC60000DBC60000D9C60000D7C600003B
S214000040D5C60000D3C60000D1C60000CFC600004B
S214000050CDC600000C946815C9C60000C7C60000CF
S214000060C5C600000C948D190C94B8190C94EF19A1
S214000070BDC600000C94CE0DB9C60000B7C6000081
S2140000800C94C516B3C60000B1C60000AFC600008B
S214000090ADC60000ABC6000054136E136E136E138D
S2140000A06E136E136E136E136E136E136E136E1343
S2140000B06E136E136E136E1354136E136E136E134D
S2140000C06E136E136E136E136E136E136E136E1323
S2140000D06E136E136E136E1354136E136E136E132D
S2140000E06E136E136E136E136E136E136E136E1303
S2140000F06E136E136E136E1354136E136E136E130D
S2140001006E136E136E136E136E136E136E136E13E2
S2140001106E136E136E136E1348136E136E136E13F8
S2140001206E136E136E136E136E136E136E136E13C2
S2140001306E136E136E136E1348136E136E136E13D8
S2140001406E136E136E136E136E136E136E136E13A2
S2140001506E136E136E136E1354136E136E136E13AC
S2140001606E136E136E136E136E136E136E136E1382
S2140001706E136E136E136E136013481354134813E6
S2140001806E136E133C136E133C136E133C133C132A
S2140001903C136E133C133C13141F3C1F29203C1FBA
S2140001A029207C1F9F1F2920F61F06206C216A210C
S2140001B068216621642162216E216E216E216E21E6
S2140001C06E216E216E216E215E2160215A215C21F6
S2140001D0702158214A254A254A254A254A254A2576
S2140001E043253F2550255025502550255025502580
S2140001F04A254A254A254A254A254A254725472588
S214000200472550255025502550253C253C253C2586
S2140002103C253C257427E7277A2848287A2848284A
S2140002204828242824284828CC36D336DA36E1361F
S214000230E836F636EF36597E5F7E657E6B7E717EDB
S214000240777E7D7E08000000BE922449123EABAA4F
S214000250AA2ABECDCCCC4C3E00000080BEABAAAADB
S214000260AA3E00000000BF000000803F0000000023
S21400027000084178D3BB4387D1133D190E3CC3BD5C
S2140002804282AD2B3E68EC8276BED98FE1A93E4C09
S21400029080EFFFBE01C4FF7F3F0000000000076341
S2140002A04236B79BD8A71A39685618AEBAAB558CE3
S2140002B01D3CB7CC5763BD6DEDFD753EF61772312C
S2140002C0BF000000803F436F6D706C657465210051
S2140002D0506C6561736520776169742E2E2E00520E
S2140002E06573746F72696E672064656661756C7499
S2140002F0732E000C035A00760075006B0039000060
S21400030000160341006400200042006900740020CB
S214000310004C004C00430000000403090409026579
S21400032000020100C0FA09040000000101000009F3
S2140003302401000109000101090401000201030073
S21400034000072401000141000624020101000624E2
S214000350020202000924030103010201000924032A
S2140003600204010101000905020240000500000523
S214000370250101010905810240000500000525014F
S21400038001031201000200000008C11685040100E6
S2140003900102000143616C696272617465207072CB
S2140003A06573737572650043616C6962726174652A
S2140003B020590043616C696272617465205800467A
S2140003C06163746F72792072657365740044657634
S2140003D069636520696E666F005061642063616CB6
S2140003E06962726174696F6E004F66662063686149
S2140003F06E6E656C004F6E206368616E6E656C2F66
S214000400302076656C0044697361626C65640045F3
S2140004106E61626C656400506F6C79004368616E53
S2140004206E656C004E6F7465206F66660052756E62
S2140004306E696E67207374617475730041667465C7
S21400044072746F7563682074797065004578702ED5
S214000450004C6F672E004C696E65617200486172D1
S21400046064004D656469756D00536F6674004D4990
S21400047044492073657474696E67730050726573BF
S214000480732E2063757276650050726573732E2026
S21400049073656E736974697669747900466163740E
S2140004A06F7279207265736574004465766963655A
S2140004B020696E666F00202020202020202020202B
S2140004C020202020202020202020005B205D005BB4
S2140004D0785D0053657276696365206D656E75009C
S2140004E053657474696E6773004669726D776172DE
S2140004F0652075706461746564210063680020205F
S2140005002020200045646974696E6720706164006D
S2140005104D494449206368616E6E656C20005765DE
S2140005206C636F6D652100617400500020202020F0
S21400053020202020202020202020202020202020B6
S21400054000616C6C20706164730070616400040468
S214000550090A74056F0565055A055265636F72646E
S214000560206F6666005265636F7264206F6E00537C
S214000570746F7000506C6179000505A3059D050831
S21400058008EB05E205202020202020002020202047
S21400059000790078004343790043437800592043AC
S2140005A0433D00582043433D0059206D696E3D0091
S2140005B059206D61783D0058206D696E3D005820C9
S2140005C06D61783D007769646520656E64730077B9
S2140005D0696465206D6964646C65006C696E65614C
S2140005E07200592063757276653D005820637572F7
S2140005F076653D00080D0404083306250620061B14
S214000600061206090E050509610652064C06460640
S2140006103C0653706C6974206F6E0059206F6E0034
S21400062058206F6E004166746572746F756368203B
S2140006306F6E004E6F746573206F6E0053706C693A
S21400064074206F66660059206F66660058206F66D5
S21400065066004166746572746F756368206F6666BF
S214000660004E6F746573206F6666000D0D0E050EE6
S21400067010100BE306D506C606C006B106A0068F08
S2140006800683065573657220707265736574004D37
S214000690616A6F722050656E7461746F6E69630074
S2140006A04D696E6F722050656E7461746F6E69630B
S2140006B0004861726D6F6E6963204D616A6F7200EB
S2140006C04D616A6F72004861726D6F6E6963204D8E
S2140006D0696E6F72004D656C6F646963204D696E5C
S2140006E06F72004E61747572616C204D696E6F7228
S2140006F0002043616E63656C3A20616E79206F74EA
S214000700686572002020315B205D20375B205D200D
S214000710395B205D2020200020436F6E6669726D75
S214000720207769746820706164733A004861726467
S214000730776172653A2000536F6674776172653A26
S21400074020002A2A2A464143544F525920524553E4
S21400075045542A2A2A006E6F7465732073657400E8
S2140007604D6178696D756D206E756D626572206F6E
S21400077066004578697420706164206D6F6465203A
S214000780746F00656E7465722063616C6962726175
S21400079074696F6E00656E746572207061642065A2
S2140007A0646974206D6F6465006368616E676520B8
S2140007B04343206C696D6974006368616E676520E9
S2140007C04343006368616E676520637572766500F3
S2140007D06368616E67652070726573657400636830
S2140007E0616E67652070726F6772616D0063686125
S2140007F06E676520706172616D6574657273005214
S214000800656C6561736520616C6C20706164732033
S214000810746F00746F206564697420706164206E64
S2140008206F7465730053656C6563742075736572C9
S21400083020707265736574004F7574206F66207241
S214000840616E6765000102010201010201020102F8
S21400085001EF08EC08EA08E708E508E308E008DE28
S21400086008DB08D908D608D4086E002020202020EF
S2140008702020202020202020202020202020202073
S214000880202020200076004F6E65206E6F74652055
S2140008907570004F6E65206E6F746520646F776E9E
S2140008A000416374697665206F63746176653A20EB
S2140008B0004F63746176652000546F6E6963200094
S2140008C03C6E6F2061737369676E6564206E6F742B
S2140008D065733E0042004123004100472300470065
S2140008E046230046004500442300440043230043BB
S2140008F000030D830C030C830B030B830A030A838C
S21400090009030900000000000000000000000000CD
S21400091000000101010101010202020303030404B5
S214000920050506070708090A0B0C0D0E0F10111314
S214000930141617191B1D1F212325272A2C2F323585
S214000940383B3E4144474A4D505355585A5C5E60CA
S21400095062646668696B6C6E6F70717273747576BC
S214000960777878797A7A7B7B7C7C7C7D7D7D7E7ED1
S2140009707E7E7E7E7F7F7F7F7F7F7F7F7F7F7F7F86
S2140009807F7F7F00000000000000000101010101E0
S2140009900202020303030404050506070708090903
S2140009A00A0B0C0D0E0F10111213141617181A1B23
S2140009B01D1E2021232426282A2C2D2F313336389D
S2140009C03A3C3E41434547494C4E50525355575981
S2140009D05B5C5E5F616264656768696B6C6D6E6FB9
S2140009E07071727374757676777878797A7A7B7B9D
S2140009F07C7C7C7D7D7D7E7E7E7E7E7F7F7F7F7F16
S214000A007F7F7F0000000001010101020203030452
S214000A100405050606070809090A0B0C0D0D0E0F3E
S214000A201011121314151718191A1B1C1E1F20223A
S214000A3023242627282A2B2D2E3031333536383AD4
S214000A403B3D3F4042444547494A4C4E4F51525425
S214000A50555758595B5C5D5F60616364656667689F
S214000A606A6B6C6D6E6F7071727273747576767772
S214000A707879797A7A7B7B7C7C7D7D7E7E7E7E7FB4
S214000A807F7F7F00000101020203030405060607BC
S214000A900809090A0B0C0D0E0F1011121314151667
S214000AA01718191A1B1C1D1E1F2021222425262755
S214000AB028292B2C2D2E30313233353637383A3B19
S214000AC03C3E3F40414344454748494A4C4D4E4FC3
S214000AD051525354565758595A5B5D5E5F60616277
S214000AE0636465666768696A6B6C6D6E6F70717259
S214000AF07374757676777879797A7B7C7C7D7D7E63
S214000B007E7F7F000102030405060708090A0B0C16
S214000B100D0E0F101112131415161718191A1B1C88
S214000B201D1E1F202122232425262728292A2B2C78
S214000B302D2E2F303132333435363738393A3B3C68
S214000B403D3E3F404142434445464748494A4B4C58
S214000B504D4E4F505152535455565758595A5B5C48
S214000B605D5E5F606162636465666768696A6B6C38
S214000B706D6E6F707172737475767778797A7B7C28
S214000B807D7E7F00030507080A0B0D0E0F1011135C
S214000B901415161718191A1B1C1D1E1F2021222398
S214000BA0242525262728292A2B2B2C2D2E2F30309E
S214000BB031323334343536373838393A3B3B3C3DBE
S214000BC03E3E3F40414142434444454647474849EC
S214000BD04A4B4B4C4D4E4F4F505152535454555612
S214000BE05758595A5A5B5C5D5E5F60616263646524
S214000BF0666768696A6B6C6E6F7071727475777809
S214000C007A7C7F00080B0D0F1113141617191A1B88
S214000C101C1D1E1F20212223242526262728292A9C
S214000C202A2B2C2D2D2E2F2F3031313233333435C5
S214000C3035363637383839393A3A3B3C3C3D3D3E16
S214000C403E3F3F404041414242434344454546467D
S214000C5047474849494A4A4B4C4C4D4E4E4F5050D8
S214000C605152525354555556575859595A5B5C5D14
S214000C705E5F6061626364656668696B6C6E707205
S214000C8074777F001115181A1C1E1F212223242595
S214000C90262728292A2A2B2C2C2D2E2E2F30303191
S214000CA031323233333434353536363737383838F0
S214000CB039393A3A3A3B3B3C3C3C3D3D3D3E3E3E74
S214000CC03F3F3F404040414141424242434343440C
S214000CD0444545454646474747484849494A4A4B9A
S214000CE04B4C4C4D4D4E4E4F4F505151525353540A
S214000CF05555565758595A5B5C5D5E60616365672B
S214000D006A6E7F002226282A2B2C2D2E2F3031317A
S214000D10323233333434353536363637373738387B
S214000D2038393939393A3A3A3A3B3B3B3B3C3C3C1A
S214000D303C3C3D3D3D3D3D3E3E3E3E3E3E3F3F3FD4
S214000D403F3F3F4040404040404141414141414299
S214000D504242424243434343434444444445454558
S214000D6045464646464747474848484949494A4A05
S214000D704B4B4C4C4D4D4E4E4F5051525354555775
S214000D80595D7F00BA0C56152F242029BB314446E6
S214000D908149B56A406B0F7C11241FBECFEFD0E2AD
S214000DA0DEBFCDBF12E0A0E0B1E0E2E9F6E001E090
S214000DB00BBF02C007900D92AC30B107D9F723E104
S214000DC0ACE0B2E001C01D92A93DB207E1F716E023
S214000DD0CCECD6E004C02197FE010E948482C23C7F
S214000DE0D107C9F70E94457C0C94478309C9CF9365
S214000DF0DF93C0E0D0E0C0FF05C06DECCE010E94DE
S214000E00218304C062E3CE010E9421832196C5306F
S214000E10D10589F7DF91CF9108950F931F93CF9354
S214000E20DF938C010E94A942E801CF57DC4FF801FE
S214000E30EF53FC4F98012F5B3B4FD901199211924B
S214000E4011921D921D92E217F307C1F7F801EF53B6
S214000E50FB4F108231961082DF91CF911F910F9138
S214000E600895CF93DF93C0E0D0E06FEFCE010E94ED
S214000E7021832196C11580E1D807B9F7DF91CF917C
S214000E8008952F923F924F925F926F927F928F9229
S214000E909F92AF92BF92CF92DF92EF92FF920F9304
S214000EA01F93CF93DF9300D000D000D0CDB7DEB72E
S214000EB05C018C0102591D4F4C0128E6821A2DEF69
S214000EC0920A60E070E0512C412C33243394212C9C
S214000ED059824A820F2EF6E37F2EF02D0F2EFBE16D
S214000EE06F2EF02D6801DDC0009739F4AD81BE810C
S214000EF014961C921E9213973CC0AB81BC812C9119
S214000F00213021F118F0223051F133C07F012489BD
S214000F1035893695279536952795369527954081B8
S214000F2051818901040F151F468957894770552737
S214000F30232D322D452B11F429813A81200F311FA4
S214000F40D70113963C932E93129713C0408151817C
S214000F5024893589240F351F338322830AC04489A8
S214000F605589440F551F20813181240F351F338347
S214000F7022830196AD81BE814C912B813C812F5FEF
S214000F803F4F3C832B833296242F30E08217930703
S214000F900CF4AACF8D014150842F90E0769EF0018C
S214000FA0779EF00D1124EA0DFB1DE80FF91FE7569A
S214000FB0FD4F2081213061F120F0223009F43FC03E
S214000FC056C0669E9001679E300D1124280F391F6B
S214000FD0220F331F2A0D3B1DF901EB57FD4F4081B1
S214000FE05181CA019695879596958795969587958A
S214000FF0749720813181280F391F4770552781E06B
S21400100090E0452B11F4852D942D820F931F31C04F
S214001010669EF001679EF00D1124E80FF91FEE0F93
S214001020FF1FEA0DFB1DDF01AB57BD4FEF58FD4F0D
S2140010302D913C9180819181820F931F1AC0669EEC
S214001040A001679E500D1124480F591F440F551FCD
S2140010504A0D5B1DFA01EB57FD4F80819181880F89
S214001060991F749720813181820F931F02C0852DAE
S214001070942D6430710554F4D80111962D913C914D
S2140010801297820F931FF401968785876F5F7F4FB5
S214001090F6E3CF0ED11C26E3820E911C6530710557
S2140010A079F08601D6014C91442309F474CFF601F9
S2140010B03196852D942D9C828B82DE82CD8214CF34
S2140010C026960FB6F894DEBF0FBECDBFDF91CF9148
S2140010D01F910F91FF90EF90DF90CF90BF90AF9051
S2140010E09F908F907F906F905F904F903F902F9043
S2140010F008952F923F924F925F926F927F928F92B7
S2140011009F92AF92BF92CF92DF92EF92FF920F9391
S2140011101F93CF93DF9300D000D000D0CDB7DEB7BB
S214001120662331F0FC01ED55FD4F20812111C6C02C
S2140011309C838B83FC01E159FD4F4080518085E004
S214001140480E511CEB81FC81EF58FD4F8081918148
S21400115060E0840D951D0E942183EB81FC81ED5893
S214001160FD4FE080F180E40CF51C8701065F1F4F01
S21400117060E0C7010E9421839FEFE91AF90AE01692
S214001180F106B1F7E12CF12CCB80DC80ABE8CA1A73
S214001190ADEFDA0A0F2EF2E98F2EF1E09F2EF02D3A
S2140011A005EA11E05401A094B094F6012080318045
S2140011B0240C351C2E0C3F1C34012A0C3B1CD3017E
S2140011C06D913D01C1018A0F9B1F0E94218360160D
S2140011D07106A9F7B3E1EB0EF11CEEEBEE16F10487
S2140011E021F7612C712C8B819C8189589D4F9A83A5
S2140011F0898385E891E002E911E05C01A094B0944F
S214001200282E392EA981BA81ED90FC90E40CF51CAD
S214001210E60CF71C6701B5E7CB0ED11C12C0F40133
S21400122061914F018D819E818E0F9F1F0E942183A9
S21400123080169106A1F7FDE0EF0EF11CEC14FD04FC
S21400124041F0822C932CC5018E0D9F1D9E838D83AD
S214001250E6CF95E7690E711CA2E96A16A4E07A0645
S21400126089F6E12CF12CCB80DC80B7E8CB1ABDEFF9
S214001270DB0AF601A080B180A40CB51CAE0CBF1C26
S21400128085010B5E1F4F64E0C5010E94218360E06C
S214001290C50101960E94218360E0C50102960E9466
S2140012A02183F3E0AF0EB11CA016B10661F785E10D
S2140012B0E80EF11C92EDE916F104D9F626960FB663
S2140012C0F894DEBF0FBECDBFDF91CF911F910F9177
S2140012D0FF90EF90DF90CF90BF90AF909F908F9051
S2140012E07F906F905F904F903F902F9008952F9231
S2140012F03F924F925F926F927F928F929F92AF92A1
S214001300BF92CF92DF92EF92FF920F931F93CF93ED
S214001310DF93662331F0FC01E752FD4F2081211157
S21400132047C0FC01EB55FD4FA080B18025E0A20E22
S214001330B11CC12CD12C4C01E9E58E1AEDEF9E0AAA
S21400134044244394512CF401008111810A0D1B1D85
S2140013500C0D1D1D7801FFE3EF0EF11C1BC02FEFD7
S214001360621A720A219681E06816710431F460E30D
S214001370822D932D0E942183F2CF60E8CE010E9439
S2140013802183E7E06E16710454F3095F1F4F0E15B4
S2140013901F0531F0202E312EE801642C752CE3CF8A
S2140013A0FFE3CF0ED11C26E7C21622E0D20659F67E
S2140013B0DF91CF911F910F91FF90EF90DF90CF902C
S2140013C0BF90AF909F908F907F906F905F904F9060
S2140013D03F902F900895CF92DF92EF92FF920F9357
S2140013E01F93CF93DF93662331F0FC01E15FFC4F40
S2140013F02081211198C07C01FC01E552FD4FC0817F
S214001400D181259632968081918160E08C0F9D1F58
S2140014100E94218300E010E0670181E2C81A8DEF88
S214001420D80AF601808191818C0F9D1F64E170E0DF
S214001430800F911F0E9433830E5F1F4F02311105EC
S21400144081F700E010E06701FFE1CF1AFDEFDF0A49
S214001450F601808191818C0F9D1F6EE571E0800FF3
S214001460911F0E9433830E5F1F4F0231110581F7D3
S21400147000E010E06701FDE1CF1AFDEFDF0AF6019C
S214001480808191818C0F9D1F6EE571E0800F911F0A
S2140014900E9433830E5F1F4F0231110581F700E073
S2140014A010E06701FBE1CF1AFDEFDF0AF60180814D
S2140014B091818C0F9D1F6AE872E0800F911F0E9439
S2140014C033830E5F1F4F0231110581F700E010E0F5
S2140014D06701F9E1CF1AFDEFDF0AF60180819181FD
S2140014E08C0F9D1F6EE571E0800F911F0E94338365
S2140014F00E5F1F4F0231110581F700E010E0F7E1A3
S214001500EF1AFDEFFF0AF701808191818C0F9D1F76
S2140015106AE872E0800F911F0E9433830E5F1F4FB0
S2140015200231110581F7DF91CF911F910F91FF9046
S214001530EF90DF90CF900895CF93DF93662331F03E
S214001540FC01EB5BFC4F2081211114C0FC01EF5E17
S214001550FC4FC081D18160E0CE0105960E942183B8
S21400156060E0CE0106960E94218360E0CE010796D9
S2140015700E942183DF91CF9108951F93CF93DF932D
S214001580EC01162FB6DD612FCE01B1DE612FCE0144
S21400159022DF612FCE01D0DFDF91CF911F9108951A
S2140015A01F93CF93DF93EC01162F6FED72E00E942E
S2140015B0AF82E1D360E080E0CCD3CE01FCD361E023
S2140015C080E0C7D32FEF87EA91E621508040904015
S2140015D0E1F700C0000060ED72E0CE010E94AF822D
S2140015E0CE01E9D32FEF87EA91E621508040904064
S2140015F0E1F700C00000111102C0CE0132DC61E04C
S214001600123009F060E0CE01B8DFCE01F0DB62E018
S21400161080E09FD366EC72E0CE010E94AF82CE01DE
S214001620CAD32FEF87EA91E6215080409040E1F739
S21400163000C00000DF91CF911F910895EF92FF92B6
S2140016400F931F93CF93DF937C01C0E0D0E00DECA7
S214001650C0FD02C012E301C0102FCE010E94148309
S214001660811305C02196C530D10591F718C0C0E09A
S214001670D0E0CE010E941483182FCE0101960E945E
S21400168014838095181721F060E0C70189DF07C032
S2140016902196C430D10569F761E0C70181DFDF918B
S2140016A0CF911F910F91FF90EF900895CF93DF9306
S2140016B0EC0164D1CE01E5DBCE01C0DFDF91CF9136
S2140016C008951F93CF93DF93FC01EE53FB4F1081D9
S2140016D0319720812117B1F11F5F103408F010E018
S2140016E0EC01812F90E0FE01E80FF91FEF57FC4F49
S2140016F02081223018F0223089F01FC0880F991FF1
S2140017008C0F9D1FDC01AF53BC4FFC01EF5BFB4F02
S2140017106C91808191810E9421830FC0880F991F50
S2140017208C0F9D1FFC01EF53FC4F60817181E058C8
S214001730FF4F808191810E943383CE53DB4F188305
S21400174081E001C080E0DF91CF911F910895CF9294
S214001750DF92EF92FF920F931F93CF93DF93EC01EC
S2140017608B017A01C22EFC01EF53FB4FD080D3943D
S2140017708FE38D1508F4D12CFE01EE53FB4F8081CC
S2140017808D1104C0CE019DDF8823E1F38D2D90E0FE
S214001790FE01E80FF91FEF57FC4FC082880F991F14
S2140017A08C0F9D1FFC01EF53FC4FF182E082E05846
S2140017B0FF4F11830083CF53DB4FD882DF91CF9149
S2140017C01F910F91FF90EF90DF90CF900895CF92EA
S2140017D0DF92EF92FF920F931F93CF93DF93EC016C
S2140017E050E0FC0186E3689FE00DF11D1124E159ED
S2140017F0FD4FA081B1811596C62ED12CFA018BE142
S214001800689FE00DF11D1124EE0FFF1FEC0FFD1F6A
S214001810EF58FD4F60817181A60FB71FA13080E1A0
S214001820B80708F09AC086E38C9DF0018D9DF00DF8
S2140018301124EC0FFD1F4E0F5F1FFA01E756FD4FF8
S2140018408081813009F450C020F0823009F468C0ED
S21400185086C0C90133230CF4079695958795959510
S214001860879595958795982F990F990F990FF22E32
S214001870F91A6D01C80ED11CC6010E941483012BF3
S21400188071F041E050E060E070E004C0440F551F86
S214001890661F771FFA94D2F7182F142B0EC041E05C
S2140018A050E060E070E004C0440F551F661F771FCD
S2140018B0FA94D2F74095182F1423EE2041F0412FCA
S2140018C050E020E0B601CE0142DF21E049C0612FA2
S2140018D0C6010E942183C6010E94148321E081175D
S2140018E009F43EC020E03CC0EE2049F0BD01620F86
S2140018F0731F21E0A801CE012ADF21E031C0ED01EF
S214001900C20FD31F602FCE010E942183CE010E94FA
S214001910148390E021E08017910711F120E020C0A9
S214001920EE2049F0BD01620F731F22E0A801CE0130
S2140019300EDF21E015C0220F331FED01C20FD31FAB
S214001940B801CE010E943383CE010E941C8321E0A1
S2140019508017910729F020E003C020E001C020E0B6
S214001960822FDF91CF911F910F91FF90EF90DF9024
S214001970CF9008958CE092E050CA0895FC01E25999
S214001980FD4F25E02083F59610827E9761E070E09B
S21400199071836083749621E0208372974AE050E05A
S2140019A0518340837396208371974EEB50E05183AA
S2140019B0408372962083709742E954E051834083B7
S2140019C0719620833F9742ED50E051834083709696
S2140019D0208337962083F59610827E9746E752E05E
S2140019E051834083749620833B9637E03083F59688
S2140019F020837E977183608374962083729749E074
S214001A0050E051834083739632E030837197518360
S214001A1040837296308370975183408371963083EB
S214001A203F9751834083709630833E97518340831F
S214001A303F9630833D97518340833E96308335965C
S214001A402083F59610827E9743E050E051834083D2
S214001A50749620833B963083F59610827E9771832A
S214001A606083749620837297718360837396208355
S214001A700895EAE7F0E090819F779083813061F0E7
S214001A8028F0823079F0833099F00895EAE7F0E0A4
S214001A908081846080830895EAE7F0E08081856035
S214001AA080830895EAE7F0E0808186608083089569
S214001AB0EAE7F0E08081876080830895813069F0EE
S214001AC018F0823099F00895ECE7F0E080818F7B83
S214001AD0808380818F7780830895ECE7F0E08081B3
S214001AE08064808380818F7780830895ECE7F0E0C0
S214001AF080818064808380818068808308958830B8
S214001B0040F4ECE7F0E090818F70907F892B808323
S214001B100000089580917A0086FD13C080917A00B7
S214001B2083FF05C08091CF069091D0060895EAE71E
S214001B30F0E0808186FDFDCF80917800909179005D
S214001B4008958FEF9FEF08950F931F93CF93DF9322
S214001B50082F162F842F10927C00CAE7D0E0188238
S214001B60ADDF802F86DFEBE7F0E080818068808342
S214001B7080E0C5DF888180688883CCDFCBDFCADF62
S214001B80C9DFC8DF112329F0EAE7F0E0808188602A
S214001B908083DF91CF911F910F9108951F920F922E
S214001BA00FB60F9211248F939F9380917800909197
S214001BB079009093D0068093CF069F918F910F90D7
S214001BC00FBE0F901F90189580917A0086FB88278D
S214001BD080F908958CE08093B8000895ECEBF0E06F
S214001BE0108294EA908390819923ECF79091B90043
S214001BF0987F9830A1F48093BB0084E88093BC0063
S214001C00ECEBF0E080818823ECF79091B900987FA8
S214001C10983139F081E0903429F480E0089581E02D
S214001C20089580E008958093BB0084E88093BC000C
S214001C30ECEBF0E080818823ECF79091B900987F78
S214001C4081E0983209F480E0089584E88093BC002F
S214001C50ECEBF0E080818823ECF78091BB000895E0
S214001C6084E98093BC0008955C9A85E08A95F1F734
S214001C7000005C980895CF93C82F662311F02F9A22
S214001C8001C02F985A98559A569A579A689A7098FB
S214001C905F985E985D98CC230CF4709AC6FD5F9AA8
S214001CA0C5FD5E9AC4FD5D9ADFDF70985F985E980A
S214001CB05D98C3FD709AC2FD5F9AC1FD5E9AC0FD35
S214001CC05D9AD2DF5D9A5E9A5F9A709ACF91089578
S214001CD0882311F02F9A01C02F985A9A5598569833
S214001CE0579868985C9A85E08A95F1F700004D9BB6
S214001CF002C080E101C080E04E9980624F99806406
S214001D00609980685C9895E09A95F1F700005C9A77
S214001D1095E09A95F1F700004D9981604E998260A2
S214001D204F998460609988605C98089580E0D0DF61
S214001D308823E4F385E18A95F1F7000080E0C8CFB8
S214001D400895CF93C82FF2DF60E08C2F94DFCF91F9
S214001D500895611103C08058F4CF0895613019F4D6
S214001D608054EFCF0895623019F48C56EACF089568
S214001D708C52E7CF089581E0E4CF0895CF93C82F23
S214001D80D5DFCA3099F4843148F090EC980F94313E
S214001D9038F084518C3230F080E005C080E403C017
S214001DA084E101C084E58058CCDF03C061E08C2F5D
S214001DB062DFCF910895CF93DF93EC012196FC016B
S214001DC08081882321F0DADF89918111FCCFDF91B1
S214001DD0CF910895CF93C82F279A529A549A559A1E
S214001DE0569A579A689A8FEF99EF0197F1F700C0C5
S214001DF000005E9A5D9A38DF8FE19EE40197F1F766
S214001E0000C0000031DF8FEF90E00197F1F700C0CF
S214001E1000002ADF8FEF90E00197F1F700C0000086
S214001E205D9822DF8FEF90E00197F1F700C0000089
S214001E3088E287DF88E085DF9EDF86E082DF8C2F02
S214001E4080DFCF910895FC011582148215861486D2
S214001E501386128613A2118A108A128A138A17AA68
S214001E6015A214A216A217A211821082128281E075
S214001E708383E9E0F7E0808391E8918320E430E013
S214001E8033832283858392E09683308727838287F5
S214001E9008950F93222319F0213069F010C0042F03
S214001EA0262F42E15AE760E070E088EB97E00E9458
S214001EB0391A81E005C00E94B01D81E001C080E0B3
S214001EC00F9108957F928F929F92AF92BF92CF927A
S214001ED0DF92EF92FF920F931F93CF93DF9300D082
S214001EE000D0CDB7DEB75C016B017A01922E0023DD
S214001EF019F0013039F1DBC12111CBC160EF88EB5D
S214001F0097E00E94111AC114D10481F000E010E09D
S214001F10F70161917F0188EB97E00E94111A0F5F2D
S214001F201F4F0C151D05A0F3911005C067EF88EB39
S214001F3097E00E94111AF5018281882309F4B7C13F
S214001F401582B5C1222329F06430710508F026C138
S214001F5053C16430710508F4A0C1912C81E06894E7
S214001F60AA24A2F808EE10E00F2EF0EF7F2EF02D38
S214001F7088248394B12C8823D1F0F7019081818145
S214001F80A9827A829B838C83BE016F5F7F4F89E034
S214001F9097E00E94AC1A89E097E00E94CF1AF2E020
S214001FA0EF0EF11C82E0C81AD108982C1AC0F7016F
S214001FB0208191818281A9822A839B838C8340E041
S214001FC050E064E070E0CE0101960E94E91AF80144
S214001FD080818E778083F3E0EF0EF11C83E0C81AD1
S214001FE0D1088B2D94E0C916D10428F6F70193E0AA
S214001FF0C916D10409F057C0992049F12081918172
S214002000828134E039832A839B838C8340E050E0CE
S21400201064E070E0CE0101960E94E91A08EE10E036
S214002020F80180818E77808385E0898387EF8A83B5
S2140020301B821C8240E050E064E070E0CE01019616
S2140020400E94E91AF80180818E77808330C1F701FB
S2140020509081818124E0298320EF2A839B838C83CF
S21400206040E050E064E070E0CE0101960E94E91A7C
S21400207008EE10E0F80180818E778083F701828178
S21400208096E099838A8387EF8B831C8240E050E03A
S21400209064E070E0CE0101960E94E91AF8018081A2
S2140020A08E77808304C1F2E0CF16D10409F043C0D6
S2140020B09920B9F0F7019081818127E029839A83DE
S2140020C08B8387EF8C8340E050E064E070E0CE01C5
S2140020D001960E94E91AE8EEF0E080818E77808310
S2140020E0E6C0F7019081818124E0298320EF2A83CE
S2140020F09B838C8340E050E064E070E0CE01019664
S2140021000E94E91A08EE10E0F80180818E7780833D
S21400211085E0898387EF8A831B821C8240E050E03B
S21400212064E070E0CE0101960E94E91AF801808111
S2140021308E778083BCC0CA94CD2809F0B8C0992099
S214002140B1F0F701808196E099838A8387EF8B83CD
S2140021501C8240E050E064E070E0CE0101960E94F0
S214002160E91AE8EEF0E080818E778083A0C0F70160
S214002170808197E0998390EF9A838B8387EF8C8397
S21400218040E050E064E070E0CE0101960E94E91A5B
S214002190E8EEF0E080818E77808389C08A010E5F4A
S2140021A01F4F6894992492F80F2EF8EEAF2EB12C9C
S2140021B0F02DF7012081F80131979081F801808198
S2140021C099822A839B838C8340E050E064E070E031
S2140021D0CE0101960E94E91AF50180818E778083F0
S2140021E0F3E0EF0EF11C83E0C81AD1080D5F1F4F15
S2140021F094E0C916D104E8F6E3E0CE16D104B9F4AB
S214002200F70120819181828137E039832A839B837D
S2140022108C8340E050E064E070E0CE0101960E94BE
S214002220E91AE8EEF0E080818E77808340C0F2E025
S214002230CF16D104B1F4F7019081818126E029837D
S2140022409A838B831C8240E050E064E070E0CE010D
S21400225001960E94E91AE8EEF0E080818E7780838E
S21400226026C0CA94CD2819F5F701808195E0998398
S2140022708A831B821C8240E050E064E070E0CE015E
S21400228001960E94E91AE8EEF0E080818E7780835E
S2140022900EC0672B09F03ACE4ECE6330710509F4B6
S2140022A0D6CE6230710509F41CCF912C44CF0F9026
S2140022B00F900F900F90DF91CF911F910F91FF908D
S2140022C0EF90DF90CF90BF90AF909F908F907F90D1
S2140022D008950F931F93CF938C01C62F6D3F38F44C
S2140022E06A3F38F4663F29F0683F41F402C06E3F0B
S2140022F028F06C2F88EB97E00E94111AF801828173
S214002300882319F0C63F09F41582CF911F910F91CB
S2140023100895DF92EF92FF920F931F93CF93DF9370
S21400232000D000D0CDB7DEB70150003110F46623E0
S2140023304CF0FC012281222309F45DC0E1105BC051
S214002340158259C0162FFC01613E08F050C04F7729
S214002350F42E2F77D22E0F70062B2281222361F0C7
S214002360E1100AC02581201789F00583602F88EBCD
S21400237097E00E94111A0AC0E11006C0602F88EB91
S21400238097E00E94111A02C0E11008C06F2D88EB7A
S21400239097E00E94111A103C19F42DC0103C51F021
S2140023A0103D41F0E11006C06D2D88EB97E00E94CD
S2140023B0111A21C0F1E0EF121EC0812F90E0959512
S2140023C0879595958795959587959595879589830E
S2140023D00A83FB82DC82BE016F5F7F4F89E097E055
S2140023E00E94AC1A89E097E00E94CF1A04C0663FAC
S2140023F010F04E2D6EDF0F900F900F900F90DF9124
S214002400CF911F910F91FF90EF90DF900895EF927C
S2140024100F93E02E022F242F462F60E97ADF0F91CC
S214002420EF900895EF920F93E02E022F242F462F61
S21400243060E86FDF0F91EF900895EF920F93E02E14
S214002440022F242F462F60EB64DF0F91EF90089544
S214002450EF920F93E02E022F242F462F60EA59DFCB
S2140024600F91EF900895EF920F93E22E042F20E045
S214002470462F60ED4EDF0F91EF90089521E0FC01AE
S21400248022830895FC0112820895FC01828108953A
S214002490442319F0413081F01EC0FC01218922231B
S2140024A0E1F020582136D8F480898617D1F081E0F3
S2140024B06623F1F080E00895FC0125A1222399F01F
S2140024C02058213690F484A1861789F081E066238F
S2140024D079F080E0089580E0089580E0089581E036
S2140024E0089581E0089580E0089581E0089581E0F0
S2140024F00895662319F0613021F006C0FC01818939
S2140025000895FC0185A1089580E00895662319F0DA
S214002510613021F006C0FC0182890895FC0186A185
S214002520089580E00895662319F0613021F006C012
S214002530FC0183890895FC0187A1089580E0089531
S214002540662319F0613019F004C044960895889601
S214002550089580E090E00895662319F0613059F000
S2140025600EC0FC01238930E0322F22278289A90180
S214002570482BCA0106C0FC0186859785089580E031
S21400258090E08031910510F08FE090E00895FC0116
S2140025906683089566236CF48CE0860F823058F0CC
S2140025A0862F8B7F893F49F0603F48F4862F807FD7
S2140025B0089580E0089580E0089580E00895862FCD
S2140025C00895862F8F7E803859F0803A59F0603D06
S2140025D059F0603E59F081E0603C49F080E0089593
S2140025E081E0089581E0089581E0089581E00895EE
S2140025F0CF92DF92EF92FF920F931F93CF93DF93CA
S21400260000D000D0CDB7DEB78C01611142C188EB97
S21400261097E092D7892B09F4FCC188EB97E0EBD6BC
S214002620F82E282FF80184859585009709F087C035
S214002630F782E4806E2DC801ADDF682FC801C1DFC8
S214002640882349F0FF203CF0F801E782F08681E01D
S21400265090E095878487F801F7806F2DC8019ADF90
S214002660482F50E0FA01E058F109E038F105B0F5DE
S214002670E45BFF4F0C948482F801818B108A128AE7
S214002680138A81E083A31586148613861286DBC11F
S21400269022E030E0F801338722872485358521152E
S2140026A0310509F0C7C13FC023E030E0F8013387A9
S2140026B02287248535852230310508F0B2C133C023
S2140026C08FE090E0F80193878287148280EF848BF6
S2140026D0248535852E30310548F425C0F801158649
S2140026E0148613861286148280E0ADC180EFF8014E
S2140026F0818B8F2D8F70FF24F394F80EF08A8085DF
S214002700828B8FE090E0039721F4F8018185838B1C
S21400271002C0F801138AF8011586148613861286FD
S21400272081E083A390C12F5F3F4FF8013587248750
S2140027308381811170C160E0C8015ADF84C1FF2027
S214002740A4F52D3F38F42A3F38F4273F69F0283F98
S21400275061F502C02E3F48F1F801F18A128A138A09
S214002760108A81E083A36FC1F8012489203FA9F471
S2140027709C012F5F3F4FE80FF91F47EF448B80EF18
S214002780F801818B228B338B108A81E083A3158618
S214002790148613861286148256C1F801158614868E
S2140027A013861286148280E04EC1F8012781203FEE
S2140027B021F4E80FF91FF48A04C0F801E80FF91FA6
S2140027C0F782F801C284D38496012150310982171A
S2140027D0930708F453C0E780F0EFEF1208C0F80143
S2140027E01586148613861286148280E02CC16E2D00
S2140027F0C801D0DEF82EF801818B682FC801E1DE13
S214002800882331F08E2D8F708F5FF801808B02C089
S214002810F801108AF8018085828BF3E0CF16D10488
S21400282021F4F8018185838B02C0F801138AF80130
S214002830158614861386128681E083A3F0EBFF16B6
S214002840A9F0FF1550F080E9F81681F0E0EAFE16D0
S21400285069F0F0E8FF120EC009C080EDF81631F0FE
S214002860E0EEFE1619F0F0ECFF1204C0F801E48268
S21400287081E0E9C0F801148281E0E5C00196F80124
S2140028809587848783818111C8C060E0C801B0DE67
S214002890DAC0613009F0C3C08091D013843009F0EB
S2140028A0B2C082E08093E9008091E80082FFADC06C
S2140028B040E050E064E070E0CE010196E6D68091FC
S2140028C0F2009091F300892B29F4E8EEF0E0808185
S2140028D08B77808389818295807F803809F448C011
S2140028E080F48035E9F030F48032B1F1803409F4B8
S2140028F04CC08DC0803609F45EC0803709F46EC0C7
S21400290086C0803BA9F130F4803991F1803A09F015
S2140029107EC02EC0803E61F1823F09F078C028C09C
S2140029208A81873F41F0F80185A314A216A217A258
S21400293081E087AB88C0F80186859785E80FF91F88
S21400294027EF20A70196F8019787868780EF85A353
S21400295014A281E087AB77C08A81F80185A38F70C7
S2140029608F5F84A38B8186A317A281E087AB6BC0A1
S214002970F80185A38A818F708F5F84A38B8186A3DD
S2140029808C8187A381E087AB5EC02A81203F19F443
S214002990F80117861686F80186859785E80FF91FD1
S2140029A020A72B8121A72C8122A70396F8019787C1
S2140029B0868780E048C0F80186859785E80FF91F6E
S2140029C02A8120A72B8121A70296F8019787868760
S2140029D080EF85A314A281E087AB35C0F801868519
S2140029E09785E80FF91F2A8120A72B8121A72C8124
S2140029F022A70396F8019787868780EF85A314A2FF
S214002A0081E087AB20C080E01EC080E01CC080E074
S214002A101AC080E018C080E016C080E014C080E0D5
S214002A2012C0F801818B8F2D8F708F5F808B808511
S214002A30828B6BCEF801818B8F2D8F708F5F808B92
S214002A408085828B66CE0F900F900F900F90DF914F
S214002A50CF911F910F91FF90EF90DF90CF90089548
S214002A600F931F93CF93DF93613160F4D42FC62F5B
S214002A708C01642FBDDD882331F04D2F6C2FC801EB
S214002A8007DD01C080E0DF91CF911F910F9108957F
S214002A90462FFC016681E4CF089542E361E881E0B9
S214002AA04FD742E360E882E04BC7089581ED96E099
S214002AB0CAC90895823031F0833031F0813031F464
S214002AC08EE608958FEF08958FEF089580E00895BD
S214002AD01F920F920FB60F9211240BB60F928F9281
S214002AE09F92AF92BF92CF92DF92EF92FF920F9398
S214002AF01F932F933F934F935F936F937F938F9381
S214002B009F93AF93BF93CF93DF93EF93FF93809101
S214002B101707823009F0ADC010921707E0EBF0E01F
S214002B2080818F778083E0E8F0E080818F778083F4
S214002B3080818F7D80832E982E982E988091B7075F
S214002B40883011F41092B7078091B70780FF02C053
S214002B50299A01C0299881FF02C02A9A01C02A98A2
S214002B6082FF02C02B9ADAC02B98D8C08091B70794
S214002B70820F90E0FC01E156F84F4081FC01EE0F19
S214002B80FF1FE159F84F0190F081E02D5E2FEE23F4
S214002B90E1F0313059F018F0323081F016C0E8011B
S214002BA0E883E401E881E068E8830FC0FF27E701D7
S214002BB0F983E883EC91E068EC9307C0FF27EB010C
S214002BC0F983E883EC91E062EC93451709F447C07B
S214002BD0EC2DFD2D541710F0EB2DFA2D319701F545
S214002BE050912801FC01EE0FFF1FE159F84F0190AC
S214002BF0F081E02DE50FF11D50E04E175F0744F021
S214002C00880F991F8159984FEC01F983E88327C0F4
S214002C10880F991FFC01E159F84F518340831FC06C
S214002C2050912801FC01EE0FFF1FE159F84F01906B
S214002C30F081E02DE51BF10950E0E417F50744F0BC
S214002C40880F991F8159984FEC01F983E88307C0D4
S214002C50880F991FFC01E159F84F51834083285F84
S214002C603F5F283109F082CF8091B7078F5F80934E
S214002C70B707809117078F5F809317071091160785
S214002C80112309F446C08091190790911A07A09164
S214002C901B07B0911C070196A11DB11D8093190753
S214002CA090931A07A0931B07B0931C07C0906B075E
S214002CB0D0906C07E0906D07F0906E07EBE3F7E0BE
S214002CC0AFE9B7E080E090E00FEFB701A601082E6D
S214002CD004C076956795579547950A94D2F740FFB6
S214002CE012C0EF01208131812F5F3F4F3183208357
S214002CF02A3F310541F42C912F3F11F41C9201C05C
S214002D000C93198218820196329611968831910595
S214002D10E1F681E081278093160718C030E020E0B6
S214002D200F2EF8E8EF2EF12CF02DA0E8B0E003EB24
S214002D3010E00F2EF0EB8F2E912CF02D6AE870E04D
S214002D40CC24C394D12CB12CA12C10CFFF91EF91A1
S214002D50DF91CF91BF91AF919F918F917F916F91AE
S214002D605F914F913F912F911F910F91FF90EF90A0
S214002D70DF90CF90BF90AF909F908F900F900BBE3C
S214002D800F900FBE0F901F9018951F920F920FB6C0
S214002D900F9211240BB60F922F933F934F935F938E
S214002DA06F937F938F939F93AF93CF93DF93EF931E
S214002DB0FF93A09115074A2F50E0FA01EE0FFF1F70
S214002DC0EF01CC5EDE4F0990D881C02D888190E05F
S214002DD0EA01C155DE4F088002C0959587950A9492
S214002DE0E2F7982F9170EF01C050DF4F0990D8811D
S214002DF0C02D6881E35EF84F2081318170E0EA01E2
S214002E00CB55DE4F088002C0759567950A94E2F7A9
S214002E106170822F880F880F8F70682B892F880F1C
S214002E20862B90E0207F282B392B31832083FC01D2
S214002E30E754FE4F8081882309F450C091E01816AD
S214002E400CF090E0B901729562956F7067277F70FD
S214002E5067276F70860FE0E18E02B00111242F7095
S214002E60262B372BFA01EE0FFF1FE35EF84F318358
S214002E702083632F661F6627661F992349F0FA0191
S214002E80EE0FFF1FE35EF84F30683183208308C0E3
S214002E90FA01EE0FFF1FE35EF84F3F773183208382
S214002EA096131CC08370D1F4FA01EE0FFF1FE35E89
S214002EB0F84F208131812F70206831832083992339
S214002EC039F0FA01EF5CF84F80818F5F808306C08F
S214002ED0FA01EF5CF84F808181508083AF5FAA30A3
S214002EE019F0A093150702C010921507FF91EF91F5
S214002EF0DF91CF91AF919F918F917F916F915F916D
S214002F004F913F912F910F900BBE0F900FBE0F90D9
S214002F101F901895262F30E080916B0790916C07D4
S214002F20A0916D07B0916E0704C0B695A7959795CA
S214002F3087956A95D2F780FD0DC0F901E156F84FE6
S214002F4080818E3619F08F3F39F002C081E00895F7
S214002F5080E0089583E0089582E00895CF92DF929E
S214002F60EF92FF92CF93DF93C62FD42F842FA2DD4C
S214002F70D33071F5EC2FF0E081E090E0A0E0B0E017
S214002F800C2E04C0880F991FAA1FBB1F0A94D2F7E5
S214002F9040916B0750916C0760916D0770916E07BA
S214002FA0842B952BA62BB72B80936B0790936C07DF
S214002FB0A0936D07B0936E07E156F84F90819F3F40
S214002FC009F440C081E09E3609F480E081953BC05C
S214002FD040916B0750916C0760916D0770916E077A
S214002FE02C2F30E06A017B010C2E04C0F694E79487
S214002FF0D794C7940A94D2F7C0FE25C0C12CD12C12
S2140030007601C3940C2E04C0CC0CDD1CEE1CFF1CF9
S2140030100A94D2F7C094D094E094F0944C215D21A9
S2140030206E217F2140936B0750936C0760936D076A
S21400303070936E07220F331FF901E55CF84F11827B
S214003040108201C080E0EC2FF0E0E156F84F80835C
S214003050DF91CF91FF90EF90DF90CF9008954F9241
S2140030605F926F927F928F929F92AF92BF92CF9213
S214003070DF92EF92FF920F931F93CF93DF93CDB71C
S214003080DEB7C055D1090FB6F894DEBF0FBECDBF70
S21400309010929000E1E9F0E01082109295001092F4
S2140030A094000F2EF1E7EF2EF12CF02DD7011C9295
S2140030B028E930E0D90111961C921E9210929B00CE
S2140030C010929A0010929D0010929C008081886059
S2140030D0808380818460808360E870E0FB011082DA
S2140030E081E890E0DC011C921092820010926F0042
S2140030F01092850010928400109289001092880029
S21400310010928B0010928A0010928D0010928C0004
S21400311040EB50E0FA011082E1EBF0E010821092F2
S21400312070001092B2001092B3001092B400DB014F
S2140031301C9111601C93DA016C9161606C93DC0148
S2140031404C9141604C9380818160808314BC15BC97
S21400315016BCEEE6F0E0108217BC18BC84B58260A0
S21400316084BD85B5836085BD8CE787BD8AE090E029
S214003170D90111969C938E93808182608083F7019B
S21400318080818260808384E1EFE2F1E0DE01DD96FB
S21400319001900D928A95E1F784E1E3E4F1E0DE0127
S2140031A0999601900D928A95E1F784E1E7E5F1E0C2
S2140031B0DE01559601900D928A95E1F784E1EBE6E3
S2140031C0F1E0DE01119601900D928A95E1F76E010D
S2140031D0F5E1CF0ED11C0F2EFFEAEF2EF1E0FF2E09
S2140031E0F02DCE0101965C0105EA11E0BE01635C9C
S2140031F07F4F2E0199E2490E511CEDE1F7E020E0E9
S21400320030E041E050E0D6018D919D916D01DC01EA
S2140032107C90D7014A010D9002C0880C991C0A9434
S214003220E2F77D01982C90949720DC019C92D501C2
S2140032308D919D915D01DC019C90D8013A010D9025
S21400324002C0660C771C0A94E2F78D01762C709407
S2140032509720DC019C92DB018D919D91BD01DC01E4
S2140032609C9089288C92D2018D919D912D01DC0134
S2140032709C9069286C92808191818068819391935B
S2140032802F5F3F4F2A30310509F0BDCFC05BDF4FBF
S2140032900FB6F894DEBF0FBECDBFDF91CF911F9162
S2140032A00F91FF90EF90DF90CF90BF90AF909F90E0
S2140032B08F907F906F905F904F900895E62FF0E08C
S2140032C0EF5CF84F8081108208956093280108957E
S2140032D02FB7F8946091190770911A0780911B0711
S2140032E090911C072FBF0895AB01BC0141155105F5
S2140032F06105710589F080E090E0DC01EFE9FFE010
S2140033003197F1F700C000000196A11DB11D84178A
S2140033109507A607B70791F708951F920F920FB665
S2140033200F9211240BB60F922F938F939F93EF93C8
S214003330FF932091CE008091BF078F5F803408F006
S21400334080E09091BE07891739F0E82FF0E0E0544E
S214003350F84F20838093BF07FF91EF919F918F9145
S2140033602F910F900BBE0F900FBE0F901F901895C9
S2140033701F920F920FB60F9211240BB60F928F93D7
S2140033809F93EF93FF939091BD078091BC0798138E
S2140033900CC08091BA07811104C088E48093C900EC
S2140033A013C088ED8093C9000FC08091BC078F5F63
S2140033B0803408F080E0E82FF0E0E050F84F90818D
S2140033C09093CE008093BC07FF91EF919F918F91D1
S2140033D00F900BBE0F900FBE0F901F9018951F9268
S2140033E00F920FB60F9211241092BB070F900FBECC
S2140033F00F901F9018959091BF078091BE07981761
S21400340071F09091BE079F5F903408F090E0E92F2E
S214003410F0E0E054F84F80819093BE0708958FEF58
S21400342008958091B907882319F18091C90083FF18
S2140034301FC09091BD079F5F903408F090E0809188
S214003440BC079817E1F3E92FF0E0E050F84F6083EF
S21400345081E08093BB079093BD078091BA078111E6
S21400346004C088E68093C900089588EF8093C90059
S2140034700895CF92DF92EF92FF920F93CF936A0157
S2140034807B01C22F2093BA070093B907DB01CA015C
S214003490B695A79597958795BC01CD0160587B4753
S2140034A0814E9F4FA70196010E944682C9018170F6
S2140034B09927892B71F0213080E1380754F482E097
S2140034C08093C800215031093093CD002093CC0062
S2140034D00AC01092C80035952795215031093093BF
S2140034E0CD002093CC008091C90083FD1EC01092B1
S2140034F0BF071092BE071092BD071092BC0710922D
S214003500BB0786E08093CA00CC2351F0002321F04D
S21400351088ED8093C90009C080E98093C90005C082
S214003520002319F088E48093C900CF910F91FF9093
S214003530EF90DF90CF9008958091BF072091BE074F
S214003540821720F090E0821B9109089590E0805C3D
S2140035509F4F821B91090895AC019091D01394302F
S214003560D1F49B01FA0181818F708093E90040E0DD
S21400357050E064E070E0C9012CD081110FC090913A
S214003580E800892F807295FD08C0E8EEF0E0908193
S2140035909E779083089582E0089580E00895FC0168
S2140035A09091D013943089F481818F708093E900D4
S2140035B08091F2009091F300892B49F0E8EEF0E05C
S2140035C080818E77808346C2089582E0089580E0E9
S2140035D008958F929F92AF92BF92CF92DF92EF9212
S2140035E0FF920F931F93CF93DF938C01EB016A0139
S2140035F031D281113DC0C114D10439F0F601808169
S2140036009181C81BD90B080F191F209781F1E12C57
S214003610F12C0F2EF8EE8F2E912CF02D0F2EF1EFB1
S214003620AF2EB12CF02DF401808185FD13C0808172
S2140036308E778083C114D10449F0F6018081918190
S214003640E80EF91EF182E08285E012C003D28823DC
S21400365051F00EC0F80181918F01F501808321970A
S214003660FFEFEF1AFF0A2097F1F680E001C080E036
S214003670DF91CF911F910F91FF90EF90DF90CF9049
S214003680BF90AF909F908F9008958F929F92AF9229
S214003690BF92CF92DF92EF92FF920F931F93CF933A
S2140036A0DF938C01EB016A01D5D181113DC0C114B5
S2140036B0D10439F0F60180819181C81BD90B080F1F
S2140036C0191F209781F1E12CF12C0F2EF8EE8F2E8A
S2140036D0912CF02D0F2EF1EFAF2EB12CF02DF40122
S2140036E0808185FD13C080818B778083C114D104CF
S2140036F049F0F60180819181E80EF91EF182E082A0
S21400370085E012C0A7D1882351F00EC0F501808154
S214003710F80181938F012197FFEFEF1AFF0A209798
S214003720F1F680E001C080E0DF91CF911F910F910C
S214003730FF90EF90DF90CF90BF90AF909F908F90CC
S2140037400895EF92FF920F931F93CF93DF932091EC
S214003750D7133091D8132617370758F0611571051F
S21400376039F4E8EEF0E020812E7720839B0101C03B
S2140037709B01A82FB92F90E0E8EEF0E062EF70E032
S2140037800F2EF1EFEF2EF12CF02D11E000E02FC000
S2140037908091D013882309F441C0853009F440C0D5
S2140037A0808183FD3FC0808182FD31C0808180FFA3
S2140037B01EC0EB01488159812115310581F0483042
S2140037C0510568F48D91E7018883215031094F5FD8
S2140037D05F4F2115310519F04830510599F7912FA3
S2140037E04830510509F0902F80818E77808321150F
S2140037F0310571F69111CCCF0AC08091D013882381
S21400380099F0853099F0808183FF03C011C0E8EEFF
S214003810F0E0808182FFF1CF80E00BC082E009C03B
S21400382083E007C081E005C082E003C083E001C0FA
S21400383081E0DF91CF911F910F91FF90EF90089557
S214003840EF92FF920F931F93CF93DF932091D7139E
S2140038503091D8132617370758F06115710539F4DB
S214003860E8EEF0E020812E7720839B0101C09B01CB
S214003870E82FF92F90E0A8EEB0E062EF70E00F2E90
S214003880F1EFEF2EF12CF02D11E000E030C080912A
S214003890D013882309F442C0853009F441C08C91C6
S2140038A083FD40C08C9182FD32C08C9180FF1FC08A
S2140038B0EB01488159812115310589F048305105C1
S2140038C070F48491E70188833196215031094F5F67
S2140038D05F4F2115310519F04830510591F7912FAA
S2140038E04830510509F0902F8C918E778C932115D6
S2140038F0310569F69111CBCF0AC08091D013882389
S21400390099F0853099F0808183FF03C011C0E8EEFE
S214003910F0E0808182FFF1CF80E00BC082E009C03A
S21400392083E007C081E005C082E003C083E001C0F9
S21400393081E0DF91CF911F910F91FF90EF90089556
S2140039408F929F92BF92CF92DF92EF92FF920F9349
S2140039501F93CF93DF93873070F126C0292F2F70E7
S214003960E7012883891731F0E80178812081E40196
S214003970588103C0242F762F5B2D21FF12C03C9167
S2140039803E7F3C9330813D7F30833C9131603C9359
S214003990E80178832083E4015883E6012881222306
S2140039A044F49F5F9730D1F68F708093E90081E0F2
S2140039B021C080E01FC0982F9F709093E900982F39
S2140039C0242F762F50E0ABEEB0E0EDEEF0E00CEEFC
S2140039D010E00F2EF0EF8F2E912CF02D0F2EFEEE16
S2140039E0CF2ED12CF02D0F2EF9EEEF2EF12CF02D40
S2140039F0B12CC3CFDF91CF911F910F91FF90EF9025
S214003A00DF90CF90BF909F908F9008958091D113B4
S214003A10882344F0E8EEF0E014C08091D0138111C2
S214003A2003C00895E8EEF0E0808182FFF6CFE8EE6E
S214003A30F0E080818B77808308958091D01388236F
S214003A4041F0808180FFF9CFE8EEF0E080818E774C
S214003A50808308950F931F93CF93DF932091E40004
S214003A603091E50065E6ACEEB0E0E8EEF0E00BEE97
S214003A7010E044EE50E001C09C019C91892F8170BB
S214003A8090FD1DC020C08091D013882381F0853022
S214003A9081F0E801888185FD0EC0EA018881998160
S214003AA02817390751F3615039F784E00FC082E0D8
S214003AB00DC083E00BC081E009C080E007C08081B4
S214003AC080FFE1CFFACF908192FFDDCFDF91CF91DB
S214003AD01F910F9108950F931F93CF93DF934FD0AD
S214003AE056D0C8EDD0E088818F778883888180683B
S214003AF0888388818F7D8883E7EDF0E08081806809
S214003B00808319BC1092D0131092CC131092CE134F
S214003B101092CD1300EE10E0F80180818B7F808339
S214003B2088818160888342E060E080E009DFE1EE22
S214003B30F0E080818E7F8083E2EEF0E0808181601D
S214003B408083808188608083F80180818E7F808377
S214003B50888180618883DF91CF911F910F910895AE
S214003B60E8EDF0E080818F7E8083E7EDF0E08081F5
S214003B708160808381E08093CF13ADCF0895E8ED18
S214003B80F0E080818C7F80831092E200089510928E
S214003B90DA001092E10008951F920F920FB60F926E
S214003BA011240BB60F922F933F934F935F936F930F
S214003BB07F938F939F93AF93BF93EF93FF938091E1
S214003BC0E10082FF0AC08091E20082FF06C0E1EEBB
S214003BD0F0E080818B7F808361D28091DA0080FF65
S214003BE01DC08091D80080FF19C0EAEDF0E080810A
S214003BF08E7F80838091D90080FF0CC084E189BDD0
S214003C0086E189BD09B400FEFDCF81E08093D01324
S214003C1045D204C019BC1092D01340D28091E10066
S214003C2080FF16C08091E20080FF12C0E2EEF0E056
S214003C3080818E7F8083808180618083E8EDF0E0E4
S214003C4080818062808319BC85E08093D01326D261
S214003C508091E10084FF2FC08091E20084FF2BC09A
S214003C6084E189BD86E189BD09B400FEFDCFE8ED9B
S214003C70F0E080818F7D8083E1EEF0E080818F7EB2
S214003C808083E2EEF0E080818F7E80838081816099
S214003C9080838091CC13882321F084E08093D01316
S214003CA009C08091E300882314F081E001C083E01E
S214003CB08093D013F3D18091E10083FF23C08091DD
S214003CC0E20083FF1FC0E1EEF0E08081877F808303
S214003CD082E08093D0131092CC1380818E7F8083F5
S214003CE0E2EEF0E080818E7F808380818061808339
S214003CF042E060E080E024DEE0EFF0E08081886073
S214003D008083CCD1FF91EF91BF91AF919F918F911E
S214003D107F916F915F914F913F912F910F900BBEC6
S214003D200F900FBE0F901F9018951F920F920FB610
S214003D300F9211240BB60F92EF92FF920F931F93E0
S214003D402F933F934F935F936F937F938F939F939E
S214003D50AF93BF93CF93DF93EF93FF93C091E900A8
S214003D60CF708091EC00D82FD17080FDD0E80F2E58
S214003D70F9EEEF2EF12CF02DF701108200EF10E097
S214003D80F8018081877F8083789423D0F7011082A2
S214003D90F801808188608083CD2BCF70F701C083C7
S214003DA0FF91EF91DF91CF91BF91AF919F918F914E
S214003DB07F916F915F914F913F912F911F910F913E
S214003DC0FF90EF900F900BBE0F900FBE0F901F90BE
S214003DD018950F931F93CF93DF93CDB7DEB7AA97AF
S214003DE00FB6F894DEBF0FBECDBFE1EDF3E129EDCF
S214003DF033E1A1EFB0E08C918193E217F307D9F796
S214003E004DD18091E80083FF24C1E1EDF3E12081EC
S214003E103181832F90E08A30910508F01AC1FC01A9
S214003E20E453FF4F0C948482203821F0223809F0A6
S214003E3010C108C08091CD139091CE13992371F0D4
S214003E4082600CC08091D5138F70E9EEF0E080831D
S214003E508091EB0085FB882780F91082E8EEF0E081
S214003E609081977F9083A1EFB0E08C931C92808125
S214003E708E778083CBDDEDC0222309F4F9C0223093
S214003E8009F0E7C0FAC081E0333009F080E08093A3
S214003E90CE1329C08091D5138F7009F4DAC08093B1
S214003EA0E9009091EB0090FF1EC09091D2139330E2
S214003EB031F4EBEEF0E080818062808314C0EBEE9C
S214003EC0F0E090819061908321E030E0A90102C08B
S214003ED0440F551F8A95E2F7AAEEB0E04C931C9269
S214003EE08081886080831092E900E8EEF0E08081AF
S214003EF0877F80838BDDADC02111ABC01091D313BB
S214003F001F77E3EEF0E080818078812B8083E8EEF7
S214003F10F0E08081877F808379DDE8EEF0E08081C5
S214003F2080FFFDCFE3EEF0E0808180688083111192
S214003F3002C082E001C083E08093D0138AC020587C
S214003F40223008F086C08091D3139091D4138C3D14
S214003F5053E0950799F583E08A838AE289835FB701
S214003F60F894DE01139620E03EE041E2E32FF0E015
S214003F7040935700849120FF03C082958F703F5F67
S214003F808F708A3018F090E0C79602C090E0C09616
S214003F908D939D932F5F243149F75FBF08EE10E0A5
S214003FA0F8018081877F80836AE270E0CE01019607
S214003FB0C8DBF80180818B7780834BC0AE014F5FF2
S214003FC05F4F6091D5136BD0BC01892B09F441C0BB
S214003FD008EE10E0F8019081977F908389819A819E
S214003FE02FDCF80180818B77808333C0203889F5F9
S214003FF0E8EEF0E08081877F80838091CC13809309
S214004000F10080818E77808301DD23C0211121C0DD
S2140040108091D3138230E8F4E8EEF0E08081877F69
S21400402080838091D3138093CC13F0DC8091CC13E3
S214004030882321F084E08093D01309C08091E300A8
S214004040882314F081E001C084E08093D0130E949E
S2140040504D158091E80083FF16C0E8EEF0E0808101
S214004060877F8083EBEEF0E08081806280830BC0E8
S2140040708091D313813069F706CF8091D3138823BC
S21400408009F408CF30CFAA960FB6F894DEBF0FBE5D
S214004090CDBFDF91CF911F910F9108950895292FDD
S2140040A033272230310559F02330310569F02130AD
S2140040B0310529F582E190E022E833E029C085E663
S2140040C090E02DE133E024C099278130910559F026
S2140040D08230910571F0892BB9F4E9E1F3E084911F
S2140040E090E09F0115C0E1E0F3E0849190E09F012D
S2140040F00FC0E3EFF2E0849190E09F0109C080E0FA
S21400410090E020E030E004C080E090E020E030E086
S214004110FA01318320830895AF92BF92DF92EF9227
S214004120FF920F931F93CF93DF93CDB7DEB76897B9
S2140041300FB6F894DEBF0FBECDBF61E080ED9EE007
S2140041400E947946CE0101967C015E0199E1A90E96
S214004150B11C8701D02EDE186D2D80ED9EE00E94EA
S2140041607446F80181938F0140E06D2D80ED9EE04E
S2140041700E946F460A151B0569F780ED9EE00E94B7
S2140041806246789482E69CE00E943D3268E572E0E2
S21400419080E090E0A9D810E0F70141917F01612FFF
S2140041A080ED9EE00E946F461F5F1831A9F76CED08
S2140041B075E080E090E098D86FE080ED9EE00E9489
S2140041C0794668960FB6F894DEBF0FBECDBFDF9176
S2140041D0CF911F910F91FF90EF90DF90BF90AF901F
S2140041E00895CF9384B7877F84BF0FB6F894A895B9
S2140041F080916000886180936000109260000FBE1E
S2140042006A9A72988CE092E00E94560B87EC93E1D3
S2140042100E947F7C789488E197E00E942F1882E6BF
S2140042209CE00E94BE4289ED98E00E948F2C80EDB3
S2140042309EE00E9448468AE69FE00E94376B40E078
S21400424060E080ED9EE00E949E4666DF8AE69FE084
S2140042500E94F167C82F8AE69FE00E94EC6761E043
S214004260680F4C2F82E69CE00E94A63880E498E017
S21400427069D50E94137C882321F082E69CE00E9488
S2140042805B37CF91089599E088E10FB6F894A8952A
S214004290809360000FBE90936000FFCF862F90E063
S2140042A084319105D8F4FC01EA52FF4F0C948482C5
S2140042B081E0089582E0089583E0089584E00895FB
S2140042C085E0089586E0089587E0089588E00895DB
S2140042D089E008958AE008958BE008958CE00895BB
S2140042E080E008950F93CF93DF93C62FD42F8AE6EE
S2140042F09FE00E948C568111A1C08AE69FE00E9432
S2140043003869082FCD3131F130F4CB3109F45BC078
S214004310CC3139F093C0CE3181F1CF3109F440C0B1
S2140043208DC0D11110C060E08AE69FE00E94397807
S214004330402F60E08AE69FE00E94BC6781115AC069
S214004340C0E062E06AC043E062E080ED9EE00E946A
S2140043506F4674C0D11172C061E08AE69FE00E9489
S2140043603978402F61E08AE69FE00E94BC678111A1
S21400437045C0C0E0D1E061E050C0D1115FC062E04E
S2140043808AE69FE00E943978402F62E08AE69FE046
S2140043900E94BC67811136C0C0E0D2E063E03DC039
S2140043A0D1114CC063E08AE69FE00E943978402F26
S2140043B063E08AE69FE00E94BC67811127C0C0E0E8
S2140043C0D3E060E02AC0D1110EC08AE69FE00E94CA
S2140043D0226D8AE69FE00E94E76781111BC0C0E05D
S2140043E0D4E066E01AC043E066E080ED9EE00E94FE
S2140043F06F4624C0C2E0D0E062E00FC0C2E0D1E069
S21400440061E00BC0C2E0D2E063E007C0C2E0D3E0E8
S21400441060E003C0C2E0D4E066E04C2F80ED9EE092
S2140044200E946F468AE69FE00E94E7670F5F2C2F88
S214004430482F6D2F82E69CE00E94B834DF91CF9122
S2140044400F9108950F931F93CF93DF9300D000D062
S21400445000D0CDB7DEB7162F042F8AE69FE00E9465
S2140044608C56811154C086E0EFE7F1E0DE0111962C
S21400447001900D928A95E1F7011149C0153181F03E
S214004480163121F0143109F042C01AC082E08D8343
S21400449042E065E080ED9EE00E946F4611E02AC093
S2140044A081E08D8340E065E080ED9EE00E946F46EF
S2140044B040E067E080ED9EE00E946F4610E01AC084
S2140044C064E080ED9EE00E947446823051F440E045
S2140044D064E080ED9EE00E946F4687E08D8313E0E7
S2140044E009C042E064E080ED9EE00E946F4686E0F0
S2140044F08D8312E046E0BE016F5F7F4F87EC93E14D
S2140045000E94F07D612F82E69CE00E943736269658
S2140045100FB6F894DEBF0FBECDBFDF91CF911F91CF
S2140045200F910895CF93DF93411139C0C62F8AE6C5
S2140045309FE00E948C5681111CC040E06C2F8AE6DA
S2140045409FE00E94F475C82F8AE69FE00E94536899
S214004550D82FC13031F440E060E080ED9EE00E944C
S2140045609E462D2F40E06C2F82E69CE00E94FC3495
S21400457016C08AE69FE00E943869D82F4C2F682F15
S2140045808AE69FE00E941D716D2F8AE69FE00E94DA
S214004590E7554D2F61E080ED9EE00E949E46DF913C
S2140045A0CF910895FF920F931F93CF93DF93EC0163
S2140045B0162F042F8AE69FE00E943869F82E67E0DF
S2140045C080E498E0D1D1882309F474C066E080E4E2
S2140045D098E0CAD1882309F46DC08AE69FE00E945D
S2140045E0F167682F8AE69FE00E94F268882309F444
S2140045F04DC08AE69FE00E948C5661E068278AE6F6
S2140046009FE00E948F568AE69FE00E948C56882381
S21400461061F18AE69FE00E943869682F8AE69FE08B
S2140046200E946269882359F061E082E69CE00E945D
S2140046300D3760E08AE69FE00E948F5638C08AE613
S2140046409FE00E943869682F8AE69FE00E944D56D8
S21400465042E068E080ED9EE00E946F4642E06CE03B
S21400466080ED9EE00E946F4622C040E068E080ED4C
S2140046709EE00E946F4640E06CE080ED9EE00E9467
S2140046806F468AE69FE00E946E5611C060E082E6A2
S2140046909CE00E940D3740E068E080ED9EE00E94BE
S2140046A06F4640E06CE080ED9EE00E946F461AAADE
S2140046B01BAACFC08AE69FE00E948C568130B9F5CF
S2140046C0013029F1612F8AE69FE00E942D6E8AE66E
S2140046D09FE00E944E686EEF680F82E69CE00E94A4
S2140046E0983D4F2D61E080ED9EE00E949E4611238E
S2140046F039F042E06CE080ED9EE00E946F46A9C073
S21400470042E068E080ED9EE00E946F46A2C0112362
S21400471039F040E06CE080ED9EE00E946F4699C064
S21400472040E068E080ED9EE00E946F4692C08AE618
S2140047309FE00E94F167682F8AE69FE00E94F26879
S214004740811110C08AE69FE00E94F167682F8AE612
S2140047509FE00E94F7688823C9F16CE1CE0104D17E
S214004760811134C0011122C0612F8AE69FE00E94A9
S2140047701A73C82F8AE69FE00E944E682EEF280F15
S21400478041E06C2F82E69CE00E94FC34112339F055
S21400479040E06CE080ED9EE00E946F465AC040E02C
S2140047A068E080ED9EE00E946F4653C0112339F00A
S2140047B041E06CE080ED9EE00E946F464AC041E01A
S2140047C068E080ED9EE00E946F4643C06CE1CE013B
S2140047D0CBD08823F1F101112DC06F2D8AE69FE022
S2140047E00E946269882331F061E082E69CE00E94C4
S2140047F00D372FC0112339F040E06CE080ED9EE0CD
S2140048000E946F4606C040E068E080ED9EE00E9491
S2140048106F46C85BDF4F188240E0612F8AE69FE054
S2140048200E944372212F42E0682F82E69CE00E949D
S214004830FC340FC0112339F042E06CE080ED9EE0BE
S2140048400E946F4606C042E068E080ED9EE00E944F
S2140048506F46DF91CF911F910F91FF90089580E4EE
S21400486098E035C00895E1E9F8E08AE0828B82E1BD
S214004870838B8EE0808B86E1818B89E086878DE056
S214004880878781E185838BE0848385E183838FE05E
S214004890828383E1818387E1808382E0848F81E065
S2140048A0858F83E0868F178E86E0838F85E0868BE4
S2140048B087E0858B84E0848B88E087838CE0868322
S2140048C00895E62FF0E0EF56F74F80810895CF93D6
S2140048D0DF93FC0110A611A612A613A614A215A219
S2140048E016A217A21082118212821382EC01C45BF8
S2140048F0DF4F21E02883DC011496BC96CE0130EF12
S2140049003D932193E817F907D9F7DF91CF910895E2
S214004910CF93DF93D62FC82FCC0F8C2F0E94EE0D8F
S2140049208D2F0E94130E0E94300E81E08C0F0E9485
S214004930EE0D0E94250EC82F0E94300E8C2FDF91A0
S214004940CF910895CF93DF93D62FC42F880F0E9460
S214004950EE0D8D2F0E94130E8C2F0E94130E0E94B8
S214004960300EDF91CF910895FC0184A195A1A6A1F8
S214004970B7A104C0B695A795979587956A95D2F77F
S21400498081700895CF93DF93EC0188819981AA8185
S214004990BB81BA2FA92F982F882788839983AA834B
S2140049A0BB8362E181E2B4DF488159816A817B8101
S2140049B0482B762F652F542F4427488359836A83C4
S2140049C07B8363E181E2A4DF488159816A817B8130
S2140049D0482B762F652F542F4427488359836A83A4
S2140049E07B8362E180E294DF488159816A817B8122
S2140049F0482B762F652F542F4427488359836A8384
S214004A007B8363E180E284DF488159816A817B8110
S214004A10482B488359836A837B8381E0DF91CF915B
S214004A200895406FFC01E60FF11D9481990F492B04
S214004A304483403F29F081E04F3F19F080E008951D
S214004A4081E00895CF92DF92EF92FF920F931F932B
S214004A50CF93DF937C01C42FFC01E60FF11D84A5E4
S214004A608823F1F0862F90E080329105C8F4FC018F
S214004A70E651FF4F0C948482C70134DC11C060E01D
S214004A80C70190DD0DC061E0C7018CDD09C0C7011C
S214004A90D9DC06C0C70102DC4C2F682FC70142DDF7
S214004AA0E701AC9600E010E0DD24D39498819111E4
S214004AB016C0F70184A195A1A6A1B7A1002E04C037
S214004AC0B695A795979587950A94D2F780FD07C067
S214004AD00DC040E06C2D80ED9EE00E946F460F5F9B
S214004AE01F4F21960032110509F70DC0D882602F9E
S214004AF0C701E7DEC82E682F80ED9EE00E94744650
S214004B00833069F7E6CFDF91CF911F910F91FF9029
S214004B10EF90DF90CF9008950F931F93262F442396
S214004B20C9F041E050E060E070E004C0440F551F5B
S214004B30661F771F2A95D2F7FC0104A115A126A1AE
S214004B4037A1402B512B622B732B44A355A366A38E
S214004B5077A31CC041E050E060E070E004C0440F62
S214004B60551F661F771F2A95D2F74095509560957A
S214004B707095FC0104A115A126A137A1402351235D
S214004B806223732344A355A366A377A31F910F91B3
S214004B900895BF92CF92DF92EF92FF920F931F93EA
S214004BA0CF93DF938C010E946819F801C0A4D1A4AA
S214004BB0E2A4F3A4DC01CB018C199D09AE09BF0960
S214004BC00697A105B10508F4B3C0C801DBDE88234B
S214004BD009F443C0C0E0D0E07801FCE4EF0EF11C1D
S214004BE0F80140815181628173810C2E04C0769554
S214004BF06795579547950A94D2F721E04227842F68
S214004C008170D82E482F6C2FC8010BDF8823E1F067
S214004C10F80184A195A1A6A1B7A10C2E04C0B69553
S214004C20A795979587950A94D2F78170D81661F064
S214004C304D2D6C2FC80170DFF7018081882321F08D
S214004C404D2D6C2FC801FEDE2196C032D10541F6EF
S214004C50F8011082118212821382F80184A195A1B4
S214004C60A6A1B7A1072E7BE1B695A7959795879540
S214004C707A95D1F7702D80FF46C0E95BFF4F8081A3
S214004C80811149C040C00E946819F801E35BFF4FDC
S214004C9060837183828393832EC00E946819F80113
S214004CA0E35BFF4FC080D180E280F380DC01CB0164
S214004CB08C199D09AE09BF098D3D9540A105B1052A
S214004CC0D0F089ED98E00E940F30811114C0F801F1
S214004CD0E35BFF4F108211821282138260E089ED3F
S214004CE098E00E94712F10928C0840E066E080EDFC
S214004CF09EE00E946F460E946819F80160A771A79F
S214004D0082A793A715C0F801E35BFF4F10821182BC
S214004D1012821382F0CFF801E35BFF4F808191810E
S214004D20A281B381892B8A2B8B2B09F4ACCFB5CF0C
S214004D30DF91CF911F910F91FF90EF90DF90CF9072
S214004D40BF900895CF92DF92EF92FF92CF93DF93BA
S214004D50EC0189DD0E94EA0D40E06AE081E2F2DDC6
S214004D6040E065E081E2EEDD40E06AE080E2EADD18
S214004D7040E065E080E2E6DD4FEF60E081E2E2DD04
S214004D804FEF61E081E2DEDD4FEF60E080E2DADDEA
S214004D904FEF61E080E2D6DD4FEF6CE081E2D2DDDE
S214004DA04FEF6DE081E2CEDD4FEF6CE080E2CADDD2
S214004DB04FEF6DE080E2C6DD0E9468196B017C0152
S214004DC0FE01E45BFF4F1082CE01E3DE0E9468190D
S214004DD0DC01CB018C199D09AE09BF09843691050B
S214004DE0A105B10588F38CA19DA1AEA1BFA188271E
S214004DF09927A076BB270097A046B10549F461E045
S214004E0089ED98E00E94712FC45BDF4F188204C0C2
S214004E10C45BDF4F81E08883DF91CF91FF90EF90F6
S214004E20DF90CF9008956F3F31F4FC01E45BFF4FB5
S214004E3081E080830895FC01E60FF11D67FDFA9579
S214004E4021E024A708956F3F29F4FC01E45BFF4F9F
S214004E5010820895FC01E60FF11D67FDFA9514A671
S214004E600895FC0188961192119211921192E817FA
S214004E70F907C9F70895CF92DF92EF92FF920F934A
S214004E801F93CF93DF93C62FD42FF22E8AE69FE090
S214004E900E948C56882329F082E69CE00E943837D0
S214004EA04CC189ED98E00E940F30882319F0C2307B
S214004EB008F043C18AE69FE00E943869E82E8AE639
S214004EC09FE00E94E767C82E8AE69FE00E946E6910
S214004ED0D82E0C2F10E00A30110508F02EC1F8016C
S214004EE0E65FFE4F0C94848289ED98E00E940F30B6
S214004EF0882331F06D2F89ED98E00E949A2F1DC10E
S214004F00D11006C060E082E69CE00E94AE3615C175
S214004F106BE180E498E028DD882379F16BE180E49A
S214004F2098E091DF6E2D8AE69FE00E944768DD23B9
S214004F3019F041E0480F02C04FEF480F442321F01C
S214004F40413118F041E001C040E16E2D8AE69FE055
S214004F500E94C4708AE69FE00E94E767C82F6E2D05
S214004F608AE69FE00E944768682F21E02E0D4C2FAE
S214004F7082E69CE00E948C32E0C08AE69FE00E94B7
S214004F80EC67DD2319F0C1E0C80F02C0CFEFC80FF1
S214004F90CA3021F0CC231CF4C9E001C0C0E06C2F5D
S214004FA08AE69FE00E94B76D8AE69FE00E94F1675E
S214004FB0D82F40E060E080ED9EE00E949E4661E0D3
S214004FC06C0F4D2F82E69CE00E94A638B6C089ED95
S214004FD098E00E940F30882331F06D2F89ED98E01D
S214004FE00E941830AAC0D11006C061E082E69CE09C
S214004FF00E94AE36A2C08AE69FE00E94F167DD23DB
S21400500019F0C1E0C80F02C0CFEFC80FC13121F0C0
S214005010CC231CF4C0E101C0C0E06C2F8AE69FE000
S2140050200E94E06D40E060E080ED9EE00E949E46BB
S2140050308AE69FE00E94EC6761E0680F4C2F82E6EC
S2140050409CE00E94A63879C0C73011F4C1E001C0C8
S214005050C0E0D11006C062E082E69CE00E94AE3658
S2140050606CC02F2D4C2F6D2F8AE69FE00E944D6E50
S2140050704E2D6C2F8AE69FE00E94326801E00E0DEE
S214005080282F4C2D6C2F82E69CE00E94F43255C0EF
S214005090C53039F0C93041F0C33049F411E0C0E002
S2140050A008C010E0C1E005C011E0C1E002C010E099
S2140050B0C0E0D11006C063E082E69CE00E94AE36F7
S2140050C03CC00F2D212F4C2F6D2F8AE69FE00E94AB
S2140050D0186F2E2D412F6C2F8AE69FE00E940B68DA
S2140050E0E394082F2C2D412F6C2F82E69CE00E9423
S2140050F01F3423C0C43011F4C1E001C0C0E0D11099
S21400510006C064E082E69CE00E94AE3616C021E04F
S2140051104C2F6D2F8AE69FE00E94FE6F4E2D6C2F5F
S2140051208AE69FE00E94F66701E00E0D282F4C2DC0
S2140051306C2F82E69CE00E946733DF91CF911F912F
S2140051400F91FF90EF90DF90CF9008953F924F928F
S2140051505F926F927F928F929F92AF92BF92CF9202
S214005160DF92EF92FF920F931F93CF93DF93982EC9
S214005170C92EA82EB92E10E0512C612C442443943D
S214005180842C712C0F2EF5E03F2EF02D612F88E138
S21400519097E00E945E19082F8823B1F10E946819D3
S2140051A0E501288139814A815B81DC01CB01821BC4
S2140051B0930BA40BB50B85369105A105B10510F42C
S2140051C0D32C01C0D42C0E946819688379838A8303
S2140051D09B83E02E002E000CFF08FF201CF4F194A9
S2140051E0E194F1081E141F047CF4C52DD62D482D1D
S2140051F010160CF0472D2D2D612F892D9C2D3BDE92
S2140052002196CE15DF0599F71F5FF4E0AF0EB11CAF
S2140052101A3009F0BBCFDF91CF911F910F91FF900D
S214005220EF90DF90CF90BF90AF909F908F907F9041
S2140052306F905F904F903F90089560E087CF0895FD
S21400524081EB98E00ECE0895FC01E05AFD4F1082E7
S21400525031961082359731E030833196108235963C
S2140052603083319645E0408339963083319621E18C
S2140052702083759722E0208331961082359720830D
S214005280319640833196208331964AE040833396A8
S214005290208331964FE040833996208331961082E2
S2140052A0759743E04083319610823196408331965D
S2140052B057E050833B964083319640E140833796D3
S2140052C03083319610823196208331961082319643
S2140052D010823196108208953F924F925F926F929D
S2140052E07F928F929F92AF92BF92CF92DF92EF9271
S2140052F0FF920F931F93CF93DF93382E82E69CE0A6
S2140053000E94D441C12CD12C88248394912CA12CAA
S214005310B12C412C512C320143948AE69FE00E9426
S214005320C754E82CF92CCA2DDB2D04C021962FEF8C
S214005330E21AF20A6C2F8AE69FE00E9462698823CE
S21400534061F0C630D10509F488C0209709F478C00A
S214005350C830D10509F467C083C0C6010C2E02C050
S214005360969587950A94E2F780FF2EC0D301C20176
S2140053700C2E04C0880F991FAA1FBB1F0A94D2F7D1
S21400538080959095C822D922C630D10569F0C830DC
S214005390D10591F02097C1F462E084E00E94A90E46
S2140053A080E20E94BE0EC2CF62E089E00E94A90E93
S2140053B080E20E94BE0EBACF62E08EE00E94A90E86
S2140053C080E20E94BE0E05C089E0E816F1040CF4E7
S2140053D0ADCFC601817499278134910509F09DCF20
S2140053E0D0FE9BCF64EF71E080E090E00E947419DD
S2140053F061E080ED9EE00E94794680ED9EE00E948E
S2140054005546632D8CE092E00E94D00A0E9443210C
S21400541084CF6894D0F862E08EE00E94A90E88E7F8
S2140054200E94BE0ED6CFD0FEF4CFCECF6894C0F882
S21400543062E084E00E94A90E88E70E94BE0E76CF46
S214005440C0FEF4CFC1CF6894C6F862E089E00E943F
S214005450A90E88E70E94BE0E69CFC6FEF4CFB4CF71
S21400546081EB98E0EADE80E0DF91CF911F910F910B
S214005470FF90EF90DF90CF90BF90AF909F908F906F
S2140054807F906F905F904F903F90089582E69CE0EB
S2140054900E943D4081E008958330B8F4482F61E0D3
S2140054A08AE69FE00E94996D61E082E69CE00E9499
S2140054B0234062E082E69CE00E94234063E082E6AE
S2140054C09CE00E94234081E0089580E00895CF93F9
S2140054D08AE69FE00E946E69C82F811108C065E0C9
S2140054E082E69CE00E94AE3689ED98E03FD78C2F8E
S2140054F0CF910895CF93C82F8230A0F4682F9923B8
S21400550041F0913089F48AE69FE00E940D6E91E0AA
S2140055100CC08AE69FE00E94E26791E08C1729F0B3
S21400552090E003C090E001C090E0892FCF910895ED
S214005530CF93C82F992361F09130C1F461E08111B7
S21400554001C060E087EC93E10E942A7E81E00FC0F4
S21400555087EC93E10E94257E282F91E0C11101C0BF
S21400556090E081E0291719F080E001C080E0CF913B
S2140055700895CF93C82F8230A0F4682F992341F066
S214005580913089F487EC93E10E94117E91E00CC083
S21400559087EC93E10E940E7E91E08C1729F090E054
S2140055A003C090E001C090E0892FCF910895FC01E0
S2140055B0EE56FD4F29ED33E031832083349721E00A
S2140055C030E031832083329627E63AE23183208327
S2140055D0349621E020837C9643EB53E0518340834E
S2140055E034974BE050E05183408332964CE45AE2C5
S2140055F05183408336961082369667EA73E071834D
S214005600608334976CE070E07183608332965183D8
S214005610408336962083369664E973E07183608310
S21400562034976DE070E071836083329651834083D7
S214005630369632E03083BC974DEC53E0518340837E
S214005640349742E050E051834083329646E45AE273
S214005650518340833C964FEB53E05183408334970D
S21400566043E050E05183408332964CE659E2518342
S2140056704083369620830895FC01EE56FD4F29E8B8
S21400568034E031832083349721E030E03183208377
S214005690329611821082F49629E634E03183208314
S2140056A034972BE030E031832083379621E0208347
S2140056B03597118210823C9642E654E0518340832F
S2140056C034974CE050E051834083379620833597DB
S2140056D0118210823C964DE554E051834083349706
S2140056E04DE050E0518340833796208335971182F2
S2140056F01082FA974CE754E051834083349742E097
S21400570050E051834083329611821082E85BFF4F4F
S21400571046E554E051834083349745E150E0518399
S2140057204083379620833597118210823C9641E558
S21400573054E051834083349746E150E051834083E0
S214005740379620833597118210823C964CE454E0BD
S21400575051834083349747E150E051834083379626
S2140057602083359711821082EE54F1094EE654E0FC
S21400577051834083349743E050E051834083329610
S21400578011821082E45AFF4F4CE354E05183408369
S21400579034974FE150E05183408332961182108255
S2140057A0B0964CE154E051834083349747E351E090
S2140057B0518340833796208335974AE75AE25183D0
S2140057C0408336961082369667E174E07183608374
S2140057D0349768E371E0718360833796208335974A
S2140057E05183408336962083B2974DE254E051832E
S2140057F04083349740E250E05183408332961182D2
S2140058001082FE964FE054E051834083349741E483
S21400581051E05183408337962083359748E95AE212
S2140058205183408336962083369666E074E0718313
S2140058306083349762E471E07183608337962083D7
S21400584035975183408336961082E054F10944E23E
S21400585054E051834083349741E250E051834083C3
S214005860329611821082B09649EE53E051834083FF
S21400587034974BE451E05183408337962083359725
S21400588049EB5AE25183408336961082369665EF8E
S21400589073E07183608334976CE471E07183608396
S2140058A03796208335975183408336962083E05978
S2140058B0F1092AEA34E031832083349724E030E08B
S2140058C031832083329626E43AE2318320833C9665
