:020000021000EC
:10F000004BC000008CC000008AC0000088C0000017
:10F0100086C0000084C0000082C0000080C00000E4
:10F020007EC000007CC0000099C2000078C00000D3
:10F0300076C0000074C0000072C0000070C0000004
:10F040006EC000006CC000006AC0000068C0000014
:10F0500066C0000064C0000062C0000060C0000024
:10F060005EC000005CC000005AC0000058C0000034
:10F0700056C0000054C0000052C0000050C0000044
:10F080004EC000004CC000004AC0000048C0000054
:10F0900046C0000044C0000011241FBECFEFD0E2E4
:10F0A000DEBFCDBF6A98729A8FE39CE90197F1F7B2
:10F0B00000C000006CB184B78D7F84BF20E030E0D9
:10F0C000F9014591549162FF13C04F3F5F4F81F0AA
:10F0D00084B7877F84BF0FB6F894A89580916000AD
:10F0E000886180936000109260000FBEF90109955D
:10F0F00011E0A0E0B1E0E8E0F9EF01E00BBF02C0F1
:10F1000007900D92AA36B107D9F721E0AAE6B1E03F
:10F1100001C01D92A437B207E1F702D0F3C370CF4C
:10F1200084B7877F84BF0FB6F894A895809160005C
:10F13000886180936000109260000FBE81E085BFFF
:10F1400082E085BFF0D1789480910001882311F08E
:10F15000C0D3FACF8091E00081608093E00082E428
:10F160009CED90937501809374019CE088E10FB64B
:10F17000F894A895809360000FBE90936000FFCF35
:10F1800042E361EC81E05EC18F929F92AF92BF92A9
:10F19000CF92DF92EF92FF920F931F93CF93DF9363
:10F1A00080916C018F77813209F0C3C080916D012D
:10F1B000893009F0BEC08091E800877F8093E80025
:10F1C0008091E80082FFFCCF3091F1002091F100A6
:10F1D000832F922FA0E0B0E0BA2FA92F982F882775
:10F1E00081152FEF9207A207B10519F410920001C3
:10F1F0008EC023E0FC01A0935B0020935700E895AC
:10F2000007B600FCFDCF20E030E0C0E0C12CD12CDF
:10F210007601E0E0D1E04091F2005091F300452BFF
:10F22000F1F07091F1006091F100472F562F60E0EE
:10F2300070E00E2F10E0F4E0000F111FFA95E1F7D7
:10F2400004C0440F551F661F771F0A95D2F7C42AC2
:10F25000D52AE62AF72AE1110CC0E1E044C040912A
:10F26000E8004B774093E8004091E80042FFFCCF74
:10F27000D8CF44E0C49FF0011124EF5FFE4F4081DE
:10F28000518162817381C426D526E626F726A9011D
:10F2900041505109440F551F4C015D01840E951ECC
:10F2A000A11CB11C0601F401A0925B00D093570091
:10F2B000E8951124A901440F551F4C015D01840EEE
:10F2C000951EA11CB11C0701F401A0925B00D09314
:10F2D0005700E8951124CF5FC83009F4C0E0C12C75
:10F2E000D12C7601E0E02F5F3F4F2038310509F047
:10F2F00092CF25E0FC01A0935B0020935700E89596
:10F3000007B600FCFDCF81E180935700E89580911E
:10F31000E8008B778093E800DF91CF911F910F91E8
:10F32000FF90EF90DF90CF90BF90AF909F908F9025
:10F330009DC0DF91CF911F910F91FF90EF90DF90D3
:10F34000CF90BF90AF909F908F900895913049F0EB
:10F35000923061F0913279F085E190E025E531E07D
:10F360000EC082E190E023E431E009C082E290E047
:10F3700021E231E004C089E090E023E331E0FA01CA
:10F3800031832083089520917201309173012617F3
:10F39000370748F06115710539F42091E8002E77A0
:10F3A0002093E80001C0B90140E06115710591F1B9
:10F3B0002EB3222309F440C0253009F43FC0209128
:10F3C000E80023FD3DC02091E80022FD2FC02091E0
:10F3D000E80020FFEACF2091F2003091F300FC0119
:10F3E000CF016115710559F02830310540F4819144
:10F3F0008093F100615071092F5F3F4FF1CF41E0E1
:10F400002830310509F040E02091E8002E77209364
:10F41000E800CBCF4111CCCF09C08EB3882361F077
:10F42000853061F08091E80083FD0AC08091E8009A
:10F4300082FFF3CF80E0089582E0089583E008958D
:10F4400081E008958F708093E900EBEEF0E0808119
:10F4500081608083EDEEF0E010826093EC004083E9
:10F460008091EE00881F8827881F089580916C0185
:10F4700087FF0FC08091E80082FD04C08EB3811128
:10F48000F9CF10C08091E8008B770AC08EB3882333
:10F4900049F08091E80080FFF9CF8091E8008E77F5
:10F4A0008093E80008950F931F93CF93DF9349D083
:10F4B00050D0C8EDD0E088818F77888388818068BC
:10F4C000888388818F7D8883E7EDF0E08081806884
:10F4D000808319BC1EBA10926A0100EE10E0F80198
:10F4E00080818B7F808388818160888342E060E0B7
:10F4F00080E0A8DFE1EEF0E080818E7F8083E2EEA5
:10F50000F0E0808181608083808188608083F80161
:10F5100080818E7F8083888180618883DF91CF9115
:10F520001F910F910895E8EDF0E080818F7E808338
:10F53000E7EDF0E080818160808381E080936B0162
:10F54000B2CFE8EDF0E080818C7F80831092E20002
:10F5500008951092DA001092E10008951F920F9220
:10F560000FB60F9211240BB60F922F933F934F9328
:10F570005F936F937F938F939F93AF93BF93EF931B
:10F58000FF938091DA0080FF1BC08091D80080FF3C
:10F5900017C08091DA008E7F8093DA008091D900C5
:10F5A00080FF0BC084E189BD86E189BD09B400FEFE
:10F5B000FDCF81E08EBB8CD103C019BC1EBA88D1AF
:10F5C0008091E10080FF17C08091E20080FF13C0AE
:10F5D0008091E2008E7F8093E2008091E200806162
:10F5E0008093E2008091D80080628093D80019BC9B
:10F5F00085E08EBB6DD18091E10084FF2EC08091AB
:10F60000E20084FF2AC084E189BD86E189BD09B496
:10F6100000FEFDCF8091D8008F7D8093D80080912F
:10F62000E1008F7E8093E1008091E2008F7E8093E5
:10F63000E2008091E20081608093E20080916A01A3
:10F64000882311F084E007C08091E30087FD02C0A9
:10F6500081E001C083E08EBB3BD18091E10083FF5C
:10F6600021C08091E20083FF1DC08091E100877F6F
:10F670008093E10082E08EBB10926A018091E100EC
:10F680008E7F8093E1008091E2008E7F8093E20084
:10F690008091E20080618093E20042E060E080E0DF
:10F6A000D1DE16D1FF91EF91BF91AF919F918F91D4
:10F6B0007F916F915F914F913F912F910F900BBE72
:10F6C0000F900FBE0F901F9018951F93CF93DF934D
:10F6D00000D0CDB7DEB7ECE6F1E088E08E0F909178
:10F6E000F10091938E13FBCF4FDD8091E80083FFF3
:10F6F000DBC080916C0190916D01953009F466C07A
:10F7000030F4913059F168F0933041F1CDC0983028
:10F7100009F49DC0993009F4ACC0963009F0C4C01A
:10F7200076C0803881F0823809F0BEC080917001C7
:10F730008F708093E9008091EB0085FB882780F92A
:10F740001092E90001C080E09091E800977F9093CB
:10F75000E8008093F1001092F10084C0282F2D7FE3
:10F7600009F0A2C0823009F09FC080916E01811122
:10F7700027C0809170018F7009F496C08093E900D2
:10F780002091EB0020FF1CC0933021F48091EB000E
:10F79000806214C09091EB0090619093EB0021E0A7
:10F7A00030E0A90102C0440F551F8A95E2F740934B
:10F7B000EA001092EA008091EB0088608093EB00F1
:10F7C0001092E9008091E800877F4FC081116CC0E2
:10F7D00010916E011F778091E3008078812B8093D8
:10F7E000E3008091E800877F8093E8003FDE80910E
:10F7F000E80080FFFCCF8091E30080688093E30005
:10F80000111102C082E001C083E08EBB4DC0805860
:10F81000823008F049C0AE014F5F5F4F60917001C8
:10F8200080916E0190916F0191DDBC01892B09F4EB
:10F830003BC09091E800977F9093E80089819A817E
:10F84000A2DD8091E8008B778093E8002DC080389E
:10F8500059F58091E800877F8093E80080916A01E4
:10F860008093F1008091E8008E778093E800FEDDC0
:10F870001BC0811119C090916E019230A8F4809143
:10F88000E800877F8093E80090936A01EFDD809124
:10F890006A01811106C08091E30087FD02C081E00A
:10F8A00001C084E08EBB6CDC8091E80083FF0AC05D
:10F8B0008091E800877F8093E8008091EB00806270
:10F8C0008093EB000F900F90DF91CF911F910895DF
:10F8D0000895CF938EB3882399F0C091E900CF703B
:10F8E0009091EC00892F817090FD80E8C82B1092D8
:10F8F000E9008091E80083FDE8DECF70C093E90065
:08F90000CF910895F894FFCFA8
:10F9080001A04CA95F0F91710CE6B441D46A4C0078
:10F918005ACA1C845AA2D71CE4E11F0BA8A46FFE84
:10F92800610902220001010080320904000001037C
:10F9380000000009211101000122150007058103BB
:10F948004000051201100100000008EB03672001C8
:10F95800000000000106DCFF09FBA10109021500F7
:0AF9680025FF75089602019102C008
:040000031000F000F9
:00000001FF
