:020000021000EC
:10E000004BC0000090C000008EC000008CC000001B
:10E010008AC0000088C0000086C0000084C00000E4
:10E0200082C0000080C000000C94FAF80C94AFF994
:10E030007AC0000078C0000076C0000074C0000004
:10E0400072C0000070C000006EC000006CC0000014
:10E050000DC1000068C0000066C0000064C0000080
:10E0600062C0000060C000005EC000005CC0000034
:10E070005AC0000058C0000056C0000054C0000044
:10E0800052C0000050C000004EC000004CC0000054
:10E090004AC0000048C0000011241FBECFEFD0E2EC
:10E0A000DEBFCDBF6A988CB182FB882780F904B6A9
:10E0B00001FC03C094B79D7F94BFE0E0F0E02591A0
:10E0C0003491811118C02F3F3F4FA9F084B7877F4B
:10E0D00084BF0FB6F894A895809160008861809302
:10E0E0006000109260000FBE10928C0210928B02A2
:10E0F000E0E0F0E0099512E0A0E0B1E0EEE9F6EF33
:10E1000001E00BBF02C007900D92A038B107D9F70C
:10E1100022E0A0E8B2E001C01D92AB38B207E1F7FF
:10E120005BD00C944DFB6CCF07B600FCFDCFF9998A
:10E13000FECF23E0FB0180935B0020935700E8951E
:10E1400007B600FCFDCF81E180935700E895089564
:10E1500007B600FCFDCFF999FECF25E0FB018093C7
:10E160005B0020935700E89507B600FCFDCF81E1E6
:10E1700080935700E895089507B600FCFDCFF99904
:10E18000FECF21E00A01FB0180935B002093570042
:10E19000E8951124089521E2FC0120935700849111
:10E1A000089529E0FC012093570084910895E1E04F
:10E1B000F0E089E0809357008491089507B600FC51
:10E1C000FDCFF999FECF809599E0E1E0F0E0082ECF
:10E1D00090935700E895089584B7877F84BF0FB662
:10E1E000F894A895809160008861809360001092F7
:10E1F00060000FBE90E080E80FB6F8948093610055
:10E20000909361000FBEC1E0C5BF82E085BFD6D745
:10E21000C0936F0083E080938100789405C081E013
:10E2200091E0F9D30E941AFB809100018111F7CF90
:10E230008091800291E0980F909380028F3F79F750
:10E24000E0EEF0E080818160808382E49CED909339
:10E250008C0280938B029CE088E10FB6F894A8951D
:10E26000809360000FBE90936000FFCF1F920F92CB
:10E270000FB60F9211240F900FBE0F901F9018959C
:10E280000895089581E091E0ACC3089581E091E0A4
:10E290006BC3089573D0109280020895913039F0C5
:10E2A000923051F480E290E02CEE31E009C082E13E
:10E2B00090E02CE032E004C080E090E020E030E02C
:10E2C000FA01318320830895BF92CF92DF92EF92BB
:10E2D000FF920F931F93CF93DF93FC01B62E40A1C3
:10E2E000578DE3A0F2A0483181E0580728F48F0150
:10E2F000E114F10471F41CC0ECE3F1E08081807F53
:10E3000085608083EAE3F1E081E28487158680E01E
:10E310002BC0EA016701C40ED51EBB2019F0CE0147
:10E3200025D202C0CE014CD12196CC15DD05A9F72E
:10E33000C701A0E0B0E0072E79E0880F991FAA1F5F
:10E34000BB1F7A95D1F7702DF801448955896689EC
:10E3500077896A017B01C81AD90AEA0AFB0AC48ACA
:10E36000D58AE68AF78A81E0DF91CF911F910F91DC
:10E37000FF90EF90DF90CF90BF900895EF92FF92C3
:10E380000F931F93CF93DF93EC019B8D9F31A0F4EC
:10E390009D3108F0C6C09231F1F038F4992309F4A8
:10E3A000C0C0933009F452C0C1C09A3109F49AC078
:10E3B0009B3109F4AEC0BAC0983209F48FC020F482
:10E3C000953209F469C0B2C09A3209F483C09F3211
:10E3D00009F4A7C0ABC00F8D1E8D9C8D937019F4EE
:10E3E0008D8D882361F0ECE3F1E08081807F856092
:10E3F0008083EAE3F1E084E284871586B2C0780185
:10E400000532110528F00F2EF4E2EF2EF12CF02D3D
:10E4100040E050E0B7018EE192E07FD460E070E030
:10E42000C8018E199F092AD4E8EEF0E080818E772A
:10E4300080838C899D89AE89BF898E199F09A10926
:10E44000B1098C8B9D8BAE8BBF8B7EC01F8D012F36
:10E45000133108F002E1E02EF12C40E050E0B7016A
:10E460008AE391E05AD4812F90E060E070E08E1949
:10E470009F0904D4E8EEF0E080818E7780838C8958
:10E480009D89AE89BF89801B9109A109B1098C8B37
:10E490009D8BAE8BBF8B58C0E1EFF0E010821082F5
:10E4A00081E0808387E180831082108282E0808314
:10E4B0001082E8EEF0E080818E7780838C899D89E0
:10E4C000AE89BF890897A109B1098C8B9D8BAE8B52
:10E4D000BF8B3AC060E0CE01F7DE34C061E0CE0110
:10E4E000F3DE30C0E1EFF0E0108210821082108283
:10E4F000E8EEF0E080818E7780838C899D89AE89FB
:10E50000BF890497A109B1098C8B9D8BAE8BBF8B02
:10E510001BC08F8D837091E0823009F490E090935E
:10E5200000011C8A1D8A1E8A1F8A0EC0ECE3F1E0DE
:10E530008081807F85608083EAE3F1E080E28487E8
:10E5400015860FC0882359F0ECE3F1E08081807FCD
:10E550008083EAE3F1E01486158681E003C080E061
:10E5600001C080E0DF91CF911F910F91FF90EF905C
:10E5700008959B0136952795260F60FF12C0FC0178
:10E58000E20FF11D80818F70942F9295907F892BDF
:10E590008083529542954F7045275F704527418390
:10E5A0000895FC01E20FF11D4083842F807F852BAD
:10E5B000818308950C9433FB08950C943BFB0895DC
:10E5C0002F923F924F925F926F927F928F929F9283
:10E5D000AF92BF92CF92DF92EF92FF920F931F9371
:10E5E000CF93DF93CDB7DEB7D2500FB6F894DEBF2E
:10E5F0000FBECDBF1C0140E050E060E072E0CE01F4
:10E600000196E7D3E8EEF0E080818B77808323E00A
:10E610002216310408F491C083E02816310451F425
:10E6200080EAFE013196ACE4B1E001900D928A954A
:10E63000E1F783C08091A6019091A7018150904C91
:10E64000880F991F880F991F2816390608F447C0AC
:10E650009C0121513F4F2215330508F440C0610150
:10E66000C81AD90AE12CF12C0B2EB9E0CC0CDD1C18
:10E67000EE1CFF1CBA95D1F7B02D8E010E5F1F4F17
:10E6800026013701E2E05E0E611C711C02C07501BB
:10E690006401C11003C0C701B60146DDF80131971E
:10E6A0004081F801808150E0582BC701B60164DD3C
:10E6B00046015701F2E08F0E911CA11CB11C811084
:10E6C00007C0C701B6016E5F71098109910940DD7C
:10E6D0000E5F1F4F84149504A604B704C1F6809101
:10E6E000E6019091E7018150904C880F991F880FA7
:10E6F000991F2816390608F19C01295F3F4F221502
:10E700003305D8F0281A390A322C2224330CCE01D2
:10E7100001967E012FEFE21A2DEFF20A8C0180950F
:10E720009095280E391EF80161918F01C1018E0F5D
:10E730009F1F43DF0E151F05B1F7DE5F0FB6F8947C
:10E74000DEBF0FBECDBFDF91CF911F910F91FF9024
:10E75000EF90DF90CF90BF90AF909F908F907F9081
:10E760006F905F904F903F902F900895CF92DF92DF
:10E77000EF92FF920F931F93CF93DF93CDB7DEB746
:10E78000D2500FB6F894DEBF0FBECDBFFE0131965A
:10E7900020E032E0DF01A9011D9241505040E1F735
:10E7A0008330910518F4019728F01AC08330910541
:10E7B000C9F142C08EE3E2E4F2E0DE01119601907D
:10E7C0000D928A95E1F785E5C150DE4F8883CF5FD2
:10E7D000D1408AEAC050DE4F8883C050D24090C0FA
:10E7E00048EF5FE060E070E0CE010196C2DE4FEFDF
:10E7F0005FE061E070E0CE010196BBDE6091A601B2
:10E800007091A7017B015BE3E50EF11C8B010F5FAB
:10E810001F4FA801CE010196ACDEB8010E151F05F1
:10E82000A9F77BC080EAECE4F1E0DE0111960190EB
:10E830000D928A95E1F764C02091A6013091A7015D
:10E840002150304C220F331F220F331F82179307A2
:10E8500050F1A90141515F4F4817590720F1AC0110
:10E86000421B530B60E070E0032E39E0440F551F4C
:10E87000661F771F3A95D1F7302DDE0111967E0184
:10E88000EFEFEE1AEDEFFE0A8A019B010F5F1F4FBB
:10E890002F4F3F4F6BBFFA0147914D93B901A8012C
:10E8A000AE15BF0589F72091E6013091E7012150AF
:10E8B000304C220F331F220F331F8217930700F1B2
:10E8C000A901495F5F4F48175907D0F07C01E21A50
:10E8D000F30AFE2CEE24FF0CCE0101966E01FFEF31
:10E8E000CF1AFDEFDF0A8C01E81AF90AC701800F81
:10E8F000911F60DED8018D938D01AC15BD05B1F778
:10E9000040E050E060E072E0CE01019606D2E8EE11
:10E91000F0E080818E77808318C04FEF5FE0B80110
:10E92000CE01019626DE6091E6017091E7018B0130
:10E930000F5F1F4FA801CE0101961BDE4FEF5FE076
:10E94000B801CE01019615DEDBCFDE5F0FB6F8947D
:10E95000DEBF0FBECDBFDF91CF911F910F91FF9012
:10E96000EF90DF90CF900895CF93DF93FC019091CB
:10E97000E80093FF33C0208130E0809187029091BE
:10E9800088028217930751F5EF01809184028E3F30
:10E9900079F08F3F19F5809183028132F9F4E8EE26
:10E9A000F0E08081877F808367D381E088AF16C0E5
:10E9B00080918302813A91F4E8EEF0E08081877FD4
:10E9C0008083808180FFFDCF8B8581508093F10013
:10E9D000E8EEF0E080818E7780834ED3DF91CF9197
:10E9E0000895CF93DF93EC01FC013C968DE2DF01AB
:10E9F0001D928A95E9F782E08C83898761E0CE01D8
:10EA00000196D4D2882321F061E0CE010696CED2C1
:10EA1000DF91CF910895EF92FF920F931F93CF93C1
:10EA2000DF9300D0CDB7DEB78C019EB3943009F0F0
:10EA30001CC1D80116968C9116978F708093E900AF
:10EA40008091E80082FFD2C016968C918F708093DF
:10EA5000E9001A8219827801BCE0EB0EF11C04C0B7
:10EA6000F80190AD9111C2C0AE014F5F5F4F6FE0F2
:10EA700070E0C701AED1853099F3F80184859585A2
:10EA8000A685B78585359345A244B34499F4D8014A
:10EA900059969C9159971B968C911B97981750F4F7
:10EAA00058968C9158978F7129F45A968C91815071
:10EAB000803178F0EBEEF0E0808180628083D801D5
:10EAC00011968C918F708093E900808180628083A1
:10EAD0008DC01A8219827801BBE1EB0EF11C04C0D3
:10EAE000F80190AD911182C0D8015A966C9170E0F6
:10EAF000AE014F5F5F4FC7016CD1853089F3E8EEFF
:10EB0000F0E080818B778083F801808D882324F466
:10EB100081818F708093E900C801BCDB91E0982768
:10EB2000D801D7969C93D79745E553E562E473E502
:10EB3000F80143A754A765A776A740895189628940
:10EB400073899F964D935D936D937C93D297549662
:10EB50004D915D916D917C91579743AB54AB65ABF3
:10EB600076AB811109C0452B462B472B29F0EBEEE4
:10EB7000F0E0808180628083D80116968C918F703E
:10EB80008093E900EBEEF0E005C0D801D8968C91B7
:10EB900081112CC0808185FDF8CFF80181818F70B3
:10EBA0008093E900EBEEF0E005C0D801D8968C9197
:10EBB00081111CC0808185FDF8CF1A8219827801ED
:10EBC000BBE2EB0EF11C04C0F80190AD91110EC038
:10EBD000AE014F5F5F4F6DE070E0C7019ED08530A2
:10EBE00099F3E8EEF0E080818E778083D801D896A3
:10EBF0008C91D8978823C9F116962C9116972F706F
:10EC000081E090E0FC0102C0EE0FFF1F2A95E2F7C1
:10EC10009F01EAEEF0E02083108211962C9111976B
:10EC20002F7002C0880F991F2A95E2F78083108207
:10EC300016968C918F7029EE30E0D9018C93EBEE13
:10EC4000F0E0808180618083808188608083D8014A
:10EC500011968C918F70D9018C9380818061808313
:10EC6000808188608083F80110AE0F900F90DF9153
:10EC7000CF911F910F91FF90EF900895AF92BF92A7
:10EC8000CF92DF92EF92FF920F931F93CF93DF9378
:10EC9000EC016B0113D2811135C0C114D10429F0EC
:10ECA000F60180819181C81BD90B209751F1E12C8D
:10ECB000F12C08EE10E00F2EF1EFAF2EB12CF02D5D
:10ECC000F801808185FD13C080818E778083C11417
:10ECD000D10449F0F60180819181E80EF91EF1829C
:10ECE000E08285E00FC0EAD1882339F00BC0F5013E
:10ECF00010822197FFEFEF1AFF0A209709F780E0B3
:10ED000001C080E0DF91CF911F910F91FF90EF90B4
:10ED1000DF90CF90BF90AF9008958F929F92AF9267
:10ED2000BF92CF92DF92EF92FF920F931F93CF93F8
:10ED3000DF938C01EB016A01C1D181113DC0C11487
:10ED4000D10439F0F60180819181C81BD90B080FDD
:10ED5000191F209781F1E12CF12C0F2EF8EE8F2E48
:10ED6000912CF02D0F2EF1EFAF2EB12CF02DF401E0
:10ED7000808185FD13C080818E778083C114D1048A
:10ED800049F0F60180819181E80EF91EF182E0825E
:10ED900085E012C093D1882351F00EC0F801819113
:10EDA0008F01F50180832197FFEFEF1AFF0A20976B
:10EDB000F1F680E001C080E0DF91CF911F910F91CB
:10EDC000FF90EF90DF90CF90BF90AF909F908F908B
:10EDD00008958F929F92AF92BF92CF92DF92EF925F
:10EDE000FF920F931F93CF93DF938C01EB016A0186
:10EDF00065D181113DC0C114D10439F0F601808183
:10EE00009181C81BD90B080F191F209781F1E12CA4
:10EE1000F12C0F2EF8EE8F2E912CF02D0F2EF1EFFE
:10EE2000AF2EB12CF02DF401808185FD13C08081BF
:10EE30008B778083C114D10449F0F60180819181E0
:10EE4000E80EF91EF182E08285E012C037D18823F6
:10EE500051F00EC0F5018081F80181938F01219757
:10EE6000FFEFEF1AFF0A2097F1F680E001C080E083
:10EE7000DF91CF911F910F91FF90EF90DF90CF9096
:10EE8000BF90AF909F908F900895EF92FF920F9355
:10EE90001F93CF93DF932091890230918A02261726
:10EEA000370758F06115710539F4E8EEF0E020817C
:10EEB0002E7720839B0101C09B01A82FB92F90E0E2
:10EEC000E8EEF0E062EF70E00F2EF1EFEF2EF12CA4
:10EED000F02D11E000E02EC08EB3882309F440C06D
:10EEE000853009F43FC0808183FD3EC0808182FD72
:10EEF00030C0808180FF1EC0EB01488159812115FF
:10EF0000310581F04830510568F48D91E70188831F
:10EF1000215031094F5F5F4F2115310519F04830FD
:10EF2000510599F7912F4830510509F0902F8081B4
:10EF30008E7780832115310579F69111CDCF09C0E7
:10EF40008EB3882399F0853099F0808183FF03C0C8
:10EF500011C0E8EEF0E0808182FFF2CF80E00BC0CC
:10EF600082E009C083E007C081E005C082E003C001
:10EF700083E001C081E0DF91CF911F910F91FF905D
:10EF8000EF9008958F708093E900EBEEF0E08081C0
:10EF900081608083EDEEF0E010826093EC004083AE
:10EFA0008091EE00881F8827881F08959F92AF9256
:10EFB000BF92CF92DF92EF92FF920F931F93CF9366
:10EFC000DF93662309F449C0E62E8C01EC010C5F47
:10EFD0001F4FF12CD12C6894BB24B3F8C12C0F2EF9
:10EFE000F6E0AF2EF02D6894992491F858815523BE
:10EFF00061F1F8019081E981FA81D80111976C9152
:10F00000852F8F70873058F5923010F4492D01C04C
:10F010004A2DE930F10550F02B2D3C2D9D2D9F5FA1
:10F02000220F331F2E173F07D0F301C09D2D92955D
:10F03000907F492BF0E46F9FB0011124551F552795
:10F04000551F652B9FDF882359F0F39425960B5F9E
:10F050001F4FFE10CBCF81E003C081E001C080E0F4
:10F06000DF91CF911F910F91FF90EF90DF90CF90A4
:10F07000BF90AF909F9008958091830288233CF0C9
:10F08000E8EEF0E012C08EB3811103C00895E8EEFF
:10F09000F0E0808182FFF7CFE8EEF0E080818B77AF
:10F0A000808308958EB3882341F0808180FFFACF5A
:10F0B000E8EEF0E080818E77808308950F931F93B0
:10F0C000CF93DF932091E4003091E50065E6ACEE4C
:10F0D000B0E0E8EEF0E00BEE10E044EE50E001C0EE
:10F0E0009C019C91892F817090FD1CC01FC08EB324
:10F0F000882381F0853081F0E801888185FD0EC08C
:10F10000EA01888199812817390759F3615041F73D
:10F1100084E00FC082E00DC083E00BC081E009C035
:10F1200080E007C0808180FFE2CFFACF908192FF1C
:10F13000DECFDF91CF911F910F9108950F931F9311
:10F14000CF93DF934AD051D0C8EDD0E088818F773C
:10F15000888388818068888388818F7D8883E7EDB4
:10F16000F0E080818068808319BC1EBA1092810211
:10F1700000EE10E0F80180818B7F808388818160C0
:10F18000888342E060E080E0FDDEE1EEF0E0808137
:10F190008E7F8083E2EEF0E08081816080838081D9
:10F1A00088608083F80180818E7F80838881806180
:10F1B0008883DF91CF911F910F910895E8EDF0E0E2
:10F1C00080818F7E8083E7EDF0E0808181608083A5
:10F1D00081E080938202B2CF0895E8EDF0E0808173
:10F1E0008C7F80831092E20008951092DA001092D2
:10F1F000E10008951F920F920FB60F9211240BB6E3
:10F200000F922F933F934F935F936F937F938F93BF
:10F210009F93AF93BF93EF93FF938091DA0080FFAA
:10F220001BC08091D80080FF17C0EAEDF0E080811C
:10F230008E7F80838091D90080FF0BC084E189BDDF
:10F2400086E189BD09B400FEFDCF81E08EBB18D8F0
:10F2500003C019BC1EBA15D88091E10080FF15C00B
:10F260008091E20080FF11C0E2EEF0E080818E7FAD
:10F270008083808180618083E8EDF0E0808180621E
:10F28000808319BC85E08EBBD4D18091E10084FFDE
:10F290002DC08091E20084FF29C084E189BD86E110
:10F2A00089BD09B400FEFDCFE8EDF0E080818F7DDF
:10F2B0008083E1EEF0E080818F7E8083E2EEF0E0FB
:10F2C00080818F7E808380818160808380918102B4
:10F2D000882319F084E08EBB08C08091E300882366
:10F2E00014F081E001C083E08EBBA3D18091E100E6
:10F2F00083FF22C08091E20083FF1EC0E1EEF0E0B8
:10F300008081877F808382E08EBB10928102808122
:10F310008E7F8083E2EEF0E080818E7F808380812B
:10F320008061808342E060E080E02CDEE0EFF0E08E
:10F330008081886080837DD1FF91EF91BF91AF91F3
:10F340009F918F917F916F915F914F913F912F91FD
:10F350000F900BBE0F900FBE0F901F9018951F922D
:10F360000F920FB60F9211240BB60F92EF92FF92ED
:10F370000F931F932F933F934F935F936F937F93BD
:10F380008F939F93AF93BF93CF93DF93EF93FF93AD
:10F39000C091E900CF708091EC00D82FD17080FD32
:10F3A000D0E80F2EF9EEEF2EF12CF02DF7011082A0
:10F3B00000EF10E0F8018081877F8083789423D06C
:10F3C000F7011082F801808188608083CD2BCF7097
:10F3D000F701C083FF91EF91DF91CF91BF91AF9182
:10F3E0009F918F917F916F915F914F913F912F915D
:10F3F0001F910F91FF90EF900F900BBE0F900FBEDB
:10F400000F901F9018950F931F93CF93DF9300D009
:10F41000CDB7DEB7E3E8F2E02BE832E0A1EFB0E0F1
:10F420008C918193E217F307D9F70E9446F18091FE
:10F43000E80083FFE2C0E3E8F2E09081818185305B
:10F4400009F468C030F4813079F168F0833061F1FB
:10F45000D4C0883009F4A0C0893009F4ADC086302A
:10F4600009F0CBC079C0903881F0923809F0C5C05E
:10F47000809187028F70E9EEF0E080839091EB003D
:10F4800095FB992790F9108201C090E0E8EEF0E03A
:10F490008081877F8083A1EFB0E09C931C92808164
:10F4A0008E778083E9DDA9C0923009F4B5C0A5C08C
:10F4B000809187028F7009F4A0C08093E900909139
:10F4C000EB0090FF1EC090918402933031F4EBEE7C
:10F4D000F0E080818062808314C0EBEEF0E09081E8
:10F4E0009061908321E030E0A90102C0440F551FD4
:10F4F0008A95E2F7AAEEB0E04C931C928081886076
:10F5000080831092E900E8EEF0E08081877F8083BD
:10F51000B3DD73C0911171C0109185021F77E3EEC6
:10F52000F0E080818078812B8083E8EEF0E08081BC
:10F53000877F8083A1DDE8EEF0E0808180FFFDCF52
:10F54000E3EEF0E0808180688083111102C082E0E8
:10F5500001C083E08EBB51C09058923008F04DC07E
:10F56000E3E8F2E0AE014F5F5F4F648182819381F7
:10F570000E944EF1BC01892B09F43FC008EE10E057
:10F58000F8019081977F908389819A817EDCF801D0
:10F5900080818B77808331C0903879F5E8EEF0E098
:10F5A0008081877F8083809181028093F1008081B8
:10F5B0008E77808361DD21C091111FC0809185020B
:10F5C0008230D8F4E8EEF0E08081877F80838091FC
:10F5D00085028093810250DD80918102882319F099
:10F5E00084E08EBB08C08091E300882314F081E0A2
:10F5F00001C084E08EBB0E9442F18091E80083FF4D
:10F6000011C0E8EEF0E08081877F8083EBEEF0E0D0
:10F6100080818062808306C080918502882309F4FE
:10F6200047CF6FCF0F900F90DF91CF911F910F9128
:10F6300008950895CF938EB3882399F0C091E9007F
:10F64000CF708091EC00982F917080FD90E8C92BCD
:10F650001092E9008091E80083FDD5DECF70C09361
:10F66000E900CF910895F999FECF92BD81BDF89A36
:10F67000992780B50895262FF999FECF92BD81BDB7
:10F68000F89A019700B4021639F01FBA20BD0FB6E0
:0EF69000F894FA9AF99A0FBE0895F894FFCFF5
:10F69E000100834000000104400000010100000051
:10F6AE00000000000000000000000000000000004C
:10F6BE00000000000000000000000000000000003C
:10F6CE0000000000000000000000700000000000BC
:10F6DE00000A000000000000000000005A76756B62
:10F6EE0039000000000000080000000000000000CB
:10F6FE000000000000000000000000004146004C29
:10F70E00004100530048000F00262E004200490021
:10F71E004E0000000000000000000000464C415367
:10F72E004820202042494E0000000000000000004A
:10F73E00000020084E12020000E001004145004585
:10F74E0000500052004F000F00144D002E004200DA
:10F75E0049004E00000000000000000045455052D8
:10F76E004F4D202042494E000000000000000000D6
:10F77E00000020084E123E00FF0F0000090220007C
:10F78E00010100803209040000020806500007053E
:10F79E008302400005070504024000051201000225
:10F7AE0000000008EB03452001000102000100806B
:10F7BE0000021F0000004C55464100000000426F41
:10F7CE006F746C6F61646572000000000000302E73
:10F7DE003030EB3C906D6B646F7366730000020407
:10F7EE0001000210001801F80100180004000000CA
:10F7FE00000000000000000029785634125A767579
:10F80E006B390000000000004641543132202020A8
:10FFA0000C9494F00C94A8F00C94BCF00C94CBF04E
:10FFB0000C94D1F00C94D7F00C94DEF008950895D1
:06FFC00008950895089564
:10FFE000DFCFE0CFE1CFE2CFE3CFE4CFE5CFE6CF85
:08FFF000E6CFE6CFE6CFE6CF35
:08FFF80000E0010030DFFBDC3A
:040000031000E00009
:00000001FF
