:100000007FC20000ACC20000AAC20000A8C200006B
:10001000A6C20000A4C20000A2C20000A0C200004C
:100020009EC200009CC200000C94464C0C94B04C44
:1000300096C2000094C2000092C2000090C200006C
:100040008EC200008CC200008AC2000088C200007C
:1000500086C200000C94D93D82C200000C94DF4B94
:100060007EC200000C94643C0C948F3C0C94C43C05
:1000700076C200000C94020E72C2000070C2000032
:100080000C94AA3E6CC200006AC2000068C2000064
:1000900066C2000064C200007E05D60596062E06E4
:1000A000AD06790647061306FC0560067C0A820A3F
:1000B000880A8E0A940A9A0AA00A42014B014B014F
:1000C0009A0192018E0184017D016F01A501A101B8
:1000D000AF01A901C301CA01B501BC01E701DB0100
:1000E000D101F701EE014F024302390272026402AC
:1000F0005F025A029602870281027B02B802AA02BC
:10010000A502A002DC02CD02C702C1023A032C0301
:100110001D0317030803F702E60226021402080271
:100120000002630360035E035B0359035703540338
:1001300052034F034D034A0348036A0165015B0103
:100140005001616C6C207061647300706164200008
:100150005265636F7264206F6666005265636F72EA
:1001600064206F6E0053746F7000506C6179004DA5
:10017000494449206368616E6E656C200043757266
:10018000766520004343206C696D69742000434309
:1001900020004F63746176652000546F6E696320A0
:1001A000006363790063637800592043433D00583E
:1001B0002043433D0059206D696E3D0059206D611B
:1001C000783D0058206D696E3D0058206D61783D86
:1001D000007769646520656E6473007769646520E3
:1001E0006D6964646C65006C696E656172005920AC
:1001F00063757276653D00582063757276653D00C3
:10020000746F20656469740052656C656173652064
:1002100070616400746F206564697420706164208B
:100220006E6F7465730053656C65637420757365D8
:1002300072207072657365740053706C6974206FFE
:100240006666002B2066756E6374696F6E7300536B
:10025000706C697420582C20590059206F6E00581A
:10026000206F6E004166746572746F756368206FED
:100270006E004E6F746573206F6E0059206F666656
:100280000058206F6666004166746572746F75630E
:1002900068206F6666004E6F746573206F66660037
:1002A00059206F6E0058206F6E004166746572743D
:1002B0006F756368206F6E004E6F746573206F6E8C
:1002C0000059206F66660058206F666600416674AC
:1002D0006572746F756368206F6666004E6F746533
:1002E00073206F6666004D616A6F722050656E7490
:1002F00061746F6E6963004D696E6F722050656E38
:100300007461746F6E6963004861726D6F6E6963CA
:10031000204D616A6F72004D616A6F7200486172B0
:100320006D6F6E6963204D696E6F72004D656C6F05
:10033000646963204D696E6F72004E6174757261FD
:100340006C204D696E6F72004200412300410047EE
:100350002300470046230046004500442300440094
:1003600043230043000129022904290829102920D8
:100370002940298029012C022C0126022604260866
:10038000261026202640268026402C802C01230281
:100390002304230823102320234023802301200249
:1003A00020042008201020202040208020102C2015
:1003B0002C012F022F042F082F102F202F402F80C9
:1003C0002F7EFE7EFD7EFB7EF77EEF7EDF7EBF7E94
:1003D0007F00010000AD0412000200001904730048
:1003E0002201008C04210021010075040900030092
:1003F0000015040401030904FB03181803540065E5
:100400000065006E007300790020004D0049004433
:1004100000490000000403090409027300020100FE
:10042000C03209040000020103000007240100019A
:1004300041000624020101000624020202000924F0
:100440000301030102010009240302040101010068
:10045000090504024000000000052501010109050D
:10046000830240000000000525010103090401008A
:1004700002030000000921110100012221000705EB
:1004800081034000010705020320000206C9FF099D
:1004900004A15C7508150026FF00954009758102CE
:1004A00095200976910295040976B102C0120100E7
:1004B0000200000040C01685040001000100010197
:1004C000C13601C02601813601803600510AA60DD1
:1004D00040187E18F41ECE2A302BFC2B5D2C2A39B6
:1004E000B339613CDB455F464D4F5D0AB20D5A188A
:1004F0008A18001FDA2A3C2B082C3A39E545694650
:1005000011241FBECFEFD0E2DEBFCDBF14E0A0E0CC
:10051000B1E0E8E3F1EA00E00BBF02C007900D9202
:10052000A435B107D9F72CE0A4E5B4E001C01D92D1
:10053000A03FB207E1F714E0CAEED4E000E006C045
:1005400022970109FE010BBF0E94FB4FCC3CD10753
:1005500080E00807A9F70E9415490C948B5050CDF4
:10056000AB01682F81E199E00C94372C0F931F9316
:10057000CF93DF93CDB7DEB727970FB6F894DEBFE2
:100580000FBECDBF96E0E3E1F1E0DE0111960190F0
:100590000D929A95E1F7853179F0863119F0843121
:1005A00099F50FC06130710509F041C082E08D837B
:1005B00021E001E010E02BC0672BC9F581E08D83BD
:1005C00023C06130710599F564E081E199E00E94F2
:1005D0003B2C8F3F910531F487E08D8380E090E0E4
:1005E00020E007C0009721F486E08D838FEF90E034
:1005F00021E0AC0164E081E199E02F830E94372C77
:1006000002E010E02F8103C021E000E010E046E0AE
:10061000BE016F5F7F4F85E694E02F830E94DB0B66
:100620002F81422FB80182E199E00E947B32279608
:100630000FB6F894DEBF0FBECDBFDF91CF911F91F3
:100640000F910895EF92FF920F93CF93DF93C82FEE
:1006500084E794E00E945416082FCD31D1F030F495
:10066000CB3109F440C0CC3131F07AC0CE31F9F051
:10067000CF3159F175C084E794E00E94062A602FBB
:1006800084E794E00E942C1E8823D9F1CFEFD0E0BC
:100690003AC084E794E00E949C2A602F84E794E0AB
:1006A0000E94331E882399F1CFEFD0E032C084E757
:1006B00094E00E94382A602F84E794E00E941E1E76
:1006C000882361F1CFEFD0E02BC084E794E00E9453
:1006D0006A2A602F84E794E00E94251E882329F16E
:1006E000CFEFD0E024C084E794E00E94C22084E7EA
:1006F00094E00E942215EC0134E0E32EF12C66E038
:100700001AC0C0E0D0E0E12CF12C62E014C0C0E0DF
:10071000D0E0EE24E394F12C61E00DC0C0E0D0E025
:1007200092E0E92EF12C63E006C0C0E0D0E083E067
:10073000E82EF12C60E0AE0181E199E00E94372CB7
:1007400084E794E00E943A1EAC010F5F21E0CF3FA6
:10075000D10509F020E0B70182E199E00E947431EF
:10076000DF91CF910F91FF90EF9008953F924F92BC
:100770005F926F927F928F929F92AF92BF92CF9231
:10078000DF92EF92FF920F931F93CF93DF937B0142
:100790008B01A42EB12C882E912CC8018E199F0993
:1007A0008A159B050CF045C0C0E0D0E0312C6C2FC1
:1007B00084E794E00E94960F882329F1C815D90593
:1007C00011F16C2F84E794E00E9459166C01412CC2
:1007D000512CF60161916F0184E794E00E943F166D
:1007E0003C01F801608184E794E00E943F1668169E
:1007F000790611F433243394FFEF4F1A5F0A87E030
:100800004816510431F72196C930D10581F63110CF
:100810000DC0F801608184E794E00E943F1649E62C
:1008200050E0BC0181E199E00E94552C0F5F1F4F01
:10083000B4CFDF91CF911F910F91FF90EF90DF9098
:10084000CF90BF90AF909F908F907F906F905F9070
:100850004F903F9008952F923F924F925F926F92E8
:100860007F928F929F92AF92BF92CF92DF92EF9240
:10087000FF920F931F93CF93DF93CDB7DEB76397AC
:100880000FB6F894DEBF0FBECDBF182F962EF42EF4
:10089000222E098B3E2C682F84E794E07A8B0E94ED
:1008A0002C1E7A898823F1F15E0188E0A80EB11C24
:1008B000C92CD72EFE0131964F0135019F014F2CD7
:1008C000512CC50186199709841595051CF5D88A00
:1008D000CF86F60161916F0184E794E02A8B3B8B10
:1008E0000E943F16F50181935F01BC0177274FEF0E
:1008F00050E081E199E00E94552CEF85F8896081F4
:1009000084E794E00E944B16F40181934F013B89E8
:100910002A89D7CFE22C0F2DA301612F82E199E024
:100920000E944C2F232D4989612F82E199E00E947A
:100930004C2E63960FB6F894DEBF0FBECDBFDF918D
:10094000CF911F910F91FF90EF90DF90CF90BF90CC
:10095000AF909F908F907F906F905F904F903F905F
:100960002F900895682F82E199E00C944E30EF9219
:100970000F93211102C0002349F0E02E022F242FF3
:10098000462F682F82E199E00E94AC300F91EF90E2
:10099000089582E199E00C94FE2DFF920F931F932E
:1009A000CF93DF93CDB7DEB7E0970FB6F894DEBFF5
:1009B0000FBECDBF61E081E199E00E943F2C8E0126
:1009C0000F5F1F4FF12C6F2D81E199E00E943B2CAE
:1009D000F801819391938F0140E050E06F2D81E108
:1009E00099E00E94372CF394F8E1FF12ECCF81E1FB
:1009F00099E00E94292C789482E199E00E94BC2D14
:100A000068E572E080E090E00E94EF3F8E010F5FAA
:100A10001F4FF12CF801419151918F016F2D81E110
:100A200099E00E94372CF394F8E1FF12F3CF6CEDBC
:100A300075E080E090E00E94EF3F6FE081E199E097
:100A4000E0960FB6F894DEBF0FBECDBFDF91CF9119
:100A50001F910F91FF900C943F2CCF93DF9381E176
:100A600099E00E94432CC0E0D0E0BE0184E794E00E
:100A70000E940D18882339F049E650E0BE0181E15B
:100A800099E00E94552C2196CC30D10571F7DF9169
:100A9000CF910895AF92BF92CF92DF92EF920F93D2
:100AA0001F93CF93DF931F92CDB7DEB7082FD62EBB
:100AB000C42E84E794E00E94F417811168C110E00D
:100AC000612F84E794E00E94960F811160C11F5F3F
:100AD0001930B1F784E794E00E945416E82E84E7B9
:100AE00094E00E943A1E5C0110E00A30110508F003
:100AF0004EC1F801E45BFF4F0C94E54F65E183E2E2
:100B00009AE00E94443A882361F165E183E29AE029
:100B10000E943F3C84E794E00E94A71EDD2011F074
:100B200061E001C06FEF680F21F0613118F061E002
:100B300001C060E184E794E00E940B2884E794E020
:100B40000E94A71E682F82E199E00F90DF91CF915C
:100B50001F910F91EF90DF90CF90BF90AF900C94CA
:100B6000E33484E794E00E944B1EDD2011F011E095
:100B700001C01FEF180F1A3021F017FF03C019E052
:100B800001C010E0612F84E794E00E94762061E0CC
:100B9000610F82E199E00E94462F84E794E00E9471
:100BA000501E89835ADF8981682F18C084E794E03A
:100BB0000E94501EDD2011F011E001C01FEF180F40
:100BC000113121F017FF03C010E101C010E0612FC7
:100BD00084E794E00E94992040DF612F82E199E050
:100BE0000F90DF91CF911F910F91EF90DF90CF90F9
:100BF000BF90AF900C94492F2C2D40E050E06D2D0C
:100C000084E794E00E94E4236C014E2D60E070E0E4
:100C100084E794E00E94921EE394082F9501A601B8
:100C200060E070E016C02C2D41E050E06D2D84E7AF
:100C300094E00E94E4236C014E2D61E070E084E7B3
:100C400094E00E94921EE394082F9501A60161E0B2
:100C500070E082E199E00E94DE3299C02C2D41E0E3
:100C600050E06D2D84E794E00E94EF246C012E2D5E
:100C700041E050E060E070E084E794E00E946E1E86
:100C8000E394082F9501A60161E070E04AC02C2D85
:100C900040E050E06D2D84E794E00E94EF246C0169
:100CA0002E2D40E050E060E070E084E794E00E9488
:100CB0006E1EE394082F9501A60160E070E031C03C
:100CC0002C2D43E050E06D2D84E794E00E94EF244A
:100CD0006C012E2D43E050E061E070E084E794E089
:100CE0000E946E1EE394082F9501A60163E070E058
:100CF00018C02C2D42E050E06D2D84E794E00E9456
:100D0000EF246C012E2D42E050E061E070E084E7BA
:100D100094E00E946E1EE394082F9501A60162E004
:100D200070E082E199E00E944D3331C021E040E063
:100D300050E06D2D84E794E00E94F9266C014E2D61
:100D400060E070E084E794E00E94551EE3948C011B
:100D50009501A60160E070E016C021E041E050E09E
:100D60006D2D84E794E00E94F9266C014E2D61E020
:100D700070E084E794E00E94551EE3948C01950195
:100D8000A60161E070E082E199E00E94BC330F901F
:100D9000DF91CF911F910F91EF90DF90CF90BF9097
:100DA000AF90089584E794E00E94F4179091550461
:100DB000981729F08093550481E080935404809122
:100DC0005404882371F067E083E29AE00E94443A79
:100DD000811107C066E083E29AE00E94443A8823CA
:100DE00039F081E090915404992349F080E008950E
:100DF0008091540491E0892710925404F3CF089510
:100E00008F929F92AF92BF92CF92DF92EF92FF921A
:100E10000F931F93CF93DF93CDB7DEB72E970FB607
:100E2000F894DEBF0FBECDBF682F84E794E00E9428
:100E300059166C018E01015F1F4FCE0101965C01B6
:100E4000FE0138967F014601F60161916F0184E74A
:100E500094E00E943F16F70181937F01F4016081C5
:100E600084E794E00E944B16F50181935F01E01640
:100E7000F10649F7CE0108967C01F70141917F0107
:100E800050E060E070E020E085EE9CE00E94B1461A
:100E900085EE9CE00E949746E016F10671F7E12C82
:100EA000F12C40E050E0B70181E199E00E94552C1F
:100EB000FFEFEF1AFF0A8CE0E816F10491F7FE014C
:100EC00038967F01F70161917F0170E049E650E0BB
:100ED00081E199E00E94552CE016F10699F7CE01C8
:100EE00001966C01FE0138967F01F701B1907F01F8
:100EF000FCE0BF1681F0F601A08084E794E00E9438
:100F0000AA1EA81208C06B2D70E04FEF50E081E1DF
:100F100099E00E94552CFFEFCF1ADF0AE016F10688
:100F200021F72E960FB6F894DEBF0FBECDBFDF912E
:100F3000CF911F910F91FF90EF90DF90CF90BF90D6
:100F4000AF909F908F9008956F927F928F929F9213
:100F5000AF92BF92CF92DF92EF92FF920F931F93C7
:100F6000CF93DF93CDB7DEB761970FB6F894DEBFAE
:100F70000FBECDBF782E682F84E794E00E945916EB
:100F80008E01085F1F4F6C01CE0101967C014E015E
:100F90009FE0890E911C602E712FA7015601F6016A
:100FA00061916F0184E794E0488B598B7F870E94A1
:100FB0003F16F80181938F01F501608184E794E089
:100FC0000E944B16F70181937F01488959897F85DB
:100FD0000815190519F7662D82E199E00E94383647
:100FE000872D0EDF61960FB6F894DEBF0FBECDBF22
:100FF000DF91CF911F910F91FF90EF90DF90CF90F5
:10100000BF90AF909F908F907F906F9008951F93A7
:10101000CF93DF93D82F192F84E794E00E94F41721
:10102000811125C0C0E06C2F84E794E07FD7811147
:1010300030C0CF5FC930B9F740E06D2F712F84E722
:1010400094E00E94DE22EC018130910509F405DD77
:1010500084E794E00E94AF1E282F40E050E0BE01DC
:1010600082E199E0DF91CF911F910C9436346D2F7E
:1010700084E794E00E942F28BC0182E199E00E945D
:10108000A53684E794E00E945416DF91CF911F911A
:101090005BCFDF91CF911F910895CF93C82F61E06F
:1010A000680F82E199E00E9429358C2F4DDF84E79B
:1010B00094E00E94AA1E682F82E199E0CF910C94DF
:1010C000123682E199E00E947C3560E084E794E08A
:1010D0000E94F117C2CC1F93CF93DF93C82FD62F56
:1010E00067E083E29AE00E94443A8823D1F166E007
:1010F00083E29AE00E94443A882399F184E794E0DD
:101100000E94501E873008F43EC084E794E00E949D
:10111000F41711E0682F612784E794E00E94F1172B
:1011200084E794E00E94F417882359F184E794E05F
:101130000E945416682F84E794E0F8D68823D9F0EB
:1011400061E070E082E199E00E94B3352BDE84E734
:1011500094E00E94F417682F612784E794E00E94CE
:10116000F11784E794E00E94F417811185C01ADE1C
:10117000811126C081C084E794E00E9454168DDF5F
:10118000F0CF9FDFEECF84E794E00E94F41711E0E8
:10119000682F612784E794E00E94F11703DE84E75B
:1011A00094E00E94F417682F612784E794E00E947E
:1011B000F11760E070E082E199E00E94B335D1CF91
:1011C00065E183E29AE00E94443A811126C0D11180
:1011D00081C011E0C11101C010E0612F84E794E0EB
:1011E0000E94FF20EC0184E794E00E94AA1E282FB1
:1011F00041E050E0BE0182E199E00E94363440E0D7
:1012000050E0112311F06CE001C068E081E199E049
:10121000DF91CF911F910C94372CDD2309F45AC034
:1012200084E794E00E945416682F84E794E07ED609
:10123000882349F061E070E082E199E0DF91CF918D
:101240001F910C94B33565E183E29AE00E943F3C24
:1012500061E0C11101C060E040E084E794E00E94D9
:101260003F29BC012C2F42E050E082E199E0DF9160
:10127000CF911F910C94363484E794E00E94F417C8
:10128000882341F18FDD882329F184E794E00E94CF
:101290005416682F84E794E049D68111CBCFD11141
:1012A00019C061E0C11101C060E084E794E00E94D0
:1012B000EA2084E794E00E945416A2DD84E794E0DB
:1012C0000E94AA1E682F82E199E0DF91CF911F91C1
:1012D0000C941236DF91CF911F91089560EB72E06C
:1012E00084E794E00E9472186BE274E084E794E073
:1012F0000E94661866EB73E084E794E00E946A1827
:1013000067EB74E084E794E00E94621869EC74E093
:1013100084E794E00E94761862EB74E084E794E03E
:101320000E946E186DE478E084E794E00C947A18DB
:1013300062E273E083E29AE00E942F3C6BE678E081
:1013400083E29AE00E94333C67E078E083E29AE02F
:101350000E94373C66EB72E083E29AE00C943B3CDF
:101360006AE475E089EF99E00C94AF39B7DFE0DF0C
:10137000F7CFCF93DF9383E29AE00E94133AF89479
:101380008CEA9BE00E94144586EE9AE00E944C3F56
:1013900085E694E0B2D182E199E00E94212D81E1BD
:1013A00099E00E941A2C84E794E09BD489EF99E09D
:1013B0000E944E3984E794E00E944B1ED82F84E7A8
:1013C00094E00E94501EC82F61E06D0F82E199E009
:1013D0000E94462F6C2F82E199E00E94492F3DDB4D
:1013E000DF91CF91DACAC2DFC4CFCF93DF93CDB7FD
:1013F000DEB727970FB6F894DEBF0FBECDBF84E7E8
:1014000094E00E94A21783E29AE00E94DE3B89EFFB
:1014100099E00E944F3982E199E00E94833766E1AA
:1014200083E29AE00E94443A0E940740882381F1B7
:1014300069E171E0CE0101960E94BA47BE016F5F7B
:101440007F4F82E199E00E94E836CE0101960E942A
:10145000544781E199E00E94292C82E199E00E94A1
:10146000833783E29AE00E94DE3B65E183E29AE003
:101470000E94443A8823A9F381E199E00E941B2C41
:1014800062E370E080E090E00E94EF3F0E94B94B81
:1014900027960FB6F894DEBF0FBECDBFDF91CF9178
:1014A00008956DE271E08DE594E00E94BA4766E52B
:1014B00071E086E594E00C94BA4786E594E00E94DA
:1014C00054478DE594E00C94544797FD08C085304F
:1014D00091051CF007972CF002C087E0089580E08A
:1014E000089585E008958730910590F5FC01EA5A4A
:1014F000FF4F70E00C94E54FFB01EE0FFF1FE55529
:10150000FE4F23C0FB01EE0FFF1FE356FE4F1DC031
:10151000FB01EE0FFF1FE157FE4F17C0FB01EE0F5F
:10152000FF1FEF57FE4F11C0FB01EE0FFF1FED58DD
:10153000FE4F0BC0FB01EE0FFF1FE759FE4F05C02A
:10154000FB01EE0FFF1FE15AFE4F8081918108954C
:1015500080E090E008950F9301E020E042E15AE737
:1015600060E070E08BE59AE00E94F63C0F910895F0
:10157000EF92FF920F931F93CF93DF937B01EA01CA
:10158000222311F08A011FC060EF8BE59AE00E94D0
:10159000D03C8E01C8018C1B9D0B8E159F0544F419
:1015A000F80161918F018BE59AE00E94D03CF2CF67
:1015B00067EF8BE59AE0DF91CF911F910F91FF903C
:1015C000EF900C94D03CC8018C1B9D0B8E159F0591
:1015D00044F4F80161918F018BE59AE00E94D03CC0
:1015E000F2CFDF91CF911F910F91FF90EF9008956F
:1015F0006D3F710554F46A3F710564F4663F7105EF
:1016000049F0683F710551F405C0CB018E5F910927
:10161000029720F48BE59AE00C94D03C0895EF9269
:10162000FF920F93CF93DF9300D0CDB7DEB77B014E
:1016300001500031B0F5603871059CF1613E7105D3
:1016400014F5602B8BE59AE02A8349830E94D03CF5
:101650004981642F6F778BE59AE00E94D03CE89433
:10166000E4F82A81F0ECEF16F104D9F0622F6F77DD
:101670008BE59AE00F900F90DF91CF910F91FF9043
:10168000EF900C94D03C9B01265F31092A30310544
:1016900040F40F900F90DF91CF910F91FF90EF905A
:1016A000A7CF0F900F90DF91CF910F91FF90EF9008
:1016B00008950F93022F242F462F60E970E0AFDFCB
:1016C0000F9108950F93022F242F462F60E870E0AA
:1016D000A6DF0F9108950F93022F242F462F60EB62
:1016E00070E09DDF0F9108950F93042F20E0462FA7
:1016F00060ED70E094DF0F91089561E084E694E07E
:101700002ACF1F93CF93DF93162FC42FD22F262FCC
:101710004D2F6C2F84E99CE00E94A44E212F4D2F69
:101720006C2F84E694E0DF91CF911F91C2CF1F937D
:10173000CF93DF93162FC42FD22F262F4D2F6C2F30
:1017400084E99CE00E94964E212F4D2F6C2F84E659
:1017500094E0DF91CF911F91B5CF1F93CF93DF938B
:10176000162FC42FD22F262F4D2F6C2F84E99CE0EB
:101770000E94B24E212F4D2F6C2F84E694E0DF9112
:10178000CF911F91A8CF1F93CF93DF931F92CDB717
:10179000DEB7162F462F622F84E694E02983A4DF5C
:1017A000412F2981622F84E99CE00F90DF91CF9136
:1017B0001F910C94C04E1F93CF93DF93EB01142F16
:1017C000642F70E021E0AE0184E694E0D1DEAE014A
:1017D000612F84E99CE0DF91CF911F910C94CB4E57
:1017E0004F925F926F927F928F929F92AF92BF9231
:1017F000CF92DF92EF92FF920F931F93CF93DF93DD
:101800001F92CDB7DEB74C01A62EB12C8C010A0D6C
:101810001B1D68012EE1C21A2EEFD20AD6018C914F
:10182000843009F468C049830E94E33F7501EE0CDF
:10183000FF1CEE0CFF1CF401EE0DFF1DE254FE4FE9
:101840004080518062807380641975098609970908
:10185000498150E0613D77408105910520F0D60136
:101860008C9181114CC0F501EE0FFF1FE80DF91DA1
:10187000E45BFF4F20813181CA01821B930B97FFEC
:1018800003C09195819591090B97BCF1BB24B3944A
:10189000421753070CF0B12C6801BEE1CB1ABEEF22
:1018A000DB0AD6016C91611112C0518340830E9402
:1018B000E33FE80CF91CF701E254FE4F60837183AB
:1018C00082839383F60180818F5F80830FC02B2DED
:1018D00030E0D801A551BE4F8C9190E02817390710
:1018E00029F06F5FD6016C9351834083F801E55175
:1018F000FE4FB08202C081E01BC080E019C0D6015B
:101900001C921082118212821382C501880F991FC6
:10191000880D991DFC01E25AFF4F29E13CEF31830C
:101920002083729631832083B497518340839BCF69
:101930000F90DF91CF911F910F91FF90EF90DF906B
:10194000CF90BF90AF909F908F907F906F905F905F
:101950004F90089570E0FC01E60FF71FEE51FE4F27
:1019600010829B01220F331F220F331F280F391FB4
:10197000F901E254FE4F1082118212821382660F27
:10198000771F680F791FFB01E45BFF4F1182108204
:10199000729689E19CEF9183808372969183808314
:1019A0000895EF92FF920F931F93CF93DF93EC0173
:1019B000FC01EC50FE4FE081F0E0E754FE4F8081E7
:1019C0007E0197E0899FE00CF11C112400E010E0FB
:1019D000F701E00FF11FEF50FF4F4081403829F031
:1019E0002F896FA185E694E0CEDE0F5F1F4F073091
:1019F000110571F7CE010E94F417811104C0E8852A
:101A0000F9858F8909951E8ADF91CF911F910F91DA
:101A1000FF90EF900895FC01868908958F929F9220
:101A2000AF92BF92DF92EF92FF920F931F93CF93EB
:101A3000DF93EC01FC01EC50FE4FD0800D2D10E047
:101A40007801EE0CFF1CE80EF91EF701A0A4B1A46A
:101A50008DA19EA10D2C02C0969587950A94E2F760
:101A600080FF68C06D2DCE010E94331E882359F07F
:101A700020E030E0A5016D2DCE014CD1482F6D2D19
:101A8000CE01AEDE01C080E0FE01E00FF11FEB549D
:101A9000FE4F8083882309F44DC021E030E0A5018A
:101AA0006D2DCE0137D1D82E0E94E33F000F111FBC
:101AB000000F111FFE01E00FF11FEA50FE4F808062
:101AC0009180A280B380681979098A099B094D2DFC
:101AD00050E0F70122AD33AD653671058105910502
:101AE00068F0CA01821B930B9C0197FF03C03195DC
:101AF00021953109233031054CF41CC0421753079E
:101B0000C9F06430710581059105A0F081E08E8BEC
:101B1000FE01EA5DFC4F8083DF8AF70153AF42AFDD
:101B20000E94E33FC00FD11FCA50DE4F6883798304
:101B30008A839B83DF91CF911F910F91FF90EF904C
:101B4000DF90BF90AF909F908F9008956DE271E00D
:101B50008DE694E00E94BA4766E571E086E694E07F
:101B60000C94BA4786E694E00E9454478DE694E0D0
:101B70000C9454471F93CF93DF931091CB071F5FB3
:101B8000103208F010E0C12FD0E0FE01E457F74F0B
:101B90008083FE01E459F74F6083FE01E45BF74F59
:101BA00040830E94E33FCC0FDD1FCC0FDD1FC453E9
:101BB000D84F688379838A839B831093CB07DF9107
:101BC000CF911F910895EAE7F0E0808188608083DB
:101BD000089581E08093B008EAE7F0E080818064B6
:101BE00080830895ACE7B0E09C91E62FF0E0E455E7
:101BF000F74F80818F70907F892B8C9300000000BD
:101C0000000008951F920F920FB60F9211248F9328
:101C10009F931092B00880917800909179009093F2
:101C2000B2088093B1089F918F910F900FBE0F90D3
:101C30001F901895F8948091B00878940895F894BE
:101C40008091B1089091B20878940895FC011382B4
:101C500012821582148217821682118610861386CC
:101C60001286158614861182108208951F93CF93D1
:101C7000DF93AC0120E030E0E9E1FCEF10E8DA01AD
:101C8000AE57BF4F1196FC93EE935296ED93FC9393
:101C900060E070E0EC01C20FD31FDE01A60FB71F9A
:101CA000AF50BF4F1C936F5F7F4F67307105A9F72F
:101CB0004E5F5F4F295F3F4F2F33310501F7FC0126
:101CC000EE5CFE4F2FEF208331972083EC50FE4FC8
:101CD00020833C961082FC01108EDF91CF911F91E2
:101CE0000895CF93DF93EC010E94E22ACE01BEDF7C
:101CF000CE010E94161EFE01EC50FE4F6081CE0107
:101D00000E94F32A8091AC080E94664BCE01DF91BD
:101D1000CF9159CFAF92BF92CF92DF92EF92FF92C5
:101D20000F931F93FA0121153105B9F021303105C8
:101D300009F047C09C01260F311D260F311DD90126
:101D4000AD55BE4F6D917C9111977B010027F7FC3B
:101D50000095102FAC56B10911C09C01260F311D02
:101D6000260F311DD901A75BBE4F6D917C91119754
:101D70007B010027F7FC0095102F52978D919C91C5
:101D80009C01442737FD4095542FE817F9072CF0A4
:101D9000E617F7071CF4BF0101C0BC01882777FDD7
:101DA0008095982F1F921F921F92EFE7EF93A12C1F
:101DB000B12C65010E940D470F900F900F900F906E
:101DC00001C060E0862F1F910F91FF90EF90DF9090
:101DD000CF90BF90AF9008954F925F926F927F9295
:101DE000AF92BF92CF92DF92EF92FF920F931F9329
:101DF000CF93DF93FA012115310529F02130310508
:101E000009F43FC082C070E0DC01A60FB71FED01EE
:101E1000CD52DF4FC8814C2E552447FC5094652C81
:101E2000752CA653BF4FAC90BB24A7FCB094CB2C11
:101E3000DB2C660F771F680F791FDB01A359BE4F9C
:101E40008D919C9111977C010027F7FC0095102F34
:101E500052976D917C919B01442737FD4095542FFB
:101E6000E617F7072CF0BC01E817F9070CF4BF01DF
:101E7000882777FD8095982F7F926F925F92CF93FE
:101E80003DC070E09C01260F371FD901AB51BF4FF9
:101E9000AC914A2E552447FC5094652C752CE901D1
:101EA000C452DF4FA880BB24A7FCB094CB2CDB2C02
:101EB000660F771F680F791FEB01CF56DE4F8881C1
:101EC00099817C010027F7FC0095102F62976881AB
:101ED00079819B01442737FD4095542FE617F7077A
:101EE0002CF0BC01E817F9070CF4BF01882777FD37
:101EF0008095982F7F926F925F92AF930E940D47CB
:101F00000F900F900F900F9001C060E0862FDF912F
:101F1000CF911F910F91FF90EF90DF90CF90BF90E6
:101F2000AF907F906F905F904F900895FC0185A1D6
:101F300096A102C0969587956A95E2F781700895FB
:101F4000FF920F931F93CF93DF938C01C62FD0E0A6
:101F50008C0F9D1FFC01442351F1EC52FD4FF0808A
:101F6000CC0FDD1FCC0FDD1FF1100BC021E0208353
:101F7000769710820E94E33FC00FD11FCF5FDC4FE6
:101F800029C00E94E33FC00FD11FCF5FDC4F088103
:101F900019812A813B81601B710B820B930BFF24FB
:101FA000F394643071058105910578F52DC0E254F4
:101FB000FD4FF080CC0FDD1FCC0FDD1FF1100FC0E7
:101FC00021E02083769610820E94E33FC00FD11F4C
:101FD000C656DD4F688379838A839B8316C00E942F
:101FE000E33FC00FD11FC656DD4F088119812A81FA
:101FF0003B81601B710B820B930BFF24F3946B30BE
:1020000071058105910508F4F12C8F2DDF91CF9199
:102010001F910F91FF900895CF93DF93EC010E94E1
:10202000442B8F3F2FEF920711F480E014C0FE0184
:10203000E559FD4F40819E01240F311D240F311DB4
:10204000D901A758BD4F8D939C934F5F4083433078
:1020500061F7108281E0DF91CF910895FF920F9395
:102060001F93CF93DF93EC01F62EFC01E251FF4F5B
:102070008081823009F05DC0EA81FB8160E070E020
:1020800081E00995EA81FB8160E070E082E00995DA
:10209000EA81FB8160E070E083E00995EA81FB81E1
:1020A00060E070E080E009950A811B816F2DCE0110
:1020B0000E94331E882319F06FEF70E002C060E0C9
:1020C00070E081E0F80109950A811B816F2DCE0136
:1020D0000E942C1E882319F06FEF70E002C060E0B0
:1020E00070E082E0F80109950A811B816F2DCE0115
:1020F0000E941E1E882319F06FEF70E002C060E09E
:1021000070E083E0F80109950A811B816F2DCE01F3
:102110000E94251E882319F06FEF70E002C060E076
:1021200070E080E0F801DF91CF911F910F91FF9057
:102130000994DF91CF911F910F91FF900895FF9225
:102140000F931F93CF93DF93EC01FC01EC50FE4FF4
:10215000E081F0E0EE53FE4F008110E0FC01E00F63
:10216000F11FE553FD4FF080000F111F000F111FED
:10217000F1100DC081E080830E94E33FC00FD11FAA
:10218000C352DD4F688379838A839B8367C00E9433
:10219000E33F0C0F1D1FF801E352FD4F0081118139
:1021A00022813381601B710B820B930B60317105AF
:1021B0008105910510F4F12C51C080910701909197
:1021C0000801019639F4CE010E949C2B90930801DE
:1021D000809307018091070190910801019659F3BE
:1021E0008091050190910601019639F4CE010E947B
:1021F000CC2B90930601809305012091070130912B
:1022000008012F3F4FEF3407B1F280910501909103
:1022100006018F3F4FEF940771F2FE01E459FD4F25
:102220004081C40FD11DC40FD11DDE01A359BD4F84
:102230002D933C93CD58DD4F998388834F5F408326
:10224000433009F0B8CF8FEF9FEF90930801809350
:102250000701909306018093050110828F2DDF9175
:10226000CF911F910F91FF900895FC01EB50FE4F0D
:102270001082319780818F5F893011F080830895BB
:1022800010820895CF92DF92EF92FF920F931F93E7
:10229000CF93DF93EC016C014CE0C41A4EEFD40AEB
:1022A000D601EC91F0E0EE53FE4F6081262F30E036
:1022B0008C010B5D1C4FF8018081992787FD90955B
:1022C0002817390711F0CE01C9DED601EC91F0E0F4
:1022D000EE53FE4F80817E01B0EDEB1ABEEFFB0A9C
:1022E000F70190818917E1F09A8D992319F0E8811F
:1022F000F9810995D7012C918DA19EA1022E02C0D2
:10230000969587950A94E2F780FF02C0F801208332
:10231000D601EC91F0E0EE53FE4F8081F70180830F
:10232000D8012C912F3FB1F08DA19EA1FC0102C0DC
:10233000F695E7952A95E2F7E0FD0CC0D7010C90E1
:1023400002C0969587950A94E2F780FD03C08FEF4F
:10235000F8018083DF91CF911F910F91FF90EF9053
:10236000DF90CF9008956130710549F062307105BA
:1023700051F0672B69F5FC01E758FD4F07C0FC01E0
:10238000E359FD4F03C0FC01ED58FD4F2081318121
:1023900032964081518132964217530754F0808122
:1023A00091818217930714F09C010DC02417350703
:1023B0008CF080819181841795072CF08217930708
:1023C0004CF49C0107C04217530724F49A0102C041
:1023D00020E030E0C90108959F92AF92BF92CF9262
:1023E000DF92EF92FF920F931F93CF93DF93EC0155
:1023F000FC01EC50FE4FE081F0E0EE53FE4F908088
:1024000060E070E0B0DF6C0120E030E0AC01692DED
:10241000CE0180DC182F01E0811101C000E0402FC7
:10242000692DCE018DDD9E012F563D4F5901882328
:1024300009F484C0EDA1FEA1E92CF12C002361F187
:10244000CF01092C02C0969587950A94E2F780FD8A
:1024500061C041E050E060E070E0092C04C0440F2E
:10246000551F661F771F0A94D2F74E2B5F2B5EA372
:102470004DA3F701B696EE0FFF1FEC0FFD1F212FA6
:1024800030E0318320831E8781E08F878A8BFE01B5
:10249000EA5DFC4F80833EC09F01092C02C0369547
:1024A00027950A94E2F720FF35C01E871F8681E03A
:1024B0008A8BDE01AA5DBC4F8C93C701880F991FE0
:1024C0008C0F9D1FDC01AE57BF4F29E13CEF1196E9
:1024D0003C932E9352962D933C93DE01AE0DBF1D7F
:1024E000A553BD4F1C9201E010E020E030E0092C24
:1024F00004C0000F111F221F331F0A94D2F700954A
:1025000010950E231F231EA30DA3692DCE0122DAE1
:10251000F50110828DA19EA102C0969587959A948F
:10252000E2F780FF0BC0F7017496EE0FFF1FEC0F70
:10253000FD1FD182C08281E0F5018083F501808199
:10254000811104C0CB50DE4F81E08883DF91CF91B1
:102550001F910F91FF90EF90DF90CF90BF90AF90C1
:102560009F9008952F923F924F925F926F927F9229
:102570008F929F92AF92BF92CF92DF92EF92FF9293
:102580000F931F93CF93DF9300D000D000D0CDB72F
:10259000DEB79E838D83DC0154961C92549755962A
:1025A0001C92FC01EC50FE4FE081F0E0EE53FE4F38
:1025B000908061E070E0D7DE20E030E0AC01692D72
:1025C0008D819E8109DC182F62E070E08D819E81F3
:1025D000CADEAC0121E030E0692D8D819E81FCDBFB
:1025E0002D813E812C563D4FF90140815181410F93
:1025F000511D51834083ED81FE81EA56FD4FE080FD
:10260000F180E80EF11CF182E0820D811E810E56F0
:102610001D4FD8018C918F5F853011F08C9353C181
:1026200065E0C62ED12CCA01B6010E94944F5B0111
:102630001B01C701B6010E94944F7B017B836A8313
:10264000D8011C92D9011D921C92118210820E9405
:10265000E33F092D10E06801CC0CDD1CCC0CDD1C27
:102660006D807E806C0C7D1CB6EE6B1ABDEF7B0A14
:10267000F3012081318142815381621B730B840BF2
:10268000950B98012F5B3F4F4901F901EE0FFF1F9A
:102690006A31710581059105A0F08D819E81E80F59
:1026A000F91F80819181D501A81BB90BCD01B7FF1E
:1026B00003C091958195910921E029830497F4F451
:1026C000FBC08D819E81E80FF91F80819181A81642
:1026D000B90609F4F1C00E94E33FD3014D905D902B
:1026E0006D907C90641975098609970966307105AB
:1026F0008105910508F4E0C021E029830E94E33FB1
:102700004D805E804C0C5D1C32EC431A3DEF530A49
:10271000D2012D913D914D915C91621B730B840B05
:10272000950BF801E65BFF4F3F016A3171058105AA
:102730009105A8F0EE0FFF1F2D813E81E20FF31FE0
:1027400080819181D701A81BB90BCD01B7FF03C0D0
:1027500091958195910921E00497FCF4AFC0EE0FAB
:10276000FF1F2D813E81E20FF31F80819181E816CA
:10277000F90609F4A3C00E94E33FD2012D913D91D7
:102780004D915C91621B730B840B950B6630710548
:102790008105910508F492C021E03981332309F4C1
:1027A0008FC0F401EE0FFF1F8D819E81E80FF91F8E
:1027B000B182A0822C830E94E33FED81FE81EC0D6B
:1027C000FD1DE65EFD4F6083718382839383ED81FF
:1027D000FE81E00FF11FE158FD4F30812C81332342
:1027E00051F0F50140E83403E00DF11D1124E55BE3
:1027F000FE4F8081282E81E0AD81BE8154968C935E
:10280000222389F1F301EE0FFF1F2D813E81E20F9C
:10281000F31FF182E0820E94E33FED81FE81EC0D27
:10282000FD1DE25CFD4F60837183828393838D8104
:102830009E81080F191FF801E857FD4F20812223C0
:1028400069F0F70130E82303E00DF11D1124E55B89
:10285000FE4F8081282F30E03B832A8381E0AD81C9
:10286000BE8155968C930E94E33FED81FE81CE0E92
:10287000DF1EF601E656FD4F6083718382839383EA
:1028800081E0AD81BE8153968C935397FD01EA5D43
:10289000FC4F808350962C925097EA815196EC938E
:1028A000ED81FE81EF56FD4F1082ED81FE81EB50F0
:1028B000FE4F81E0808307C0198220CF20E06DCFDA
:1028C000222371F39FCF26960FB6F894DEBF0FBE7A
:1028D000CDBFDF91CF911F910F91FF90EF90DF90CF
:1028E000CF90BF90AF909F908F907F906F905F90B0
:1028F0004F903F902F900895BF92CF92DF92EF922A
:10290000FF920F931F93CF93DF93EC01FC01EC50E8
:10291000FE4FE081F0E0EE53FE4F1081612F0E94E8
:102920001E1EB82E612FCE010E94251E082FE12EFB
:10293000F12CBB20A9F08C89882391F06E01CE0C7C
:10294000DF1CF601E854FF4F288940816FA185E61E
:1029500094E00E94AD0BF601EA55FF4F8889808311
:102960000023B9F08D898823A1F02FE78989281BDE
:102970006E01CE0CDF1CF601EF53FF4F40816FA1BB
:1029800085E694E00E94AD0BF601E155FF4F898981
:1029900080838A8D811109C04FE78989481BEA85A8
:1029A000FB852B2D6889812F09959701220F331FF5
:1029B0002C0F3D1FD901A25ABF4F4D915C91119729
:1029C0008889F901E059FF4F49319CEF590731F0EF
:1029D0002081318129319CEF390741F490E08D93BA
:1029E0009C93898990E09183808321C0481B510981
:1029F00057FF03C0519541955109463051055CF48C
:102A00008989281B310937FF03C031952195310988
:102A10002630310564F0EC0EFD1EF701EB54FE4F3D
:102A20008081811104C0612FCE010E94AA0C1B8AF3
:102A3000DF91CF911F910F91FF90EF90DF90CF909A
:102A4000BF90089582519F4FFC018081813041F0F9
:102A5000823019F080E090E008958FEF90E00895C3
:102A600089E690E008956F927F928F929F92AF9245
:102A7000BF92CF92DF92EF92FF920F931F93CF936B
:102A8000DF93CDB7DEB727970FB6F894DEBF0FBE42
:102A9000CDBF6C01FC01EC50FE4FE081F0E0EE5345
:102AA000FE4F10815C018BEDA81A8CEFB80AD5019E
:102AB0006C91F60187856F3F09F4D6C025A136A138
:102AC000062E02C0369527950A94E2F720FFCCC067
:102AD0008111CAC0C6010E941E1EF82ED5016C913C
:102AE000C6010E94251E982EF501408160E070E02D
:102AF000C6010E94921E082FD5014C9161E070E042
:102B0000C6010E94921EE82E412F60E070E0C601CF
:102B10000E94921E882E412F61E070E0C6010E9443
:102B2000921E801223C0FF2009F1D5018C91F6017D
:102B3000E80FF11D87FDFA95EA55FF4F2081402FE0
:102B4000F60167A185E694E00E94AD0BD5018C915A
:102B5000E82FFF27E7FDF0959601B7E08B02200DE7
:102B6000311D112460E070E040E013C08E11EECF03
:102B7000992061F3F5018081F601E80FF11D87FDD1
:102B8000FA95E155FF4F20814E2DD60197966C9115
:102B9000D9CFD901A60FB71FAF50BF4F9C91903826
:102BA00041F0A1E0B0E0AC0FBD1FA40FB11D9C939C
:102BB0004F5F6F5F7F4F6730710559F7EC0DFD1D5B
:102BC000DF01A95DBC4FF601648075802C91BE01C8
:102BD0006F5F7F4FF3010995D5018C91682F660FC8
:102BE000770B6C0D7D1DDB01AC56BF4F6E577F4FD1
:102BF000F60162847384092D2F2D4C91DB016C91B9
:102C0000F3010995D5016C91C60128DA00E0F601BF
:102C100047856685812F0E94BA0DF601E10FF11DEF
:102C2000E95DFC4FD6011E968C911E978083002390
:102C300021F05A968C918823D1F0F601128A2796BA
:102C40000FB6F894DEBF0FBECDBFDF91CF911F91BD
:102C50000F91FF90EF90DF90CF90BF90AF909F903B
:102C60008F907F906F90089501E00827D0CFD60114
:102C70001C96ED91FC911D97812F0995DECF862F33
:102C8000603831F06CE00E94744F892F90E0089515
:102C90008CE090E00895862F603821F06CE00C9471
:102CA000744F089584E00895805D9E4FFC018081FB
:102CB000089527E0629F800D911D11248F509F4F32
:102CC0000895CF93DF93EC018B89882311F0CE0117
:102CD00013DE8A89882311F0CE01C5DECE010E9461
:102CE0000B0D882329F0CE01DF91CF910C94D10CEC
:102CF000DF91CF9108952F923F924F925F926F9202
:102D00007F928F929F92AF92BF92CF92DF92EF927B
:102D1000FF920F931F93CF93DF93CDB7DEB7279723
:102D20000FB6F894DEBF0FBECDBF6C018090CA070E
:102D30008091CB07881509F4ECC083948FE1881546
:102D400008F4812C082D10E0F801E457F74F90802B
:102D5000F801E459F74F7080692DC6017DD7F82E30
:102D6000F801E45BF74F6080F801EE0FFF1FEE0FF4
:102D7000FF1FE453F84F20803180428053800E942F
:102D8000E33F62197309840995096431710581056E
:102D9000910518F4662009F1BCC0F11020C066202E
:102DA000C9F010E0492D60E070E0C601BBD7082FE4
:102DB000492D61E070E0C601B5D7D6011496ED91BA
:102DC000FC911597E82E272D412FBE016F5F7F4F95
:102DD000892D09958092CA07A9CFFF20D9F3160142
:102DE000B7E09B9E200C311C112400E010E0A92CC0
:102DF000B12C26014A0C5B1CEBE44E1AEEEF5E0A86
:102E00007101E00EF11EA1EFEA0EF11CF701408105
:102E1000403809F44BC0662049F0272DD60197961B
:102E20006C9185E694E00E94810B40C0F2018081A4
:102E3000882369F020E0D60197966C9185E694E0AE
:102E40000E94C30BF2011082D60156961C9280E0BC
:102E500090E0E0E0F0E0A601400F511FEA15FB050D
:102E6000B9F0D60195962D913C9196970E2E02C001
:102E7000369527950A94E2F720FF0AC0DA01A80FD9
:102E8000B91FAF50BF4F3C91D7012C91321771F051
:102E900031960796E930F10509F720E0D7014C910A
:102EA000F60167A185E694E00E94970B0F5F1F4F24
:102EB0000730110509F0A4CFB7E0BA9D9001BB9D82
:102EC000300D11242C0D3D1D80E090E010E0F90143
:102ED000E80FF91FEF50FF4F4081403841F0E1E02B
:102EE000F0E0EC0FFD1FE10FF11D40831F5F019625
:102EF0008730910561F7611055CFD6011696ED9197
:102F0000FC911797412FBE016F5F7F4F892D099567
:102F100061CF27960FB6F894DEBF0FBECDBFDF910D
:102F2000CF911F910F91FF90EF90DF90CF90BF90C6
:102F3000AF909F908F907F906F905F904F903F9059
:102F40002F9008950F931F93CF93DF93EC018091FF
:102F50000401882349F0FE01EC50FE4F6081CE0150
:102F60000E94F32A10920401FE01EF56FD4F80816A
:102F700081110AC0CE0150D8882361F0CE012CDA2D
:102F8000CE010E940E0D06C0CE01D9D8882311F0C3
:102F9000CE01E8DAFE01EB50FE4F80818823A9F0D4
:102FA0008E010A5D1C4FF8018081882321F0CE013B
:102FB00069D9F80110828A8D811102C0CE0181DEAB
:102FC00081E080930401CE0150D98A8D811102C025
:102FD000CE0191DECE01DF91CF911F910F910C9424
:102FE0008021FC01628F0895FC01828D0895FC010F
:102FF00025A136A180E090E0A901082E02C05695D7
:1030000047950A94E2F740FD06C001968930910584
:1030100099F780E0089581E00895EF92FF921F9361
:10302000CF93DF93DC01EB0120E030E01CE040E0D7
:1030300050E07D01E20EF31EC701840F951F8F50F3
:103040009F4FFC018081803841F0612F0E94744FB6
:10305000892F90E08C179D0761F04F5F5F4F4730DD
:10306000510551F7295F3F4F2F33310501F780E0BC
:1030700001C081E0DF91CF911F91FF90EF90089503
:103080006DE271E08AEB98E00E94BA4766E571E074
:1030900083EB98E00E94BA4792E09093AC0883E0FB
:1030A0008093AD089093AE088093AF0884E794E0D6
:1030B0000C94260E83EB98E00E9454478AEB98E02C
:1030C0000C945447FC01738762870895FC01758353
:1030D00064830895FC01778366830895FC017187FA
:1030E00060870895FC01738362830895FC017587EE
:1030F00064870895FC017183608308956DE271E037
:1031000088EC98E00E94BA4766E571E081EC98E0AF
:103110000C94BA4781EC98E00E94544788EC98E000
:103120000C945447CF93A62FB0E0FD0175E0EE0F4D
:10313000FF1F7A95E1F7E40FF11DEE0FFF1FE80F77
:10314000F91F46E0AA0FBB1F4A95E1F7A80FB91F68
:103150008381948111964D915C911297840F951FF4
:1031600043A5413011F148F0423029F5220F331FB9
:10317000820F931FCF910C945050A90163E0569594
:1031800047956A95E1F7C22F68EF469FC00D11245D
:10319000840F911D0E94485090E002C0959587953C
:1031A000CA95E2F78170992708C0820F931F0E9489
:1031B000485090E002C080E090E0CF9108952F92B7
:1031C0003F924F925F926F927F928F929F92AF92B7
:1031D000BF92CF92DF92EF92FF920F931F93CF9304
:1031E000DF93CDB7DEB72E970FB6F894DEBF0FBED4
:1031F000CDBF2C01FC01EE5CFE4F008183E1080293
:103200004001112494012B5F3F4F42E060E08CEAC3
:103210009BE088DFF201E251FF4F80838111F5C00E
:103220005E864D8600E010E0340196E0690E711C68
:103230005401A7E0AA0EB11C7401B8E0EB0EF11C1A
:103240006401E9E0CE0ED11C1401FBE02F0E311C0D
:10325000C4010C969A838983D4011D96BC83AB83E9
:10326000F4013E96FE83ED83039698878F83139631
:10327000BA87A9873396FC87EB87F2E18F0E911C02
:10328000930142E060E08CEA9BE04CDFED85FE8537
:10329000EE5CFC4F21E0892B09F420E020839501AE
:1032A00042E060E08CEA9BE03DDFED85FE85E55C79
:1032B000FC4F21E0892B09F420E02083970142E0B4
:1032C00060E08CEA9BE02EDFED85FE85EC5BFC4F39
:1032D00021E0892B09F420E02083960142E060E0A0
:1032E0008CEA9BE01FDFED85FE85E35BFC4F21E070
:1032F000892B09F420E02083910142E060E08CEA10
:103300009BE010DFED85FE85E854FF4F8083298127
:103310003A8142E060E08CEA9BE004DFED85FE85C7
:10332000EF53FF4F80832B813C8142E060E08CEAC9
:103330009BE0F8DEED85FE85E653FF4F80832D810F
:103340003E8142E060E08CEA9BE0ECDEED85FE85AC
:10335000ED52FF4F80832F81388542E060E08CEA98
:103360009BE0E0DEED85FE85E452FF4F80832985FA
:103370003A8542E060E08CEA9BE0D4DEED85FE8594
:10338000EB51FF4F80832B853C8542E060E08CEA67
:103390009BE0C8DEED85FE85E158FD4F80839401FA
:1033A00042E060E08CEA9BE0BDDEED85FE85E857FB
:1033B000FD4F80830F5F1F4F8D859E8501969E87F1
:1033C0008D870930110509F05BCFD20112960D915E
:1033D0001C911397C20136DBBC0186E0F801099508
:1033E000D2011296ED91FC9113978201005D1E4F60
:1033F000D8018C91D201A80FB11DA35BBC4F8C9159
:10340000811171C160E070E070C1BCE60B02800107
:103410001124813009F0B8C01201E12CF12C3401E3
:10342000E6E06E0E711C6401F7E0CF0ED11C540172
:1034300088E0A80EB11C99E0890E911C930142E02E
:1034400060E08CEA9BE06EDEF101EE5CFC4F21E077
:10345000892B09F420E02083960142E060E08CEAA9
:103460009BE060DEF101E55CFC4F21E0892B09F473
:1034700020E02083950142E060E08CEA9BE052DE90
:10348000F101EC5BFC4F21E0892B09F420E0208363
:10349000940142E060E08CEA9BE044DEF101E35BF2
:1034A000FC4F21E0892B09F420E0208398012C5F58
:1034B0003F4F43E060E08CEA9BE034DEF101E854EA
:1034C000FF4F808398012B5F3F4F43E060E08CEA21
:1034D0009BE028DEF101EF53FF4F808398012A5FC4
:1034E0003F4F43E060E08CEA9BE01CDEF101E653D5
:1034F000FF4F80839801295F3F4F43E060E08CEAF3
:103500009BE010DEF101ED52FF4F80839801285FB0
:103510003F4F43E060E08CEA9BE004DEF101E452BF
:10352000FF4F80839801275F3F4F43E060E08CEAC4
:103530009BE0F8DDF101EB51FF4F80839801265F9E
:103540003F4F43E060E08CEA9BE0ECDDF101E158A5
:10355000FD4F80839801255F3F4F43E060E08CEA98
:103560009BE0E0DDF101E857FD4F8083AFEFEA1A01
:10357000FA0ABFEF2B1A3B0A045F1F4FE9E0EE1671
:10358000F10409F05BCF21CF6201E12CF12C98010D
:1035900043E060E08CEA9BE0C5DDF601EE5CFC4FA9
:1035A00021E0892B09F420E0208398012F5F3F4F11
:1035B00043E060E08CEA9BE0B5DDF601E55CFC4FA2
:1035C00021E0892B09F420E0208398012E5F3F4FF2
:1035D00043E060E08CEA9BE0A5DDF601EC5BFC4F8C
:1035E00021E0892B09F420E0208398012D5F3F4FD3
:1035F00043E060E08CEA9BE095DDF601E35BFC4F85
:1036000021E0892B09F420E0208398012C5F3F4FB3
:1036100043E060E08CEA9BE085DDF601E854FF4F73
:10362000808398012B5F3F4F43E060E08CEA9BE092
:1036300079DDF601EF53FF4F808398012A5F3F4FFA
:1036400043E060E08CEA9BE06DDDF601E653FF4F5E
:1036500080839801295F3F4F43E060E08CEA9BE064
:1036600061DDF601ED52FF4F80839801285F3F4FE7
:1036700043E060E08CEA9BE055DDF601E452FF4F49
:1036800080839801275F3F4F43E060E08CEA9BE036
:1036900049DDF601EB51FF4F80839801265F3F4FD4
:1036A00043E060E08CEA9BE03DDDF601E158FD4F30
:1036B00080839801255F3F4F43E060E08CEA9BE008
:1036C00031DDF601E857FD4F8083FFEFEF1AFF0A67
:1036D000045F1F4F8FEFC81AD80A99E0E916F1046A
:1036E00009F055CF72CE6FEF70E081E00995D201FD
:1036F0001296ED91FC911397D8018C91D201A80FED
:10370000B11DAC5BBC4F8C91882319F06FEF70E05A
:1037100002C060E070E082E00995D2011296ED915E
:10372000FC911397D8018C91D201A80FB11DAE5C0A
:10373000BC4F8C91882319F06FEF70E002C060E0FD
:1037400070E083E00995D2011296ED91FC911397F8
:10375000D8018C91480E511CD201A55CBC4F8C91B4
:10376000882319F06FEF70E002C060E070E080E045
:103770002E960FB6F894DEBF0FBECDBFDF91CF916E
:103780001F910F91FF90EF90DF90CF90BF90AF907F
:103790009F908F907F906F905F904F903F902F9071
:1037A00009944F925F926F927F928F929F92AF9205
:1037B000BF92CF92DF92EF92FF920F931F93CF931E
:1037C000DF93EC018B01673008F0ABC0CB010E94A6
:1037D000650A582EFE01EE5CFE4F808195E189025C
:1037E000500111243197808193E0890270011124E6
:1037F00095012E0D3F1D44E060E08CEA9BE092DCD9
:10380000982E95012F5F3F4F2E0D3F1D44E060E045
:103810008CEA9BE087DC6C0195012E5F3F4F2E0DFB
:103820003F1D44E060E08CEA9BE07CDC882E3E019A
:10383000E12CF12CA52CB12C97E0690E711CEA1437
:10384000FB0464F46E2DC8010E94730AF301E65173
:10385000FF4F80838FEFE81AF80AEECF88E08515D6
:1038600058F03E0197E0599E600C711C1124412CC8
:10387000512CE12CF12C08C08CE0989E902C112446
:103880009E0180E090E017C0C7018A0D9B1D09973B
:1038900099F36E2DC8010E94730AF301E40DF51D22
:1038A000EF50FF4F845F80838FEFE81AF80A97E0AC
:1038B000490E511CE9CFF901EF50FF4F4081490DEE
:1038C00040830196295F3F4F89309105A1F7B601EA
:1038D000772741E0CE0172D687FC06C000E010E0F9
:1038E000992487FC909412C0819400E010E0992400
:1038F00087FC9094081519050CF040C041E060E089
:10390000CE010E943F290F5F1F4FF4CF0815190504
:10391000ACF541E061E0CE010E943F290F5F1F4FEF
:10392000F5CF075011098FE3089F002D1124E12CDA
:10393000F12C10E0C12CD12C4701800E911E5E01AC
:10394000AE0CBF1C9601280D391D40E061E08CEAE9
:103950009BE0E8DBF501EC0DFD1DEF50FF4F808390
:103960008FEFC81AD80A97E0C916D10459F787E033
:10397000E80EF11C9FE3E916F104E1F6DF91CF9127
:103980001F910F91FF90EF90DF90CF90BF90AF907D
:103990009F908F907F906F905F904F900895CF93FE
:1039A000DF93EC01FC01EF5CFC4F1082188E80E08D
:1039B00090E060E820E030E0AE01480F591FFA01C6
:1039C000E20FF31FEF50FF4F60832F5F3F4F273011
:1039D0003105A9F707968F33910561F7FE01EF5C7A
:1039E000FE4F6081772767FD7095CE01DADEFE011C
:1039F000E051FF4F84E0808320E030E0DE01A20F41
:103A0000B31FAF50BF4F8C91803829F06CE00E94FB
:103A1000744F808305C02F5F3F4F2730310571F70A
:103A2000DF91CF9108951F93CF93DF93EC0120E0B6
:103A300030E040E060E08CEA9BE074DB182FFE0190
:103A4000EE5CFE4F8083282F332727FD309541E021
:103A500060E08CEA9BE066DBFE01EF5CFE4F80835A
:103A600083E1180290011124265F3F4F42E060E09D
:103A70008CEA9BE057DB8FA3CE01A1DBCE01DF9167
:103A8000CF911F918CCF0F931F93CF93DF938C0116
:103A9000C0E0D0E09E0141E062E08CEA9BE042DBC6
:103AA000F801E95CFE4F918380839E0142E062E071
:103AB0008CEA9BE037DBF801E75BFE4F9183808364
:103AC00021960E5F1F4FC930D10521F7DF91CF91AD
:103AD0001F910F9108950F931F93CF93DF938C0144
:103AE000C0E0D0E09E0143E062E08CEA9BE01ADB9C
:103AF000F801E55AFE4F918380839E0144E062E025
:103B00008CEA9BE00FDBF801E359FE4F9183808341
:103B100021960E5F1F4FC930D10521F7DF91CF915C
:103B20001F910F9108950F931F93CF93DF938C01F3
:103B3000C0E0D0E09E0145E062E08CEA9BE0F2DA72
:103B4000F801E158FE4F918380839E0146E062E0D8
:103B50008CEA9BE0E7DAF801EF56FE4F9183808311
:103B600021960E5F1F4FC930D10521F7DF91CF910C
:103B70001F910F9108954F925F926F927F92AF9233
:103B8000BF92CF92DF92EF92FF920F931F93CF934A
:103B9000DF93EC0100E010E050E1452E57E2552E96
:103BA000612C712CFE01E75BFE4FC080D1807297C3
:103BB00080819181D601A81BB90B5E018DE5A81A01
:103BC0008EEFB80AEE24D7FCE094FE2C20E137E219
:103BD0000E94EB4FA30192010E94C94FC20ED31E57
:103BE000E41EF51EF501D182C0820F5F1F4F2296A1
:103BF00009301105B9F6DF91CF911F910F91FF9018
:103C0000EF90DF90CF90BF90AF907F906F905F90DC
:103C10004F900895CF93DF93EC0135DFCE015BDF4A
:103C2000CE0181DFCE01DF91CF91A5CFCF93DF937E
:103C3000EC01F9DECE01DF91CF91ECCF860F911D23
:103C4000FC01EE5CFC4F80810895860F911DFC0104
:103C5000E55CFC4F80810895860F911DFC01EC5BB3
:103C6000FC4F80810895860F911DFC01E35BFC4FA2
:103C70008081089582519F4FFC018081813041F005
:103C8000823019F080E090E0089582E090E008959D
:103C900081E090E008958E5C9E4FFC018081089544
:103CA0008F5C9E4FFC01808108956115710549F07C
:103CB0006130710581F4840F911DFC01E857FD4FBF
:103CC00005C0840F911DFC01E158FD4F80819927AB
:103CD00087FD9095089583E090E008956115710542
:103CE00021F06130710571F01BC030E0280F391FE1
:103CF000F9014130510519F4ED52FF4F0FC0E65361
:103D0000FF4F0CC030E0820F931FFC014330510580
:103D100019F4EB51FF4F02C0E452FF4F8081089528
:103D200080E008956115710549F06130710569F40D
:103D3000840F911DFC01EF53FF4F05C0840F911DAF
:103D4000FC01E854FF4F8081089580E00895FC0154
:103D500087A1089580519F4FFC0180810895FC0147
:103D6000EF5CFE4F40814730A0F020E030E0FC01E6
:103D7000E20FF31FEF50FF4F6081603811F00C9499
:103D80003F162F5F3F4F2730310589F78CE090E0D9
:103D90000895FC01EE5CFE4F208185E12802900130
:103DA00011242F5F3F4F83E04802200D311D112465
:103DB00044E060E08CEA9BE0B5C9653028F06730EC
:103DC00030F088E090E0089587E090E0089585E085
:103DD00090E0089581E0673008F480E0089581E084
:103DE000673008F080E008956DE271E086ED98E0BC
:103DF0000E94BA4766E571E08FEC98E00C94BA47F0
:103E00008FEC98E00E94544786ED98E00C9454475C
:103E1000EF92FF920F931F93CF93DF93EC01E62E67
:103E2000F42EFC01E251FF4F8081823018F0823085
:103E300021F141C0FE01EE5CFE4F2081042F10E015
:103E400083E12802900111242A5F3F4F42E060E0A5
:103E50008CEA9BE00E94574580E090E0FE01E80F6D
:103E6000F91FEE5CFC4F21E0F11001C020E020833F
:103E700001968930910591F71EC0FE01EE5CFE4F60
:103E80002081042F10E08CE62802900111248CE0A0
:103E9000689F200D311D112443E060E08CEA9BE017
:103EA0000E945745CE0DD11DCE5CDC4F81E0F11054
:103EB00001C080E08883DF91CF911F910F91FF9027
:103EC000EF900895EF92FF920F931F93CF93DF939C
:103ED000EC01E62EF42EFC01E251FF4F808182308E
:103EE00018F0823021F143C0FE01EE5CFE4F2081CC
:103EF000042F10E083E1280290011124295F3F4F35
:103F000042E060E08CEA9BE00E94574580E090E050
:103F1000FE01E80FF91FE55CFC4F21E0F11001C044
:103F200020E0208301968930910591F720C0FE01A1
:103F3000EE5CFE4F8081042F10E09CE0699F9001B1
:103F400011242F5F3F4F9CE68902200D311D112463
:103F500043E060E08CEA9BE00E945745CE0DD11D06
:103F6000C55CDC4F81E0F11001C080E08883DF9107
:103F7000CF911F910F91FF90EF900895EF92FF92D4
:103F80000F931F93CF93DF93EC01E62EF42EFC01E9
:103F9000E251FF4F8081823018F0823021F143C01E
:103FA000FE01EE5CFE4F2081042F10E083E1280229
:103FB00090011124285F3F4F42E060E08CEA9BE0D3
:103FC0000E94574580E090E0FE01E80FF91FEC5B8E
:103FD000FC4F21E0F11001C020E0208301968930E0
:103FE000910591F720C0FE01EE5CFE4F8081042F09
:103FF00010E09CE0699F900111242E5F3F4F9CE6EA
:104000008902200D311D112443E060E08CEA9BE021
:104010000E945745CE0DD11DCC5BDC4F81E0F110E5
:1040200001C080E08883DF91CF911F910F91FF90B5
:10403000EF900895EF92FF920F931F93CF93DF932A
:10404000EC01E62EF42EFC01E251FF4F808182301C
:1040500018F0823021F143C0FE01EE5CFE4F20815A
:10406000042F10E083E1280290011124275F3F4FC5
:1040700042E060E08CEA9BE00E94574580E090E0DF
:10408000FE01E80FF91FE35BFC4F21E0F11001C0D6
:1040900020E0208301968930910591F720C0FE0130
:1040A000EE5CFE4F8081042F10E09CE0699F900140
:1040B00011242D5F3F4F9CE68902200D311D1124F4
:1040C00043E060E08CEA9BE00E945745CE0DD11D95
:1040D000C35BDC4F81E0F11001C080E08883DF9199
:1040E000CF911F910F91FF90EF9008950F931F9321
:1040F000CF93DF93EC016A30B0F4FC01EE5CFE4F2D
:104100008081681781F0062F112707FD109520E0A8
:1041100030E040E060E08CEA9BE00E945745CE0131
:1041200082DC81E001C080E0DF91CF911F910F918F
:1041300008950F931F93CF93DF93EC016131E0F467
:10414000062F10E0FC01EF5CFE4F8081992787FD70
:1041500090958017910781F06083319620813327F5
:1041600027FD309541E060E08CEA9BE00E945745D6
:10417000CE0115DC81E001C080E0DF91CF911F917D
:104180000F9108950F931F93CF93DF93EC01FC01E0
:10419000E251FF4F80818F5F833011F0808301C037
:1041A0001082DE01AE5CBE4F2C91008110E083E1F5
:1041B0002802900111242B5F3F4F42E060E08CEA1F
:1041C0009BE00E945745CE01DF91CF911F910F9147
:1041D0000C94DF18FC01E051FF4F8081662311F041
:1041E0008F5F01C08150808380818A3014F08150BC
:1041F000808380818E3F14F48F5F80830895EF92D7
:10420000FF920F931F93CF93DF93EC0140E050E0B8
:1042100071E020E030E061111BC0FC01E20FF31FF0
:10422000EF50FF4FE081EC30E0F07723D9F02F5FC3
:104230003F4F2730310589F715C0F0E0E437F1052D
:1042400084F4772379F02F5F3F4F2730310551F009
:10425000FC01E20FF31FEF50FF4FE081E03889F3DC
:10426000ECCF70E04F5F5F4F07964930510589F6FC
:104270007723D1F18E010F5C1C4FF80180816623FA
:1042800011F08F5F01C081508083FE01EF5CFE4F13
:104290006081CE01A4DD9E0120513F4F790188232A
:1042A00059F0F8018081FE01EF50FF4F6081FCE082
:1042B0008F9F600D11240DC084E0F901808380E0A0
:1042C00090E0FE01E80FF91FEF50FF4F608160386A
:1042D00031F0CE010E944B16F701808308C0019691
:1042E0008730910571F703C082E090E002C081E061
:1042F00090E0DF91CF911F910F91FF90EF90089583
:104300002F923F924F925F926F927F928F929F92E5
:10431000AF92BF92CF92DF92EF92FF920F931F93D3
:10432000CF93DF9300D01F92CDB7DEB79B838A83F4
:104330007C012FECE21A2CEFF20AD7018C91882332
:1043400009F426C18A819B810E94F717811120C13F
:1043500033243394F701808118160CF0312CEA8154
:10436000FB81EE5CFE4F8081AA80BB80FFECAF1A20
:10437000FEEFBF0AD5011C91B3E01B0260011124BE
:10438000E5E18E02C00CD11C11248091B70B9091F5
:10439000B80B2091AD0B3091AE0B820F931F209183
:1043A000DF0B213031F158F0223049F59601220F10
:1043B000331F820F931F0E9450504C0122C0960160
:1043C00053E0369527955A95E1F70C2DF8EF2F9F7E
:1043D000000D1124820F911D0E944850882E912CAF
:1043E00002C0959487940A95E2F721E082229924ED
:1043F00008C08C0D9D1D0E944850882E02C0812C43
:10440000912C612F8A819B81EADCAA81BB81DF9696
:104410003D01F7018130B1F50081112707FD1095AD
:10442000080D111D87FC1A95960144E060E08CEAA6
:104430009BE00E9457458A819B8144EF5CE0FC0130
:10444000EF50FF4FD7012C91332727FD30953320B4
:1044500051F037FF03C03195219531093081529FCA
:10446000300D112409C037FF03C031952195310962
:104470003081429F300D11243083079686159705B1
:10448000F1F65BC08081992787FD909597FF03C067
:10449000919581959109D7018C93F5018081875081
:1044A0009FE3899F802C1124CA80DB80912C8C187B
:1044B0009D0884EF282E5CE0A12CB12C24014C0C2B
:1044C0005D1CF601EA0DFB1DEF50FF4F20812038E7
:1044D00031F1D7018C91992787FD9095332049F0D0
:1044E00097FF03C0919581959109589F200D112444
:1044F00008C097FF03C0919581959109289E200DD2
:1045000011242083008110E09501240D351D40E029
:1045100061E08CEA9BE059830E9457455981BFEFC7
:10452000AB1ABB0AE7E0AE16B10459F6F7E0CF0EBE
:10453000D11CC614D70409F0BFCF80E090E0EA8117
:10454000FB81E80FF91FEF50FF4F6081603849F0A1
:104550008A819B810E944B16EA81FB81E051FF4FCB
:1045600011C001968730910551F7809109013320E0
:1045700069F08F5F80930901EA81FB81E051FF4F71
:10458000809109018083D7011C9202C08150F2CF33
:104590000F900F900F90DF91CF911F910F91FF908F
:1045A000EF90DF90CF90BF90AF909F908F907F90D3
:1045B0006F905F904F903F902F9008952F923F9271
:1045C0004F925F926F927F928F929F92AF92BF9223
:1045D000CF92DF92EF92FF920F931F93CF93DF93CF
:1045E00000D000D0CDB7DEB79C838B838B01242E07
:1045F000442339F0FC01EF50FF4F60810E943F16C9
:1046000003C08B819C81ABDB8C30910561F09C01F8
:104610003327201B310937FF03C03195219531091C
:10462000322E211103C080E090E0B7C089830A8355
:104630004B815C8160E070E080E090E0A1E0E98087
:10464000FA80EF1480F4FA01E80FF91FEF50FF4FE2
:10465000E081E038C9F07901EE0EF11CF701E03895
:10466000F1058CF411C0F980EA80EF1468F4FA01C6
:10467000E80FF91FEF50FF4FE081E03829F0F0E03C
:10468000E21BF30BF7FDA0E0019687309105B9F628
:104690006F5F7F4F6930710529F0495F5F4FA1114E
:1046A000CBCF52C0AA2309F44FC0AB80BC802FEC03
:1046B000A21A2EEFB20AF501608199EF960F8FE3EF
:1046C000989F802C11248B819C8189DB882311F099
:1046D0002220E9F16B807C80FFE36F0E711CCB80A0
:1046E000DC80912C8C189D08E12CF12C24014C0CC1
:1046F0005D1C86010E0D1F1D0F501F4FF80180819C
:10470000803891F0F9812A81F21710F4830D01C0ED
:104710008319F8018083F50160818B819C815ADBCC
:10472000882311F0222061F1FFEFEF1AFF0A27E042
:10473000E216F104F1F687E0C80ED11CC614D704C6
:1047400099F681E090E029C082E090E026C0F50172
:104750002081EB81FC81EE5CFE4F8081F3E02F0233
:10476000900111242F5F3F4F95E18902200D311DEB
:10477000112444E060E08CEA9BE00E945745AACFF8
:10478000F801008110E09701240D351D40E061E043
:104790008CEA9BE00E945745C7CF0F900F900F9077
:1047A0000F90DF91CF911F910F91FF90EF90DF90CD
:1047B000CF90BF90AF909F908F907F906F905F90C1
:1047C0004F903F902F900895DF92EF92FF920F93BA
:1047D0001F93CF93DF93EC01FC01E251FF4F71E097
:1047E0008081882329F070E0EE5BFF4F308101C0AB
:1047F00030E0611103C02195D12C02C0EFE7DE2E1D
:104800004115510521F041305105B9F186C0E32E23
:10481000F12C422F552747FD50958D2D90E0FE013C
:10482000EE0DFF1DE854FF4F662349F06081460FEF
:10483000511D67FD5A95841795078CF008C060815B
:10484000460F511D67FD5A954817590744F0FE0160
:10485000EE0DFF1DE854FF4FD080D20E61C0FE0167
:10486000EE0DFF1DE854FF4F4081552747FD509541
:104870004817590709F054C034C0E32EF12C422FD9
:10488000552747FD50958D2D90E0FE01EE0DFF1D43
:10489000EF53FF4F662349F06081460F511D67FDBE
:1048A0005A95841795078CF008C06081460F511DFA
:1048B00067FD5A954817590744F0FE01EE0DFF1D9C
:1048C000EF53FF4FD080D20E49C0FE01EE0DFF1D09
:1048D000EF53FF4F4081552747FD50954817590723
:1048E000E9F580E090E073C0208183E12802900127
:1048F0001124255F3F4F42E060E08CEA9BE00E947C
:10490000574580E090E0FE01E80FF91FE854FF4FA3
:10491000D082019689309105B1F781E090E057C0CF
:104920000D2D10E0FE01EE5CFE4F7111DDCF808198
:104930009CE0399F900111242C5F3F4F9CE6890237
:10494000200D311D112443E060E08CEA9BE00E94C1
:104950005745CE0DDF1DC854DF4F1DC00D2D10E093
:10496000FE01EE5CFE4F711118C080819CE0399F02
:10497000900111242B5F3F4F9CE68902200D311DD1
:10498000112443E060E08CEA9BE00E945745CE0D85
:10499000DF1DCF53DF4FD882C0CF208183E12802B3
:1049A00090011124245F3F4F42E060E08CEA9BE0DD
:1049B0000E94574580E090E0FE01E80FF91FEF5399
:1049C000FF4FD082019689309105B1F7A6CFDF91D4
:1049D000CF911F910F91FF90EF90DF900895CF92AC
:1049E000DF92EF92FF920F931F93CF93DF93EC012F
:1049F000FC01E251FF4F31E08081882329F030E053
:104A0000EE5BFF4FC08001C0C12C611103C0219536
:104A1000D12C02C0FFE7DF2E4130510571F024F4A4
:104A2000452B09F444C012C14230510509F4B3C00A
:104A30004330510509F475C009C1EC2CF12C422F0B
:104A4000552747FD50958D2D90E0FE01EE0DFF1D81
:104A5000ED52FF4F662349F06081460F511D67FDFF
:104A60005A9584179507ACF008C06081460F511D18
:104A700067FD5A954817590764F0FE01E05DFE4F47
:104A80008081FE01E80FF11DED52FF4FD080D20E64
:104A9000E0C0FE01EE0DFF1DED52FF4F4081552796
:104AA00047FD50954817590709F0D3C0B3C0EC2C07
:104AB000F12C422F552747FD50958D2D90E0FE019A
:104AC000EE0DFF1DE653FF4F662349F06081460F50
:104AD000511D67FD5A9584179507ACF008C0608199
:104AE000460F511D67FD5A954817590764F0FE019E
:104AF000E05DFE4F8081FE01E80FF11DE653FF4FA0
:104B0000D080D20EC4C0FE01EE0DFF1DE653FF4F54
:104B10004081552747FD50954817590709F0B7C000
:104B200079C0EC2CF12C422F552747FD50958D2D47
:104B300090E0FE01EE0DFF1DEB51FF4F662349F0A3
:104B40006081460F511D67FD5A9584179507ACF09B
:104B500008C06081460F511D67FD5A9548175907D7
:104B600064F0FE01E05DFE4F8081FE01E80FF11D63
:104B7000EB51FF4FD080D20EC3C0FE01EE0DFF1DE2
:104B8000EB51FF4F4081552747FD50954817590776
:104B900009F0B6C03FC0FE01E05DFE4F422F552731
:104BA00047FD50958D2D90E0662379F06081DE0100
:104BB000A60FB11DA452BF4F6C91460F511D67FD4A
:104BC0005A9584179507C4F00EC06081DE01A60FC8
:104BD000B11DA452BF4F6C91460F511D67FD5A95F0
:104BE000481759074CF08081FE01E80FF11DE4528F
:104BF000FF4FD080D20EBCC02081FE01E20FF11D1C
:104C0000E452FF4F4081552747FD509548175907FB
:104C100009F0AEC080E090E0E3C0208183E128028B
:104C200090011124225F3F4F42E060E08CEA9BE05C
:104C30000E94574580E090E0FE01E80FF91FED5219
:104C4000FF4FD082019689309105B1F781E090E065
:104C5000C7C00D2D10E0FE01EE5CFE4F3111DDCF1F
:104C600080819CE0C99E90011124295F3F4F9CE602
:104C70008902200D311D112443E060E08CEA9BE0A5
:104C80000E945745CE0DDF1DCD52DF4F1DC00D2DAB
:104C900010E0FE01EE5CFE4F311118C080819CE0F7
:104CA000C99E900111242A5F3F4F9CE68902200D86
:104CB000311D112443E060E08CEA9BE00E945745DF
:104CC000CE0DDF1DC653DF4FD882C0CF208183E1D8
:104CD000280290011124235F3F4F42E060E08CEAFC
:104CE0009BE00E94574580E090E0FE01E80FF91F2D
:104CF000E653FF4FD082019689309105B1F7A6CFD8
:104D00000D2D10E0FE01EE5CFE4F311117C08081C9
:104D10009CE0C99E90011124275F3F4F9CE68902C9
:104D2000200D311D112443E060E08CEA9BE00E94DD
:104D30005745CE0DDF1DCB51DF4FC6CF208183E11C
:104D4000280290011124205F3F4F42E060E08CEA8E
:104D50009BE00E94574580E090E0FE01E80FF91FBC
:104D6000EB51FF4FD082019689309105B1F76ECF9C
:104D70000D2D10E0FE01EE5CFE4F311117C0808159
:104D80009CE0C99E90011124285F3F4F9CE6890258
:104D9000200D311D112443E060E08CEA9BE00E946D
:104DA0005745CC0DD11DC452DF4F8ECF208183E1FA
:104DB000280290011124215F3F4F42E060E08CEA1D
:104DC0009BE00E94574580E090E0FE01E80FF91F4C
:104DD000E452FF4FD082019689309105B1F736CF6A
:104DE000DF91CF911F910F91FF90EF90DF90CF90C7
:104DF0000895DF92EF92FF920F931F93CF93DF936B
:104E0000EC01FC01E251FF4F71E08081882329F021
:104E100070E0EE5BFF4F308101C030E0611103C0F4
:104E20002195D12C02C0A2E0DA2E4130510509F4BF
:104E300040C04230510521F0452B09F08AC003C023
:104E400083E090E0E0C0E32EF12C422F552747FD90
:104E500050958D2D90E0FE01EE0DFF1DE158FD4FA8
:104E6000662349F06081460F511D67FD5A958417EE
:104E700095078CF008C06081460F511D67FD5A955B
:104E80004817590744F0FE01EE0DFF1DE158FD4F94
:104E9000D080D20E61C0FE01EE0DFF1DE158FD4F26
:104EA0004081552747FD50954817590709F054C0D0
:104EB00034C0E32EF12C422F552747FD50958D2D00
:104EC00090E0FE01EE0DFF1DE857FD4F662349F00F
:104ED0006081460F511D67FD5A95841795078CF028
:104EE00008C06081460F511D67FD5A954817590744
:104EF00044F0FE01EE0DFF1DE857FD4FD080D20EAD
:104F000049C0FE01EE0DFF1DE857FD4F40815527BA
:104F100047FD509548175907E9F580E090E073C0C8
:104F2000208183E12802900111242F5E3F4F42E04F
:104F300060E08CEA9BE00E94574580E090E0FE0133
:104F4000E80FF91FE158FD4FD08201968930910595
:104F5000B1F781E090E057C00D2D10E0FE01EE5C4E
:104F6000FE4F7111DDCF80819CE0399F90011124AB
:104F7000265F3F4F9CE68902200D311D112443E03E
:104F800060E08CEA9BE00E945745CE0DDF1DC158C2
:104F9000DD4F1DC00D2D10E0FE01EE5CFE4F7111C6
:104FA00018C080819CE0399F90011124255F3F4FFC
:104FB0009CE68902200D311D112443E060E08CEA5B
:104FC0009BE00E945745CE0DDF1DC857DD4FD882AC
:104FD000C0CF208183E12802900111242E5E3F4F33
:104FE00042E060E08CEA9BE00E94574580E090E060
:104FF000FE01E80FF91FE857FD4FD0820196893076
:105000009105B1F7A6CFDF91CF911F910F91FF903E
:10501000EF90DF9008950F931F93062F10E0FC018F
:1050200027A1332727FD30950217130799F067A3AF
:10503000EE5CFE4F2081F3E12F0290011124265FE8
:105040003F4F42E060E08CEA9BE00E94574581E0E0
:1050500090E002C080E090E01F910F9108956F9260
:105060007F928F929F92AF92BF92CF92DF92EF92F8
:10507000FF920F931F93CF93DF93CDB7DEB728979F
:105080000FB6F894DEBF0FBECDBF7C0168870E94CB
:10509000AA1E68853CE0839F600D1124570180EDB6
:1050A000A81A8EEFB80AF5014081642E712CF7E042
:1050B0004F9FA0011124D701A40FB51F20E030E0BD
:1050C000CD01820F931F8F509F4FFC01808186136B
:1050D00002C030E007C02F5F3F4F2730310581F716
:1050E00031E020E0C7018F5C9E4FFC01808187503A
:1050F0001FE3819F102D1124332381F180E090E084
:105100006D01C80ED91EF1EFCF0ED11CF601308112
:10511000303809F02F5F01968730910589F72730E5
:1051200009F496C030E077E0769DC001779D900D40
:1051300011248E0D9F1D820F931FFC01EF50FF4F16
:10514000608370E0210F311D240F351F8B0140E07B
:1051500061E08CEA9BE00E94574577C030E067E051
:10516000669DC001679D900D11248E0D9F1D820FBD
:10517000931F8F509F4F60E8FC016083BE016F5FFB
:105180007F4F80E090E04B016D01C80ED91EF1EF1A
:10519000CF0ED11CF6010081FB010193BF010196E6
:1051A0008730910589F7BA01620F731F6E0D7F1D5D
:1051B00080E090E0A401420F531FDC01A20FB31F57
:1051C000169769F0DB01A80FB91FAF50BF4F6A01F6
:1051D000C80ED91EF60101810C930196EECF27E08F
:1051E000269DC001279D900D11248E0D9F1DFC0151
:1051F000E950FF4F20E82083C12CD12CB7E07B2E53
:10520000812E912CF5014081C701749E800D911D66
:1052100011248C0D9D1DFC01EF50FF4F008110E00B
:105220009601280D391DF7E04F9F200D311D1124E7
:1052300040E061E08CEA9BE00E9457453FEFC31AD3
:10524000D30A87E0C816D104E9F681E090E002C0F5
:1052500082E090E028960FB6F894DEBF0FBECDBF77
:10526000DF91CF911F910F91FF90EF90DF90CF9042
:10527000BF90AF909F908F907F906F900895DF9236
:10528000EF92FF920F931F93CF93DF93CDB7DEB7CB
:1052900063970FB6F894DEBF0FBECDBF7C01D62E4C
:1052A0008C010F5C1E4FF80160814B8B0E94DD1E4C
:1052B0004B898830910509F496C0F1E0DF1231C0C6
:1052C00069E070E0681B790B57E0569F9001579F8B
:1052D000300D11242E0D3F1DF901EF50FF4F20819D
:1052E00030E0245F3F4F3A8B298B203831051CF08A
:1052F00082E090E07DC09701FE013196BE016F5EB5
:105300007F4FD901A850BF4FAC91B0E0A193B193AA
:10531000295F3F4FE617F707A1F7F701208D2F5FB1
:105320002BC0BC016150710957E0569F9001579FF7
:10533000300D11242E0D3F1DF901EF50FF4F20813C
:1053400030E02C5031093A83298337FDD1CF9701C2
:10535000FE013396BE016D5E7F4FD901AF50BF4F46
:10536000AC91B0E0A193B193295F3F4FE617F707E7
:10537000A1F7F701208D2150208FF701208D3327D1
:1053800027FD309537FF03C03195219531099927C5
:105390002817390711F4F701108E411113C0F801D5
:1053A0002081F701008D112707FD1095F3E02F02F2
:1053B000900111242E5F3F4F44E060E08CEA9BE0B7
:1053C0000E945745FE013196CE01439620813296C8
:1053D000D701AF50BF4F2C9327E0E20EF11CE81726
:1053E000F907A1F703C083E090E002C081E090E0FC
:1053F00063960FB6F894DEBF0FBECDBFDF91CF919D
:105400001F910F91FF90EF90DF9008950F931F93DE
:10541000CF93DF93EC01FC01E251FF4F808182309A
:1054200079F0EA5AFD4F008181E0082710E0402F13
:10543000612FCE010E94BE1F1F5F1930C1F713C03C
:10544000FE01E05DFE4F6081FE01E60FF11DEC5BA9
:10545000FC4F408181E04827CE01DF91CF911F9121
:105460000F910C94BE1FDF91CF911F910F91089562
:105470000F931F93CF93DF93EC01FC01E251FF4F99
:105480008081823079F0EC5BFD4F008181E008275C
:1054900010E0402F612FCE010E94081F1F5F1930BE
:1054A000C1F713C0FE01E05DFE4F6081FE01E60F13
:1054B000F11DEE5CFC4F408181E04827CE01DF9179
:1054C000CF911F910F910C94081FDF91CF911F91E5
:1054D0000F9108950F931F93CF93DF93EC01FC017D
:1054E000E251FF4F8081823079F0E35BFD4F008114
:1054F00081E0082710E0402F612FCE010E94621F3B
:105500001F5F1930C1F713C0FE01E05DFE4F6081DF
:10551000FE01E60FF11DE55CFC4F408181E048276C
:10552000CE01DF91CF911F910F910C94621FDF91FB
:10553000CF911F910F9108950F931F93CF93DF93F6
:10554000EC01FC01E251FF4F8081823079F0E15A99
:10555000FD4F008181E0082710E0402F612FCE0130
:105560000E941A201F5F1930C1F713C0FE01E05DD1
:10557000FE4F6081FE01E60FF11DE35BFC4F4081B1
:1055800081E04827CE01DF91CF911F910F910C94BC
:105590001A20DF91CF911F910F9108956DE271E074
:1055A00084EE98E00E94BA4766E571E08DED98E0E0
:1055B0000C94BA478DED98E00E94544784EE98E031
:1055C0000C945447839A819A829A809A859A849AF5
:1055D000869A879A8D988C988E988F988B9A899AAC
:1055E0008A9A889A089560FF02C08D9A01C08D98AA
:1055F00061FF02C08C9A01C08C9862FF02C08E9A33
:1056000001C08E9863FF02C08F9A01C08F9800007E
:105610000000000008958398819A8298809A899A60
:10562000889800000000000000000000000000005A
:1056300000000895839A819A829880988B98899A1D
:105640000000000000000000089583988198829A6D
:10565000809A8A98889A000000000000000008954F
:105660006DE271E082EF98E00E94BA4766E571E072
:105670008BEE98E00C94BA478BEE98E00E9454476A
:1056800082EF98E00C9454471F93CF93DF93EC0183
:105690000E941A0E81114AC090910209809101095D
:1056A000911126C0811142C080910A01882361F0C6
:1056B000CE01B1DF60E0CE010E94F20DCE010E946A
:1056C000E90D10920A0132C011E010930209CE01D7
:1056D0000E941F0E909300098093FF0861E0CE01A5
:1056E0000E94F20DCE010E94E90D10930A011EC026
:1056F00081111CC081E080930109CE010E941F0E20
:1057000010920209109201092091FF0830910009BE
:10571000281B390BC90181509C4F1092000910922F
:10572000FF081092FE081092FD0802C08FEF9FEF55
:10573000DF91CF911F910895CF93DF93EC010E94E9
:105740001A0E9091FC0891110AC0CE0173DF62E03D
:10575000CE010E94F20D81E08093FC0818C0909168
:10576000FB08811109C0911109C0CE010E94E90D09
:1057700081E08093FB080BC0911109C01092FB08D7
:105780001092FC08CE01DF91CF910C941F0E8FEF89
:105790009FEFDF91CF910895CF93DF93EC010E94AB
:1057A0001A0E9091FA0891110AC0CE014EDF63E003
:1057B000CE010E94F20D81E08093FA0818C090910A
:1057C000F908811109C0911109C0CE010E94E90DAB
:1057D00081E08093F9080BC0911109C01092F9087B
:1057E0001092FA08CE01DF91CF910C941F0E8FEF2B
:1057F0009FEFDF91CF9108956DE271E08AE099E02B
:105800000E94BA4766E571E083E099E00C94BA47DC
:1058100083E099E00E9454478AE099E00C94544751
:10582000249A259A269A2C982D982E98219A229A75
:10583000239A08950895CF93C0E040E050E06C2F84
:1058400086EE9AE00E94E73ECF5FC831B1F7CF9174
:105850000895CF93C0E04FEF50E06C2F86EE9AE0B2
:105860000E94E73ECF5FC831B1F7CF91089586EE31
:105870009AE00C94E73E86EE9AE00C94DE3E86EECB
:105880009AE00C94F73ECF93DF93CBECD2E0699192
:1058900040E050E086EE9AE00E94E73E82E0C73D9D
:1058A000D807A9F7DF91CF91089565537D4FFB018C
:1058B000608186EE9AE00C94E73E81E199E0B0CFFA
:1058C000CF93DF9381ED99E00E9454478AEC99E0F1
:1058D0000E9454478EEA99E0892B29F482E999E0E5
:1058E000892B91F41BC083EC99E00E9454478CEB08
:1058F00099E00E94544785EB99E00E9454478EEA54
:1059000099E00E945447EACFCEEAD9E02797CE012A
:105910000E94544789E0C239D807C1F786E799E069
:10592000892B51F0C2E9D9E02797CE010E94544754
:1059300089E0C637D807C1F78AE599E0892B51F08D
:10594000C6E7D9E02797CE010E94544789E0CA35BF
:10595000D807C1F78BEE99E00E94544782EF99E097
:10596000DF91CF910C9454470C945F4870E00C94F5
:105970007348EF92FF920F931F93CF93DF93EC0145
:105980008C01085B1F4F78018CE1E80EF11C60E090
:1059900070E0C8010E94BA47095F1F4F0E151F052E
:1059A000B1F78E010C591F4F78018CE1E80EF11C04
:1059B00060E070E0C8010E94BA47095F1F4F0E15F2
:1059C0001F05B1F78E0100581F4F78018CE1E80EDA
:1059D000F11C60E070E0C8010E94BA47095F1F4FE8
:1059E0000E151F05B1F78E0104561F4F78018CE18B
:1059F000E80EF11C60E070E0C8010E94BA47095F40
:105A00001F4F0E151F05B1F760E070E0CE018854FE
:105A10009F4F0E94BA4760E070E0CE0181549F4FD3
:105A20000E94BA4718AA18A619A61AA61BA61AAA4F
:105A30001AAEDF91CF911F910F91FF90EF900C94D0
:105A400065419F92AF92BF92CF92DF92EF92FF9209
:105A50000F931F93CF93DF93EC010E9456418E0169
:105A60007E01C12CD12C99249394F801EC5BFF4F5B
:105A70001082570188E4A80EB11C68E270E0C501ED
:105A80000E94714762EF79E0C5010E940548570105
:105A900084E6A80EB11C68E270E0C5010E9471475F
:105AA00062EF79E0C5010E940548F801EA53FF4F13
:105AB00010823496108257018CE9A80EB11C68E25E
:105AC00070E0C5010E94714762EF79E0C5010E9454
:105AD0000548F801E253FF4F1082570180E8A80EF5
