:100000000C9417090C9446090C9446090C94460963
:100010000C9446090C9446090C9446090C94460924
:100020000C9446090C9446090C940D530C948A5375
:100030000C9446090C9446090C9446090C94460904
:100040000C9446090C9446090C9446090C944609F4
:100050000C9446090C94F6110C9446090C947152B8
:100060000C9446090C9423140C944E140C94831491
:100070000C9446090C9425100C9446090C944609DE
:100080000C94C0120C9446090C9446090C94460931
:100090000C9446090C9446091D0A230A290A2F0AC2
:1000A000350A3B0A410A1E1B7F1B341CD91B491C05
:1000B0001B1CEF1BC21BAE1B051C2D2D2D2D2D2D2A
:1000C0002D2D2D2D2D2D2D2D2D2D2D2D2D2D2D2D60
:1000D0002D2D2D2D2D2D2D2D2D2D2D2D2D2D2D2D50
:1000E0002D2D002D2D2D2D2D2D2D2D2D2D2D2D2D6D
:1000F0002D2D2D2D2D2D2D2D2D2D2D2D2D2D2D2D30
:100100002D2D2D2D2D2D2D2D2D2D2D002062797491
:10011000657300546F74616C206D656D6F7279202A
:1001200075736167653A20002C20616464726573A1
:10013000733A200053656374696F6E2000437265E3
:100140006174696E6720626C6F636B200057652075
:10015000617265206E6F77206372656174696E6786
:1001600020454550524F4D206D656D6F7279206C62
:1001700061796F7574002D2D2D2D2D2D2D2D2D2D8B
:100180002D2D2D2D2D2D2D2D2D2D2D2D2D2D2D2D9F
:100190002D2D2D2D2D2D2D2D2D2D2D2D2D2D003AAF
:1001A00020002D2D2D2D2D2D2D2D2D2D2D2D2D2DB9
:1001B0002D2D2D2D2D2D2D2D2D2D2D2D2D2D2D2D6F
:1001C0002D2D2D2D2D2D2D2D2D2D00454550524FF2
:1001D0004D206D656D6F727920726561646F757405
:1001E000002D2D2D2D2D2D2D2D2D2D2D2D2D2D2D6C
:1001F0002D2D2D2D2D2D2D2D2D2D2D2D2D2D2D2D2F
:100200002D2D2D2D2D2D2D2D2D005061642065645B
:100210006974206D6F6465002D2D2D2D2D2D2D2DD4
:100220002D2D2D2D2D2D2D2D2D2D2D2D2D2D2D2DFE
:100230002D2D2D2D2D2D2D2D2D2D2D2D2D2D2D2DEE
:10024000005472616E73706F727420436F6E7472BB
:100250006F6C205265636F72642053746172740016
:100260005472616E73706F727420436F6E74726F2C
:100270006C205265636F72642053746F70004D6F11
:100280006469666965722061637469766500547299
:10029000616E73706F727420436F6E74726F6C2036
:1002A00053746F70005472616E73706F7274204378
:1002B0006F6E74726F6C20506C6179004163746969
:1002C000766174696E672075736572206D656E75F1
:1002D0000050726573732053746F7020746F2072B6
:1002E00065736574004D6F64696669657220656E3B
:1002F00061626C6564004D494449206368616E6EBB
:10030000656C200057656C636F6D6521006174003A
:100310007900780076005000202020202020202026
:1003200020202020202020202020202000616C6C14
:1003300020706164730070616420005D0358034E97
:100340000343035265636F7264206F6666005265F3
:10035000636F7264206F6E0053746F7000506C6135
:10036000790080037C038A0384039E03A503900322
:100370009703C203B603AC03D203C90363637900D6
:1003800063637800592043433D00582043433D00B8
:1003900059206D696E3D0059206D61783D005820EF
:1003A0006D696E3D0058206D61783D007769646528
:1003B00020656E64730077696465206D6964646CA0
:1003C00065006C696E6561720059206375727665AF
:1003D0003D00582063757276653D00F1030704FB0C
:1003E000032A041C04170412044E043F0439043386
:1003F0000453706C6974206F6666002B2066756EFE
:100400006374696F6E730053706C697420582C208C
:10041000590059206F6E0058206F6E004166746558
:1004200072746F756368206F6E004E6F7465732011
:100430006F6E0059206F66660058206F6666004137
:1004400066746572746F756368206F6666004E6FC0
:10045000746573206F666600C904BB04AC04A6040F
:10046000970486047504680455736572207072657C
:1004700073657420004D616A6F722050656E7461FF
:10048000746F6E6963004D696E6F722050656E7493
:1004900061746F6E6963004861726D6F6E6963208D
:1004A0004D616A6F72004D616A6F72004861726DD2
:1004B0006F6E6963204D696E6F72004D656C6F647D
:1004C0006963204D696E6F72004E61747572616C64
:1004D000204D696E6F7200E404DF040105F40445E9
:1004E000786974005061642063616C696272617440
:1004F000696F6E0053657276696365206D656E7510
:100500000055736572206D656E75006E6F7465734E
:1005100020736574004D6178696D756D206E756D21
:10052000626572206F66004578697420706164208E
:100530006D6F646520746F006368616E6765207419
:100540006F6E696300656E7465722070616420650A
:10055000646974206D6F6465006368616E6765200F
:10056000706172616D65746572730052656C65616E
:1005700073652070616420746F00746F2065646916
:100580007420706164206E6F7465730053656C65D0
:100590006374207573657220707265736574004FA3
:1005A0007574206F662072616E6765001806150607
:1005B000130610060E060C060906070604060206B8
:1005C000FF05FD054F6E65206E6F74652075700028
:1005D0004F6E65206E6F746520646F776E004163A7
:1005E00074697665206F63746176653A20004F63A5
:1005F000746176652000546F6E696320004200418B
:1006000023004100472300470046230046004500E1
:100610004423004400432300430020616674657254
:10062000746F7563682076616C75653A200050615F
:1006300064200041737369676E6564206E6F746532
:10064000733A00416374697665206F6374617665FF
:100650003A200045646974696E6720706164200007
:100660002072656C6561736564005061642000569A
:10067000656C6F636974793A2000207072657373DA
:1006800065642E204E6F7465733A200050616420BB
:1006900000592043433A20003A20005920666F72E7
:1006A000207061642000582043433A20003A200023
:1006B0005820666F722070616420003A20005570E7
:1006C0007065722059206C696D697420666F7220A4
:1006D00070616420003A20004C6F776572205920C9
:1006E0006C696D697420666F722070616420002DE2
:1006F0002D2D2D2D2D2D2D2D2D2D2D2D2D2D2D2D2A
:100700002D2D2D2D2D2D2D2D2D2D2D2D2D2D2D2D19
:100710002D2D2D2D2D2D2D005072696E74696E6753
:10072000206F75742059206C696D69747320666F31
:10073000722070616473002D2D2D2D2D2D2D2D2DEA
:100740002D2D2D2D2D2D2D2D2D2D2D2D2D2D2D2DD9
:100750002D2D2D2D2D2D2D2D2D2D2D2D2D2D2D00F6
:100760003A200055707065722058206C696D69746C
:1007700020666F722070616420003A20004C6F7711
:1007800065722058206C696D697420666F722070E4
:10079000616420002D2D2D2D2D2D2D2D2D2D2D2D58
:1007A0002D2D2D2D2D2D2D2D2D2D2D2D2D2D2D2D79
:1007B0002D2D2D2D2D2D2D2D2D2D2D2D00507269F2
:1007C0006E74696E67206F75742058206C696D694E
:1007D000747320666F722070616473002D2D2D2D4F
:1007E0002D2D2D2D2D2D2D2D2D2D2D2D2D2D2D2D39
:1007F0002D2D2D2D2D2D2D2D2D2D2D2D2D2D2D2D29
:100800002D2D2D2D003A20005570706572207072CC
:10081000657373757265206C696D697420666F729B
:100820002070616420003A20004C6F776572207060
:1008300072657373757265206C696D697420666F7B
:10084000722070616420002D2D2D2D2D2D2D2D2D2C
:100850002D2D2D2D2D2D2D2D2D2D2D2D2D2D2D2DC8
:100860002D2D2D2D2D2D2D2D2D2D2D2D2D2D2D00E5
:100870005072696E74696E67206F7574207072654E
:100880007373757265206C696D69747320666F721D
:100890002070616473002D2D2D2D2D2D2D2D2D2DCE
:1008A0002D2D2D2D2D2D2D2D2D2D2D2D2D2D2D2D78
:1008B0002D2D2D2D2D2D2D2D2D2D2D2D2D2D002D95
:1008C0002D2D2D2D2D2D2D2D2D2D2D2D2D2D2D2D58
:1008D0002D2D2D2D2D2D2D2D2D2D2D2D2D2D2D2D48
:1008E0002D2D2D2D2D2D2D005072696E74696E6782
:1008F000206F7574206C696D69747320666F722047
:1009000070616473002D2D2D2D2D2D2D2D2D2D2D50
:100910002D2D2D2D2D2D2D2D2D2D2D2D2D2D2D2D07
:100920002D2D2D2D2D2D2D2D2D2D2D2D2D003A0044
:1009300050616420002D2D2D2D2D2D2D2D2D2D2D93
:100940002D2D2D2D2D2D2D2D2D2D2D2D2D2D2D2DD7
:100950002D2D2D2D2D2D2D2D2D2D2D2D2D0050728C
:10096000696E74696E67206F7574206E6F7465733D
:1009700020666F722070616473002D2D2D2D2D2D3A
:100980002D2D2D2D2D2D2D2D2D2D2D2D2D2D2D2D97
:100990002D2D2D2D2D2D2D2D2D2D2D2D2D2D2D2D87
:1009A0002D2D00557365722070726573657420007B
:1009B0002F0053686966743A2000546F6E69633A79
:1009C00020004F63746176653A20002F0041637404
:1009D000697665206F63746176653A2000536361C0
:1009E0006C653A20002D2D2D2D2D2D2D2D2D2D2DED
:1009F0002D2D2D2D2D2D2D2D2D2D2D2D2D2D2D2D27
:100A00002D2D2D2D2D2D2D2D2D2D2D2D2D005072DB
:100A1000696E74696E67206F757420707265736596
:100A2000742073657474696E6773002D2D2D2D2DE0
:100A30002D2D2D2D2D2D2D2D2D2D2D2D2D2D2D2DE6
:100A40002D2D2D2D2D2D2D2D2D2D2D2D2D2D2D2DD6
:100A50002D2D2D0050616420637572766520666FC0
:100A60007220593A200050616420637572766520C7
:100A7000666F7220583A20004343205920757070E9
:100A80006572206C696D69743A20004343205920D7
:100A90006C6F776572206C696D69743A200043430E
:100AA0002058207570706572206C696D69743A20E9
:100AB0000043432058206C6F776572206C696D6924
:100AC000743A200043432059204D49444920494469
:100AD0003A200043432058204D4944492049443A94
:100AE00020004166746572746F7563682073656E6B
:100AF0006420656E61626C65643A20004E6F7465B7
:100B00002073656E6420656E61626C65643A2000D6
:100B1000592073656E6420656E61626C65643A206D
:100B200000582073656E6420656E61626C65643A7E
:100B30002000506164200050616473206861766514
:100B400020696E646976696475616C20736574747C
:100B5000696E677320616E642066756E6374696F79
:100B60006E73202D2073706C697420782F79202B80
:100B70002066756E6374696F6E73005061642063E4
:100B80007572766520666F7220593A200050616454
:100B900020637572766520666F7220583A20004394
:100BA000432059207570706572206C696D69743AC4
:100BB000200043432059206C6F776572206C696D6B
:100BC00069743A2000434320582075707065722084
:100BD0006C696D69743A200043432058206C6F772C
:100BE0006572206C696D69743A2000434320592076
:100BF0004D4944492049443A200043432058204D60
:100C00004944492049443A2000506164200041662B
:100C1000746572746F7563682073656E6420656EA9
:100C200061626C65643A20004E6F74652073656E76
:100C30006420656E61626C65643A200059207365BA
:100C40006E6420656E61626C65643A2000582073A2
:100C5000656E6420656E61626C65643A2000506167
:100C60006420637572766520666F7220593A2000A1
:100C700050616420637572766520666F7220583A01
:100C8000200043432059207570706572206C696D97
:100C900069743A200043432059206C6F77657220B5
:100CA0006C696D69743A2000434320582075707058
:100CB0006572206C696D69743A20004343205820A6
:100CC0006C6F776572206C696D69743A20004343DC
:100CD0002059204D4944492049443A2000434320AB
:100CE00058204D4944492049443A200041667465E2
:100CF00072746F7563682073656E6420656E6162DF
:100D00006C65643A20004E6F74652073656E6420D4
:100D1000656E61626C65643A2000592073656E648B
:100D200020656E61626C65643A2000582073656EC0
:100D30006420656E61626C65643A20002D2D2D2D56
:100D40002D2D2D2D2D2D2D2D2D2D2D2D2D2D2D2DD3
:100D50002D2D2D2D2D2D2D2D2D2D2D2D2D2D2D2DC3
:100D60002D2D2D2D005072696E74696E67206F7580
:100D7000742070616420636F6E6669677572617458
:100D8000696F6E002D2D2D2D2D2D2D2D2D2D2D2D01
:100D90002D2D2D2D2D2D2D2D2D2D2D2D2D2D2D2D83
:100DA0002D2D2D2D2D2D2D2D2D2D2D2D004D49444D
:100DB00049206368616E6E656C3A20004163746916
:100DC0007665207072657365743A200041637469BA
:100DD00076652070726F6772616D3A20002D2D2D3F
:100DE0002D2D2D2D2D2D2D2D2D2D2D2D2D2D2D2D33
:100DF0002D2D2D2D2D2D2D2D2D2D2D2D2D2D2D2D23
:100E00002D2D2D2D2D005072696E74696E67206F27
:100E100075742070726F6772616D20736574746988
:100E20006E6773002D2D2D2D2D2D2D2D2D2D2D2D5E
:100E30002D2D2D2D2D2D2D2D2D2D2D2D2D2D2D2DE2
:100E40002D2D2D2D2D2D2D2D2D2D2D2D00BE0EB00A
:100E50000EA10E9B0E8C0E7B0E6A0E5D0E557365F9
:100E6000722070726573657420004D616A6F722024
:100E700050656E7461746F6E6963004D696E6F7258
:100E80002050656E7461746F6E6963004861726DA5
:100E90006F6E6963204D616A6F72004D616A6F7297
:100EA000004861726D6F6E6963204D696E6F7200EC
:100EB0004D656C6F646963204D696E6F72004E61A1
:100EC000747572616C204D696E6F720020666F726E
:100ED0002070616420006F6666006F6E004166746A
:100EE0006572746F7563682000666F7220616C6C48
:100EF0002070616473006F666620006F6E20004191
:100F000066746572746F756368200020666F722066
:100F100070616420006F6666006F6E0020666F72FD
:100F200020616C6C2070616473006F6666006F6E88
:100F30000020666F722070616420006F6666006F2B
:100F40006E0058200020666F7220616C6C2070610A
:100F50006473006F6666006F6E0058200020666F35
:100F6000722070616420006F6666006F6E004E6FC5
:100F7000746573200020666F7220616C6C20706154
:100F80006473006F6666006F6E004E6F7465732049
:100F90000020746F20706164200052656D6F766967
:100FA0006E67206E6F74652000416464696E67200F
:100FB0006E6F746520006C6F7700686967682E003B
:100FC000556E61626C6520746F206368616E676541
:100FD00020746F6E69633A206F6E65206F72206DAA
:100FE0006F726520706164206E6F7465732061722A
:100FF0006520746F6F20002F00546F6E696320634B
:1010000068616E6765642C2061637469766520741D
:101010006F6E69632000616374697665206F637425
:101020006176653A20004F637461766520646F775E
:101030006E2C20004F63746176652075702C200043
:101040006C6F7700686967682E00556E61626C6529
:1010500020746F20646F20676C6F62616C2073680E
:101060006966743A206F6E65206F72206D6F7265CD
:1010700020706164206E6F746573206172652074E6
:101080006F6F200053706C6974205859202B2066B4
:10109000756E6374696F6E730053706C6974205859
:1010A000590053706C6974206F666600DF10DC10A5
:1010B000DA10D710D510D310D010CE10CB10C91025
:1010C000C610C410420041230041004723004700DE
:1010D00046230046004500442300440043230043C8
:1010E00000012902290429082910292029402980E2
:1010F00029012C022C01260226042608261026206F
:101100002640268026402C802C012302230423081D
:1011100023102320234023802301200220042008C1
:10112000201020202040208020102C202C012F0275
:101130002F042F082F102F202F402F802F7EFE7E70
:10114000FD7EFB7EF77EEF7EDF7EBF7E7F000100AF
:1011500000FE111200020000BB114300030000B7A3
:101160001104010309049D111802030904851116D5
:101170000303090477110C0C0331003200330034EF
:1011800000350000001603550053004200200053B4
:101190000065007200690061006C000000180354D3
:1011A00000650065006E00730079006400750069D9
:1011B000006E006F000000040309040902430002EE
:1011C0000100C032090400000102020100052400F0
:1011D0001001052401000104240206052406000173
:1011E0000705820308004009040100020A0000000C
:1011F00007050302400000070584024000001201B9
:10120000000202000020C016830400010102030155
:101210000001C102018036018136B01ACC1C1A20AF
:10122000B328F228152ABC51C6572320B728112409
:101230001FBECFEFD0E2DEBFCDBF14E0A0E0B1E033
:10124000E4EAFAEB00E00BBF02C007900D92AC316C
:10125000B107D9F72BE0ACE1B4E001C01D92A8378B
:10126000B207E1F712E1CAE2D2E100E006C022973C
:101270000109FE010BBF0E947C5CCA31D10780E0EE
:101280000807A9F70E9402550C94415D0C940000D8
:10129000FF920F931F93CF93DF93CDB7DEB7E09705
:1012A0000FB6F894DEBF0FBECDBF61E089E997E0CD
:1012B0000E9442298E010F5F1F4FF12C6F2D89E98B
:1012C00097E00E943E29F801819391938F0140E0BD
:1012D00050E06F2D89E997E00E942D29F394F8E101
:1012E000FF12ECCF89E997E00E94202978948AE2E6
:1012F00097E00E94822068E572E080E090E00E9422
:101300000B148E010F5F1F4FF12CF8014191519189
:101310008F016F2D89E997E00E942D29F394F8E160
:10132000FF12F3CF6CED75E080E090E00E940B14AB
:101330006FE089E997E0E0960FB6F894DEBF0FBE44
:10134000CDBFDF91CF911F910F91FF900C94422957
:10135000CF93F8948CE194E072D481EE94E00E94F3
:1013600068138CE59BE00E94D4518EE896E00E94C1
:10137000361D89E997E00E94122980EA97E00E94D1
:10138000202D86E696E00E94BF1A40E060E089E9E1
:1013900097E00E9466297CDF3BD780EA97E00E94B5
:1013A0000043C82F80EA97E00E94054361E06C0F7C
:1013B000482F8AE297E00E94D32481E196E0CF9102
:1013C0000C94361A40E056E960E070E089E69BE054
:1013D0000E945E572FEF81EE94E0215080409040B4
:1013E000E1F700C00000B4CF61E080EA97E00E941E
:1013F0005E3761E081E196E00E94EF1886E696E0B4
:101400000E94691C8EE896E00C94FB1D97FD08C0B5
:10141000853091051CF007972CF002C087E00895F5
:1014200080E0089585E008958730910590F5FC01EE
:10143000E45BFF4F70E00C94665CFB01EE0FFF1F56
:10144000EC59FE4F23C0FB01EE0FFF1FEA5AFE4F7F
:101450001DC0FB01EE0FFF1FE85BFE4F17C0FB0135
:10146000EE0FFF1FE65CFE4F11C0FB01EE0FFF1FEA
:10147000E45DFE4F0BC0FB01EE0FFF1FEE5DFE4F64
:1014800005C0FB01EE0FFF1FE85EFE4F80819181DA
:10149000089580E090E00895DB010D900020E9F7C9
:1014A000AD0141505109461B570BDC01ED91FC91F8
:1014B0000280F381E02D09940F931F93CF93DF9364
:1014C000EC010E9408558C01CE010E945955800FF5
:1014D000911FDF91CF911F910F9108950F931F934B
:1014E000CF93DF93EC01AB0160E070E020E00E945D
:1014F00073558C01CE010E945955800F911FDF91C9
:10150000CF911F910F910895CF93DF93C0E0D0E06A
:101510006FEFCE010E940B5D2196C11580E1D807C7
:10152000B9F7DF91CF9108952F923F924F925F923A
:101530006F927F928F929F92AF92BF92CF92DF92E3
:10154000EF92FF920F931F93CF93DF934C016DE4C3
:1015500071E089E69BE0B0DF89E69BE00E94595587
:101560008401C12CD12C760116016DE371E089E66E
:101570009BE00E940855B701A60189E69BE00E9406
:10158000CF5589E69BE00E945955E8012196412CF0
:10159000512C32015201F8012081822F90E048162F
:1015A00059060CF055C064E371E089E69BE00E94A7
:1015B0000855B301A20189E69BE00E94CF5568E27D
:1015C00071E089E69BE00E940855AB2821F4F80100
:1015D0001482138231C088A599A581309105E9F064
:1015E00082309105F9F0892B39F58C899D89E3E0EA
:1015F00096958795EA95E1F728813981820F931FA7
:101600002E893F892770332741E050E0232B11F4C6
:1016100040E050E0840F951F0DC0888199812C898E
:101620003D8906C08C899D89880F991F2881398141
:10163000820F931F9B838A836A817B8189E69BE06B
:101640004DDF2296FFEF4F1A5F0A6F0A7F0AA2CF83
:101650002150F10155E0EE0FFF1F5A95E1F7E20F1F
:10166000F11DEE0FFF1FE80DF91D83A594A5813034
:101670009105D1F082309105D1F0892B09F52789A8
:10168000308DC90143E0969587954A95E1F74381EE
:101690005481840F951F27703327C1E0D0E0232B9E
:1016A00061F4C0E0D0E009C0C789D08D04C0C7890B
:1016B000D08DCC0FDD1F83819481C80FD91F02C04C
:1016C000C0E0D0E063E171E089E69BE00E9408554C
:1016D000AE0160E070E020E089E69BE00E94735577
:1016E0006CE071E089E69BE0E7DE89E69BE00E9422
:1016F0005955F2E02F16310449F0F80181819281A9
:101700008C0F9D1FEF5BFF4F91838083FFEFCF1AFC
:10171000DF0AEF0AFF0A005C1F4F83E0C816D104FE
:10172000E104F10409F020CF63EE70E089E69BE06C
:10173000C3DEE401C12CD12C760162E771E089E6B9
:101740009BE0AADEB701A60189E69BE00E94CF5587
:1017500069E771E089E69BE09FDE69817A8189E62D
:101760009BE0BCDEEFEFCE1ADE0AEE0AFE0AC05C9A
:10177000DF4FF3E0CF16D104E104F104F1F66AEB98
:1017800070E089E69BE0DF91CF911F910F91FF9070
:10179000EF90DF90CF90BF90AF909F908F907F9011
:1017A0006F905F904F903F902F9086CE4F925F92B8
:1017B0006F927F928F929F92AF92BF92CF92DF9261
:1017C000EF92FF920F931F93CF93DF938C016623C9
:1017D00021F0FC0187AD81119AC0F801E180F2800F
:1017E0008381948160E08E0D9F1D0E940B5DF80146
:1017F000C580D680CE0CDF1CC0E0D0E060E0CE011A
:101800008C0D9D1D0E940B5D2196CA30D105B1F74C
:10181000C12CD12CF801C781D085CE0DDF1DCC0D98
:10182000DD1DABEF8A2EA1E09A2EA12CB12CF40184
:1018300061914F01C5018C0F9D1F0E940B5DFFEF51
:10184000AF1ABF0A83E1A816B10489F7E3E1CE0E0F
:10185000D11CFEEBCF16D104E9F6C12CD12CF80136
:10186000C185D285CE0DDF1DCC0DDD1D412C512C47
:1018700032016C0E7D1EFFEE8F2EF1E09F2EA12C0B
:10188000B12CF40161914F01C501860D971D0E9495
:101890000B5DFFEFAF1ABF0A8CE0A816B10489F701
:1018A000ECE04E0E511CFCE64F16510409F78CE695
:1018B000C80ED11CE8E3CE16E4E0DE0681F6C12CAA
:1018C000D12CF801C385D485CE0DDF1DCC0DDD1DD7
:1018D000A12CB12C64E0CE010E940B5D60E0CE0132
:1018E00001960E940B5D60E0CE0102960E940B5DA6
:1018F000FFEFAF1ABF0A239687E0A816B10451F78D
:10190000E5E1CE0ED11CF2EDCF16D104D1F6DF9178
:10191000CF911F910F91FF90EF90DF90CF90BF90EC
:10192000AF909F908F907F906F905F904F900895B1
:101930008F929F92AF92BF92CF92DF92EF92FF92DF
:101940000F931F93CF93DF93662331F0FC01E1588F
:10195000FF4F2081211137C0FC01EF5BFF4FA080BA
:10196000B180E12CF12C4C0123E4820E911CF40196
:10197000C081D181CA0DDB1DCE0DDF1DC12CD12C44
:1019800000E010E00115110519F460E3CE0104C078
:1019900060E8C8018C0F9D1F0E940B5D0F5F1F4FF9
:1019A0000730110579F7FFEFCF1ADF0A279629E0F4
:1019B000C216D10429F78FE3E80EF11CE6E7EE1614
:1019C000E2E0FE06A1F6DF91CF911F910F91FF900B
:1019D000EF90DF90CF90BF90AF909F908F90089541
:1019E000CF92DF92EF92FF920F931F93CF93DF93EB
:1019F000EC01662331F0FC01E154FF4F808181113D
:101A00009AC0FE01EF57FF4F00811181329680810D
:101A1000918160E0800F911F0E940B5DE12CF12C01
:101A20006E0185E8C80ED11CF60180819181800F7E
:101A3000911F64E170E08E0D9F1D0E941D5DF2E01C
:101A4000EF0EF11C82E1E816F10471F7E12CF12CA4
:101A50006E01E7E8CE0ED11CF60180819181800FE6
:101A6000911F6EE571E08E0D9F1D0E941D5DF2E0DD
:101A7000EF0EF11C82E1E816F10471F7E12CF12C74
:101A80006E01E9E8CE0ED11CF60180819181800FB4
:101A9000911F64EA71E08E0D9F1D0E941D5DF2E0B2
:101AA000EF0EF11C82E1E816F10471F7E12CF12C44
:101AB0006E01EBE8CE0ED11CF60180819181800F82
:101AC000911F64E372E08E0D9F1D0E941D5DF2E088
:101AD000EF0EF11C82E1E816F10471F7E12CF12C14
:101AE0006E01EDE8CE0ED11CF60180819181800F50
:101AF000911F62EC71E08E0D9F1D0E941D5DF2E052
:101B0000EF0EF11C82E1E816F10471F7E12CF12CE3
:101B1000C157DF4F88819981800F911F68E572E07E
:101B20008E0D9F1D0E941D5DE2E0EE0EF11CF2E1A4
:101B3000EF16F10479F7DF91CF911F910F91FF908C
:101B4000EF90DF90CF9008951F93CF93DF93EC0138
:101B5000162F2CDE612FCE01EBDE612FCE01DF913F
:101B6000CF911F913DCFFF920F931F93CF93DF93A0
:101B70008C01EB0160E080E03DD38AE891E067D31F
:101B8000B3E3FB2E60E081E135D38F2D43D32FEFFC
:101B900083ED90E3215080409040E1F700C00000C9
:101BA000FA9420E3F212EECF33D360E080E022D348
:101BB0008BE991E04CD361E080E01CD3209729F4BD
:101BC0008CEA91E044D3C8019FDC61E080E012D34D
:101BD000D7FD10C0C230D1053CF0229759F487ECF4
:101BE00091E035D361E004C08AEB91E030D360E04E
:101BF000C801AADF8FEF97EA21E68150904020408C
:101C0000E1F700C0000004D360E080E0F3D287ED8C
:101C100091E01DD361E080E0EDD285EE91E017D335
:101C20008FEF97EA21E6815090402040E1F700C015
:101C30000000DF91CF911F910F91FF900895CF92F7
:101C4000DF92EF92FF92CF937C01F9D0C7016CDC59
:101C50008DEF9FE00E94FE5CC82F893161F48EEF0A
:101C60009FE00E94FE5C893131F48FEF9FE00E947B
:101C7000FE5C893111F18EEF9FE00E94FE5CC8137B
:101C800009C08FEF9FE00E94FE5CC81303C061E0B3
:101C900070E002C060E070E0C70165DF69E18DEFD0
:101CA0009FE00E940B5D69E18EEF9FE00E940B5D5B
:101CB00069E18FEF9FE00E940B5D6BEC71E089E6BC
:101CC0009BE0FADB62EA71E089E69BE0F5DBC12C80
:101CD000D12C7601B701A60189E69BE00E94CF5581
:101CE0006FE971E089E69BE00E940855C6010E94F9
:101CF000FE5C482F50E060E070E020E089E69BE069
:101D00000E94735589E69BE00E9459558FEFC81ACF
:101D1000D80AE80AF80AC11480E1D806E104F104FF
:101D2000C9F666E771E089E69BE0CF91FF90EF90FE
:101D3000DF90CF90C1CBCF92DF92EF92FF920F93C3
:101D40001F93CF93DF93E901A62FB0E0FD0135E0AB
:101D5000EE0FFF1F3A95E1F7E40FF11DEE0FFF1FA5
:101D6000E80FF91F56E0AA0FBB1F5A95E1F7A80F1D
:101D7000B91FE380F48011968D919C911297E80E23
:101D8000F91E83A5813009F440C080F0823009F04B
:101D90004BC06E01CC0CDD1CCE0CDF1CB801C601A3
:101DA0000E941D5DC6018C1B9D0B36C0CE01D7FD68
:101DB000079623E0959587952A95E1F728EF829F6E
:101DC000C00D1124E80EF11CC7010E94FE5C41E029
:101DD00050E060E070E004C0440F551F661F771F9D
:101DE000CA95D2F7012B19F0C82FC42B03C0C42FFA
:101DF000C095C8236C2FC7010E940B5DC7010E94CC
:101E0000FE5C91E0C81310C010C0EC0EFD1E602FE8
:101E1000C7010E940B5DC7010E94FE5C282F30E0C5
:101E200091E00217130709F090E0892FDF91CF911D
:101E30001F910F91FF90EF90DF90CF900895FC01DC
:101E400085E0808317AE81E090E0908F878B94A728
:101E500083A72AE030E0328F218F96A785A72EEB4B
:101E600030E0348F238F90AB87A728E334E0368FA0
:101E7000258F92AB81AB22ED30E030A3278F94AB5E
:101E800083ABDF01A05CBF4F41E04C93DF961C9217
:101E9000989726E732E011963C932E93549611962C
:101EA0009C938E93559627E02C93DF964C939897AE
:101EB00011969C938E93549611969C938E93529761
:101EC00029E030E011963C932E93549682E090E006
:101ED00011969C938E93529711963C932E93549601
:101EE00011969C938E93529711963C932E935496F1
:101EF00011969C938E93529711963C932E935496E1
:101F000011969C938E93529711963C932E935496D0
:101F100011969C938E9352972D933C93E954FF4FC7
:101F200091838083089520917A002F7720937A00FF
:101F30008130910571F01CF4892B39F008958230BD
:101F4000910559F0039769F0089580917A008460B3
:101F50000BC080917A00856007C080917A0086600E
:101F600003C080917A00876080937A000895813061
:101F7000910549F08230910579F0892BB9F480916F
:101F80007C008F7B03C080917C00806480937C0008
:101F900080917C008F7708C080917C008064809362
:101FA0007C0080917C00806880937C00089588305C
:101FB00038F490917C00907F982B90937C000000E7
:101FC000089580917A0086FD12C080917A0083FF87
:101FD00005C08091DC049091DD04089580917A0021
:101FE00086FDFCCF809178009091790008958FEF65
:101FF0009FEF08950F931F93CF93DF931F92CDB759
:10200000DEB78C01CA0110927C0010927A006983BD
:10201000AEDFC80188DF80E0CADF80917A00806887
:1020200080937A00CEDFCDDFCCDFCBDFCADF6981E2
:10203000662329F080917A00886080937A000F905F
:10204000DF91CF911F910F9108951F920F920FB6BC
:102050000F9211248F939F93809178009091790033
:102060009093DD048093DC049F918F910F900FBEBD
:102070000F901F90189580917A0086FB882780F931
:1020800008958CE08093B80008951092BC0094EA03
:102090009093BC009091BC0097FFFCCF9091B90049
:1020A000987F983099F48093BB0084E88093BC00BB
:1020B0008091BC0087FFFCCF9091B900987F983148
:1020C00019F081E0903419F480E0089581E00895DA
:1020D0008093BB0084E88093BC008091BC0087FFA4
:1020E000FCCF9091B900987F81E0983209F480E0AC
:1020F000089584E88093BC008091BC0087FFFCCFEA
:102100008091BB00089584E98093BC0008955C9A97
:1021100085E08A95F1F700005C980895CF93DF93EE
:102120001F92CDB7DEB7662311F02F9A01C02F980A
:102130005A98559A569A579A689A70985F985E98E6
:102140005D9887FD709A86FD5F9A85FD5E9A84FD95
:102150005D9A8983DCDF70985F985E985D988981CD
:1021600083FD709A82FD5F9A81FD5E9A80FD5D9A83
:10217000CEDF5D9A5E9A5F9A709A0F90DF91CF9151
:1021800008952F985A9A55985698579868985C9A37
:1021900085E08A95F1F700004D9902C080E001C00A
:1021A00080E14E9980624F998064609980685C9864
:1021B00095E09A95F1F700005C9A95E09A95F1F711
:1021C00000004D9981604E9982604F9984606099BA
:1021D00088605C980895D5DF87FDFDCF85E18A95FD
:1021E000F1F70000CECFCF93C82FF5DF60E08C2F42
:1021F000CF9194CF611102C0805809C0613011F4B1
:10220000805405C0623011F48C5601C08C52EBCF63
:1022100081E0E9CFCF93C82FDEDF982FCA3099F441
:10222000843148F080EC890F843138F094519C322D
:1022300030F484E505C080E403C084E101C080E09F
:102240008058CF91D0CF61E08C2FCF9167CFCF93C3
:10225000DF93EC018991882311F0DCDFFBCFDF9164
:10226000CF910895CF93C82F279A529A549A559A8E
:10227000569A579A689A8FEF99EF0197F1F700C035
:1022800000005E9A5D9A43DF8FE19EE40197F1F7CB
:1022900000C000003CDF8FEF90E00197F1F700C035
:1022A000000035DF8FEF90E00197F1F700C00000EC
:1022B0005D982DDF8FEF90E00197F1F700C00000EF
:1022C00088E291DF88E08FDFA3DF86E08CDF8C2F50
:1022D000CF9189CFCF93E82FF0E09F01220F331FDA
:1022E000D901AE5DBA4F0D90BC91A02D5C91D90182
:1022F000A25FBA4F0D90BC91A02D8C91D901AA512B
:10230000BB4F6D917C91DF01A650BB4F9C918923FF
:1023100041E009F440E0962F990F990F9F70942B9C
:10232000DF01AC5FBA4F4C91452381E009F480E0B6
:10233000880F892B90E0607F682B792BD901AA51F7
:10234000BB4F6D937C93DC01AE5DBD4F4C9144233C
:10235000D9F1C1E014160CF0C0E0CB0154E0969521
:1023600087955A95E1F78F70840F90E18902A0015B
:1023700011246F70462B572BD901AA51BB4F1196D0
:102380005C934E93952F991F9927991FCC2311F099
:10239000506801C05F774D935C939C1315C08370A8
:1023A00099F4D901AA51BB4F4D915C9111974F708F
:1023B00040684D935C93EA5CFA4F8081992311F059
:1023C0008F5F01C081508083CF91089580FF02C04C
:1023D000299A01C0299881FF02C02A9A01C02A982F
:1023E00082FF02C02B9A08952B9808951F920F9296
:1023F0000FB60F9211240BB60F922F933F934F936A
:102400005F936F937F938F939F93AF93BF93EF935C
:10241000FF938091E004823009F07FC01092E004C5
:102420008091B0008F778093B000809180008F778B
:1024300080938000809180008F7D809380002E9813
:102440002E982E9880918805883011F41092880576
:1024500080918805BBDF50E040E0E0918805E40F03
:10246000F0E0DF01A059BA4F8C91EE0FFF1FDF01A2
:10247000A05CBA4F2D913C91922F2223F9F051305C
:1024800051F0523089F02093B3002091B0002068C1
:102490002093B00013C03327309389002093880025
:1024A00020918000206808C0332730938B00209350
:1024B0008A0020918000206220938000981719F1F3
:1024C00021E030E0981710F020E030E090E06091DB
:1024D0000401E05CFA4F2130310551F42081318153
:1024E000260F311D318320838217930764F409C0BE
:1024F00020813181261B3109318320832817390738
:1025000014F491838083485F5F5F483109F0A5CF61
:10251000809188058F5F809388058091E0048F5FAC
:102520008093E0042091DF04222399F08091E2045B
:102530009091E304A091E404B091E5040196A11DFB
:10254000B11D8093E2049093E304A093E404B0935C
:10255000E50481E082278093DF04FF91EF91BF9132
:10256000AF919F918F917F916F915F914F913F912B
:102570002F910F900BBE0F900FBE0F901F901895CC
:102580001F920F920FB60F9211240BB60F922F933A
:102590003F934F935F936F937F938F939F93AF93EB
:1025A000BF93CF93EF93FF93C091DE048C2F92DE05
:1025B000CF5FCA3019F0C093DE0402C01092DE046F
:1025C000FF91EF91CF91BF91AF919F918F917F91AB
:1025D0006F915F914F913F912F910F900BBE0F9094
:1025E0000FBE0F901F901895E62FF0E0E059FA4FBC
:1025F00080818E3641F08F3F19F482E090E008959B
:1026000080E090E0089581E090E00895E62FF0E00A
:10261000E059FA4F40830895E62FF0E0EA5CFA4F64
:102620008081108208956093040108951F93CF93D1
:10263000DF9300D0CDB7DEB7122F842F4A83698392
:102640000E942252812F0E942252698170E04A81A9
:1026500050E0440F551FFA01EE51FF4EE491DB01AB
:10266000AA0FBB1FAE5DBA4FF0E0ED93FC93FA01E9
:10267000EF51FF4E4491DB01AC5FBA4F4C93212FD9
:1026800030E0220F331FF901EE51FF4EE491DB01E0
:10269000AA0FBB1FA25FBA4FF0E0ED93FC93F901C4
:1026A000EF51FF4E2491FB01E650FB4F2083E6EEF5
:1026B000F4E08081918180688193919384E0EA3F86
:1026C000F807B9F70F900F90DF91CF911F91089500
:1026D000DF92EF92FF920F931F93CF93DF937C01D2
:1026E0001092900010929100109295001092940018
:1026F00010927100109299001092980010929B0015
:1027000010929A0010929D0010929C00809191006E
:102710008860809391008091910084608093910003
:1027200010928000109281001092820010926F002F
:1027300010928500109284001092890010928800F7
:1027400010928B0010928A0010928D0010928C00D3
:102750001092B0001092B100109270001092B2006E
:102760001092B3001092B400809180008160809339
:1027700080008091B00081608093B00080918100E2
:102780008160809381008091B10081608093B1006D
:1027900014BC15BC16BC10926E0017BC18BC84B5D6
:1027A000826084BD85B5836085BD8CE787BD8AE086
:1027B00090E0909399008093980080916E008260E1
:1027C00080936E00809171008260809371000EE0B2
:1027D00012E0C8E1D2E0D12CF80121918F0149919A
:1027E0006D2DC70123DFD394FAE0DF12F5CFDF911F
:1027F000CF911F910F91FF90EF90DF9008952FB729
:10280000F8946091E2047091E3048091E404909163
:10281000E5042FBF08950F931F9300E010E0980187
:10282000061717072807390759F0EFE9FFE0319736
:10283000F1F700C000000F5F1F4F2F4F3F4FF0CF49
:102840001F910F9108951F920F920FB60F921124AE
:102850000BB60F922F938F939F93EF93FF939091CB
:10286000CE00809190058F5F803408F080E0209149
:102870008F05821739F0E82FF0E0EF56FA4F90837A
:1028800080939005FF91EF919F918F912F910F90E1
:102890000BBE0F900FBE0F901F9018951F920F92B6
:1028A0000FB60F9211240BB60F928F939F93EF9355
:1028B000FF9390918E0580918D0598130AC08091A9
:1028C0008B05811102C088E401C088ED8093C900A6
:1028D0000FC080918D058F5F803408F080E0E82F75
:1028E000F0E0EF52FA4F90819093CE0080938D05E7
:1028F000FF91EF919F918F910F900BBE0F900FBEA4
:102900000F901F9018951F920F920FB60F921124DF
:1029100010928C050F900FBE0F901F901895CF92BC
:10292000DF92EF92FF920F93CF936A017B01C22F48
:1029300020938B0500938A05CB01BA019695879564
:102940007795679560587B47814E9F4FA701960109
:102950000E94285CB90161707727672B41F0213014
:1029600060E1360724F482E08093C80004C010922E
:10297000C80035952795215031093093CD0020931B
:10298000CC008091C90083FD1AC01092900510926E
:102990008F0510928E0510928D0510928C0586E0A1
:1029A0008093CA00CC2331F0002311F088ED05C0DC
:1029B00080E903C0002319F088E48093C900CF9117
:1029C0000F91FF90EF90DF90CF900895FC0110A63B
:1029D00011A612A613A614A215A216A217A210825F
:1029E000118212821382DC01AC5ABF4F1C9280E02C
:1029F00090E030EF21E0DF01A80FB91F14963C935F
:102A000014979C962C93019680329105A1F7089516
:102A10001F93CF93DF931F92CDB7DEB7182F110FFF
:102A2000812F698332DB6981862F52DB6CDB81E089
:102A3000810F2BDB5EDB898366DB89810F90DF9161
:102A4000CF911F910895CF93DF9300D0CDB7DEB71C
:102A5000880F4A83698319DB6981862F39DB4A81B4
:102A6000842F36DB0F900F90DF91CF914CCBCF931B
:102A7000DF93EC01488159816A817B81762F652F34
:102A8000542F4427488359836A837B8362E181E220
:102A9000BFDF488159816A817B81482B762F652F62
:102AA000542F4427488359836A837B8363E181E2FF
:102AB000AFDF488159816A817B81482B762F652F52
:102AC000542F4427488359836A837B8362E180E2E1
:102AD0009FDF488159816A817B81482B762F652F42
:102AE000542F4427488359836A837B8363E180E2C0
:102AF0008FDF488159816A817B81482B48835983C4
:102B00006A837B8381E0DF91CF910895406FFC0160
:102B1000E60FF11D9481990F942B948381E0903FEF
:102B200021F09F3F11F080E0089508950F931F93C7
:102B3000FC01862F04A115A126A137A1442381F011
:102B400041E050E060E070E004C0440F551F661F94
:102B5000771F8A95D2F7402B512B622B732B13C012
:102B600041E050E060E070E004C0440F551F661F74
:102B7000771F8A95D2F740955095609570954023C0
:102B800051236223732344A355A366A377A31F9104
:102B90000F910895EF92FF920F93CF93DF93C62F7B
:102BA00080EA97E00E942933082FCD31D1F030F42C
:102BB000CB3109F440C0CC3131F079C0CE31F9F0DD
:102BC000CF3159F174C080EA97E00E944B4F602FDB
:102BD00080EA97E00E94E1428823D9F1C2E0D0E088
:102BE0003AC080EA97E00E947950602F80EA97E02F
:102BF0000E94E842882399F1C2E0D0E032C080EA26
:102C000097E00E94AF4F602F80EA97E00E94D34286
:102C1000882361F1C2E0D0E02BC080EA97E00E94F7
:102C20001350602F80EA97E00E94DA42882329F14E
:102C3000C2E0D0E024C080EA97E00E94884580EAA4
:102C400097E00E94EF42EC0174E0E72EF12C66E081
:102C50001AC0C0E0D0E0E12CF12C62E014C0C0E06A
:102C6000D0E0EE24E394F12C61E00DC0C0E0D0E0B0
:102C700052E0E52EF12C63E006C0C0E0D0E043E076
:102C8000E42EF12C60E0AE0189E997E00E942D2945
:102C900080EA97E00E94EF42AC010F5F21E02297AB
:102CA00009F020E0B7018AE297E00E948D22DF91CF
:102CB000CF910F91FF90EF900895CF93DF93EC01A8
:102CC0006531D1F0663121F0643109F062C039C05C
:102CD000442309F468C065EA72E089E69BE00E943B
:102CE0005C0A42E050E065E089E997E00E942D2906
:102CF000C1E061E070E050C0411115C06EE872E0C3
:102D000089E69BE00E945C0A40E050E065E089E9CA
:102D100097E00E942D2940E050E067E089E997E0C4
:102D20000E942D2936C06EE772E089E69BE00E9482
:102D30005C0A65DDC45BDF4F688379838A839B838C
:102D400032C0442381F164E089E997E00E943E2982
:102D50008230910551F460E672E089E69BE00E94C2
:102D60005C0A80E090E0C0E00BC0009741F461E4B1
:102D700072E089E69BE00E945C0A82E090E0C1E09C
:102D8000AC0164E089E997E00E942D2962E070E0DF
:102D900003C0C1E060E070E04C2F8AE297E0DF9171
:102DA000CF910C94AA23DF91CF910895EF92FF92D7
:102DB0000F931F93CF93DF931F92CDB7DEB77B01A5
:102DC00080EA97E00E94B12C81113DC010E0612F94
:102DD00080EA97E00E94372E882369F061E070E076
:102DE0008AE297E00F90DF91CF911F910F91FF90B2
:102DF000EF900C941B241F5F193049F740E0B70196
:102E000080EA97E00E94CD478C0180EA97E00E941B
:102E10006643282F0130110541F440E060E089E964
:102E200097E029830E946629298140E050E0B8019B
:102E30008AE297E00F90DF91CF911F910F91FF9061
:102E4000EF900C94282380EA97E00E942933182FF2
:102E5000A701682F80EA97E00E944D4D612F80EA1C
:102E600097E00E94DB2B412F61E089E997E00F900A
:102E7000DF91CF911F910F91FF90EF900C946629F5
:102E8000EF92FF920F931F93CF93DF93EC01F62EF7
:102E9000E42E0091350610913606209137063091C8
:102EA0003806007C112722273327003C1105210515
:102EB000310509F44AC080EA97E00E94B12C8130C4
:102EC000F9F481E0E81681F16F2D80EA97E00E9425
:102ED000CD4580EA97E00E9461436EEF680F8AE279
:102EE00097E00E94252780EA97E00E942933482F27
:102EF00061E089E997E00E94662940E050E016C051
:102F0000FE01EC5AFF4F8081882309F4C8C080EA93
:102F100097E00E940543682F80EA97E00E94A24351
:102F20008111BDC0E11082C041E050E0F1100BC042
:102F300068E089E997E0DF91CF911F910F91FF90B1
:102F4000EF900C942D296CE0F4CF80EA97E00E947A
:102F50000543682F80EA97E00E94A243882309F482
:102F600048C080EA97E00E94B12C61E0682780EABF
:102F700097E00E94B42C80EA97E00E94B12C88234D
:102F800099F180EA97E00E942933682F80EA97E060
:102F90000E94372E882361F061E070E08AE297E0BA
:102FA0000E94672460E080EA97E00E94B42C27C06A
:102FB00068E172E089E69BE00E945C0A6AE072E0E8
:102FC00089E69BE00E945C0A61EE71E089E69BE085
:102FD0000E945C0A80EA97E00E942933682F80EA09
:102FE00097E00E94502C0BC080EA97E00E94972C3B
:102FF00006C060E070E08AE297E00E94672440E04B
:1030000050E068E089E997E00E942D2940E050E017
:103010006CE089E997E00E942D291AAA1BAADF918A
:10302000CF911F910F91FF90EF90089580EA97E064
:103030000E942933682F80EA97E00E94372E882368
:1030400061F061E070E08AE297E0DF91CF911F913B
:103050000F91FF90EF900C94672442E050E0FF2026
:1030600011F06CE001C068E089E997E00E942D2929
:10307000CF5BDF4F188240E06F2D80EA97E00E941F
:103080006A4E2F2D42E050E0BC018AE297E0DF91CA
:10309000CF911F910F91FF90EF900C942823E11096
:1030A00014C06F2D80EA97E00E94E245EC0180EAAF
:1030B00097E00E9461432EEF280F41E050E0BE01EF
:1030C0008AE297E00E94282318CF42E050E02ECFFA
:1030D000EF92FF921F93CF93DF931F92CDB7DEB78E
:1030E0007C01162F862F90E0F701E80FF91F24A529
:1030F000222399F14423C9F0643128F46E3058F446
:10310000663098F408C085EE860F853070F4C701EC
:10311000498340DD09C0FC01EE5CFD4F8081682FD2
:1031200070E0C701498342DE4981173049F018F445
:10313000163069F008C08CEE810F833050F003C068
:1031400060E0C7019DDE80E090E021E024C061E006
:10315000F8CF612FC701B1DDF6CF6531A1F741117D
:10316000F2CF40E050E06CE089E997E00E942D2921
:1031700040E050E068E089E997E00E942D2940E0B6
:1031800050E067E089E997E00E942D29F701EC5AA9
:10319000FF4F1082D8CFF701E80FF91F34A5311186
:1031A00011C0D70194964D915D916D917C91979747
:1031B000082E04C076956795579547950A94D2F7DF
:1031C00040FF0BC001968032910529F70F90DF91E7
:1031D000CF911F91FF90EF90089524A7F3CF8F9286
:1031E0009F92AF92BF92CF92DF92EF92FF920F9396
:1031F0001F93CF93DF93EC01B62E01DB08A519A531
:103200002AA53BA5601B710B820B930B6B307105DC
:103210008105910508F41DC1CE0129DC882309F43C
:1032200044C000E010E0C880D980EA80FB80002E16
:1032300004C0F694E794D794C7940A94D2F721E097
:10324000C222DD24EE24FF2481E0C826EC2DE170AB
:10325000AE2E4C2D602FCE0159DC8823E1F08CA1DD
:103260009DA1AEA1BFA1002E04C0B695A7959795CC
:1032700087950A94D2F781709927AA27BB27C81689
:1032800051F04C2D602FCE0151DCBB2021F04A2D96
:10329000602FCE011DDF0F5F1F4F0032110509F0B7
:1032A000C2CF188219821A821B828CA19DA1AEA165
:1032B000BFA1F5E1B695A79597958795FA95D1F7B2
:1032C0008E01045B1F4F80FF65C07E01F1E4EF0EAD
:1032D000F11CF7018081882309F45CC0F80180812A
:1032E0009181A281B381892B8A2B8B2B39F487DAC8
:1032F000F801608371838283938331C080DAF8019F
:1033000080809180A280B380681979098A099B091D
:10331000653F71408105910510F1F7011082F801B8
:1033200010821182128213828AE297E08BD781E0A9
:10333000FE01EC5AFF4F808380EA97E00E94B12C97
:10334000811106C080EA97E00E940543873040F172
:1033500042E050E067E089E997E00E942D298091E2
:10336000350690913606A0913706B0913806E6E111
:10337000B695A79597958795EA95D1F78E01005B4D
:103380001F4F80FF1CC0FE01EE5BFF4F808181114B
:1033900021C015C0F8011082118212821382DFCF82
:1033A00041E050E06CE089E997E00E942D2941E07E
:1033B00050E068E089E997E00E942D29C9CFF80123
:1033C00010821182128213821ADA68A779A78AA75B
:1033D0009BA73FC0F80180819181A281B381892B95
:1033E0008A2B8B2B39F40BDAF8016083718382838B
:1033F0009383EACF04DAF8010081118122813381BD
:10340000601B710B820B930B693B7B40810591051F
:10341000D8F28AE297E00E94782889E997E00E9432
:1034200020298EE896E0E7D361E081E196E0D7DEDF
:103430008CA19DA1AEA1BFA1A5FFF6CF89E997E020
:103440000E94132962E370E080E090E0E4D90E94DA
:103450004B52DF91CF911F910F91FF90EF90DF9032
:10346000CF90BF90AF909F908F900895CF92DF92B2
:10347000EF92FF92CF93DF93EC010E94411040E066
:103480006AE081E2E0DA40E065E081E2DCDA40E037
:103490006AE080E2D8DA40E065E080E2D4DA4FEF1B
:1034A00060E081E2D0DA4FEF61E081E2CCDA4FEF09
:1034B00060E080E2C8DA4FEF61E080E2C4DA4FEF0B
:1034C0006CE081E2C0DA4FEF6DE081E2BCDA4FEFF1
:1034D0006CE080E2B8DA4FEF6DE080E2B4DA8FD9C9
:1034E0006B017C0160E081E196E079DE88D96C199E
:1034F0007D098E099F09643671058105910590F358
:103500004091350650913606609137067091380625
:103510004427552760767727411551056046710588
:1035200099F46CEB72E089E69BE00E945C0A61E032
:1035300070E081E897E00E94BB28FE01EF5BFF4F3F
:103540001082CE5BDF4F1882DF91CF91FF90EF901A
:10355000DF90CF9008958C5A9F4FFC018081089591
:1035600081E196E033CA2AE030E0FC011192119229
:1035700011921192CF0121503109B9F708950895A0
:10358000CF92EF92FF920F931F93CF93DF931F92EF
:10359000CDB7DEB7C62E142F80EA97E029830E94AC
:1035A000B12C2981882361F08AE297E00F90DF91A6
:1035B000CF911F910F91FF90EF90CF900C94A42486
:1035C00081E897E029830E94CF282981811102C0D8
:1035D00000E006C0C11074C1FBCF0F5F0930B9F025
:1035E000602F80EA97E029830E94372E2981882363
:1035F000A1F360E070E08AE297E00F90DF91CF9155
:103600001F910F91FF90EF90CF900C941B2480EAB4
:1036100097E029830E942933082F80EA97E00E94CF
:10362000EF427C018C2D90E029818A30910508F0D1
:1036300047C1FC01ED5AFF4F0C94665C81E196E0B6
:103640008ADF882321F180EA97E00E945C431123FE
:1036500011F061E001C06FEF680F21F0613118F0E7
:1036600061E001C060E180EA97E00E942A4D80EAB3
:1036700097E00E945C43682F8AE297E00F90DF9109
:10368000CF911F910F91FF90EF90CF900AC681E8E4
:1036900097E00E94CF28882369F0612F81E897E0A6
:1036A0000F90DF91CF911F910F91FF90EF90CF90EE
:1036B0000C94D82880EA97E00E940043112311F06F
:1036C00011E001C01FEF180F1A3021F017FF03C0DF
:1036D00019E001C010E0612F80EA97E00E943C45AC
:1036E00080EA97E00E940543082F40E060E089E906
:1036F00097E00E94662961E0610F402F23C080EAB5
:1037000097E00E940543112311F011E001C01FEF63
:10371000180F113121F017FF03C010E101C010E0B4
:10372000612F80EA97E00E945F4540E060E089E910
:1037300097E00E94662980EA97E00E94004361E0DA
:10374000680F412F8AE297E00F90DF91CF911F9190
:103750000F91FF90EF90CF900C94D32440E050E075
:10376000612F80EA97E00E941849402F60E070E0E6
:1037700080EA97E00E9447430F5F282FA70160E08F
:1037800070E013C041E050E0612F80EA97E00E94B2
:103790001849402F61E070E080EA97E00E944743BB
:1037A0000F5F282FA70161E070E08AE297E0AED5B5
:1037B00087C041E050E0612F80EA97E00E94194AFB
:1037C000202F41E050E060E070E080EA97E00E9446
:1037D00023430F5F282FA70161E070E041C040E064
:1037E00050E0612F80EA97E00E94194A202F40E0C4
:1037F00050E060E070E080EA97E00E9423430F5FB2
:10380000282FA70160E070E02BC043E050E0612F5B
:1038100080EA97E00E94194A202F43E050E061E0DF
:1038200070E080EA97E00E9423430F5F282FA701F2
:1038300063E070E015C042E050E0612F80EA97E05D
:103840000E94194A202F42E050E061E070E080EAD7
:1038500097E00E9423430F5F282FA70162E070E0EA
:103860008AE297E004D62CC021E040E050E0612FCE
:1038700080EA97E00E94234C402F60E070E080EAED
:1038800097E00E940A430F5F9C01A70160E070E08F
:1038900014C021E041E050E0612F80EA97E00E94EF
:1038A000234C402F61E070E080EA97E00E940A43D9
:1038B0000F5F9C01A70161E070E08AE297E07CD590
:1038C0000F90DF91CF911F910F91FF90EF90CF90CC
:1038D00008957F928F929F92AF92BF92CF92DF9284
:1038E000EF92FF920F931F93CF93DF93D82EC92EA1
:1038F000C82FD92FF12C6F2D81EE94E00E940C136C
:10390000E82E811113C0F39424968AE0F812F3CFC5
:10391000DF91CF911F910F91FF90EF90DF90CF90AB
:10392000BF90AF909F908F907F9008950E94FF135B
:10393000088119812A813B81601B710B820B930BDB
:10394000653671058105910518F07724739402C0DE
:1039500085E0782E0E94FF13688379838A839B8396
:1039600000E010E0AE2CBB24A7FCB094882499247E
:103970008A189B08C501B7FCC401081719071CF673
:1039800041E01E140CF040E0272D6F2D8D2D9C2D55
:10399000F7DD0F5F1F4FEECF86E696E0E4CDEF92A6
:1039A000FF920F931F93CF93DF93EC018C01025E84
:1039B0001F4F7C012AE3E20EF11C60E070E0C801B9
:1039C0000E948858095F1F4F0E151F05B1F7780137
:1039D0008CE1E80EF11C60E070E0C8010E9488589C
:1039E000095F1F4F0E151F05B1F78E010A5A1F4FB1
:1039F00078019CE1E90EF11C60E070E0C8010E94D2
:103A00008858095F1F4F0E151F05B1F78E010E581C
:103A10001F4F78012CE1E20EF11C60E070E0C8015C
:103A20000E948858095F1F4F0E151F05B1F760E00F
:103A300070E0CE0182579F4F0E9488581C861882E2
:103A400019821A821B828CE00E9432118FEF91EE54
:103A500024E0815090402040E1F700C00000DF9159
:103A6000CF911F910F91FF90EF900895BF92CF9249
:103A7000DF92EF92FF920F931F93CF93DF938C010E
:103A80000E940811E8016E96E12CF12CBB24B3943E
:103A900068E270E0CE010E94405863E277E0CE0118
:103AA0000E94D2586E012CE1C20ED11C68E270E077
:103AB000C6010E94405863E277E0C6010E94D258D6
:103AC0006E0188E3C80ED11C68E270E0C6010E9456
:103AD000405863E277E0C6010E94D2586E0194E537
:103AE000C90ED11C68E270E0C6010E94405863E232
:103AF00077E0C6010E94D258F801EE0DFF1D158631
:103B0000118AB58A128EEFEFEE1AFE0A2796F4E0BC
:103B1000EF16F10409F0BCCFE801C257DF4F68E2AD
:103B200070E0CE010E94405863E277E0CE010E942F
:103B3000D258F80114821582168217821486FFEF7C
:103B400021EE84E0F15020408040E1F700C0000009
:103B500060E080E0DF91CF911F910F91FF90EF9097
:103B6000DF90CF90BF900C94FA100F931F93CF93D8
:103B7000DF93EC0141305105A9F04230510511F1BC
:103B8000452BA1F587E0689FC00DD11D11246E96CD
:103B90008C819D81449750F56DE672E0CE010E94C4
:103BA0003559F6CFE7E06E9FC00DD11D1124EA967E
:103BB0008C819D814497D0F46DE672E0CE010E9425
:103BC0003559F6CF8C010E561F4FF8018081918137
:103BD000449760F4C257DF4F6DE672E0CE010E9459
:103BE0003559F801808191814497B0F3DF91CF91ED
:103BF0001F910F9108952F923F924F925F926F9273
:103C00007F928F929F92AF92BF92CF92DF92EF926C
:103C1000FF920F931F93CF93DF93CDB7DEB7279714
:103C20000FB6F894DEBF0FBECDBF8C0180917A0035
:103C300086FD58C10E94FF13D8011896CD90DD90E3
:103C4000ED90FC901B976C197D098E099F096A30D5
:103C500071058105910508F445C11C968C91882356
:103C6000D9F16801B6E5CB0ED11C912CE12CF12CD9
:103C70005601BCE1AB1AB108B701C5010E947959E0
:103C8000FC018080B701C6010E947959DC018C914A
:103C9000881661F0692D8E2D0E94FA10B701C501BA
:103CA0000E947959FC0180810E940A11FFEFEF1AEE
:103CB000FF0A24E1E216F104F9F6B501C6010E94FB
:103CC000D25887E0C80ED11C9394A4E09A12CECFAC
:103CD000F801148681E0818FD80159968C91882350
:103CE00009F10E94FF13F801C080D180E280F380C7
:103CF0006C197D098E099F096D3D754081059105FF
:103D000008F4F0C081E0D8011D968C931D971E9693
:103D10008C931E971F968C931F9750968C93509759
:103D200059961C924801B6E58B0E911C6801EEE194
:103D3000CE0ED11C7801FAE1EF0EF11C612C712C32
:103D400028012EE8420E511CF70139978081882303
:103D500009F481C00E94FF13D80114962D913D9162
:103D60004D915C911797621B730B840B950B653F0C
:103D700071408105910508F49AC0F70140815527EB
:103D800047FD509528E230E0B601CE0101960E9431
:103D9000B459BE016F5F7F4FC2010E94DC58CE0153
:103DA00001960E942358362C42E050E0662DC8014F
:103DB000DCDEA12CB12CB501C4010E947959DC01D3
:103DC0002C90B501C2010E947959FC01808128160E
:103DD00061F0632D8A2D0E94FA10B501C2010E9484
:103DE0007959DC018C910E940A11BFEFAB1ABB0A12
:103DF000E4E1AE16B104F9F60E94FF13D80114965F
:103E00006D937D938D939C931797F70135978081E0
:103E1000D7012C91882391F0D60114968D919C9115
:103E200015970197821B910927FD9395459720F0DF
:103E30002F5FF701208305C0108203C02150D701F6
:103E40002C93B301C2010E947959FC016081C40125
:103E50000E94FE582CC0F7013D978081882339F1DC
:103E6000A12CB12CB501C6010E947959DC013C900E
:103E7000B501C4010E947959FC018081381661F0B6
:103E8000662D8A2D0E94FA10B501C6010E9479594B
:103E9000DC018C910E940A11BFEFAB1ABB0AE4E16E
:103EA000AE16B104F9F6B601C4010E94D258F7016A
:103EB0003D971082FFEF6F1A7F0A27E0820E911C58
:103EC00087E0C80ED11CAFEFEA1AFA0AB4E06B160D
:103ED000710409F039CF0E94FF13F80160877187E0
:103EE0008287938727960FB6F894DEBF0FBECDBFAB
:103EF000DF91CF911F910F91FF90EF90DF90CF90C6
:103F0000BF90AF909F908F907F906F905F904F90F9
:103F10003F902F9008951F93CF93DF93EC01162FBE
:103F200027E0629F800D911D1124BA01CA960E945C
:103F3000E75841E050E0612FCE0117DE0E94FF13E9
:103F4000688379838A839B8381E08C87DF91CF911B
:103F50001F9108954F925F926F927F928F929F92DE
:103F6000AF92BF92CF92DF92EF92FF920F931F9387
:103F7000CF93DF93EC01562E5A01122FC62ED12C6F
:103F8000E1100FC0412C602E712C87E08C9D7001D8
:103F90008D9DF00C11248EE1E80EF11CEC0EFD1E3F
:103FA0000DC027E02C9DC0012D9D900D11244E9633
:103FB000BA018C0F9D1F0E94E75814C0642D70E059
:103FC0004501860E971EF4018081882359F0660D05
:103FD000771DC7010E947959F4012081FC012083DB
:103FE0004394ECCF40E050E0652DCE01BEDDFE01F4
:103FF000EC0DFD1D81E08587153120F0818B858BCF
:10400000128E01C0118A0E94FF13688779878A8700
:104010009B87DF91CF911F910F91FF90EF90DF90E1
:10402000CF90BF90AF909F908F907F906F905F9058
:104030004F90089566E472E083E297E00E9488580A
:104040008EE896E0ACCCCF93DF938CE197E00E94B2
:10405000235880E097E0892B29F484EE96E0892BA1
:1040600091F41BC085E197E00E9423588EE097E011
:104070000E94235887E097E00E94235880E097E051
:104080000E942358EACFC0E0D7E02797CE010E94D4
:10409000235886E0C43ED807C1F788EC96E0892B08
:1040A00051F0C4EED6E02797CE010E94235886E057
:1040B000C83CD807C1F78CEA96E0892B51F0C8ECD0
:1040C000D6E02797CE010E94235886E0CC3AD80745
:1040D000C1F783E297E0DF91CF910C9423580C94C1
:1040E000355970E00C944959CF93DF93EC0160E0AF
:1040F00070E00E94885868E270E0CE01DF91CF91B5
:104100000C944058FF920F931F93CF93DF93EC01D1
:1041100064E073E08F960E94AC5CF12C8E010F0D71
:10412000111DF80167A5662379F0CE010E94FE58A3
:10413000F80187A50E940A116BE470E080E090E02E
:104140000E940B14F394EACF6AEF70E080E090E0F5
:10415000DF91CF911F910F91FF900C940B14AF92B0
:10416000BF92CF92DF92EF92FF920F931F93CF9364
:10417000DF93EC01162F5A01F22E6C0187E0C80E76
:10418000D11C4C815D814F5F5F4F20E030E0B60174
:10419000CE010E948B59A114B10491F0AA94AB28CE
:1041A000B9F4A601612F8EE896E0DF91CF911F91BF
:1041B0000F91FF90EF90DF90CF90BF90AF90ABCE7C
:1041C000E02E0F2D2C81A601612F8EE896E0C2DE35
:1041D000DF91CF911F910F91FF90EF90DF90CF90E3
:1041E000BF90AF900895EF92FF920F93CF93DF931C
:1041F000EC017C018FE2E80EF11C6FE975E0C7016C
:104200000E94AC5CB701CE010E94E75801E020E0BB
:1042100041E050E061E0CE01A2DF68E173E0C70158
:104220000E94AC5CB701CE010E94E75820E041E05B
:1042300050E062E0CE0193DFDF91CF910F91FF90CC
:10424000EF900895EF92FF920F93CF93DF93EC01DD
:104250007C018FE2E80EF11C65EE72E0C7010E945E
:10426000AC5CB701CE010E94E75801E020E041E0DC
:1042700050E061E0CE0173DF68E173E0C7010E94A6
:10428000AC5CB701CE010E94E75820E041E050E06D
:1042900062E0CE0164DFDF91CF910F91FF90EF904C
:1042A0000895EF92FF920F931F93CF93DF93EC014A
:1042B000162F7C018FE2E80EF11C66EF72E0C70159
:1042C0000E94AC5CB701CE010E94E758612FCE017D
:1042D00008DF01E020E041E050E061E0CE013FDF97
:1042E00068E173E0C7010E94AC5CB701CE010E9497
:1042F000E75820E041E050E062E0CE0130DFDF919E
:10430000CF911F910F91FF90EF900895AF92BF92C0
:10431000CF92DF92EF92FF920F931F93CF93DF9391
:104320001F92CDB7DEB75C016A01102F7727660FA9
:10433000771F6A597C4FFB016591749175018FE27B
:10434000E80EF11CC70129830E94AC5CB701C501CE
:104350000E94E7582981622FC501C3DE01E020E0F9
:1043600041E050E061E0C501FADEC114D10419F06A
:1043700066E373E002C06DE273E0C7010E94AC5CCB
:10438000B701C5010E94E758CD2819F0612FC5017A
:10439000A8DE01E020E041E050E062E0C501DFDEA0
:1043A0000F90DF91CF911F910F91FF90EF90DF90D1
:1043B000CF90BF90AF900895AF92BF92CF92DF920F
:1043C000EF92FF920F931F93CF93DF93EC016A015B
:1043D0005901102F7727660F771F68587C4FFB0114
:1043E000659174917E018FE2E80EF11CC7010E9475
:1043F000AC5CB701CE010E94E758F501EE0FFF1F3C
:10440000EE58FC4F65917491C7010E94AC5CB701F6
:10441000CE0165DE01E020E041E050E061E0CE0148
:104420009EDEC114D10419F066E373E002C06DE2B0
:1044300073E0C7010E94AC5CB701CE010E94E7584F
:10444000CD2819F0612FCE014CDE01E020E041E0E3
:1044500050E062E0CE0183DEDF91CF911F910F919A
:10446000FF90EF90DF90CF90BF90AF900895AF9204
:10447000BF92CF92DF92EF92FF920F931F93CF9351
:10448000DF931F92CDB7DEB75C016A01102F77274B
:10449000660F771F66597C4FFB01659174917C0113
:1044A0008FE2E80EF11CC70129830E94AC5CB701C2
:1044B000C5010E94E7582981622FC50112DE01E083
:1044C00020E041E050E061E0C50149DEC114D104C3
:1044D00019F066E373E002C06DE273E0C7010E9469
:1044E000AC5CB701C5010E94E758CD2819F0612FD7
:1044F000C501F7DD01E020E041E050E062E0C501E8
:104500002EDE0F90DF91CF911F910F91FF90EF90D2
:10451000DF90CF90BF90AF900895CF92DF92EF924F
:10452000FF920F931F93CF93DF93EC017A01102F2B
:1045300077FD85C06430710524F06430710599F110
:104540007EC0FB01EE0FFF1F8F966C01211103C08F
:10455000E751FC4F02C0EF51FC4F65917491C601C9
:104560000E94AC5CB601CE010E94E75801E020E059
:1045700041E050E061E0CE01F2DDE114F10419F018
:1045800066E373E002C06DE273E0C6010E94AC5CBA
:10459000B601CE010E94E758EF2819F0612FCE0135
:1045A000A0DD01E046C057FD4AC042305105FCF095
:1045B0004230510509F043C0EDEDF3E0659174918F
:1045C0007E018FE2E80EF11CC7010E94AC5CB701CE
:1045D000CE010E94E75801E020E041E050E061E0B8
:1045E000CE01BDDDEFEDF3E0659174911BC0FA01E2
:1045F000EE0FFF1FE552FC4F659174917E019FE223
:10460000E90EF11CC7010E94AC5CB701CE010E940B
:10461000E75801E020E041E050E061E0CE019FDD9D
:1046200068E173E0C7010E94AC5CB701CE010E9453
:10463000E75820E041E050E062E0CE0190DDDF91FC
:10464000CF911F910F91FF90EF90DF90CF90089541
:10465000EF92FF920F931F93CF93DF93EC01122FF2
:104660004130510531F142305105C1F1452B09F07E
:104670006AC077FD68C0623071059CF57C018FE2ED
:10468000E80EF11C66EF75E0C7010E94AC5CB70153
:10469000CE010E94E758E12FEE0FFF0BE455FA4FD1
:1046A00065917491C7010E94AC5CB701CE0117DD22
:1046B00034C07C018FE2E80EF11C6EEE75E0C7019C
:1046C0000E94AC5CB701CE010E94E758612F7727AA
:1046D00067FD7095CE010E9449591FC06130710578
:1046E00051F06230710579F57E018FE2E80EF11C20
:1046F0006FE975E00BC0222319F064EC75E002C08D
:1047000060ED75E07E018FE2E80EF11CC7010E94AA
:10471000AC5CB701CE010E94E75801E020E041E027
:1047200050E061E0CE011BDD68E173E0C7010E944B
:10473000AC5CB701CE010E94E75820E041E050E0B8
:1047400062E0CE010CDDDF91CF911F910F91FF90C0
:10475000EF900895EF92FF920F93CF93DF937C0138
:10476000EC01AF966130710581F06230710529F07E
:10477000672BB1F4EDE3F3E00AC0442319F0EFE353
:10478000F3E005C0E1E4F3E002C0EBE3F3E06591A0
:104790007491CE010E94AC5CBE01C7010E94E75833
:1047A00001E020E041E050E061E0C701D8DC68E1D1
:1047B00073E0CE010E94AC5CBE01C7010E94E758C5
:1047C00020E041E050E062E0C701C9DCDF91CF9119
:1047D0000F91FF90EF900895EF92FF920F93CF9378
:1047E000DF93EC017C018FE2E80EF11C65E175E0DE
:1047F000C7010E94AC5CB701CE010E94E75801E0FE
:1048000020E041E050E061E0CE01A9DC6BE075E022
:10481000C7010E94AC5CB701CE010E94E75820E0BE
:1048200041E050E062E0CE019ADCDF91CF910F9140
:10483000FF90EF900895CF92DF92EF92FF920F9347
:10484000CF93DF93EC016B017C018FE2E80EF11C4A
:104850006BE675E0C7010E94AC5CB701CE010E9417
:10486000E75801E020E041E050E061E0CE0177DC74
:1048700081E0C816D10481F082E0C816D10479F035
:10488000CD28E9F469E575E0C7010E94AC5CB70189
:10489000CE010E94E7580DC068E375E002C065E4F0
:1048A00075E0C7010E94AC5CB701CE010E94E758D9
:1048B00001E020E041E050E062E0CE0150DCDF9119
:1048C000CF910F91FF90EF90DF90CF900895EF92EE
:1048D000FF920F93CF93DF93EC016115710559F0AF
:1048E0006130710559F562E070E0DF91CF910F9171
:1048F000FF90EF90A0CF7C018FE2E80EF11C6CE8F6
:1049000075E0C7010E94AC5CB701CE010E94E75878
:1049100001E020E041E050E061E0CE0120DC6AE708
:1049200075E0C7010E94AC5CB701CE010E94E75858
:1049300020E041E050E062E0CE0111DCDF91CF9158
:104940000F91FF90EF900895EF92FF920F93CF9306
:10495000DF93EC017C018FE2E80EF11C67E275E069
:10496000C7010E94AC5CB701CE010E94E75801E08C
:1049700020E041E050E061E0CE01F1DB69E575E067
:10498000C7010E94AC5CB701CE010E94E75820E04D
:1049900041E050E062E0CE01E2DBDF91CF910F9188
:1049A000FF90EF900895CF92DF92EF92FF920F93D6
:1049B0001F93CF93DF931F92CDB7DEB76C01F62E16
:1049C0008C01015D1F4F66E173E0C80149830E94BD
:1049D000AC5CB801C6010E94E7586F2DC60181DBAF
:1049E0006DE672E0C6017BDB4981E42EF12C473095
:1049F00070F4F701EE0FFF1FE85AFB4F65917491B9
:104A0000C8010E94AC5CB801C60169DB10C0E6E6D3
:104A1000F4E065917491C8010E94AC5CB801C601D4
:104A20005EDBB70166507109C6010E94495901E079
:104A300020E040E050E060E0C60191DB0F90DF91A4
:104A4000CF911F910F91FF90EF90DF90CF9008953D
:104A50008F929F92AF92BF92CF92DF92EF92FF928E
:104A60000F931F93CF93DF93EC017A016B0100E06A
:104A700010E0822E912C5C018FE2A80EB11C08156B
:104A8000190514F5D601ED916D01F0E0EE0FFF1F51
:104A9000E455FA4F65917491C5010E94AC5CB50173
:104AA000CE010115110519F40E94E75801C017DB6A
:104AB000F70161917F01CE0114DB6DE672E0CE015A
:104AC0000EDB0F5F1F4FDBCF01E020E040E050E046
:104AD00061E0CE0144DBDF91CF911F910F91FF90F8
:104AE000EF90DF90CF90BF90AF909F908F90089500
:104AF000FF920F931F93CF93DF93EC01F62E8C015F
:104B0000015D1F4F64E173E0C8010E94AC5CB80115
:104B1000CE010E94E7586F2DCE01E3DA89E08F15B0
:104B200018F06CE672E005C083E68F1520F06DE6A4
:104B300072E0CE01D4DA00E020E040E050E062E034
:104B4000CE010DDBDF91CF911F910F91FF90089562
:104B5000DF92EF92FF920F931F93CF93DF93EC01BD
:104B6000162FD42E2223B1F18F967C0162E173E0DF
:104B7000002309F45EC00E94AC5CB701CE010E9424
:104B8000E758612FCE01ADDA1A3018F46CE672E006
:104B900004C0143620F46DE672E0CE01A0DA6DE6B2
:104BA00072E0CE019CDA60E173E0C7010E94AC5C68
:104BB000B701CE0194DA6D2DCE0193DA99E09D15FF
:104BC00088F5E3E6ED1508F45BC06DE672E0CE0112
:104BD00086DA56C0002309F453C07C01FFE2EF0ED1
:104BE000F11C68E173E0C7010E94AC5C05E010E0D5
:104BF000B801CE010E9479592FA5FC0120830F5FD7
:104C00001F4F09301105A1F760E173E0C7010E9451
:104C1000AC5CB701CE0163DA6D2DCE0162DAF9E04A
:104C2000FD1518F06CE672E0D2CF83E68D1540F1E9
:104C3000CCCF0E94AC5CB701CE010E94E758612F37
:104C4000CE014FDA1A3018F46CE672E004C0143664
:104C500020F46DE672E0CE0142DA68E173E0C7014C
:104C60000E94AC5C0AE010E0B801CE010E947959C4
:104C70002FA5FC0120830F5F1F4F0E301105A1F7F8
:104C800000E025E040E050E062E0CE0168DADF912C
:104C9000CF911F910F91FF90EF90DF900895FF92B9
:104CA0000F931F93CF93DF93EC01F62E8C01015DE0
:104CB0001F4F6DE073E0C8010E94AC5CB801CE01EB
:104CC0000E94E7586F2DCE010CDA89E08F1518F09D
:104CD0006CE672E005C083E68F1520F06DE672E0A9
:104CE000CE01FDD900E02FE040E050E062E0CE01CF
:104CF00036DADF91CF911F910F91FF900895EF92D7
:104D0000FF920F931F93CF93DF93EC01F62EE42EC7
:104D1000E2E6F3E0659174918C01015D1F4FC801DB
:104D20000E94AC5CB801CE010E94E7586F2DCE0105
:104D3000D8D989E08F1518F06CE672E005C083E6DB
:104D40008F1520F06DE672E0CE01C9D96DE672E0F4
:104D5000CE01C5D9E4E6F3E065917491C8010E94E3
:104D6000AC5CB801CE01BBD96E2DCE01BAD901E041
:104D700020E040E050E063E0CE01F1D9DF91CF9137
:104D80001F910F91FF90EF9008958F929F92AF9295
:104D9000BF92CF92DF92EF92FF920F931F93CF9328
:104DA000DF93EC01222359F07A016B0100E010E05F
:104DB000822E912C5C018FE2A80EB11C2CC068E100
:104DC00073E08C01015D1F4FC8010E94AC5CB8010B
:104DD000CE010E94E75825C0D601ED916D01F0E0AB
:104DE000EE0FFF1FE455FA4F65917491C5010E94C3
:104DF000AC5CB501CE010115110589F40E94E7589C
:104E0000F70161917F01CE016CD96DE672E0CE01B0
:104E100066D90F5F1F4F08151905F4F202C05FD95C
:104E2000EFCF01E020E040E050E061E0CE0197D913
:104E3000DF91CF911F910F91FF90EF90DF90CF9076
:104E4000BF90AF909F908F900895FF920F931F9304
:104E5000CF93DF93EC01F62E8C01015D1F4F6EEDB9
:104E600075E0C8010E94AC5CB801CE010E94E75811
:104E70006F2D772767FD7095CE010E94495901E09B
:104E800020E040E050E062E0CE0169D9DF91CF91AF
:104E90001F910F91FF9008950F931F93CF93DF936E
:104EA000EC01162F6FE672E00E94E758612FCE01E9
:104EB00018D901E020E040E050E060E0CE014FD999
:104EC0008E01015D1F4F68E173E0C8010E94AC5C78
:104ED000B801CE010E94E75801E020E040E050E038
:104EE00061E0CE013CD920E040E050E062E0CE013C
:104EF00036D920E040E050E063E0CE0130D9DF91C8
:104F0000CF911F910F9108950F931F93CF93DF932C
:104F1000EC018C01015D1F4F68E173E0C8010E9444
:104F2000AC5CB801CE010E94E75810E001E020E03F
:104F300040E050E0612FCE0112D91F5F1430B1F76D
:104F4000DF91CF911F910F910895AF92BF92CF92B1
:104F5000DF92EF92FF920F93CF93DF93EC01EDED91
:104F6000F4E0659174916C018FE2C80ED11CC6010A
:104F70000E94AC5CB601CE010E94E75801E020E03F
:104F800040E050E060E0CE01EAD8B7EDAB2EB4E0EF
:104F9000BB2EE12CF12CE114F10419F46CE772E062
:104FA00002C06DE672E0CE010E94E758F5016591FE
:104FB0007491C6010E94AC5CB601CE0190D861E04C
:104FC0006E0D01E020E040E050E0CE01C8D88FEF48
:104FD000E81AF80A82E0A80EB11C82E0E816F10493
:104FE000D1F6DF91CF910F91FF90EF90DF90CF90AE
:104FF000BF90AF9008959F92AF92BF92CF92DF92F1
:10500000EF92FF920F931F93CF93DF93EC01142F36
:105010006130710509F03FC007EDC02E04E0D02ECD
:10502000E12CF12C8F965C01812F143008F083E085
:1050300090E0992493949E0CE816F90661F46CE7CD
:1050400072E0CE010E94E758F60165917491C501A6
:105050000E94AC5C0BC0F60165917491C5010E9481
:10506000AC5C6DE672E0CE010E94E758B501CE015E
:1050700036D801E020E040E050E0692DCE016FD845
:105080009FEFE91AF90A82E0C80ED11C92E0E916F6
:10509000F10409F0C9CFDF91CF911F910F91FF90DB
:1050A000EF90DF90CF90BF90AF909F9008950F93B7
:1050B0001F93CF93DF93EC018C01015D1F4F68E1DB
:1050C00073E0C8010E94AC5CB801CE010E94E758B1
:1050D00011E001E020E040E050E0612FCE013FD838
:1050E0001F5F1430B1F7DF91CF911F910F91089599
:1050F000EF92FF920F93CF93DF93EC017C018FE24D
:10510000E80EF11C68E173E0C7010E94AC5CB701D6
:10511000CE010E94E75801E020E040E050E061E06D
:10512000CE011DD820E040E050E062E0CE0117D86B
:1051300020E040E050E063E0CE0111D861ED72E084
:10514000C7010E94AC5CB701CE010E94E75820E085
:1051500040E050E060E0CE0102D8DF91CF910F91A6
:10516000FF90EF9008958AE297E00C9474208AE211
:1051700097E00C9423580F931F93CF93DF938C01E8
:10518000EB016130710531F48AE297E0DEDEF8016F
:10519000D183C083DF91CF911F910F910895FC01BE
:1051A00081E0208131812230310509F480E00895C9
:1051B000FC018281662311F08F5F01C081508283E0
:1051C000608171816130710541F4828187FD1282B5
:1051D0008281823014F081508283238142818AE26D
:1051E00097E009CF82E090E0909382078093810757
:1051F000109283071092840708958130910531F051
:10520000029711F080E008958FEF08958EE60895DB
:10521000249A259A269A2C982D982E98219A229A8B
:10522000239A08950895CF93C0E040E06C2F81EE5B
:1052300094E00E940613CF5FC831B9F7CF9108956B
:10524000CF93C0E04FEF6C2F81EE94E00E940613E5
:10525000CF5FC831B9F7CF910895CF93DF931F92F5
:10526000CDB7DEB7CA016983C8DF482F698181EEF7
:1052700094E00F90DF91CF910C94061381EE94E0AF
:105280000C94F41281EE94E00C941313CF93DF93FB
:10529000CEE7D2E0699140E081EE94E00E940613EF
:1052A00082E0CA38D807B1F7DF91CF910895CF9344
:1052B000DF93EB01CA01A1DFC258DD4F482F68819F
:1052C00081EE94E0DF91CF910C9406137F928F9240
:1052D0009F92AF92BF92CF92DF92EF92FF920F9385
:1052E0001F93CF93DF93CDB7DEB72E970FB6F89409
:1052F000DEBF0FBECDBF8C01B42E613009F06CC093
:10530000D12CA12C4D2D6B2D80EA97E00E94AC434F
:10531000C82E80E8C816D9F0EA2CF12C6C2D80EA52
:1053200097E00E941433E8E0F0E0EC0FFD1FEE0D73
:10533000FF1D80836C2D80EA97E00E942033E1E01E
:10534000F0E0EC0FFD1FEE0DFF1D8083A394D394BE
:1053500097E0D912D7CFE12CF12C40E050E0B70113
:10536000C801A5DFEFEFEE1AFE0AFCE0EF16F1042C
:10537000A1F76E0188E0C80ED11C7601B12CC701DF
:105380008C199D098A159B054CF4F70161917F01E9
:1053900070E041E050E0C8018ADFF1CFCE01019614
:1053A0007C014C01C701881999098A159B054CF5A8
:1053B000F70171907F0180EA97E00E9461437812C3
:1053C00007C0F601608170E042E050E0C8016FDF85
:1053D000FFEFCF1ADF0AE6CF59DF00E010E0B80197
:1053E00080EA97E00E94B337882331F041E050E033
:1053F000B80189E997E05BDF0F5F1F4F0C301105A3
:1054000071F72E960FB6F894DEBF0FBECDBFDF91B9
:10541000CF911F910F91FF90EF90DF90CF90BF90B1
:10542000AF909F908F907F90089589E997E0F0CE9C
:105430004F925F926F927F928F929F92AF92BF92A4
:10544000CF92DF92EF92FF920F931F93CF93DF9350
:105450001F92CDB7DEB74C01A62EB12C8C010A0DE0
:105460001B1D68012FEFC20ED11CD6018C91843018
:1054700009F467C049830E94FF137501EE0CFF1CFD
:10548000EE0CFF1CF401EE0DFF1DE954FF4F4080B0
:105490005180628073806419750986099709498172
:1054A00050E0613D77408105910520F0D6018C9157
:1054B00081114BC0F501EE0FFF1FE80DF91DE858F3
:1054C000FF4F20813181CA01821B930B97FF03C0DC
:1054D0009195819591090B97B4F1BB24B394421730
:1054E00053070CF0B12C6801BFEFCB0ED11CD601D5
:1054F0006C91611112C0518340830E94FF13E80C2C
:10550000F91CF701E954FF4F608371838283938311
:10551000F60180818F5F80830FC02B2D30E0D80192
:10552000A85FBE4F8C9190E02817390729F06F5F74
:10553000D6016C9351834083F801E85FFE4FB0823F
:1055400002C081E01BC080E019C0D6011C9210820D
:10555000118212821382C501880F991F880D991D2F
:10556000FC01E657FF4F29E13CEF3183208372961F
:1055700031832083B497518340839CCF0F90DF9178
:10558000CF911F910F91FF90EF90DF90CF90BF9040
:10559000AF909F908F907F906F905F904F90089505
:1055A00070E0FC01E60FF71FE150FF4F10829B01F6
:1055B000220F331F220F331F280F391FF901E9541F
:1055C000FF4F1082118212821382660F771F680FBD
:1055D000791FFB01E858FF4F11821082729689E112
:1055E0009CEF9183808372969183808308951F93AB
:1055F000CF93DF93EC01162F6EE276E089E69BE015
:105600000E940855412F50E060E070E020E089E6FC
:105610009BE00E9473556AE176E089E69BE00E9478
:1056200008554C8150E060E070E020E089E69BE0A6
:105630000E94735589E69BE00E9459556C818AE26D
:1056400097E02DDBCB58DF4F1882DF91CF911F9170
:1056500008958F929F92AF92BF92DF92EF92FF9246
:105660000F931F93CF93DF93EC01FC01EA51FD4FA1
:10567000D0800D2D10E0C801880F991F8C0F9D1F41
:10568000FC01E35BFF4FA080B180FE01EA58FF4FB1
:10569000808191810D2C02C0969587950A94E2F73E
:1056A00080FF66C06D2DCE010E94E842882359F02C
:1056B00020E030E0A5016D2DCE01CDD1482F6D2D1C
:1056C000CE01B6DE01C080E07E01E00EF11EF701E2
:1056D000E255FF4F8083882309F44AC021E030E07F
:1056E000A5016D2DCE01B7D1D82E0E94FF13000F5A
:1056F000111F000F111FFE01E00FF11FE552FF4FB8
:1057000080809180A280B380681979098A099B09F9
:10571000F70140A1653671058105910568F02D2DD1
:1057200030E0241B310937FF03C031952195310941
:105730002330310544F41CC0D416D1F06430710517
:1057400081059105A8F0FE01EB58FF4F81E08083B1
:10575000E352FE4F8083DC82F701D0A20E94FF1348
:10576000C00FD11FC552DF4F688379838A839B8323
:10577000DF91CF911F910F91FF90EF90DF90BF903D
:10578000AF909F908F9008950F931F93CF93DF93C7
:10579000EC01462F50E060E070E020E00E9473557D
:1057A0008C01CE010E945955800F911FDF91CF913E
:1057B0001F910F9108957F928F929F92AF92BF9207
:1057C000CF92DF92EF92FF920F931F93CF93DF93CD
:1057D000CDB7DEB72E970FB6F894DEBF0FBECDBFA4
:1057E0007C01162F63E376E089E69BE00E94085572
:1057F00089E69BE00E945955470187E0189F800C7D
:10580000911C112400E010E0712C6401C00ED11E27
:10581000E5E0CE1AEEEFDE0AF60160816038E9F0CD
:10582000A72CB12CC70100D7E8E0F0E0EC0FFD1F7A
:10583000EA0DFB1D8083F6016081C70101D7E1E01D
:10584000F0E0EC0FFD1FEA0DFB1D82508083739486
:10585000F601608189E69BE097DF0F5F1F4F0730FD
:10586000110599F6272DAE014F5F5F4FBE01685FAE
:105870007F4F8AE297E089DA2E960FB6F894DEBF62
:105880000FBECDBFDF91CF911F910F91FF90EF9091
:10589000DF90CF90BF90AF909F908F907F900895B2
:1058A000EF92FF920F931F93CF93DF938C0163E5E9
:1058B00076E089E69BE00E940855E801C751DD4F7C
:1058C000688189E69BE060DF68816F5F8AE297E02C
:1058D000E3DA63E476E089E69BE00E94085578010C
:1058E00084ECE81A8DEFF80AF7014081552747FD4F
:1058F0005095652F752F89E69BE00E94CF5589E66C
:105900009BE00E945955F701608162508AE297E05E
:105910009CDA6881C8014FDF488161E089E997E03E
:10592000DF91CF911F910F91FF90EF90CFCCCF934C
:10593000DF93EC018AE297E0E7DA10929A07FE0122
:10594000E35CFD4FC25CDD4F68816F5F40818AE29E
:1059500097E029D840E060E089E997E0DF91CF91B6
:10596000B5CC80919A07089560939A070895462FC1
:1059700050E060E070E020E00C9473550F931F93AB
:10598000CF93DF93EC01AB01662757FD6095762F2F
:105990000E94CF558C01CE010E945955800F911F56
:1059A000DF91CF911F910F9108951F93CF93DF93B4
:1059B000FC0120E030E069E17CEF10E872A761A70C
:1059C00074AF63AF40E050E0EC01C20FD31FDE01C3
:1059D000A40FB51FA550BE4F1C934F5F5F4F4730BC
:1059E0005105A9F73296295F3F4F2F33310531F723
:1059F000FC01E25CFD4F2FEF208331972083E255BD
:105A0000FF4F208331961082ED5AF1091082DF9109
:105A1000CF911F910895CF93DF93EC010E94DD5049
:105A2000FE01EA51FD4F6081CE010E94EE5041E03F
:105A300050E061E083E090E0DF91CF910C94FA0FA9
:105A4000CF93DF93EC01E7DFCE01AFDFCE01DF9133
:105A5000CF910C94CB42AF92BF92CF92DF92EF9254
:105A6000FF920F931F93FA0121153105B9F02130F0
:105A7000310509F047C09C01260F311D260F311D4D
:105A8000D901A751BE4F6D917C9111977B010027E1
:105A9000F7FC0095102FAC56B10911C09C01260FE0
:105AA000311D260F311DD901A157BE4F6D917C913B
:105AB00011977B010027F7FC0095102F52978D91CD
:105AC0009C919C01442737FD4095542FE817F90716
:105AD0002CF0E617F7071CF4BF0101C0BC018827B2
