:1000000037C3000064C3000062C3000060C3000087
:100010005EC300005CC300005AC3000058C3000068
:1000200056C3000054C300000C94664D0C94E34D7D
:100030004EC300004CC300004AC3000048C3000088
:1000400046C3000044C3000042C3000040C3000098
:100050003EC300000C9467153AC300000C94CA4CD0
:1000600036C300000C9498170C94C3170C94F8171F
:100070002EC300000C94812C2AC3000028C300006A
:100080000C94B01524C3000022C3000020C300005C
:10009000CAC400001CC300001F0879084309DB081C
:1000A0005A092609F408C008A9080D09FB1404150B
:1000B0000D15041522151615FB14FB141615221523
:1000C00004150D150415FB141E191E191E191E19F1
:1000D0001E19311931191E190D190D191E191E1964
:1000E0001E191E191E191E190D190D190D1976014B
:1000F0007F017F01CE01C601C201B801B101A30198
:10010000D901D501E301DD01F701FE01E901F001AB
:100110001B020F0205022B022202830277026D02EC
:10012000A602980293028E02CA02BB02B502AF0277
:10013000EC02DE02D902D40210030103FB02F50235
:100140006E03600351034B033C032B031A035A0253
:1001500048023C0234029703940392038F038D03F9
:100160008B0388038603830381037E037C039E0144
:1001700099018F018401616C6C207061647300705F
:10018000616420005265636F7264206F666600527E
:1001900065636F7264206F6E0053746F7000506CF3
:1001A0006179004D494449206368616E6E656C2039
:1001B00000437572766520004343206C696D697455
:1001C0002000434320004F63746176652000546F24
:1001D0006E6963200063637900636378005920438C
:1001E000433D00582043433D0059206D696E3D005A
:1001F00059206D61783D0058206D696E3D00582092
:100200006D61783D007769646520656E6473007781
:10021000696465206D6964646C65006C696E656114
:100220007200592063757276653D005820637572BF
:1002300076653D00746F20656469740052656C6575
:100240006173652070616400746F20656469742057
:10025000706164206E6F7465730053656C656374C0
:100260002075736572207072657365740053706CCD
:100270006974206F6666002B2066756E6374696F03
:100280006E730053706C697420582C2059005920EB
:100290006F6E0058206F6E004166746572746F75E2
:1002A0006368206F6E004E6F746573206F6E005927
:1002B000206F66660058206F66660041667465723E
:1002C000746F756368206F6666004E6F7465732087
:1002D0006F66660059206F6E0058206F6E00416691
:1002E000746572746F756368206F6E004E6F74650D
:1002F00073206F6E0059206F66660058206F666627
:10030000004166746572746F756368206F6666007D
:100310004E6F746573206F6666004D616A6F722060
:1003200050656E7461746F6E6963004D696E6F72B3
:100330002050656E7461746F6E6963004861726D00
:100340006F6E6963204D616A6F72004D616A6F72F2
:10035000004861726D6F6E6963204D696E6F720047
:100360004D656C6F646963204D696E6F72004E61FC
:10037000747572616C204D696E6F7200420041238A
:100380000041004723004700462300460045004443
:1003900023004400432300430020616674657274A7
:1003A0006F7563682076616C75653A2000506164F2
:1003B000200020666F722070616420006F66660006
:1003C0006F6E004166746572746F756368200066B5
:1003D0006F7220616C6C2070616473006F666620C0
:1003E000006F6E20004166746572746F75636820DB
:1003F0000056656C6F636974793A2000206F6666F9
:1004000021000A5061642000207072657373656476
:100410002E204E6F7465733A2000506164200053A3
:10042000706C6974205859202B2066756E6374694E
:100430006F6E730053706C69742058590053706C60
:100440006974206F66660020666F72207061642098
:10045000006F6666006F6E0020666F7220616C6CC4
:100460002070616473006F6666006F6E0020666FB7
:10047000722070616420006F6666006F6E00582005
:100480000020666F7220616C6C2070616473006F75
:100490006666006F6E0058200020666F72207061E3
:1004A0006420006F6666006F6E004E6F7465732087
:1004B0000020666F7220616C6C2070616473006F45
:1004C0006666006F6E004E6F74657320005920439E
:1004D000433A20003A20005920666F722070616410
:1004E0002000582043433A20003A20005820666FED
:1004F00072207061642000416374697665207072B7
:10050000657365743A200041637469766520707282
:100510006F6772616D3A20000129022904290829B8
:100520001029202940298029012C022C012602268D
:10053000042608261026202640268026402C802CC3
:100540000123022304230823102320234023802394
:10055000012002200420082010202020402080209C
:10056000102C202C012F022F042F082F102F202FAA
:10057000402F802F7EFE7EFD7EFB7EF77EEF7EDFAE
:100580007EBF7E7F0001000035061200020000F2EF
:10059000054300030000EE050401030904D4051817
:1005A00002030904BC051603030904AE050C0C0381
:1005B00031003200330034003500000016035500CE
:1005C0005300420020005300650072006900610082
:1005D0006C00000018035400650065006E00730095
:1005E00079006400750069006E006F00000004036C
:1005F000090409024300020100C03209040000019D
:100600000202010005240010010524010001042458
:1006100002060524060001070582030800400904BC
:100620000100020A00000007050302400000070560
:1006300084024000001201000202000020C0168364
:10064000040001010203010001C1020180360181A1
:1006500036003004F80ED512ED19E21BA428182933
:10066000EA2B78491F52040FE112B428F62B934964
:1006700011241FBECFEFD0E2DEBFCDBF16E0A0E059
:10068000B1E0E2E3FFEA00E00BBF02C007900D9289
:10069000A23CB107D9F72FE0A2ECB6E001C01D9251
:1006A000A738B207E1F716E0C6E6D6E000E006C0DC
:1006B00022970109FE010BBF0E94D056C235D10717
:1006C00080E00807A9F70E945B4F0C94885798CCEC
:1006D0008091EE0690E02091EF06821B910908952B
:1006E0002091EF068091EE06281750F4E22FF0E0FB
:1006F000E051F94F808190E02F5F2093EF0608953D
:100700008FEF9FEF0895E091EF068091EE06E817D6
:1007100030F4F0E0E051F94F808190E008958FEFE0
:100720009FEF08950895CF92DF92EF92FF920F937B
:100730001F93CF93DF937C01CB018A012091CA06DE
:10074000222389F0EB016B01C40ED51ECC15DD050B
:1007500061F06991D701ED91FC910190F081E02D5C
:10076000C7010995F3CF642F35D1C801DF91CF912F
:100770001F910F91FF90EF90DF90CF900895CF934E
:10078000DF931F92CDB7DEB769832091CA0622237B
:10079000C1F02091CB06203230F021E0FC01228311
:1007A00080E090E014C08091CC06E82FF0E0E353A5
:1007B000F94F998190838F5F8093CC068093CB060D
:1007C00004C061E0CE01019605D181E090E00F9078
:1007D000DF91CF910895FC01128248EE53E060E072
:1007E00070E0438354836583768317828EE191E0C2
:1007F0009183808308951092EF061092EE06109276
:10080000CC061092CB062FC0862F413208F040E272
:1008100060EF76E048D01092EF068093EE060895E0
:1008200021E0F2CF81E08093CA066093ED0610923A
:10083000CC061092CB0608950F93062F21E040912D
:10084000CB066DEC76E08091ED0671D01092CC066F
:100850001092CB061092CA060F91089561E0ECCF7A
:1008600082EC96E0B8CF10927D0781E080937B0701
:1008700010927A07599AE0EBF0E080818F7D8083B7
:10088000589A84B58F7D84BDE9EBF0E080818E7F3E
:10089000808380818D7F808388E48093B80085E4A5
:1008A0008093BC000895413208F03FC090917D07CD
:1008B0009111FCCF91E090937D0720937B072FEF60
:1008C0002093100710925507240F209354079093FC
:1008D0007C0790917C07880F892B80937C078091FF
:1008E0007A07813041F410927A0780917C078093D7
:1008F000BB0085EC01C085EE8093BC0080917D0734
:100900008130E1F380915507841710F44091550729
:1009100026E537E0FB01D9018A2F821B841718F4E2
:100920008D918193F9CF842F089580E008950F93DE
:10093000413208F046C090917D079111FCCF92E0C2
:1009400090937D0700937B079FEF90931007109281
:10095000550740935407FB0166E577E0DB019A2FCA
:10096000961B941718F491919D93F9CF10927C07E0
:1009700090917C07880F892B80937C0780917A0760
:10098000813041F410927A0780917C078093BB00FC
:1009900085EC01C085EE8093BC00222321F080917C
:1009A0007D078230E1F3809110078F3F61F08091E5
:1009B0001007803251F080911007803341F483E0BA
:1009C00007C081E005C080E003C082E001C084E090
:1009D0000F910895613298F420917D07243089F4B5
:1009E00060933207FC0184E397E0DC012A2F281B87
:1009F000261718F421912D93F9CF80E0089581E016
:100A0000089582E0089585ED8093BC008091BC003C
:100A100084FDFCCF10927D07089585EC8093BC0087
:100A200010927D0708951F920F920FB60F92112416
:100A30000BB60F922F933F934F935F936F937F93D8
:100A40008F939F93AF93BF93EF93FF938091B900E0
:100A5000887F803609F49CC068F5883209F45BC051
:100A600090F4803109F454C038F4882309F4F2C0BA
:100A7000883009F44DC0F1C0883109F44CC080328F
:100A800009F45DC0EAC0803409F468C048F48033DA
:100A900009F455C0883309F0E0C080931007A6C060
:100AA000803509F44FC0883509F45DC0883409F0F9
:100AB000D4C0D2C0883909F4C3C0A8F4883709F477
:100AC00067C038F4883609F463C0803709F460C021
:100AD000C4C0883809F4B4C0803909F45FC08038D4
:100AE00009F0BBC05BC0803B09F482C038F4803A97
:100AF00009F466C0883A09F47BC0AFC0803C09F4B1
:100B0000A3C0883C09F4A0C0883B09F486C0A5C0F6
:100B100080917C0710C090915507809154079817D9
:100B200070F5E091550781E08E0F80935507F0E056
:100B3000EA5AF84F80818093BB0085EC82C0809395
:100B400010078AC0E091550781E08E0F809355070A
:100B50008091BB00F0E0EA5AF84F808390915507EE
:100B6000809154076AC0E091550781E08E0F809311
:100B700055078091BB00F0E0EA5AF84F80838091DE
:100B80007B07811169C081E080937A0784EA5DC0A8
:100B900083E080937D0710921107CFCF80911107DA
:100BA000803208F04DC0E091110781E08E0F8093F4
:100BB00011078091BB00F0E0EE5EF84F8083BDCF5F
:100BC00080911107803230F4E0911107F0E0EE5E81
:100BD000F84F10826091110770E0E0917607F09174
:100BE000770782E197E009951092110716DF35C06B
:100BF00084E080937D071092330710923207E091D2
:100C00007807F0917907099580913207811105C025
:100C100081E08093320710923407E091330781E03E
:100C20008E0F80933307F0E0EC5CF84F8081809367
:100C3000BB009091330780913207981708F47DCF5D
:100C400085E88093BC0009C085EC8093BC001092BD
:100C50007D0703C010921007D6DEFF91EF91BF9180
:100C6000AF919F918F917F916F915F914F913F9144
:100C70002F910F900BBE0F900FBE0F901F901895E5
:100C8000AB01682F8EE19BE00C94EA28EF92FF9273
:100C90000F93CF93DF93C82F8DE29BE00E94913F8B
:100CA000082FC031A9F128F4C83021F1C930A1F0D2
:100CB0007AC0C131D9F1C23109F075C08DE29BE033
:100CC0000E94B73C8DE29BE00E94493AEC0134E07F
:100CD000E32EF12C66E152C08DE29BE00E948A383F
:100CE000602F8DE29BE00E946D3F882369F1CFEF7A
:100CF000D0E02CC08DE29BE00E945C29602F8DE249
:100D00009BE00E94CC29882329F1CFEFD0E024C0BA
:100D10008DE29BE00E945537602F8DE29BE00E94A0
:100D2000773F8823F1F0CFEFD0E01DC08DE29BE04C
:100D30000E94F537602F8DE29BE00E947F3F882361
:100D4000B9F0CFEFD0E016C0C0E0D0E0E12CF12C3C
:100D500062E114C0C0E0D0E0EE24E394F12C65E140
:100D60000DC0C0E0D0E092E0E92EF12C64E106C0B5
:100D7000C0E0D0E083E0E82EF12C61E1AE018EE12D
:100D80009BE00E94EA288DE29BE00E947F2FAC014D
:100D90000F5F21E0CF3FD10509F020E0B70183E3E9
:100DA0009AE00E94EB20DF91CF910F91FF90EF909E
:100DB00008953F924F925F926F927F928F929F928F
:100DC000AF92BF92CF92DF92EF92FF920F931F9359
:100DD000CF93DF937B018B01A42EB12C882E912C15
:100DE000C8018E199F098A159B050CF045C0C0E00B
:100DF000D0E0312C6C2F8DE29BE00E94FF2E8823E7
:100E000029F1C815D90511F16C2F8DE29BE00E94E4
:100E100089446C01412C512CF60161916F018DE2E6
:100E20009BE00E94613F3C01F80160818DE29BE004
:100E30000E94613F6816790611F433243394FFEF62
:100E40004F1A5F0A87E04816510431F72196C930DE
:100E5000D10581F631100DC0F80160818DE29BE073
:100E60000E94613F46E450E0BC018EE19BE00E949D
:100E700008290F5F1F4FB4CFDF91CF911F910F91C2
:100E8000FF90EF90DF90CF90BF90AF909F908F90AA
:100E90007F906F905F904F903F9008952F923F9278
:100EA0004F925F926F927F928F929F92AF92BF927A
:100EB000CF92DF92EF92FF920F931F93CF93DF9326
:100EC000CDB7DEB763970FB6F894DEBF0FBECDBFC8
:100ED000182F962EF42E222E098B3E2C682F8DE291
:100EE0009BE07A8B0E94752F7A898823F1F15E014D
:100EF00088E0A80EB11CC92CD72EFE0131964F01F7
:100F000035019F014F2C512CC50186199709841575
:100F100095051CF5D88ACF86F60161916F018DE2A7
:100F20009BE02A8B3B8B0E94613FF50181935F011F
:100F3000BC0177274FEF50E08EE19BE00E9408292B
:100F4000EF85F88960818DE29BE00E94883FF40183
:100F500081934F013B892A89D7CFE22C0F2DA30122
:100F6000612F83E39AE00E94C31E232D4989612FDC
:100F700083E39AE00E94C51D63960FB6F894DEBF26
:100F80000FBECDBFDF91CF911F910F91FF90EF90DA
:100F9000DF90CF90BF90AF909F908F907F906F9099
:100FA0005F904F903F902F900895682F83E39AE0D1
:100FB0000C94C51FEF920F93211102C0002349F03A
:100FC000E02E022F242F462F682F83E39AE00E9401
:100FD00023200F91EF90089583E39AE00C94781DFD
:100FE000CF92DF92EF920F931F93CF93DF93082F4F
:100FF000D62EC42E8DE29BE00E94C445811174C19F
:10100000C0E06C2F8DE29BE00E94FF2E81116CC12D
:10101000CF5FC930B1F78DE29BE00E94913FE82E8F
:101020008DE29BE00E947F2FEC0110E00A30110559
:1010300008F05AC1F801E45BFF4F0C94AB5664E131
:1010400080ED99E00E948C188823D1F064E180ED56
:1010500099E00E94CB196D2D8DE29BE00E946F44B8
:101060008DE29BE00E94F02D682F83E39AE0DF91F0
:10107000CF911F910F91EF90DF90CF900C945A2455
:101080006D2D8DE29BE00E94933C882309F42CC1D6
:101090008DE29BE00E94803561E0680F83E39AE077
:1010A0000E94BD1E8DE29BE00E949D35182F682F87
:1010B0008DE29BE00E942B3A882309F415C18EE152
:1010C0009BE00E94F628C0E0D0E0BE018DE29BE0EC
:1010D0000E944549882339F046E450E0BE018EE184
:1010E0009BE00E9408292196CC30D10571F7612F31
:1010F00025C06D2D8DE29BE00E94073A882309F4FC
:10110000F3C08EE19BE00E94F628C0E0D0E0BE0173
:101110008DE29BE00E944549882339F046E450E087
:10112000BE018EE19BE00E9408292196CC30D105BA
:1011300071F78DE29BE00E949D35682F83E39AE072
:10114000DF91CF911F910F91EF90DF90CF900C9492
:10115000C01E2C2D40E050E06D2D8DE29BE00E94E2
:10116000F83F6C014E2D60E070E08DE29BE00E9444
:101170005A44E394082F9E01A60160E070E016C077
:101180002C2D41E050E06D2D8DE29BE00E94F83F58
:101190006C014E2D61E070E08DE29BE00E945A44AC
:1011A000E394082F9E01A60161E070E083E39AE0DA
:1011B0000E94552299C02C2D41E050E06D2D8DE20A
:1011C0009BE00E9446416C012E2D41E050E060E022
:1011D00070E08DE29BE00E943644E394082F9E016C
:1011E000A60161E070E04AC02C2D40E050E06D2D7A
:1011F0008DE29BE00E9446416C012E2D40E050E0C4
:1012000060E070E08DE29BE00E943644E394082F9A
:101210009E01A60160E070E031C02C2D43E050E05B
:101220006D2D8DE29BE00E9446416C012E2D43E026
:1012300050E061E070E08DE29BE00E943644E39470
:10124000082F9E01A60163E070E018C02C2D42E03B
:1012500050E06D2D8DE29BE00E9446416C012E2DE9
:1012600042E050E061E070E08DE29BE00E94364495
:10127000E394082F9E01A60162E070E083E39AE008
:101280000E94C42231C021E040E050E06D2D8DE28B
:101290009BE00E944E436C014E2D60E070E08DE2B9
:1012A0009BE00E941D44E3948C019E01A60160E036
:1012B00070E016C021E041E050E06D2D8DE29BE032
:1012C0000E944E436C014E2D61E070E08DE29BE088
:1012D0000E941D44E3948C019E01A60161E070E030
:1012E00083E39AE00E943323DF91CF911F910F9106
:1012F000EF90DF90CF9008950F931F93CF93DF93DC
:10130000EC01FB0101900020E9F7AF0141505109C8
:10131000461B570BE881F9810280F381E02D099586
:101320008C01CE010E94B24F800F911FDF91CF91AF
:101330001F910F910895CF93843191F08531C1F0C1
:10134000833109F03CC06130710509F041C06AE2A7
:1013500071E088E79FE0D0DFC1E061E070E032C07B
:10136000672BB1F561E471E088E79FE0C5DF27C036
:101370006130710569F560E18EE19BE00E94EE2825
:101380008F3F910549F468E571E088E79FE0B4DF9D
:1013900080E090E0C0E00AC0009739F466E771E0B1
:1013A00088E79FE0A9DF8FEF90E0C1E0AC0160E14A
:1013B0008EE19BE00E94EA2862E070E003C0C1E099
:1013C00060E070E04C2F83E39AE0CF910C94F2211F
:1013D000CF910895FF920F931F93CF93DF93CDB7D3
:1013E000DEB7E0970FB6F894DEBF0FBECDBF61E069
:1013F0008EE19BE00E94F2288E010F5F1F4FF12CBF
:101400006F2D8EE19BE00E94EE28F801819391936D
:101410008F0140E050E06F2D8EE19BE00E94EA28B2
:10142000F394F8E1FF12ECCF8EE19BE00E94DC2800
:101430006CE87AE080E090E00E9480178E010F5FF8
:101440001F4FF12CF801419151918F016F2D8EE1C9
:101450009BE00E94EA28F394F8E1FF12F3CF64ECDA
:1014600079E080E090E00E9480176FE08EE19BE0E1
:10147000E0960FB6F894DEBF0FBECDBFDF91CF91DF
:101480001F910F91FF900C94F2288DE29BE00E9437
:10149000C44590917F07981729F080937F0781E0DA
:1014A00080937E0780917E07882371F065E080ED50
:1014B00099E00E948C18811107C066E080ED99E0E8
:1014C0000E948C18882339F081E090917E0799233F
:1014D00049F080E0089580917E0791E0892710927D
:1014E0007E07F3CF08956F927F928F929F92AF9273
:1014F000BF92CF92DF92EF92FF920F931F93CF9301
:10150000DF93CDB7DEB72E970FB6F894DEBF0FBED0
:10151000CDBF682F8DE29BE00E9489445C01CE0123
:1015200001966C013E019FE0690E711C8E01085FFF
:101530001F4F76014501F50161915F018DE29BE04E
:101540000E94613FF80181938F01F40160818DE277
:101550009BE00E94883FF60181936F0106151705F5
:1015600049F700E010E040E050E0B8018EE19BE078
:101570000E9408290F5F1F4F0C301105A1F7CE0103
:1015800008966C0100E010E0F60181916F018C304B
:1015900039F046E450E0B8018EE19BE00E94082952
:1015A0000F5F1F4F0730110579F7CE0108966C01C8
:1015B00000E010E0F60181916F018C3089F0F701B5
:1015C000E00FF11FB0808DE29BE00E94683DB812F1
:1015D00007C04FEF50E0B8018EE19BE00E94082960
:1015E0000F5F1F4F0730110529F72E960FB6F8949D
:1015F000DEBF0FBECDBFDF91CF911F910F91FF9046
:10160000EF90DF90CF90BF90AF909F908F907F90A2
:101610006F9008956F927F928F929F92AF92BF9238
:10162000CF92DF92EF92FF920F931F93CF93DF93AE
:10163000CDB7DEB761970FB6F894DEBF0FBECDBF52
:10164000782E682F8DE29BE00E9489448E01085F0E
:101650001F4F6C01CE0101967C014E019FE0890E67
:10166000911C602E712FA7015601F60161916F0147
:101670008DE29BE0488B598B7F870E94613FF80188
:1016800081938F01F50160818DE29BE00E94883F8C
:10169000F70181937F01488959897F8508151905CC
:1016A00019F7662D83E39AE00E94AF25872D1BDF93
:1016B00061960FB6F894DEBF0FBECDBFDF91CF911C
:1016C0001F910F91FF90EF90DF90CF90BF90AF9060
:1016D0009F908F907F906F900895EF92FF920F935D
:1016E0001F93CF93DF9300D0CDB7DEB7BC018DE25F
:1016F0009BE069837A830E94C44569817A81811164
:1017000038C08DE29BE00E94A2488C018130910597
:10171000A1F08DE29BE00E946C48282F40E050E051
:10172000B80183E39AE00F900F90DF91CF911F9162
:101730000F91FF90EF900C94AD238EE19BE00E94FF
:10174000F628E12CF12CB7018DE29BE00E9445497F
:10175000882339F046E450E0B7018EE19BE00E9417
:1017600008298FEFE81AF80AECE0EE16F10459F7B1
:10177000D0CF8DE29BE00E94C745BC0183E39AE095
:101780000E941C268DE29BE00E94913F0F900F90DB
:10179000DF91CF911F910F91FF90EF903BCFCF93AF
:1017A000C82F61E0680F83E39AE00E94A0248C2F89
:1017B00031DF8DE29BE00E94683D682F83E39AE071
:1017C000CF910C948925CF93DF9383E39AE00E9415
:1017D000F32460E08DE29BE00E94C145C0E0D0E0D0
:1017E000BE018EE19BE00E9410298F3F910539F4E4
:1017F00046E450E0BE018EE19BE00E94082921965C
:10180000CC30D10569F7DF91CF9108951F93CF9325
:10181000DF93C82FD62F65E080ED99E00E948C18E9
:101820008823D9F166E080ED99E00E948C18882326
:10183000A1F18DE29BE00E949D35873008F43FC006
:101840008DE29BE00E94C44511E0682F61278DE284
:101850009BE00E94C1458DE29BE00E94C445882325
:1018600061F18DE29BE00E94913F682F8DE29BE049
:101870000E94FF2E8823D9F061E070E083E39AE0B4
:101880000E942A2502DE8DE29BE00E94C445682F5B
:1018900061278DE29BE00E94C1458DE29BE00E94A2
:1018A000C445811129C0F1DD811131C025C08DE20F
:1018B0009BE00E94913F73DFF0CF85DFEECF8DE29A
:1018C0009BE00E94C44511E0682F61278DE29BE0F8
:1018D0000E94C145DADD8DE29BE00E94C445682F7D
:1018E00061278DE29BE00E94C14560E070E083E3E8
:1018F0009AE00E942A25D1CF8DE29BE00E94C44548
:10190000882309F474C0C1DD81114BC070C064E14B
:1019100080ED99E00E948C18811114C0D11167C02C
:1019200061E0C11101C060E08DE29BE00E94E93CF2
:10193000EC018DE29BE00E94683D282F41E050E0E1
:10194000BE0128C0DD2309F452C08DE29BE00E9455
:10195000913F682F8DE29BE00E94FF2E882349F083
:1019600061E070E083E39AE0DF91CF911F910C94E6
:101970002A2564E180ED99E00E94CB1961E0C11154
:1019800001C060E08DE29BE00E94B247BC012C2FB9
:1019900042E050E083E39AE0DF91CF911F910C94F5
:1019A000AD238DE29BE00E94913F682F8DE29BE08A
:1019B0000E94FF2E8111D4CFD11119C061E0C11155
:1019C00001C060E08DE29BE00E94AC458DE29BE0AF
:1019D0000E94913F88DD8DE29BE00E94683D682F68
:1019E00083E39AE0DF91CF911F910C948925DF91D9
:1019F000CF911F91089560E476E08DE29BE00E9414
:101A0000AB496EE477E08DE29BE00E949F4969ED6F
:101A100076E08DE29BE00E94A3496AED77E08DE2DB
:101A20009BE00E949B496CEE77E08DE29BE00E9478
:101A3000AF4965ED77E08DE29BE00E94A7496FEC2E
:101A40007BE08DE29BE00C94B34966E476E080EDA8
:101A500099E00E94BB1966E07CE080ED99E00E946D
:101A6000BF196DE67BE080ED99E00E94C3196BE938
:101A700079E080ED99E00C94C71960EF77E089E098
:101A80009AE00C94DE1BB7DFE0DFF7CFCF93DF9354
:101A90008EE897E06DD580E698E00E9419178BE6F6
:101AA0009FE00E94F84A83E39AE00E94AF1C8EE117
:101AB0009BE00E94CD288DE29BE00E94743C80ED6B
:101AC00099E00E94F01989E09AE00E94861B8DE25D
:101AD0009BE00E948035D82F8DE29BE00E949D35CF
:101AE000C82F61E06D0F83E39AE00E94BD1E6C2F4A
:101AF00083E39AE00E94C01E8EE19BE00E94F628DC
:101B0000C0E0D0E0BE018DE29BE00E944549882301
:101B100039F046E450E0BE018EE19BE00E940829C6
:101B20002196CC30D10571F7DF91CF9153CC40E0B5
:101B300056E960E070E088E79FE00E94B751A3DFBC
:101B4000A5DF46EA51E060E08DE29BE00E94902F25
:101B500046EA51E061E08DE29BE00E94902F46EA68
:101B600051E062E08DE29BE00E94902F4CEC51E04E
:101B700063E08DE29BE00E94902F46EA51E064E032
:101B80008DE29BE00E94902F46EA51E065E08DE2F5
:101B90009BE00E94902F46EA51E066E08DE29BE0D8
:101BA0000E94902F46EA51E067E08DE29BE00E94A0
:101BB000902F46EA51E068E08DE29BE00E94902F72
:101BC0004AE352E060E08DE29BE00E94BD2F4AE3D1
:101BD00052E061E08DE29BE00E94BD2F4AE352E0BB
:101BE00062E08DE29BE00E94BD2F48E552E063E099
:101BF0008DE29BE00E94BD2F4AE352E064E08DE25B
:101C00009BE00E94BD2F4AE352E065E08DE29BE03D
:101C10000E94BD2F4AE352E066E08DE29BE00E9405
:101C2000BD2F45E352E067E08DE29BE00E94BD2FAF
:101C30004AE352E068E08DE29BE00E94BD2F42EC57
:101C400051E060E08DE29BE00E94EA2F42EC51E01F
:101C500061E08DE29BE00E94EA2F42EC51E062E0FD
:101C60008DE29BE00E94EA2F4EEC51E063E08DE2B2
:101C70009BE00E94EA2F42EC51E064E08DE29BE0A1
:101C80000E94EA2F42EC51E065E08DE29BE00E9469
:101C9000EA2F42EC51E066E08DE29BE00E94EA2FE1
:101CA00042EC51E067E08DE29BE00E94EA2F42ECBB
:101CB00051E068E08DE29BE00E94EA2F44E652E0AA
:101CC00060E08DE29BE00E94173044E652E061E064
:101CD0008DE29BE00E94173044E652E062E08DE224
:101CE0009BE00E94173047E652E063E08DE29BE004
:101CF0000E9417304FE352E064E08DE29BE00E94C7
:101D0000173044E652E065E08DE29BE00E94173018
:101D100044E652E066E08DE29BE00E94173042E626
:101D200052E067E08DE29BE00E94173042E652E00D
:101D300068E08DE29BE00C941730CF93DF93CDB732
:101D4000DEB727970FB6F894DEBF0FBECDBF8DE28A
:101D50009BE00E94504780ED99E00E94231B89E0A0
:101D60009AE00E94871B83E39AE00E94FA2663E1CF
:101D700080ED99E00E948C18C6D5882381F165E931
:101D800071E0CE0101960E94E152BE016F5F7F4F6C
:101D900083E39AE00E945F26CE0101960E947C5266
:101DA0008EE19BE00E94DC2883E39AE00E94FA2601
:101DB00080ED99E00E94231B64E180ED99E00E9490
:101DC0008C188823A9F38EE19BE00E94CE2862E361
:101DD00070E080E090E00E9480170E94A44C27965B
:101DE0000FB6F894DEBF0FBECDBFDF91CF9108953F
:101DF00069EA71E087E897E00E94E15262ED71E0E4
:101E000080E897E00C94E15280E897E00E947C52D1
:101E100087E897E00C947C52DB010D900020E9F7F5
:101E2000AD0141505109461B570BDC01ED91FC916E
:101E30000280F381E02D09940F931F93CF93DF93DA
:101E4000EC01AB0160E070E020E00E94CC4F8C011F
:101E5000CE010E94B24F800F911FDF91CF911F9151
:101E60000F910895CF93DF93C0E0D0E06FEFCE01E4
:101E70000E9441572196C11580E1D807B9F7DF913B
:101E8000CF910895FC0184E0808381E090E0908F01
:101E9000878B94A783A72EEB30E0328F218F96A7F4
:101EA00085A728E334E0348F238F90AB87A722EDFA
:101EB00030E0368F258F92AB81AB21E027AFDF0179
:101EC000AA5ABF4F26E732E011963C932E935496C0
:101ED00011969C938E93549686E08C93579629E0A6
:101EE00030E011963C932E93549682E090E0119648
:101EF0009C938E93529711963C932E9354961196E1
:101F00009C938E93529711963C932E9354961196D0
:101F10009C938E93529711963C932E9354961196C0
:101F20009C938E93529711963C932E9354961196B0
:101F30009C938E9352972D933C93ED54FF4F918336
:101F4000808308952F923F924F925F926F927F927B
:101F50008F929F92AF92BF92CF92DF92EF92FF92B9
:101F60000F931F93CF93DF934C0188E79FE00E946C
:101F7000B24F6BED71E088E79FE0BED988E79FE044
:101F80000E94B24F8401C12CD12C7601160164E06D
:101F900072E088E79FE040DFB701A60188E79FE095
:101FA0000E94285088E79FE00E94B24FE8012196E6
:101FB000412C512C32015201F8012081822F90E0F6
:101FC000481659060CF053C064E172E088E79FE0C0
:101FD00023DFB301A20188E79FE00E9428506DE152
:101FE00072E088E79FE018DFAB2821F4F801148243
:101FF000138231C088A599A581309105E9F082301E
:102000009105F9F0892B39F58C899D8963E09695C6
:1020100087956A95E1F728813981820F931F2E8970
:102020003F892770332741E050E0232B11F440E033
:1020300050E0840F951F0DC0888199812C893D89BE
:1020400006C08C899D89880F991F28813981820F4C
:10205000931F9B838A836A817B8188E79FE0ECDE04
:102060002296FFEF4F1A5F0A6F0A7F0AA4CF8FEF05
:10207000820F9FE3929DF001939DF00D1124E80FD4
:10208000F11DE80FF11DE80DF91D83A594A5813020
:102090009105D1F082309105D1F0892B09F527897E
:1020A000308DC90143E0969587954A95E1F74381C4
:1020B0005481840F951F27703327C1E0D0E0232B74
:1020C00061F4C0E0D0E009C0C789D08D04C0C789E1
:1020D000D08DCC0FDD1F83819481C80FD91F02C022
:1020E000C0E0D0E069E272E088E79FE095DEAE01F3
:1020F00060E070E020E088E79FE00E94CC4F6EE354
:1021000072E088E79FE0F8D888E79FE00E94B24F2E
:10211000E2E02E16310449F0F801818192818C0FA2
:102120009D1FE05CFF4F91838083FFEFCF1ADF0A92
:10213000EF0AFF0A015C1F4F83E0C816D104E104D7
:10214000F10409F023CF65E472E088E79FE0D4D87A
:10215000E401C12CD12C76016EE672E088E79FE0A5
:102160005BDEB701A60188E79FE00E94285065E783
:1021700072E088E79FE050DE69817A8188E79FE01E
:102180005BDE9FEFC91AD90AE90AF90AEF96E3E084
:10219000CE16D104E104F104F9F665E472E088E7B3
:1021A0009FE0DF91CF911F910F91FF90EF90DF9013
:1021B000CF90BF90AF909F908F907F906F905F90E7
:1021C0004F903F902F9098C84F925F926F927F925E
:1021D0008F929F92AF92BF92CF92DF92EF92FF9237
:1021E0000F931F93CF93DF938C01FC01E180F2806A
:1021F0008381948160E08E0D9F1D0E944157C12C08
:10220000D12CF801C581D681CE0DDF1DCC0DDD1D91
:10221000E5ED8E2EE2E09E2EA12CB12CF401619111
:102220004F01C5018C0F9D1F0E944157FFEFAF1A50
:10223000BF0A83E1A816B10489F7E3E1CE0ED11CF1
:10224000FEEBCF16D104E9F6C12CD12CF801C781E1
:10225000D085CE0DDF1DCC0DDD1D412C512C320162
:102260006C0E7D1E79EC872E72E0972EA12CB12C7E
:10227000F40161914F01C501860D971D0E944157E0
:10228000FFEFAF1ABF0A8CE0A816B10489F7ECE0A3
:102290004E0E511CFCE64F16510409F78CE6C80E91
:1022A000D11CE8E3CE16E4E0DE0681F6C12CD12C89
:1022B000F801C185D285CE0DDF1DCC0DDD1DA12C11
:1022C000B12C64E0CE010E94415760E0CE0101963E
:1022D0000E94415760E0CE0102960E944157FFEFF5
:1022E000AF1ABF0A239687E0A816B10451F7E5E1BB
:1022F000CE0ED11CF2EDCF16D104D1F6DF91CF91E5
:102300001F910F91FF90EF90DF90CF90BF90AF9013
:102310009F908F907F906F905F904F9008958F92D5
:102320009F92AF92BF92CF92DF92EF92FF920F9364
:102330001F93CF93DF93FC01E05CFF4FA080B1803F
:10234000E12CF12C4C0122E4820E911CF401C0819D
:10235000D181CA0DDB1DCE0DDF1DC12CD12C00E0BB
:1023600010E00115110519F460E3CE0104C060E826
:10237000C8018C0F9D1F0E9441570F5F1F4F0730F0
:10238000110579F7FFEFCF1ADF0A279629E0C21669
:10239000D10429F78FE3E80EF11CE6E7EE16E2E040
:1023A000FE06A1F6DF91CF911F910F91FF90EF9064
:1023B000DF90CF90BF90AF909F908F900895CF9275
:1023C000DF92EF92FF920F931F93CF93DF93EC0175
:1023D000FC01E158FF4F00811181E12CF12C6C01CF
:1023E00081E8C80ED11CF60180819181800F911F78
:1023F00063E270E08E0D9F1D0E945357F2E0EF0ED6
:10240000F11C82E1E816F10471F7E12CF12C6E0168
:10241000E3E8CE0ED11CF60180819181800F911FDF
:102420006EE571E08E0D9F1D0E945357F2E0EF0E96
:10243000F11C82E1E816F10471F7E12CF12C6E0138
:10244000E5E8CE0ED11CF60180819181800F911FAD
:1024500064EA71E08E0D9F1D0E945357F2E0EF0E6B
:10246000F11C82E1E816F10471F7E12CF12C6E0108
:10247000E7E8CE0ED11CF60180819181800F911F7B
:1024800064E372E08E0D9F1D0E945357F2E0EF0E41
:10249000F11C82E1E816F10471F7E12CF12C6E01D8
:1024A000E9E8CE0ED11CF60180819181800F911F49
:1024B00062EC71E08E0D9F1D0E945357F2E0EF0E0B
:1024C000F11C82E1E816F10471F7E12CF12CC557FB
:1024D000DF4F88819981800F911F68E572E08E0D32
:1024E0009F1D0E945357E2E0EE0EF11CF2E1EF1641
:1024F000F10479F7DF91CF911F910F91FF90EF9049
:10250000DF90CF900895EC015FDECE0108DFCE01B1
:1025100056DFFFCFEC0160E080E0EED186E892E08C
:102520007CD113E360E081E1E7D1812F74D168EEC3
:1025300073E080E090E0E4D41150103399F769D152
:1025400060E080E0D9D187E992E067D161E080E086
:10255000D3D188EA92E061D161E080E0CDD186EB11
:1025600092E05BD1CE01CFDFEC017CDCCE01D2DF8B
:10257000CF93DF93EC0186DCCE01E4DC8DEF9FE0AE
:102580000E943457863161F48EEF9FE00E943457E9
:10259000863131F48FEF9FE00E943457863111F07D
:1025A000CE01E2DFDF91CF91089569EA71E082E523
:1025B00098E00E94E15262ED71E08BE498E00C94A7
:1025C000E1528BE498E00E947C5282E598E00C9402
:1025D0007C525C9808955C9A08954F925F926F9236
:1025E0007F928F929F92AF92BF92CF92DF92EF92A3
:1025F000FF920F931F93CF93DF931F92CDB7DEB758
:10260000882319F0898397D089819091590899235B
:1026100031F03AE13A95F1F700C010925908882359
:1026200029F02F9A81E08093590801C02F985A9A77
:102630006898579856985598CEDF82E08A95F1F7BA
:1026400000C069B079B099B08CB0C3DF92E09A95C0
:10265000F1F700C0C0DFE2E0EA95F1F700C099B100
:1026600089B129B13CB130FB442440F8512C33E00E
:10267000440C551C3A95E1F795FBAA24A0F8B12C1F
:102680004A285B2886FBCC24C0F8D12CCC0CDD1C5E
:102690004C285D28332727FD30952227330F221F32
:1026A0003327220F331F220F331F422A532A65FA82
:1026B000EE24E0F8F12C74E0EE0CFF1C7A95E1F7C3
:1026C00076FA002700F910E0E5E0000F111FEA9507
:1026D000E1F70E29282D279522272795202B892DD4
:1026E000992787FD90958827990F881F9927A6E03D
:1026F000880F991FAA95E1F7282B422A6ADF689A6A
:10270000579A569A559A709A5F9A5E9A5D9A5A9815
:10271000842D0F90DF91CF911F910F91FF90EF903B
:10272000DF90CF90BF90AF909F908F907F906F90F1
:102730005F904F900895CF93DF93C1EDD3E080E099
:102740004CDF87FF02C02197D1F7DF91CF91089529
:102750001F93CF93DF931F92CDB7DEB7182F6983F6
:10276000EADF809159086981882331F08AE18A95EE
:10277000F1F700C010925908662329F02F9A81E0E2
:102780008093590803C02F981092590817FF02C070
:10279000709A01C0709816FF02C05F9A01C05F98DE
:1027A00015FF02C05E9A01C05E9814FF02C05D9AD8
:1027B00001C05D9800C00FDFE2E0EA95F1F700C0CC
:1027C00008DF13FF02C0709A01C0709812FF02C0A8
:1027D0005F9A01C05F9811FF02C05E9A01C05E98C7
:1027E00010FF02C05D9A01C05D9800C0F4DEF2E007
:1027F000FA95F1F700C0EDDE709A5F9A5E9A5D9AE5
:102800000F90DF91CF911F91089560E0A1CF805884
:10281000FCCF81E0FACF61E09BCFCF93DF93EC0157
:102820008991882311F0F7DFFBCFDF91CF910895D5
:10283000549A279A529A689A579A569A559AC9DE84
:102840002F985A98709A5F9A5E9A5D9A8FE59AEEE1
:102850000197F1F700C0000070985F9800C0BBDEE0
:1028600092E09A95F1F700C0B4DE8FE090E4019712
:10287000F1F700C00000AFDE92E09A95F1F700C0DA
:10288000A8DE8FE891E00197F1F700C00000A3DE19
:1028900092E09A95F1F700C09CDE85ED8A95F1F7FC
:1028A00000005D9800C097DE92E09A95F1F700C0B5
:1028B00090DE85ED8A95F1F700005D9800C08BDE13
:1028C00092E09A95F1F700C084DE82E08A95F1F7F4
:1028D00000C0709A00C07FDE92E09A95F1F700C0C8
:1028E00078DE85ED8A95F1F7000088E08EDF91DFD4
:1028F00086E08BDF8CE089CFE62FF0E0E851FD4FDA
:102900009081890F84CF0F931F93813021F580919F
:102910005E0881110CC081E080935E08E5D260936F
:102920005A0870935B0880935C0890935D08DCD232
:1029300000915A0810915B0820915C0830915D0865
:10294000601B710B820B930B21E0693B7B4081057F
:10295000910520F402C010925E0820E0822F1F91A2
:102960000F910895EF92FF920F931F93CF93DF93F0
:10297000A82FB0E07D01EE0CFF1CE701C154D74F3A
:102980000990D881C02D1881E701C555D74F09900E
:10299000D881C02D9881ED01C956D74F88819823E1
:1029A000FD01E357F74F808183709D01220F331F94
:1029B000220F331FA9014B59574FEA014881598112
:1029C0006A817B81AF55B74FAC911A2309F08460BF
:1029D00091118860A82FB0E0B595A795B595A795FA
:1029E000A08390E001978E30910560F58A5A9F4F41
:1029F000FC010C94AB56E901CB59D74FDB01CA015E
:102A00000196A11DB11D1AC0E901CB59D74FDB01B9
:102A1000CA010197A109B10911C0E901CB59D74FEA
:102A2000DB01CA010296A11DB11D08C0E901CB5905
:102A3000D74FDB01CA010297A109B10988839983A5
:102A4000AA83BB83D901AB59B74F8D919D910D904E
:102A5000BC91A02D84179507A607B707C9F08C0174
:102A60009D010370112722273327012B022B032BF3
:102A700079F4F701ED52F74F481759076A077B07BA
:102A80001CF48FE790E002C081E090E091838083A6
:102A9000DF91CF911F910F91FF90EF90089580FFEC
:102AA00002C0299A01C0299890E09C01359527958C
:102AB00020FF02C02A9A01C02A989595879595957E
:102AC000879580FF02C02B9A08952B9808951F9236
:102AD0000F920FB60F9211240BB60F922F933F93C4
:102AE0004F935F936F937F938F939F93AF93BF9316
:102AF000CF93EF93FF9320915F08222399F0809169
:102B0000610890916208A0916308B09164080196F1
:102B1000A11DB11D8093610890936208A093630882
:102B2000B093640881E0822780935F08C0E08C2F17
:102B300019DFCF5FCA30D9F7FF91EF91CF91BF91E5
:102B4000AF919F918F917F916F915F914F913F9145
:102B50002F910F900BBE0F900FBE0F901F901895E6
:102B60001F920F920FB60F9211240BB60F922F9354
:102B70003F934F935F936F937F938F939F93AF9305
:102B8000BF93CF93EF93FF932C988091B0008F77F2
:102B90008093B0002D98809180008F778093800083
:102BA0002E98809180008F7D8093800080914709CE
:102BB00076DFA0E0B0E06FEF70E0809147098B0F07
:102BC00090E0880F991FFC01E95EF64F208131816A
:102BD000FC01E951F74F40815181452B21F14081A2
:102BE0005181A13059F0A23099F0249A4093B3005A
:102BF0004091B00040684093B00015C0259A552719
:102C0000509389004093880040918000406809C03B
:102C1000269A552750938B0040938A00409180005C
:102C2000406240938000FC01E951F74F408151819F
:102C30004217530744F4C0910401408151814C0F65
:102C4000511D51834083FC01E951F74F408151816F
:102C50004F3F510519F014F0718360832115310540
:102C600019F02634310599F4C0910401FC01E951B1
:102C7000F74F408151814C1B5109518340832634C9
:102C8000310529F44081518146345105D4F0FC01CD
:102C9000E951F74F8081918197FF02C01182108224
:102CA000B85FAF5FB83109F088CF809147098F5F77
:102CB0008093470980914709883031F41092470981
:102CC00003C031832083E3CFFF91EF91CF91BF9178
:102CD000AF919F918F917F916F915F914F913F91B4
:102CE0002F910F900BBE0F900FBE0F901F90189555
:102CF000E62FF0E0EE0FFF1FE95EF64F8081918135
:102D00000895F894E62FF0E0EE0FFF1FE95EF64F0E
:102D10005183408378940895E62FF0E0EE0FFF1F73
:102D2000ED52F74F80819181118210820895F894BD
:102D300060930401789408951F93CF93DF9300D09C
:102D4000CDB7DEB7122F842F4A8369830E947F4B51
:102D5000812F0E947F4B698170E04A8150E0440FCF
:102D6000551FFA01E75EFA4FE491DB01AA0FBB1F82
:102D7000A154B74FF0E0ED93FC93FA01E85EFA4FEF
:102D80004491DB01AF55B74F4C93212F30E0220F18
:102D9000331FF901E75EFA4FE491DB01AA0FBB1F75
:102DA000A555B74FF0E0ED93FC93F901E85EFA4FBB
:102DB0002491DB01A956B74F2C93FB01EE0FFF1FA7
:102DC000EE0FFF1FEB59F74F108211821282138210
:102DD0008FE39FE10197F1F700C00000CB01880F5E
:102DE000991FFC01E154F74F0190F081E02D3081F3
:102DF000FB01EF55F74F2081322321E0FB01E9561B
:102E0000F74F311101C020E0DC01A555B74F0D90FF
:102E1000BC91A02D8C919081892309F02260FB0147
:102E2000E357F74F20830F900F90DF91CF911F91C1
:102E30000895DF92EF92FF920F931F93CF93DF934A
:102E40007C01F894109290001092910010929500DD
:102E500010929400809191008860809391008091FD
:102E600091008460809391008EE590E090939900AA
:102E70008093980080918100887F81608093810099
:102E80008091B100887F81608093B10014BC15BC33
:102E900016BC84B5826084BD85B5836085BD8CE732
:102EA00087BD8091710082608093710080916E0077
:102EB000826080936E0078940CEE12E0C6EFD2E050
:102EC000D12CF80121918F0149916D2DC70134DF7B
:102ED000D394FAE0DF12F5CFDF91CF911F910F91DC
:102EE000FF90EF90DF9008952FB7F89460916108FC
:102EF0007091620880916308909164082FBF0895D3
:102F00000F931F9300E010E098010617170728079A
:102F1000390759F0EFE9FFE03197F1F700C0000001
:102F20000F5F1F4F2F4F3F4FF0CF1F910F9108950D
:102F30001F920F920FB60F9211240BB60F922F9380
:102F40008F939F93EF93FF939091CE0080914F09C1
:102F50008F5F803408F080E020914E09821739F0AD
:102F6000E82FF0E0E05BF64F908380934F09FF91EC
:102F7000EF919F918F912F910F900BBE0F900FBEED
:102F80000F901F9018951F920F920FB60F92112459
:102F90000BB60F928F939F93EF93FF9390914D09F0
:102FA00080914C0998130AC080914A09811102C08E
:102FB00088E401C088ED8093C9000FC080914C095E
:102FC0008F5F803408F080E0E82FF0E0E057F64FA4
:102FD00090819093CE0080934C09FF91EF919F9147
:102FE0008F910F900BBE0F900FBE0F901F901895F2
:102FF0001F920F920FB60F92112410924B090F904F
:103000000FBE0F901F901895CF92DF92EF92FF9214
:103010000F93CF936A017B01C22F20934A0900933B
:103020004909CB01BA0196958795779567956058C0
:103030007B47814E9F4FA70196010E946D56B901B3
:1030400061707727672B41F0213060E1360724F467
:1030500082E08093C80004C01092C800359527957F
:10306000215031093093CD002093CC008091C900CC
:1030700083FD1AC010924F0910924E0910924D090B
:1030800010924C0910924B0986E08093CA00CC2321
:1030900031F0002311F088ED05C080E903C0002362
:1030A00019F088E48093C900CF910F91FF90EF90C1
:1030B000DF90CF900895DC01ED91FC910190F081BB
:1030C000E02D0994FC0110AA11AA12AA13AA14A6B1
:1030D00015A616A617A6108611861286138614AAA0
:1030E0004FEF5FEFBA0145AB56AB67AB70AF80E017
:1030F00090E020EFDF01A80FB91F1C962C930196DA
:1031000080329105B9F711821082158214821782DC
:103110001682138212820895FC0184A595A5A6A5A6
:10312000B7A504C0B695A795979587956A95D2F7E8
:1031300081700895406FFC01E60FF11D9485990F91
:10314000942B948781E0903F21F09F3F11F080E025
:10315000089508950F931F93FC01862F04A515A5CC
:1031600026A537A5442381F041E050E060E070E0FF
:1031700004C0440F551F661F771F8A95D2F7402B56
:10318000512B622B732B13C041E050E060E070E0E4
:1031900004C0440F551F661F771F8A95D2F74095CC
:1031A000509560957095402351236223732344A763
:1031B00055A766A777A71F910F910895CF92DF9229
:1031C000EF92FF920F931F93CF93DF93EC01F62EB4
:1031D000E42E0CA51DA52EA53FA5062E04C03695F0
:1031E0002795179507950A94D2F701701127222782
:1031F0003327401709F4B6C0ADDFEE2091F10F2D53
:1032000010E00331110568F5F801EC59FF4F0DA9E5
:103210001EA92FA938AD0C94AB560F2C04C03695BF
:103220002795179507950A94D2F700FF1AC06E2DBF
:1032300070E0E881F9818F2D099513C0EF2DF0E042
:10324000E050FD4F80810F2C04C0369527951795CF
:1032500007950A94D2F700FF04C0EE81FF8190E049
:1032600009950DA91EA92FA938AD86E0F816E1F041
:103270008F1520F085E0F81631F038C08DEE8F0DF7
:10328000833020F133C055E0369527951795079583
:103290005A95D1F700FF2AC061E0E11001C060E05B
:1032A000EC81FD8180E010C046E0369527951795AA
:1032B00007954A95D1F700FF19C061E0E11001C000
:1032C00060E0EC81FD8181E0099510C00F2C04C005
:1032D00036952795179507950A94D2F700FF06C0F3
:1032E0006E2D70E0EA81FB818F2D099580E090E0E2
:1032F000C12CD12C7601C3940DA91EA92FA938ADDC
:10330000B901A801082E04C0769567955795479591
:103310000A94D2F740FD0EC04CA55DA56EA57FA511
:10332000082E04C076956795579547950A94D2F76D
:1033300040FF05C0019680329105F1F613C0B70138
:10334000A601082E04C0440F551F661F771F0A945C
:10335000D2F7402B512B622B732B4DAB5EAB6FAB77
:1033600078AFE8CFDF91CF911F910F91FF90EF9051
:10337000DF90CF900895FC01718360830895FC0174
:10338000758364830895FC01778366830895FC0147
:103390007383628308950F931F93262F41E050E0BB
:1033A00060E070E004C0440F551F661F771F2A9528
:1033B000D2F74095509560957095FC0105A916A926
:1033C00027A930AD042315232623372305AB16ABDD
:1033D00027AB30AF1F910F91089580ED99E072CE29
:1033E00082EC96E00E94FB0361E282EC96E00E9490
:1033F000120460E082EC96E00E94BF036FEF70E081
:1034000082EC96E058DE82EC96E00E942E0461E2A7
:1034100082EC96E00E94120461E082EC96E00E9449
:10342000BF036FEF70E082EC96E045DE82EC96E041
:103430000E942E0460E282EC96E00E94120460E09A
:1034400082EC96E00E94BF036FEF70E082EC96E0A2
:1034500032DE82EC96E00E942E0460E282EC96E07E
:103460000E94120461E082EC96E00E94BF036FEFBD
:1034700070E082EC96E01FDE82EC96E00E942E0463
:1034800061E282EC96E00E9412046CE082EC96E02D
:103490000E94BF036FEF70E082EC96E00CDE82ECDE
:1034A00096E00E942E0461E282EC96E00E941204F3
:1034B0006DE082EC96E00E94BF036FEF70E082EC5B
:1034C00096E0F9DD82EC96E00E942E0460E282EC48
:1034D00096E00E9412046CE082EC96E00E94BF032A
:1034E0006FEF70E082EC96E0E6DD82EC96E00E9401
:1034F0002E0460E282EC96E00E9412046DE082EC01
:1035000096E00E94BF036FEF70E082EC96E0D3DD9F
:1035100082EC96E00C942E04CF93DF93EC01888527
:103520009985AA85BB85BA2FA92F982F88278887C8
:103530009987AA87BB87ECA9F0E0E05FFC4F608128
:1035400082EC96E00E94120462E182EC96E00E9416
:10355000BF0382EC96E00E942E04ECA9F0E0E05F4D
:10356000FC4F608170E041E050E082EC96E00E9408
:10357000100482EC96E00E946803892BD1F382EC60
:1035800096E00E947003AA2797FDA095BA2F488560
:1035900059856A857B85842B952BA62BB72BBA2F53
:1035A000A92F982F882788879987AA87BB8782ECBD
:1035B00096E00E942E04ECA9F0E0E05FFC4F6081F1
:1035C00082EC96E00E94120463E182EC96E00E9495
:1035D000BF0382EC96E00E942E04ECA9F0E0E05FCD
:1035E000FC4F608170E041E050E082EC96E00E9488
:1035F000100482EC96E00E946803892BD1F382ECE0
:1036000096E00E947003AA2797FDA095BA2F4885DF
:1036100059856A857B85482B592B6A2B7B2B4887DC
:1036200059876A877B8782EC96E00E942E048CA9DA
:103630008F5F823019F08CAB80E002C01CAA81E061
:10364000DF91CF910895CF92DF92EF92FF920F9387
:103650001F93CF93DF93EC0147DCC8A8D9A8EAA851
:10366000FBA86C197D098E099F09643071058105DD
:10367000910588F1CE0150DF882341F100E010E090
:10368000C884D984EA84FB84002E04C0F694E794AD
:10369000D794C7940A94D2F781E0C822DD24EE249F
:1036A000FF2481E0C8264C2D602FCE0143DD882306
:1036B00021F04C2D602FCE0181DD0F5F1F4F0032B6
:1036C0001105F1F6188619861A861B860DDC68AB83
:1036D00079AB8AAB9BABDF91CF911F910F91FF909C
:1036E000EF90DF90CF90089520E030E0FC01E20FF2
:1036F000F31F12821382148215822C5F3F4F2832EF
:103700003105A1F7FC0111821082089508956F928E
:103710007F928F929F92AF92BF92DF92EF92FF9231
:103720000F931F93CF93DF931F92CDB7DEB77C012A
:103730003C01D12C6D2D80E698E0EEDA8C010097EB
:1037400039F1D2DBD30112968D909D90AD90BC9053
:103750001597681979098A099B09653671058105EC
:10376000910510F041E001C045E04983BDDBF30164
:103770006283738384839583D701ED91FC914981A2
:103780000130110511F460E001C061E08D2D099553
:10379000D394B4E06B0E711CEAE0DE12CBCF0F9035
:1037A000DF91CF911F910F91FF90EF90DF90BF902D
:1037B000AF909F908F907F906F900895FC017183E0
:1037C0006083089589E09AE08FCFCF93DF9386EFEF
:1037D0009AE00E947C528FEE9AE00E947C5283ED28
:1037E0009AE0892B29F487EB9AE0892B91F41BC08E
:1037F00088EE9AE00E947C5281EE9AE00E947C5210
:103800008AED9AE00E947C5283ED9AE00E947C52FD
:10381000EACFC3EDDAE02797CE010E947C528AE01E
:10382000C73BD807C1F78BE99AE0892B51F0C7EB6A
:10383000DAE02797CE010E947C528AE0CB39D80784
:10384000C1F78FE79AE0892B51F0CBE9DAE02797AF
:10385000CE010E947C528AE0CF37D807C1F780E1C1
:103860009BE00E947C5287E19BE0DF91CF910C941A
:103870007C520C94855370E00C949953EF92FF9214
:103880000F931F93CF93DF93EC010E94254DFE0110
:10389000EC5BFF4F60837183828393838E01045BB3
:1038A0001F4F78018CE1E80EF11C60E070E0C80168
:1038B0000E94E152095F1F4F0E151F05B1F78E01DF
:1038C00008591F4F78018CE1E80EF11C60E070E0B0
:1038D000C8010E94E152095F1F4F0E151F05B1F785
:1038E0008E010C571F4F78018CE1E80EF11C60E04F
:1038F00070E0C8010E94E152095F1F4F0E151F05BD
:10390000B1F78E0100561F4F78018CE1E80EF11CD3
:1039100060E070E0C8010E94E152095F1F4F0E1580
:103920001F05B1F760E070E0CE0184549F4F0E9404
:10393000E15260E070E0CE018D539F4F0E94E15252
:1039400018AA18A619A61AA61BA61AAA1AAEDF91BB
:10395000CF911F910F91FF90EF900C9418149F92AC
:10396000AF92BF92CF92DF92EF92FF920F931F938D
:10397000CF93DF93EC010E9409148E017E01C12CCC
:10398000D12C99249394F801E85BFF4F10825701E2
:103990008CE4A80EB11C68E270E0C5010E94995247
:1039A00067E17BE0C5010E942B535701E8E6AE0EAC
:1039B000B11C68E270E0C5010E94995267E17BE0AA
:1039C000C5010E942B53F801E653FF4F1082349635
:1039D00010825701F0EAAF0EB11C68E270E0C50139
:1039E0000E94995267E17BE0C5010E942B53F801C8
:1039F000EE52FF4F1082570184E8A80EB11C68E216
:103A000070E0C5010E94995267E17BE0C5010E9408
:103A10002B53F801EA52FF4F9082EFEFCE1ADE0AE5
:103A20000F5F1F4FF7E0EF0EF11C84E0C816D104C2
:103A300009F0A9CF1FEF18AF19AFFE01E452FF4FF5
:103A400010831CA61DA61EA61FA61BAA68E270E076
:103A5000CE0184549F4F0E94995268E270E0CE01DB
:103A60008D539F4F0E949952FE01E652FF4F1083E3
:103A70003196108360E080E00E947C147E01E0EAD1
:103A8000EE0EF11C60E17BE0C7010E942B5300E0C9
:103A900010E06E01F4EACF0ED11CF6018081918115
:103AA0000817190784F4B801C7010E94D653FC0116
:103AB00080810E940B146BE470E080E090E020DADB
:103AC0000F5F1F4FEACF6AEF70E080E090E018DAF6
:103AD000C653DF4F81E08883DF91CF911F910F9113
:103AE000FF90EF90DF90CF90BF90AF909F900895A0
:103AF000CF93DF93EC0181E08AAFF6D96BAF7CAF57
:103B00008DAF9EAFDF91CF910895CF93DF9341307A
:103B10005105B1F04230510521F1452B99F5EC01E9
:103B200027E0629FC00DD11D1124C45BDF4F8C8143
:103B30009D81449738F560ED71E0CE019ADEF7CFB4
:103B4000EC0127E0629FC00DD11D1124C859DF4F41
:103B50008C819D814497B0F460ED71E0CE0189DEE7
:103B6000F7CFEC0127E0629FC00DD11D1124CC5787
:103B7000DF4F8C819D81449728F460ED71E0CE0188
:103B800078DEF7CFDF91CF910895BF92CF92DF9289
:103B9000EF92FF920F931F93CF93DF93CDB7DEB7D2
:103BA00028970FB6F894DEBF0FBECDBF8C01B22EA2
:103BB000242F30E0FC01E652FF4F8081992787FDDA
:103BC00090952817390719F0408351E001C050E063
:103BD0002B2D30E0F801E552FF4F8081992787FDBA
:103BE00090952817390711F0B08203C0552309F4C6
:103BF00054C0E0E0F1E065917491C80148870E94EB
:103C0000F15678018CEBE80EF11CB801C7010E9457
:103C10004953E2E0F1E065917491C8010E94F156C8
:103C20006801E3ECCE0ED11CB801C6010E944953D5
:103C30004885642FC7011FDE48854A3018F46FECB1
:103C400071E004C0443620F460ED71E0C70111DE7C
:103C500060ED71E0C7010DDE6B2DC6010CDEB70112
:103C6000CE0101960E943553B601CE0101960E9405
:103C7000C953BC01C8018F599F4F0E942B53CE01DD
:103C800001960E947C5240E050E063E0C8013DDFB5
:103C900081E0F801E353FF4F808326D9F801FF96B6
:103CA0006083718382839383F80112AE28960FB6E6
:103CB000F894DEBF0FBECDBFDF91CF911F910F9162
:103CC000FF90EF90DF90CF90BF9008950F931F93D8
:103CD000CF93DF93EC0188AD8F3F09F449C089ADE4
:103CE0008F3F09F445C08E01045B1F4F67E17BE005
:103CF000C8010E942B5361E273E0C8010E9449533E
:103D000068AD772767FD7095C8010E94995360EDF3
:103D100071E0C801AEDDE9ADE73068F4EE0FFF0BEE
:103D2000E05CFE4F65917491CE010E94F156BE0198
:103D3000C8019FDD0DC063E273E0C8019ADD69AD83
:103D4000772767FD709566507109C8010E949953E5
:103D500040E050E060E0CE01D8DEFE01E653FF4FC8
:103D600081E08083C1D8EF96688379838A839B83BF
:103D7000DF91CF911F910F910895FC0160AFA6CF05
:103D8000FC0161AFA3CF2F923F924F925F926F924F
:103D90007F928F929F92AF92BF92CF92DF92EF92DB
:103DA000FF920F931F93CF93DF9300D000D000D0EA
:103DB000CDB7DEB79E838D83162F202E0E2D462E77
:103DC000512C6C018CEDC80ED11CD6018C91992719
:103DD00087FD90954816590609F46BC06C93ED80E9
:103DE000FE80B3E5EB0EF11C67E17BE0C7012B839E
:103DF0003C8349835A830E942B532B81622E3C8142
:103E0000732E4981842E5A81952EA12CB12C312CF0
:103E1000A214B3044CF5D401ED914D01F0E0EE0F86
:103E2000FF1FEA5AFE4F659174918D819E810E9419
:103E3000F1566D817E81C701A114B10419F40E946D
:103E4000495301C016DDF30161913F0170E06250FA
:103E50007109C7010E94995360ED71E0C70109DD46
:103E6000FFEFAF1ABF0AD4CFED81FE81E95AFF4FB1
:103E700080819181ED81FE81ED52FF4F459760F089
:103E800081E08083ED81FE81E952FF4F8083AD8127
:103E9000BE81D3961C9201C0108240E050E061E0E8
:103EA0008D819E8132DE81E0ED81FE81E553FF4F01
:103EB0008083F6012081822F992787FD90954816EF
:103EC000590611F02F3FD1F5ED80FE80FCEBEF0E8F
:103ED000F11C60E373E0C7010E944953602FC701E2
:103EE000CADC0A3060F46FEC71E0C701C2DCA12CBF
:103EF000B12C6D807E808AE5680E711C05C0043689
:103F0000B0F760ED71E0F1CFB501C3010E94D65367
:103F10004C01B501C7010E94D653DC018C91F4011C
:103F20008083FFEFAF1ABF0A84E0A816B10461F7DF
:103F300081E0ED81FE81E453FF4F8083D6011C9325
:103F40000E947417ED81FE81FF96608371838283E6
:103F50009383ED81FE8112AE26960FB6F894DEBFF4
:103F60000FBECDBFDF91CF911F910F91FF90EF90CA
:103F7000DF90CF90BF90AF909F908F907F906F9089
:103F80005F904F903F902F900895AF92BF92CF9245
:103F9000DF92EF92FF920F931F93CF93DF93EC0189
:103FA000F62E40E050E062E0B0DD8E0104541F4F79
:103FB00062E373E0C8010E9449536F2DC8015BDCC6
:103FC00089E08F1558F06FEC71E0C80152DCE12CEC
:103FD000F12C5E01EAE5AE0EB11C06C0F3E6FF155A
:103FE000B0F360ED71E0F1CFB701615F7F4FC501C4
:103FF0000E94D6536C01B701C8010E94D653FC0140
:104000008081F6018083FFEFEF1AFF0A85E0E81652
:10401000F10451F7FE01E453FF4F81E080830E94D9
:104020007417FE01FF9660837183828393831AAEB7
:10403000DF91CF911F910F91FF90EF90DF90CF9084
:10404000BF90AF9008956F927F928F929F92AF92A0
:10405000BF92CF92DF92EF920F931F93CF93DF9394
:10406000EC01D42E122F40E050E062E04EDD5E0104
:104070008CEBA80EB11C65E373E0C5010E944953A7
:104080006D2DC501F8DB99E09D1518F06FEC71E01E
:1040900005C0E3E6ED1520F060ED71E0C501E9DB58
:1040A0006E01F3ECCF0ED11C6FE371E0C6010E94EC
:1040B0004953612FC601DFDB1A3018F46FEC71E051
:1040C00004C0143620F460ED71E0C601D2DBCE01ED
:1040D000865A9F4F4C010023E1F000E010E0B80148
:1040E0006B5F7F4FC4010E94D6533C01B801C501EC
:1040F0000E94D653FC018081F30180830F5F1F4F24
:104100000430110561F7EE2009F44DC0A12CB12C4B
:1041100018C0A12CB12CB5016B5F7F4FC4010E9468
:10412000D6538C01B50187E19BE00E94E853F8016A
:104130008083FFEFAF1ABF0A84E0A816B10459F7D5
:10414000E2CFB501665F7F4FC4010E94D6538C0158
:10415000B501C6010E94D653FC018081F80180831D
:10416000FFEFAF1ABF0A84E0A816B10451F7FE01B1
:10417000E453FF4F81E080830E947417FE01FF9695
:1041800060837183828393831AAEDF91CF911F91F5
:104190000F91EF90DF90CF90BF90AF909F908F9056
:1041A0007F906F900895C12CD12CB601665F7F4F30
:1041B000C4010E94D6538C01B60187E19BE00E94A6
:1041C000E853F8018083FFEFCF1ADF0A84E0C816B6
:1041D000D10459F7CCCF6F927F928F929F92AF927A
:1041E000BF92CF92DF92EF92FF920F931F93CF93E4
:1041F000DF931F92CDB7DEB73C017B016A01A12C92
:10420000B12C4C0188E6880E911C67E17BE0C4016B
:104210008A0D9B1D29830E942B53E7E0AE0EB11C33
:104220002981FCE1AF16B10481F782E0E816F104C0
:1042300009F460C044F4E114F10481F0EA94EF2839
:1042400009F444C0ADC083E0E816F10409F466C087
:10425000E4E0EE16F10409F475C0A2C0F2E0CF1656
:10426000D104F9F4211103C0E8E2F1E002C0E0E278
:10427000F1E065917491C3010E94F156B301C3014D
:1042800081599F4F0E9449536CE873E0730186E7A0
:10429000E80EF11CC7010E944953602FC701EBDAF9
:1042A0007FC0211103C0E8E3F1E002C0E0E3F1E0E8
:1042B00065917491C3010E94F156B301C301815904
:1042C0009F4F0E94495367E373E065C0E2E0CE165A
:1042D000D10441F4211103C0EAE2F1E0CACFE2E2E5
:1042E000F1E0C7CF211103C0EAE3F1E0E1CFE2E35F
:1042F000F1E0DECFF2E0CF16D10441F4211103C08A
:10430000ECE2F1E0B6CFE4E2F1E0B3CF211103C07B
:10431000ECE3F1E0CDCFE4E3F1E0CACF82E0C816F0
:10432000D10441F4211103C0EEE2F1E0A2CFE6E2B4
:10433000F1E09FCF211103C0EEE3F1E0B9CFE6E356
:10434000F1E0B6CF830101591F4FC114D10419F414
:10435000EEE1F1E005C0CA94CD2851F4EAE1F1E0C4
:1043600065917491C3010E94F156B301C80116C052
:10437000EAE1F1E065917491C3010E94F156B30145
:10438000C8010E944953ECE1F1E065917491C301C9
:104390000E94F156B301C3018A589F4F0E944953AE
:1043A00010E041E050E0612FC301AFDB1F5F14302C
:1043B000C1F70E947417F30160A771A782A793A7A2
:1043C00081E080AB0F90DF91CF911F910F91FF9013
:1043D000EF90DF90CF90BF90AF909F908F907F90A5
:1043E0006F900895AF92BF92CF92DF92EF92FF92BB
:1043F0000F931F93CF93DF931F92CDB7DEB75C016E
:104400007B0100E010E06C0188E6C80ED11C67E17A
:104410007BE0C601800F911F49830E942B53095FE7
:104420001F4F49810C31110591F7E1E0EE16F104BF
:1044300089F0F2E0EF16F10429F0EF28C1F4E0E78B
:10444000F1E00AC0442319F0E2E7F1E005C0E4E737
:10445000F1E002C0EEE6F1E065917491C5010E94C1
:10446000F156B501C50181599F4F0E94495310E093
:1044700041E050E0612FC50148DB1F5F1430C1F7F8
:104480000E947417F50160A771A782A793A781E026
:1044900080AB0F90DF91CF911F910F91FF90EF9024
:1044A000DF90CF90BF90AF9008956F927F928F92E0
:1044B0009F92AF92BF92CF92DF92EF920F93CF93E2
:1044C000DF93EC014B015901C12CD12C3C0188E652
:1044D000680E711C67E17BE0C3018C0D9D1D0E947D
:1044E0002B5387E0C80ED11C8CE1C816D10491F77C
:1044F000F401FF27EE0FFF1FEC5FFE4F65917491F3
:10450000CE010E94F156BE016E018FE6C80ED11C8D
:10451000C6010E944953602FC601ADD9F501FF279E
:10452000EE0FFF1FE251FF4F65917491CE010E9483
:10453000F1566E0186E7C80ED11CBE01C6010E946D
:104540004953AB2819F06E2DC60195D900E041E022
:1045500050E0602FCE01D9DA0F5F0430C1F70E941E
:10456000741768A779A78AA79BA781E088ABDF911A
:10457000CF910F91EF90DF90CF90BF90AF909F9031
:104580008F907F906F9008956F927F928F929F92FD
:10459000AF92BF92CF92DF92EF920F93CF93DF93C0
:1045A000EC014B015901C12CD12C3C0188E6680E6D
:1045B000711C67E17BE0C3018C0D9D1D0E942B5394
:1045C00087E0C80ED11C8CE1C816D10491F7F40124
:1045D000FF27EE0FFF1FE85FFE4F65917491CE013C
:1045E0000E94F156BE016E018FE6C80ED11CC601B5
:1045F0000E944953602FC6013ED9F501FF27EE0FF7
:10460000FF1FE251FF4F65917491CE010E94F15658
:104610006E0186E7C80ED11CBE01C6010E94495337
:10462000AB2819F06E2DC60126D900E041E050E01C
:10463000602FCE016ADA0F5F0430C1F70E94741751
:1046400068A779A78AA79BA781E088ABDF91CF9164
:104650000F91EF90DF90CF90BF90AF909F908F9091
:104660007F906F9008956F927F928F929F92AF92FA
:10467000BF92CF92DF92EF920F931F93CF93DF936E
:10468000EC014B015901C12CD12C3C0188E6680E8C
:10469000711C67E17BE0C3018C0D9D1D0E942B53B3
:1046A00087E0C80ED11C8CE1C816D10491F7F40143
:1046B000FF27EE0FFF1FEA5EFE4F65917491CE015A
:1046C0000E94F156BE016E018FE6C80ED11CC601D4
:1046D0000E944953F801EE0FFF1FE05FFE4F659106
:1046E0007491CE010E94F156BE01C601C2D8F501F7
:1046F000FF27EE0FFF1FE251FF4F65917491CE012E
:104700000E94F1568E010A581F4FBE01C8010E9437
:104710004953AB2819F06E2DC801ADD810E041E027
:1047200050E0612FCE01F1D91F5F1430C1F70E9414
:10473000741768A779A78AA79BA781E088ABDF9148
:10474000CF911F910F91EF90DF90CF90BF90AF90DE
:104750009F908F907F906F9008959F92AF92BF929D
:10476000CF92DF92EF92FF920F931F93CF93DF933D
:10477000EC016B018A01922EE12CF12C5C0188E6A0
:10478000A80EB11C67E17BE0C5018E0D9F1D0E9444
:104790002B5387E0E80EF11C8CE1E816F10491F749
:1047A0000230110551F581E0C816D10441F4992079
:1047B00019F060E473E009C06CE473E006C082E0C5
:1047C000C816D10449F46AE573E0CE0181599F4FC0
:1047D0000E94495310E052C083E0C816D104D1F7BB
:1047E00068E673E0CE0181599F4F0E94495362E70A
:1047F00073E0CE018A589F4FEBCFE12CF12C67E19B
:104800007BE0C5018E0D9F1D0E942B5387E0E80EB3
:10481000F11C8CE1E816F10491F7F801EE0FFF1F8F
:10482000EC50FF4F65917491CE010E94F1567E01CC
:104830008FE6E80EF11CBE01C7010E94495301300A
:10484000110551F4692D772767FD70956250710944
:10485000C7010E949953BECF012B09F0BBCFE92DB0
:10486000EE0FFF0BEA5AFE4F65917491CE010E9444
:10487000F156BE01C7010E94391CACCF41E050E0A7
:10488000612FCE0142D91F5F1430C1F70E94741707
:1048900068A779A78AA79BA781E088ABDF91CF9112
:1048A0001F910F91FF90EF90DF90CF90BF90AF904E
:1048B0009F900895DF92EF92FF920F931F93CF93F3
:1048C000DF93EC01D62E00E010E07C0188E6E80ED4
:1048D000F11C67E17BE0C701800F911F0E942B5301
:1048E000095F1F4F0C311105A1F7EEEFF0E0659164
:1048F0007491CE010E94F156BE018E0101591F4FE5
:10490000C8010E9449536D2DC8010E943B1C10E054
:1049100041E050E0612FCE01F8D81F5F1430C1F79D
:104920000E94741768A779A78AA79BA781E088AB24
:10493000DF91CF911F910F91FF90EF90DF9008953D
:10494000FF920F931F93CF93DF93EC01F62E8C0110
:10495000045B1F4F67E17BE0C8010E942B5367E1B6
:104960007BE0CE018D5A9F4F0E942B5367E17BE085
:10497000CE01865A9F4F0E942B5367E17BE0CE0108
:104980008F599F4F0E942B5364E873E0C8010E9427
:1049900049536F2DC8010E943B1C40E050E060E08D
:1049A000CE01B3D840E050E061E0CE01AED840E0A7
:1049B00050E062E0CE01A9D840E050E063E0CE01D3
:1049C000A4D8FE01E653FF4F81E0808331968083B7
:1049D00031968083C353DF4F8883DF91CF911F913E
:1049E0000F91FF900895CF93DF93EC016FD967E1AA
:1049F0007BE0CE018D5A9F4F0E942B5367E17BE0F5
:104A0000CE01865A9F4F0E942B5367E17BE0CE0177
:104A10008F599F4F0E942B531BAAFE01EA52FF4F52
:104A200081E080833497108235968083349710829A
:104A30003596808334971082359680833497108220
:104A40003A97808331968083C353DF4F8883DF9109
:104A5000CF910895DF92EF92FF920F931F93CF9320
:104A6000DF93EC016130710511F0D12C02C002E03E
:104A7000D02E00E010E07E0188E6E80EF11C67E130
:104A80007BE0C701800F911F0E942B53095F1F4FCE
:104A90000C311105A1F70D2D10E0C801880F991FE9
:104AA000825B9E4FFC0165917491CE010E94F1568C
:104AB000BE01CE0181599F4F0E944953F8013196A2
:104AC000EE0FFF1FE25BFE4F65917491CE010E94D5
:104AD000F156BE01CE018A589F4F0E94495341E0D2
:104AE00050E061E0CE0111D841E050E062E0CE013B
:104AF0000CD80E94741768A779A78AA79BA781E0A2
:104B000088ABDF91CF911F910F91FF90EF90DF90D5
:104B10000895FF920F931F93CF93DF93EC01F62E2E
:104B20008C01065A1F4F61E973E0C8010E94495386
:104B30006F2D70E062507109C8010E949953FE0107
:104B4000E453FF4F81E0808340E050E062E0CE011B
:104B5000DF91CF911F910F91FF900C94851DAF9223
:104B6000BF92CF92DF92EF92FF920F931F93CF935A
:104B7000DF93EC018B015A017C0183E5E80EF11C07
:104B800067E17BE0C7010E942B53680100E010E061
:104B9000D601ED916D01EC3019F1F0E0EE0FFF1F41
:104BA000EA5AFE4F65917491CE010E94F156BE0102
:104BB000C7010115110519F40E94495302C00E9452
:104BC000391CF501E00FF11F608170E0625071093E
:104BD000C7010E94995360ED71E0C7010E94391C22
:104BE0000F5F1F4F0730110599F6FE01E95AFF4F7D
:104BF00080819181E458FF4F459710F081E006C015
:104C000010821BAA81E0FE01E952FF4F8083FE0162
:104C1000E553FF4F81E0808340E050E061E0CE014A
:104C2000DF91CF911F910F91FF90EF90DF90CF9088
:104C3000BF90AF900C94851DEF92FF920F931F933E
:104C4000CF93DF93EC016230710541F500E010E095
:104C50007C0188E6E80EF11C67E17BE0C701800F6C
:104C6000911F0E942B53095F1F4F0C311105A1F7B3
:104C700061EA73E0CE0181599F4F0E94495363EB73
:104C800073E0CE018A589F4F0E9449530E947417C7
:104C900068A779A78AA79BA781E088AB10E041E0CD
:104CA00050E0612FCE010E94851D1F5F1430B9F7BF
:104CB000DF91CF911F910F91FF90EF900895CF92C8
:104CC000DF92EF92FF920F931F93CF93DF93EC014C
:104CD0006B0100E010E07C018CE4E80EF11C67E160
:104CE0007BE0C701800F911F0E942B53095F1F4F6C
:104CF0000C311105A1F7B601C7010E942B5340E00A
:104D000050E060E0CE010E94851DFE01E653FF4F9A
:104D100081E080833196808331968083C353DF4F57
:104D20008883DF91CF911F910F91FF90EF90DF90DB
:104D3000CF900895FF920F931F93CF93DF93EC01D1
:104D4000FAACFF2009F44EC04BAD5CAD6DAD7EAD4D
:104D5000FC01FF960081118122813381401B510BA0
:104D6000620B730B493C51056105710578F40E9493
:104D700074170BAD1CAD2DAD3EAD601B710B820BDE
:104D8000930B693C71058105910560F167E17BE05A
:104D9000CE018D5A9F4F0E942B5367E17BE0CE01DD
:104DA000865A9F4F0E942B5367E17BE0CE018F59BB
:104DB0009F4F0E942B53FE01E553FF4F81E08083FC
:104DC0003196808331968083369610823496808324
:104DD0001BAA33968FEF8083319680833196808330
:104DE0001AAE01C0F12C8F2DDF91CF911F910F9141
:104DF000FF9008953F924F925F926F927F928F92B1
:104E00009F92AF92BF92CF92DF92EF92FF920F9359
:104E10001F93CF93DF93CDB7DEB727970FB6F894E4
:104E2000DEBF0FBECDBF8C0180917A0086FD74C1BC
:104E3000C80180DF0E947417F801FF96C080D180FE
:104E4000E280F3806C197D098E099F096A30710533
:104E50008105910530F4D801DA968C91882309F404
:104E60005BC1F80180A981111BC1D801D1968C9139
:104E700081110DC048016801B0EACB0ED11C780148
:104E8000ECE4EE0EF11C512C4424439433C00E94F8
:104E90007417D8019896CD90DD90ED90FC909B977B
:104EA0006C197D098E099F096D3D7540810591053D
:104EB00008F432C1F80111AA6801F8E6CF0ED11C3E
:104EC000E12CF12CBB24B39467E17BE0C6010E9486
:104ED0002B53F801EE0DFF1DE653FF4FB0822FEF6D
:104EE000E21AF20A87E0C80ED11CA4E0EA16F10427
:104EF00059F7C0CFF401EE52FF4F8081882309F4A7
:104F000087C00E947417F80124A535A546A557A5AA
:104F1000621B730B840B950B653F714081059105F6
:104F200008F4A3C0D801D3964C91552747FD50955E
:104F300028E230E0B701CE0101960E94F953360114
:104F4000BCE16B1A7108BE016F5F7F4FC3010E9405
:104F50003E53CE0101960E947C5242E050E0652D06
:104F6000C8010E94851DA12CB12CB501C6010E946B
:104F7000D653FC013080B501C3010E94D653DC0139
:104F80008C91381661F0652D8A2D0E947C14B50134
:104F9000C3010E94D653FC0180810E940B14FFEFD5
:104FA000AF1ABF0A24E1A216B104F9F60E947417E1
:104FB000D8019C966D937D938D939C939F97F4015C
:104FC000EA52FF4F8081D3964C918823A9F0842F19
:104FD000992787FD909580959095D70114962D91EE
:104FE0003C911597820F931F459720F04F5FF80172
:104FF00043AB0CC010820AC04150D801D3964C93E9
:10500000D39747FF03C04082D3961C92B3012AC0B6
:10501000F401E653FF4F8081882339F1A12CB12C94
:10502000B501C7010E94D653FC017080B501C601CD
:105030000E94D653DC018C91781661F0652D8A2D83
:105040000E947C14B501C7010E94D653FC018081E7
:105050000E940B14FFEFAF1ABF0A24E1A216B1049D
:10506000F9F6B701C6010E942B53F401E653FF4F36
:1050700010828FEF881A980AA7E0CA0ED11CB7E0F9
:10508000EB0EF11C5394E4E05E1234CF0E947417CF
:10509000D801D4966D937D938D939C93D7973CC004
:1050A0006801F0EACF0ED11C912CE12CF12C5601B5
:1050B000B8E3AB1AB108B701C5010E94D653FC0191
:1050C0008080B701C6010E94D653DC018C918816FE
:1050D00061F0692D8E2D0E947C14B701C5010E94DC
:1050E000D653FC0180810E940B14FFEFEF1AFF0AD8
:1050F00024E1E216F104F9F6B501C6010E942B5332
:1051000087E0C80ED11C9394A4E09A12CECFF80188
:1051100010AA81E081ABA9CE27960FB6F894DEBF26
:105120000FBECDBFDF91CF911F910F91FF90EF90F8
:10513000DF90CF90BF90AF909F908F907F906F90B7
:105140005F904F903F90089569EA71E087E19BE09E
:105150000E94E15262ED71E080E19BE00E94E15229
:1051600083E39AE00C943E1C0C94E51B249A259A48
:10517000269A2C98E0EBF0E080818F7780832D9841
:10518000E0E8F0E080818F7780832E9880818F7DAA
:105190008083219A229A239A08950895CF93C0E09C
:1051A00040E050E06C2F80E698E00E948116CF5FCF
:1051B000C831B1F7CF910895CF93C0E04FEF50E0E1
:1051C0006C2F80E698E00E948116CF5FC831B1F75E
:1051D000CF91089580E698E00C94811680E698E0DF
:1051E0000C94781680E698E00C949716CF93DF9392
:1051F000CEEBD3E0699140E050E080E698E00E9479
:10520000811683E0CA3CD807A9F7DF91CF910895B2
:1052100062547C4FFB01608180E698E00C9481161B
:1052200062547C4FFB01608180E698E00C94781614
:105230008EE19BE09BCF0F931F93CF93DF93EC0105
:10524000462F50E060E070E020E00E94CC4F8C01DF
:10525000CE010E94B24F800F911FDF91CF911F911D
:105260000F910895EF92FF921F93CF93DF931F92B8
:10527000CDB7DEB77C01162F49830E940C37612F12
:1052800070E04981F701E60FF71FE05DFE4F2081D6
:10529000442311F0286001C0277F20836E0D7F1DFD
:1052A000605D7E4FFB0160810F90DF91CF911F9178
:1052B000FF90EF900C944157FF920F931F93CF9361
:1052C000DF93EC01FC01E251FF4F8081823081F1DC
:1052D000EE5BFF4F108113FB112710F981E01827B7
:1052E00000E0412F602FCE01BDDF0F5F0930C9F70D
:1052F00065EE73E088E79FE00E94614F112319F08B
:1053000061EE73E002C06CED73E088E79FE00E94FD
:10531000614F6FEC73E088E79FE00E94614F88E780
:105320009FE0DF91CF911F910F91FF900C94B24FAE
:105330008E01075C1E4FF8016081FE01E60FF11D32
:10534000E05DFE4FF080F3FAFF24F0F881E0F826EC
:105350004F2DCE0187DF63EC73E088E79FE00E946A
:10536000614FFF2019F060EC73E002C06CEB73E05A
:1053700088E79FE00E94614F62EB73E088E79FE05F
:105380000E94614FF801608188E79FE0DF91CF9133
:105390001F910F91FF904FCF860F911DFC01E05D93
:1053A000FE4F808183FB882780F908952F923F92DA
:1053B0004F925F926F927F928F929F92AF92BF9225
:1053C000CF92DF92EF92FF920F931F93CF93DF93D1
:1053D0008C0189E796E00E943457282F30E0A4E63C
:1053E000B0E00E94B1562B013C01E80100E010E062
:1053F00080E1882E87E2982EA12CB12CFE01EE5A76
:10540000FE4FA081B1811E0184E5281A8EEF380A73
:105410006D01EE24D7FCE094FE2C7297808191817F
:10542000A81BB90BA30192010E94CA56A5019401C1
:105430000E948F56C20ED31EE41EF51EF101D182CA
:10544000C0820F5F1F4F229609301105B9F6DF9118
:10545000CF911F910F91FF90EF90DF90CF90BF9071
:10546000AF909F908F907F906F905F904F903F9004
:105470002F9008954F925F926F927F928F929F929A
:10548000AF92BF92CF92DF92EF92FF920F931F9352
:10549000CF93DF931F92CDB7DEB74C01A62EB12C70
:1054A0008C010A0D1B1D680125E1C21A2EEFD20ADC
:1054B000D6018C91843009F468C049830E94741726
:1054C0007501EE0CFF1CEE0CFF1CF401EE0DFF1D30
:1054D000E953FE4F408051806280738064197509E2
:1054E00086099709498150E0613D77408105910522
:1054F00020F0D6018C9181114CC0F501EE0FFF1FF9
:10550000E80DF91DE45BFF4F20813181CA01821B48
:10551000930B97FF03C09195819591090B97BCF16F
:10552000BB24B394421753070CF0B12C6801B5E1CA
:10553000CB1ABEEFDB0AD6016C91611112C0518308
:1055400040830E947417E80CF91CF701E953FE4FE1
:105550006083718382839383F60180818F5F808370
:105560000FC02B2D30E0D801AC50BE4F8C9190E095
:105570002817390729F06F5FD6016C935183408358
:10558000F801EC50FE4FB08202C081E01BC080E009
:1055900019C0D6011C921082118212821382C50199
:1055A000880F991F880D991DFC01E25AFF4F29E1D0
:1055B0003CEF31832083729631832083B4975183EB
:1055C00040839BCF0F90DF91CF911F910F91FF9060
:1055D000EF90DF90CF90BF90AF909F908F907F9093
:1055E0006F905F904F90089570E0FC01E60FF71FF9
:1055F000E551FE4F10829B01220F331F220F331FF4
:10560000280F391FF901E953FE4F108211821282CF
:105610001382660F771F680F791FFB01E45BFF4F52
:1056200011821082729689E19CEF91838083729639
:105630009183808308951F93CF93DF93EC01FC0146
:10564000E350FE4FE081F0E0E653FC4F10816DEA3D
:1056500073E088E79FE00E94614F412F50E060E0D7
:1056600070E020E088E79FE00E94CC4F69E973E09A
:1056700088E79FE00E94614F6F8988E79FE0DBDD4C
:10568000CE010E94C445811104C0E885F9858F8947
:1056900009951E8ADF91CF911F910895FC0186899B
:1056A00008958F929F92AF92BF92DF92EF92FF92F6
:1056B0000F931F93CF93DF93EC01FC01E350FE4F58
:1056C000D0800D2D10E07801EE0CFF1CE80EF91EC5
:1056D000F701A0A4B1A48DA19EA10D2C02C09695A6
:1056E00087950A94E2F780FF69C04E01800E911EF3
:1056F000F401E05DFE4F808183FF0BC020E030E0CD
:10570000A5016D2DCE016FD2482F6D2DCE01B2DED9
:1057100001C080E0F401E254FE4F8083882309F445
:105720004DC021E030E0A5016D2DCE015CD2D82E18
:105730000E947417000F111F000F111FFE01E00FD0
:10574000F11FE150FE4F80809180A280B3806819E4
:1057500079098A099B094D2D50E0F70122AD33AD3F
:10576000653671058105910568F0CA01821B930BAE
:105770009C0197FF03C031952195310923303105F4
:105780004CF41CC042175307C9F064307105810501
:105790009105A0F081E08E8BFE01E05DFC4F8083DF
:1057A000DF8AF70153AF42AF0E947417C00FD11FB9
:1057B000C150DE4F688379838A839B83DF91CF91C9
:1057C0001F910F91FF90EF90DF90BF90AF909F904F
:1057D0008F90089569EA71E086E29BE00E94E152B1
:1057E00062ED71E08FE19BE00C94E1528FE19BE070
:1057F0000E947C5286E29BE00C947C520C940C0F2D
:10580000462F50E060E070E020E00C94CC4FAB01FC
:10581000662757FD6095762F0C9428500F931F93A1
:10582000CF93DF93EC010E94614F8C01CE010E9467
:10583000B24F800F911FDF91CF911F910F9108956B
:105840000F931F93CF93DF93EC01AB01662757FDB6
:105850006095762F0E9428508C01CE010E94B24F95
:10586000800F911FDF91CF911F910F9108951F938A
:10587000CF93DF9310916A0E1F5F103208F010E093
:10588000C12FD0E0FE01E55DF04F8083FE01E55FB2
:10589000F04F6083FE01E551F14F40830E94741781
:1058A000CC0FDD1FCC0FDD1FC559D14F6883798325
:1058B0008A839B8310936A0EDF91CF911F91089585
:1058C000F894EAE7F0E08081886080837894089516
:1058D00081E080934F0FEAE7F0E08081806480836D
:1058E0000895ACE7B0E09C91E62FF0E0E55BF04F67
:1058F00080818F70907F892B8C93000000000000C6
:1059000008951F920F920FB60F9211248F939F93B9
:1059100010924F0F80917800909179009093510FE1
:105920008093500F9F918F910F900FBE0F901F90FB
:105930001895F89480914F0F78940895F894809179
:10594000500F9091510F78940895FC0113821282A8
:10595000158214821782168211861086138612868B
:1059600015861486118210820895AF92BF92CF924D
:10597000DF92EF92FF920F931F93CF93DF938C01EF
:1059800035E5E32E36E0F32EC0E0D0E0C7010E94FB
:105990003C57580120ECA21A2EEFB20AF501918370
:1059A0008083C70102960E943C576801FEEACF1A25
:1059B000FEEFDF0AF6019183808363ED73E088E7F1
:1059C0009FE01CDFBE0188E79FE021DF6BE372E010
:1059D00088E79FE013DFF5016081718188E79FE030
:1059E0002FDF61EF73E088E79FE008DFBE0188E703
:1059F0009FE00DDF6BE372E088E79FE0FFDEF601DA
:105A00006081718188E79FE01BDF88E79FE00E944B
:105A1000B24F2196F4E0EF0EF11C0E5F1F4FC9301C
:105A2000D10509F0B3CFDF91CF911F910F91FF9076
:105A3000EF90DF90CF90BF90AF900895AF92BF925C
:105A4000CF92DF92EF92FF920F931F93CF93DF934A
:105A50008C014DE7E42E46E0F42EC0E0D0E0C70113
:105A60000E943C5758012CE9A21A2EEFB20AF50108
:105A700091838083C70102960E943C576801FAE82F
:105A8000CF1AFEEFDF0AF601918380836FE074E0A6
:105A900088E79FE0B3DEBE0188E79FE0B8DE6BE3F6
:105AA00072E088E79FE0AADEF5016081718188E7F6
:105AB0009FE0C6DE66E274E088E79FE09FDEBE01FD
:105AC00088E79FE0A4DE6BE372E088E79FE096DE64
:105AD000F6016081718188E79FE0B2DE88E79FE090
