:10000000B8C70000E5C70000E3C70000E1C7000073
:10001000DFC70000DDC70000DBC70000D9C7000054
:10002000D7C70000D5C700000C942C560C94A956D5
:10003000CFC70000CDC70000CBC70000C9C7000074
:10004000C7C70000C5C70000C3C70000C1C7000084
:10005000BFC700000C94ED19BBC700000C9490556D
:10006000B7C700000C94291C0C94541C0C94891CD8
:10007000AFC700000C94D82FABC70000A9C7000081
:100080000C94361AA5C70000A3C70000A1C7000042
:100090000C9494099DC70000320D8A0D4A0EE20DA2
:1000A000610EC70DFB0D2D0EB00D140E421248123D
:1000B0004E1254125A12601266128019891992193E
:1000C0008919A7199B19801980199B19A7198919D2
:1000D0009219891980192D2D2D2D2D2D2D2D2D2D78
:1000E0002D2D2D2D2D2D2D2D2D2D2D2D2D2D2D2D40
:1000F0002D2D2D2D2D2D2D2D2D2D2D2D2D2D002D5D
:100100002D2D2D2D2D2D2D2D2D2D2D2D2D2D2D2D1F
:100110002D2D2D2D2D2D2D2D2D2D2D2D2D2D2D2D0F
:100120002D2D2D2D2D2D2D002062797465730054F9
:100130006F74616C206D656D6F7279207573616786
:10014000653A20002C20616464726573733A200064
:1001500053656374696F6E20004372656174696EE4
:100160006720626C6F636B200057652061726520A9
:100170006E6F77206372656174696E6720454550C4
:10018000524F4D206D656D6F7279206C61796F757E
:1001900074002D2D2D2D2D2D2D2D2D2D2D2D2D2D75
:1001A0002D2D2D2D2D2D2D2D2D2D2D2D2D2D2D2D7F
:1001B0002D2D2D2D2D2D2D2D2D2D003A20002D2DC9
:1001C0002D2D2D2D2D2D2D2D2D2D2D2D2D2D2D2D5F
:1001D0002D2D2D2D2D2D2D2D2D2D2D2D2D2D2D2D4F
:1001E0002D2D2D2D2D2D00454550524F4D206D6547
:1001F0006D6F727920726561646F75740085028E0F
:10020000028E02DD02D502D102C702C002B202E8AC
:1002100002E402F202EC0206030D03F802FF022AD6
:10022000031E0314033A033103920386037C03B5D0
:1002300003A703A2039D03D903CA03C403BE03FBA0
:1002400003ED03E803E3031F0410040A0404047D20
:10025000046F0460045A044B043A042904690357E8
:10026000034B034303A604A304A1049E049C049A25
:100270000497049504920490048D048B04AD02A8A5
:10028000029E029302616C6C207061647300706165
:100290006420005265636F7264206F666600526569
:1002A000636F7264206F6E0053746F7000506C61E6
:1002B00079004D494449206368616E6E656C200089
:1002C000437572766520004343206C696D69742024
:1002D00000434320004F63746176652000546F6EC5
:1002E00069632000636379006363780059204343A6
:1002F0003D00582043433D0059206D696E3D005933
:10030000206D61783D0058206D696E3D0058206D6C
:1003100061783D007769646520656E647300776974
:100320006465206D6964646C65006C696E656172FA
:1003300000592063757276653D00582063757276AA
:10034000653D00746F20656469740052656C656179
:1003500073652070616400746F2065646974207037
:100360006164206E6F7465730053656C65637420FF
:1003700075736572207072657365740053706C6973
:1003800074206F6666002B2066756E6374696F6EED
:10039000730053706C697420582C20590059206FD9
:1003A0006E0058206F6E004166746572746F7563DD
:1003B00068206F6E004E6F746573206F6E00592059
:1003C0006F66660058206F666600416674657274D9
:1003D0006F756368206F6666004E6F746573206F7B
:1003E00066660059206F6E0058206F6E004166747B
:1003F0006572746F756368206F6E004E6F746573FD
:10040000206F6E0059206F66660058206F66660088
:100410004166746572746F756368206F6666004E1E
:100420006F746573206F6666004D616A6F7220504D
:10043000656E7461746F6E6963004D696E6F7220D2
:1004400050656E7461746F6E6963004861726D6FA0
:100450006E6963204D616A6F72004D616A6F720050
:100460004861726D6F6E6963204D696E6F72004DE9
:10047000656C6F646963204D696E6F72004E6174C4
:100480007572616C204D696E6F72004200412300ED
:10049000410047230047004623004600450044230F
:1004A0000044004323004300206166746572746F4A
:1004B0007563682076616C75653A20005061642030
:1004C0000056656C6F636974793A2000206F666628
:1004D00021000A50616420002070726573736564A6
:1004E0002E204E6F7465733A2000506164200059CD
:1004F0002043433A20003A20005920666F72207052
:1005000061642000582043433A20003A20005820DC
:10051000666F722070616420003A2000557070652B
:10052000722059206C696D697420666F7220706149
:100530006420003A20004C6F7765722059206C6966
:100540006D697420666F722070616420002D2D2DFE
:100550002D2D2D2D2D2D2D2D2D2D2D2D2D2D2D2DCB
:100560002D2D2D2D2D2D2D2D2D2D2D2D2D2D2D2DBB
:100570002D2D2D2D2D005072696E74696E67206FC0
:1005800075742059206C696D69747320666F7220D0
:1005900070616473002D2D2D2D2D2D2D2D2D2D2DC4
:1005A0002D2D2D2D2D2D2D2D2D2D2D2D2D2D2D2D7B
:1005B0002D2D2D2D2D2D2D2D2D2D2D2D2D003A2098
:1005C0000055707065722058206C696D69742066E2
:1005D0006F722070616420003A20004C6F77657262
:1005E0002058206C696D697420666F722070616498
:1005F00020002D2D2D2D2D2D2D2D2D2D2D2D2D2D65
:100600002D2D2D2D2D2D2D2D2D2D2D2D2D2D2D2D1A
:100610002D2D2D2D2D2D2D2D2D2D005072696E740B
:10062000696E67206F75742058206C696D697473EA
:1006300020666F722070616473002D2D2D2D2D2D7D
:100640002D2D2D2D2D2D2D2D2D2D2D2D2D2D2D2DDA
:100650002D2D2D2D2D2D2D2D2D2D2D2D2D2D2D2DCA
:100660002D2D003A200055707065722070726573F0
:1006700073757265206C696D697420666F72207085
:10068000616420003A20004C6F77657220707265BB
:100690007373757265206C696D697420666F722062
:1006A00070616420002D2D2D2D2D2D2D2D2D2D2D06
:1006B0002D2D2D2D2D2D2D2D2D2D2D2D2D2D2D2D6A
:1006C0002D2D2D2D2D2D2D2D2D2D2D2D2D0050721F
:1006D000696E74696E67206F7574207072657373CC
:1006E000757265206C696D69747320666F72207015
:1006F000616473002D2D2D2D2D2D2D2D2D2D2D2DA6
:100700002D2D2D2D2D2D2D2D2D2D2D2D2D2D2D2D19
:100710002D2D2D2D2D2D2D2D2D2D2D2D002D2D2D36
:100720002D2D2D2D2D2D2D2D2D2D2D2D2D2D2D2DF9
:100730002D2D2D2D2D2D2D2D2D2D2D2D2D2D2D2DE9
:100740002D2D2D2D2D005072696E74696E67206FEE
:100750007574206C696D69747320666F72207061A6
:100760006473002D2D2D2D2D2D2D2D2D2D2D2D2D69
:100770002D2D2D2D2D2D2D2D2D2D2D2D2D2D2D2DA9
:100780002D2D2D2D2D2D2D2D2D2D2D003A0050618F
:100790006420002D2D2D2D2D2D2D2D2D2D2D2D2D8C
:1007A0002D2D2D2D2D2D2D2D2D2D2D2D2D2D2D2D79
:1007B0002D2D2D2D2D2D2D2D2D2D2D005072696EB1
:1007C00074696E67206F7574206E6F746573206630
:1007D0006F722070616473002D2D2D2D2D2D2D2D08
:1007E0002D2D2D2D2D2D2D2D2D2D2D2D2D2D2D2D39
:1007F0002D2D2D2D2D2D2D2D2D2D2D2D2D2D2D2D29
:100800000053686966743A2000546F6E69633A2039
:10081000004F63746176653A20002D2D2D2D2D2D0E
:100820002D2D2D2D2D2D2D2D2D2D2D2D2D2D2D2DF8
:100830002D2D2D2D2D2D2D2D2D2D2D2D2D2D2D2DE8
:100840002D2D00506172616D657465727320666F45
:10085000722063757272656E74207363616C653AA1
:1008600020002D2D2D2D2D2D2D2D2D2D2D2D2D2DF2
:100870002D2D2D2D2D2D2D2D2D2D2D2D2D2D2D2DA8
:100880002D2D2D2D2D2D2D2D2D2D004163746976AF
:1008900065207072657365743A20002D2D2D2D2D05
:1008A0002D2D2D2D2D2D2D2D2D2D2D2D2D2D2D2D78
:1008B0002D2D2D2D2D2D2D2D2D2D2D2D2D2D2D2D68
:1008C0002D2D2D005072696E74696E67206F7574DE
:1008D000207072657365742073657474696E6773D4
:1008E000002D2D2D2D2D2D2D2D2D2D2D2D2D2D2D65
:1008F0002D2D2D2D2D2D2D2D2D2D2D2D2D2D2D2D28
:100900002D2D2D2D2D2D2D2D2D0050616420637545
:1009100072766520666F7220593A2000506164201B
:10092000637572766520666F7220583A20004343E3
:100930002059207570706572206C696D69743A2059
:100940000043432059206C6F776572206C696D6994
:10095000743A200043432058207570706572206CF3
:10096000696D69743A200043432058206C6F7765A5
:1009700072206C696D69743A200043432059204D00
:100980004944492049443A200043432058204D49D6
:1009900044492049443A20004166746572746F7579
:1009A00063682073656E6420656E61626C65643A8D
:1009B00020004E6F74652073656E6420656E616201
:1009C0006C65643A2000592073656E6420656E6121
:1009D000626C65643A2000582073656E6420656E11
:1009E00061626C65643A200050616420005061646B
:1009F00073206861766520696E64697669647561E3
:100A00006C2073657474696E677320616E64206610
:100A1000756E6374696F6E73202D2073706C6974CA
:100A200020782F79202B2066756E6374696F6E7342
:100A30000050616420637572766520666F7220597C
:100A40003A200050616420637572766520666F728B
:100A500020583A2000434320592075707065722059
:100A60006C696D69743A200043432059206C6F779C
:100A70006572206C696D69743A20004343205820E8
:100A80007570706572206C696D69743A200043431B
:100A90002058206C6F776572206C696D69743A20FC
:100AA0000043432059204D4944492049443A2000FD
:100AB00043432058204D4944492049443A2000509E
:100AC000616420004166746572746F756368207399
:100AD000656E6420656E61626C65643A20004E6FDD
:100AE00074652073656E6420656E61626C65643A3E
:100AF0002000592073656E6420656E61626C6564C8
:100B00003A2000582073656E6420656E61626C65E2
:100B1000643A200050616420637572766520666FC8
:100B20007220593A20005061642063757276652006
:100B3000666F7220583A2000434320592075707028
:100B40006572206C696D69743A2000434320592016
:100B50006C6F776572206C696D69743A200043434D
:100B60002058207570706572206C696D69743A2028
:100B70000043432058206C6F776572206C696D6963
:100B8000743A200043432059204D494449204944A8
:100B90003A200043432058204D4944492049443AD3
:100BA00020004166746572746F7563682073656EAA
:100BB0006420656E61626C65643A20004E6F7465F6
:100BC0002073656E6420656E61626C65643A200016
:100BD000592073656E6420656E61626C65643A20AD
:100BE00000582073656E6420656E61626C65643ABE
:100BF00020002D2D2D2D2D2D2D2D2D2D2D2D2D2D5F
:100C00002D2D2D2D2D2D2D2D2D2D2D2D2D2D2D2D14
:100C10002D2D2D2D2D2D2D2D2D2D005072696E7405
:100C2000696E67206F75742070616420636F6E66F3
:100C3000696775726174696F6E002D2D2D2D2D2DD4
:100C40002D2D2D2D2D2D2D2D2D2D2D2D2D2D2D2DD4
:100C50002D2D2D2D2D2D2D2D2D2D2D2D2D2D2D2DC4
:100C60002D2D004D494449206368616E6E656C3AD4
:100C70002000416374697665207072657365743A0B
:100C800020004163746976652070726F6772616DD0
:100C90003A20002D2D2D2D2D2D2D2D2D2D2D2D2DB1
:100CA0002D2D2D2D2D2D2D2D2D2D2D2D2D2D2D2D74
:100CB0002D2D2D2D2D2D2D2D2D2D2D005072696EAC
:100CC00074696E67206F75742070726F6772616DE2
:100CD0002073657474696E6773002D2D2D2D2D2D75
:100CE0002D2D2D2D2D2D2D2D2D2D2D2D2D2D2D2D34
:100CF0002D2D2D2D2D2D2D2D2D2D2D2D2D2D2D2D24
:100D00002D2D0020666F722070616420006F666672
:100D1000006F6E004166746572746F7563682000C1
:100D2000666F7220616C6C2070616473006F666620
:100D300020006F6E20004166746572746F75636881
:100D4000200020666F722070616420006F6666006C
:100D50006F6E0020666F7220616C6C20706164732E
:100D6000006F6666006F6E0020666F7220706164AF
:100D700020006F6666006F6E0058200020666F725C
:100D800020616C6C2070616473006F6666006F6E2A
:100D90000058200020666F722070616420006F662A
:100DA00066006F6E004E6F746573200020666F7270
:100DB00020616C6C2070616473006F6666006F6EFA
:100DC000004E6F74657320004F6374617665206414
:100DD0006F776E004F637461766520757000537095
:100DE0006C6974205859202B2066756E6374696F86
:100DF0006E730053706C69742058590053706C699D
:100E000074206F6666000129022904290829102927
:100E1000202940298029012C022C012602260426A3
:100E200008261026202640268026402C802C0123D0
:100E3000022304230823102320234023802301209E
:100E40000220042008201020202040208020102C88
:100E5000202C012F022F042F082F102F202F402F7E
:100E6000802F7EFE7EFD7EFB7EF77EEF7EDF7EBFE7
:100E70007E7F00010000230F1200020000E00E43FD
:100E800000030000DC0E0401030904C20E18020373
:100E90000904AA0E16030309049C0E0C0C0331006E
:100EA00032003300340035000000160355005300B3
:100EB00042002000530065007200690061006C0070
:100EC000000018035400650065006E00730079008F
:100ED0006400750069006E006F00000004030904DF
:100EE00009024300020100C03209040000010202AD
:100EF000010005240010010524010001042402065C
:100F000005240600010705820308004009040100CA
:100F1000020A0000000705030240000007058402E2
:100F20004000001201000202000020C016830400ED
:100F300001010203010001C1020180360181360076
:100F4000B10817124D179A1E8F20222D922D4D2F6A
:100F50001B3A593A71454452D052A053E55A2312D4
:100F60005917322D592F353A653A7D455052DC528A
:100F7000AB5311241FBECFEFD0E2DEBFCDBF15E0D3
:100F8000A0E0B1E0ECE9F0EC00E00BBF02C007909C
:100F90000D92A03AB107D9F72EE0A0EAB5E001C062
:100FA0001D92A53CB207E1F71FE0CEE5DFE000E0CF
:100FB00006C022970109FE010BBF0E94875FC03463
:100FC000D10780E00807A9F70E9421580C943D60E2
:100FD00017C88091CC0590E02091CD05821B910926
:100FE00008952091CD058091CC05281750F4E22F6B
:100FF000F0E0E253FA4F808190E02F5F2093CD051F
:1010000008958FEF9FEF0895E091CD058091CC0575
:10101000E81730F4F0E0E253FA4F808190E0089551
:101020008FEF9FEF08950895CF92DF92EF92FF9296
:101030000F931F93CF93DF937C01CB018A01209103
:10104000A805222389F0EB016B01C40ED51ECC1537
:10105000DD0561F06991D701ED91FC910190F0817E
:10106000E02DC7010995F3CF642F35D1C801DF9179
:10107000CF911F910F91FF90EF90DF90CF90089547
:10108000CF93DF931F92CDB7DEB769832091A80578
:101090002223C1F02091A905203230F021E0FC018B
:1010A000228380E090E014C08091AA05E82FF0E050
:1010B000E555FA4F998190838F5F8093AA058093BD
:1010C000A90504C061E0CE01019605D181E090E060
:1010D0000F90DF91CF910895FC01128248EE53E00A
:1010E00060E070E0438354836583768317828EE1EA
:1010F00091E09183808308951092CD051092CC05E4
:101100001092AA051092A9052FC0862F413208F02F
:1011100040E26EEC75E048D01092CD058093CC058E
:10112000089521E0F2CF81E08093A8056093CB057C
:101130001092AA051092A90508950F93062F21E099
:101140004091A9056BEA75E08091CB0571D01092B2
:10115000AA051092A9051092A8050F91089561E0C3
:10116000ECCF80EA95E0B8CF10925B0681E08093E7
:10117000590610925806599AE0EBF0E080818F7D75
:101180008083589A84B58F7D84BDE9EBF0E080813F
:101190008E7F808380818D7F808388E48093B800F8
:1011A00085E48093BC000895413208F03FC09091DF
:1011B0005B069111FCCF91E090935B06209359065A
:1011C0002FEF2093EE0510923306240F2093320662
:1011D00090935A0690915A06880F892B80935A064D
:1011E00080915806813041F41092580680915A0639
:1011F0008093BB0085EC01C085EE8093BC0080919C
:101200005B068130E1F380913306841710F440913E
:10121000330624E336E0FB01D9018A2F821B8417B1
:1012200018F48D918193F9CF842F089580E008956B
:101230000F93413208F046C090915B069111FCCFAC
:1012400092E090935B06009359069FEF9093EE0512
:101250001092330640933206FB0164E376E0DB0133
:101260009A2F961B941718F491919D93F9CF109291
:101270005A0690915A06880F892B80935A068091BE
:101280005806813041F41092580680915A06809396
:10129000BB0085EC01C085EE8093BC00222321F0C9
:1012A00080915B068230E1F38091EE058F3F61F023
:1012B0008091EE05803251F08091EE05803341F44B
:1012C00083E007C081E005C080E003C082E001C088
:1012D00084E00F910895613298F420915B062430E8
:1012E00089F460931006FC0182E196E0DC012A2F6C
:1012F000281B261718F421912D93F9CF80E008952B
:1013000081E0089582E0089585ED8093BC0080918E
:10131000BC0084FDFCCF10925B06089585EC8093A1
:10132000BC0010925B0608951F920F920FB60F92A9
:1013300011240BB60F922F933F934F935F936F93AC
:101340007F938F939F93AF93BF93EF93FF9380917E
:10135000B900887F803609F49CC068F5883209F4AA
:101360005BC090F4803109F454C038F4882309F448
:10137000F2C0883009F44DC0F1C0883109F44CC086
:10138000803209F45DC0EAC0803409F468C048F4D2
:10139000803309F455C0883309F0E0C08093EE052E
:1013A000A6C0803509F44FC0883509F45DC0883483
:1013B00009F0D4C0D2C0883909F4C3C0A8F4883772
:1013C00009F467C038F4883609F463C0803709F43B
:1013D00060C0C4C0883809F4B4C0803909F45FC063
:1013E000803809F0BBC05BC0803B09F482C038F490
:1013F000803A09F466C0883A09F47BC0AFC0803CEB
:1014000009F4A3C0883C09F4A0C0883B09F486C055
:10141000A5C080915A0610C0909133068091320683
:10142000981770F5E091330681E08E0F80933306B4
:10143000F0E0EC5CF94F80818093BB0085EC82C0CA
:101440008093EE058AC0E091330681E08E0F809391
:1014500033068091BB00F0E0EC5CF94F8083909103
:101460003306809132066AC0E091330681E08E0F28
:10147000809333068091BB00F0E0EC5CF94F8083F1
:1014800080915906811169C081E08093580684EAF1
:101490005DC083E080935B061092EF05CFCF809113
:1014A000EF05803208F04DC0E091EF0581E08E0F2E
:1014B0008093EF058091BB00F0E0E051FA4F80830C
:1014C000BDCF8091EF05803230F4E091EF05F0E080
:1014D000E051FA4F10826091EF0570E0E091540600
:1014E000F091550680EF95E009951092EF0516DF13
:1014F00035C084E080935B061092110610921006AE
:10150000E0915606F09157060995809110068111D9
:1015100005C081E08093100610921206E09111063A
:1015200081E08E0F80931106F0E0EE5EF94F80812E
:101530008093BB009091110680911006981708F4D3
:101540007DCF85E88093BC0009C085EC8093BC000A
:1015500010925B0603C01092EE05D6DEFF91EF916C
:10156000BF91AF919F918F917F916F915F914F91BB
:101570003F912F910F900BBE0F900FBE0F901F90B9
:101580001895AB01682F8CEF99E00C94682DEF92C1
:10159000FF920F93CF93DF93C82F8BE09AE00E94C6
:1015A0004638082FCD31D1F030F4CB3109F440C0AA
:1015B000CC3131F07AC0CE31F9F0CF3159F175C06C
:1015C0008BE09AE00E94B250602F8BE09AE00E947C
:1015D000A8448823D9F1CFEFD0E03AC08BE09AE05D
:1015E0000E94E051602F8BE09AE00E94AF44882374
:1015F00099F1CFEFD0E032C08BE09AE00E94165113
:10160000602F8BE09AE00E949A44882361F1CFEF2B
:10161000D0E02BC08BE09AE00E947A51602F8BE0E3
:101620009AE00E94A144882329F1CFEFD0E024C0A2
:101630008BE09AE00E944F478BE09AE00E941837B7
:10164000EC0134E0E32EF12C66E01AC0C0E0D0E0FB
:10165000E12CF12C62E014C0C0E0D0E0EE24E39471
:10166000F12C61E00DC0C0E0D0E092E0E92EF12C59
:1016700063E006C0C0E0D0E083E0E82EF12C60E03B
:10168000AE018CEF99E00E94682D8BE09AE00E94F9
:10169000B644AC010F5F21E0CF3FD10509F020E057
:1016A000B70181E199E00E946A25DF91CF910F9106
:1016B000FF90EF9008953F924F925F926F927F92CA
:1016C0008F929F92AF92BF92CF92DF92EF92FF9252
:1016D0000F931F93CF93DF937B018B01A42EB12C2B
:1016E000882E912CC8018E199F098A159B050CF034
:1016F00045C0C0E0D0E0312C6C2F8BE09AE00E9416
:101700006C31882329F1C815D90511F16C2F8BE0B4
:101710009AE00E944B386C01412C512CF6016191EA
:101720006F018BE09AE00E9431383C01F801608142
:101730008BE09AE00E9431386816790611F4332460
:101740003394FFEF4F1A5F0A87E04816510431F7D0
:101750002196C930D10581F631100DC0F8016081A4
:101760008BE09AE00E94313846E450E0BC018CEFF7
:1017700099E00E94822D0F5F1F4FB4CFDF91CF9170
:101780001F910F91FF90EF90DF90CF90BF90AF909F
:101790009F908F907F906F905F904F903F900895B3
:1017A0002F923F924F925F926F927F928F929F9271
:1017B000AF92BF92CF92DF92EF92FF920F931F935F
:1017C000CF93DF93CDB7DEB763970FB6F894DEBF44
:1017D0000FBECDBF182F962EF42E222E098B3E2C35
:1017E000682F8BE09AE07A8B0E94A8447A8988233C
:1017F000F1F15E0188E0A80EB11CC92CD72EFE01C4
:1018000031964F0135019F014F2C512CC50186198E
:101810009709841595051CF5D88ACF86F601619144
:101820006F018BE09AE02A8B3B8B0E943138F501E7
:1018300081935F01BC0177274FEF50E08CEF99E077
:101840000E94822DEF85F88960818BE09AE00E94EA
:101850003D38F40181934F013B892A89D7CFE22C8F
:101860000F2DA301612F81E199E00E944223232DD6
:101870004989612F81E199E00E94442263960FB665
:10188000F894DEBF0FBECDBFDF91CF911F910F91B6
:10189000FF90EF90DF90CF90BF90AF909F908F9090
:1018A0007F906F905F904F903F902F900895682F9A
:1018B00081E199E00C944424EF920F93211102C02E
:1018C000002349F0E02E022F242F462F682F81E1BC
:1018D00099E00E94A2240F91EF90089581E199E090
:1018E0000C94F7210F931F93CF93DF93EC01FB012F
:1018F00001900020E9F7AF0141505109461B570BF9
:10190000E881F9810280F381E02D09958C01CE01F7
:101910000E947858800F911FDF91CF911F910F91F6
:101920000895CF93853199F0863121F0843109F003
:101930003DC015C06130710509F041C06AE271E037
:1019400086EB9EE0CFDFC1E061E070E032C0672B44
:10195000B1F561E471E086EB9EE0C4DF27C0613041
:10196000710569F564E08CEF99E00E946C2D8F3F62
:10197000910549F468E571E086EB9EE0B3DF80E015
:1019800090E0C0E00AC0009739F466E771E086EBAA
:101990009EE0A8DF8FEF90E0C1E0AC0164E08CEF47
:1019A00099E00E94682D62E070E003C0C1E060E051
:1019B00070E04C2F81E199E0CF910C947126CF918A
:1019C0000895CF93DF938CEF99E00E94702DC0E0D3
:1019D000D0E0BE018BE09AE00E94E839882339F01C
:1019E00046E450E0BE018CEF99E00E94822D2196E2
:1019F000CC30D10571F7DF91CF910895AF92BF92AE
:101A0000CF92DF92EF920F931F93CF93DF931F92AA
:101A1000CDB7DEB7082FD62EC42E8BE09AE00E94F9
:101A2000CF39811168C110E0612F8BE09AE00E94EC
:101A30006C31811160C11F5F1930B1F78BE09AE002
:101A40000E944638E82E8BE09AE00E94B6445C0182
:101A500010E00A30110508F04EC1F801E45BFF4FB9
:101A60000C94715F65E18EEA98E00E941D1D882349
:101A700061F165E18EEA98E00E94781E8BE09AE0C1
:101A80000E942345DD2011F061E001C06FEF680F77
:101A900021F0613118F061E001C060E18BE09AE073
:101AA0000E94A84E8BE09AE00E942345682F81E1B6
:101AB00099E00F90DF91CF911F910F91EF90DF9000
:101AC000CF90BF90AF900C94D8288BE09AE00E9402
:101AD000C744DD2011F011E001C01FEF180F1A30CC
:101AE00021F017FF03C019E001C010E0612F8BE067
:101AF0009AE00E94034761E0610F81E199E00E9452
:101B00003C238BE09AE00E94CC4489835ADF898190
:101B1000682F18C08BE09AE00E94CC44DD2011F0C1
:101B200011E001C01FEF180F113121F017FF03C0A2
:101B300010E101C010E0612F8BE09AE00E9426477F
:101B400040DF612F81E199E00F90DF91CF911F91EC
:101B50000F91EF90DF90CF90BF90AF900C943F2308
:101B60002C2D40E050E06D2D8BE09AE00E94934ACE
:101B70006C014E2D60E070E08BE09AE00E940E4513
:101B8000E394082F9501A60160E070E016C02C2DAB
:101B900041E050E06D2D8BE09AE00E94934A6C0189
:101BA0004E2D61E070E08BE09AE00E940E45E394D8
:101BB000082F9501A60161E070E081E199E00E94A3
:101BC000D42699C02C2D41E050E06D2D8BE09AE099
:101BD0000E94944B6C012E2D41E050E060E070E0DB
:101BE0008BE09AE00E94EA44E394082F9501A60155
:101BF00061E070E04AC02C2D40E050E06D2D8BE09C
:101C00009AE00E94944B6C012E2D40E050E060E081
:101C100070E08BE09AE00E94EA44E394082F95017B
:101C2000A60160E070E031C02C2D43E050E06D2D46
:101C30008BE09AE00E94944B6C012E2D43E050E023
:101C400061E070E08BE09AE00E94EA44E394082FA0
:101C50009501A60163E070E018C02C2D42E050E031
:101C60006D2D8BE09AE00E94944B6C012E2D42E08A
:101C700050E061E070E08BE09AE00E94EA44E39477
:101C8000082F9501A60162E070E081E199E00E94D1
:101C9000432731C021E040E050E06D2D8BE09AE019
:101CA0000E94A14D6C014E2D60E070E08BE09AE047
:101CB0000E94D144E3948C019501A60160E070E09C
:101CC00016C021E041E050E06D2D8BE09AE00E94CB
:101CD000A14D6C014E2D61E070E08BE09AE00E9416
:101CE000D144E3948C019501A60161E070E081E1AB
:101CF00099E00E94B2270F90DF91CF911F910F9131
:101D0000EF90DF90CF90BF90AF9008958BE09AE076
:101D10000E94CF3990915D06981729F080935D0657
:101D200081E080935C0680915C06882371F067E017
:101D30008EEA98E00E941D1D811107C066E08EEAC0
:101D400098E00E941D1D882339F081E090915C0687
:101D5000992349F080E0089580915C0691E08927FD
:101D600010925C06F3CF08956F927F928F929F92AC
:101D7000AF92BF92CF92DF92EF92FF920F931F9399
:101D8000CF93DF93CDB7DEB72E970FB6F894DEBFB3
:101D90000FBECDBF682F8BE09AE00E944B385C01EC
:101DA000CE0101966C013E019FE0690E711C8E010F
:101DB000085F1F4F76014501F50161915F018BE0DE
:101DC0009AE00E943138F80181938F01F40160811B
:101DD0008BE09AE00E943D38F60181936F01061571
:101DE000170549F700E010E040E050E0B8018CEF43
:101DF00099E00E94822D0F5F1F4F0C301105A1F753
:101E0000CE0108966C0100E010E0F60181916F01AF
:101E10008C3039F046E450E0B8018CEF99E00E9434
:101E2000822D0F5F1F4F0730110579F7CE010896FD
:101E30006C0100E010E0F60181916F018C3089F0B7
:101E4000F701E00FF11FB0808BE09AE00E94264579
:101E5000B81207C04FEF50E0B8018CEF99E00E9434
:101E6000822D0F5F1F4F0730110529F72E960FB6F1
:101E7000F894DEBF0FBECDBFDF91CF911F910F91C0
:101E8000FF90EF90DF90CF90BF90AF909F908F909A
:101E90007F906F9008956F927F928F929F92AF92F2
:101EA000BF92CF92DF92EF92FF920F931F93CF9347
:101EB000DF93CDB7DEB761970FB6F894DEBF0FBEE4
:101EC000CDBF782E682F8BE09AE00E944B388E01B0
:101ED000085F1F4F6C01CE0101967C014E019FE00F
:101EE000890E911C602E712FA7015601F601619198
:101EF0006F018BE09AE0488B598B7F870E943138C5
:101F0000F80181938F01F50160818BE09AE00E94D6
:101F10003D38F70181937F01488959897F850815EC
:101F2000190519F7662D81E199E00E942D2A872D68
:101F30001BDF61960FB6F894DEBF0FBECDBFDF91F9
:101F4000CF911F910F91FF90EF90DF90CF90BF90B6
:101F5000AF909F908F907F906F9008951F93CF9335
:101F6000DF93D82F192F8BE09AE00E94CF3981118F
:101F700026C0C0E06C2F8BE09AE00E946C3181118A
:101F800030C0CF5FC930B1F740E06D2F712F8BE0CB
:101F90009AE00E94A149EC018130910509F411DD1C
:101FA0008BE09AE00E942B45282F40E050E0BE01D4
:101FB00081E199E0DF91CF911F910C942C286D2F36
:101FC0008BE09AE00E94CC4EBC0181E199E00E9436
:101FD0009A2A8BE09AE00E944638DF91CF911F91B8
:101FE0005ACFDF91CF911F910895CF93C82F61E011
:101FF000680F81E199E00E941E298C2F4CDF8BE055
:102000009AE00E942645682F81E199E0CF910C94D7
:10201000072ACF93DF9381E199E00E94712960E064
:102020008BE09AE00E94CC39C0E0D0E0BE018CEF9A
:1020300099E00E948A2D8F3F910539F446E450E0E3
:10204000BE018CEF99E00E94822D2196CC30D10503
:1020500069F7DF91CF9108951F93CF93DF93C82F36
:10206000D62F67E08EEA98E00E941D1D8823D9F1E3
:1020700066E08EEA98E00E941D1D8823A1F18BE0A6
:102080009AE00E94CC44873008F43FC08BE09AE08D
:102090000E94CF3911E0682F61278BE09AE00E94FF
:1020A000CC398BE09AE00E94CF39882361F18BE034
:1020B0009AE00E944638682F8BE09AE00E946C31CB
:1020C0008823D9F061E070E081E199E00E94A829BD
:1020D0001DDE8BE09AE00E94CF39682F61278BE0EC
:1020E0009AE00E94CC398BE09AE00E94CF398111AE
:1020F00029C00CDE811131C025C08BE09AE00E941E
:10210000463873DFF0CF85DFEECF8BE09AE00E9498
:10211000CF3911E0682F61278BE09AE00E94CC391B
:10212000F5DD8BE09AE00E94CF39682F61278BE0C4
:102130009AE00E94CC3960E070E081E199E00E9471
:10214000A829D1CF8BE09AE00E94CF39882309F4E7
:1021500075C0DCDD81114CC071C065E18EEA98E08C
:102160000E941D1D811114C0D11168C061E0C11110
:1021700001C060E08BE09AE00E94A947EC018BE08F
:102180009AE00E942645282F41E050E0BE0129C078
:10219000DD2309F453C08BE09AE00E944638682F93
:1021A0008BE09AE00E946C31882349F061E070E096
:1021B00081E199E0DF91CF911F910C94A82965E10D
:1021C0008EEA98E00E94781E61E0C11101C060E0D3
:1021D00040E08BE09AE00E94DC4FBC012C2F42E0F3
:1021E00050E081E199E0DF91CF911F910C942C2870
:1021F0008BE09AE00E944638682F8BE09AE00E94BC
:102200006C318111D3CFD11119C061E0C11101C06E
:1022100060E08BE09AE00E9494478BE09AE00E9495
:102220004638A2DD8BE09AE00E942645682F81E1C6
:1022300099E0DF91CF911F910C94072ADF91CF9104
:102240001F91089561EC7AE08BE09AE00E944D3A8C
:1022500060ED7BE08BE09AE00E94413A6BE57BE029
:102260008BE09AE00E94453A6CE57CE08BE09AE0D6
:102270000E943D3A6EE67CE08BE09AE00E94513A83
:1022800067E57CE08BE09AE00E94493A65EF7FE0E9
:102290008BE09AE00C94553A67EC7AE08EEA98E08D
:1022A0000E94681E6CE270E18EEA98E00E946C1E4B
:1022B0006EEA7FE08EEA98E00E94701E61E97CE0A1
:1022C0008EEA98E00C94741E6EEF7CE087EE98E046
:1022D0000C948B20B7DFE0DFF7CFCF93DF938EEA4C
:1022E00098E00E949D1EF8948CE696E000D58EE35F
:1022F00097E00E946E1B89EA9EE00E94BE5381E136
:1023000099E00E945C218CEF99E00E944B2D8BE0BC
:102310009AE00E94473087EE98E00E9433208BE0DD
:102320009AE00E94C744D82F8BE09AE00E94CC44E8
:10233000C82F61E06D0F81E199E00E943C236C2F72
:1023400081E199E00E943F233CDB7894DF91CF91BB
:10235000089540E056E960E070E086EB9EE00E9460
:102360007D5A2FEF81EE94E0215080409040E1F7BC
:1023700000C00000AFDFB1CFCF93DF93CDB7DEB7A2
:1023800027970FB6F894DEBF0FBECDBF8BE09AE063
:102390000E947D398EEA98E00E94D01F87EE98E077
:1023A0000E94342081E199E00E94782B66E18EEA58
:1023B00098E00E941D1D1FD7882381F165E971E017
:1023C000CE0101960E94A75BBE016F5F7F4F81E146
:1023D00099E00E94DD2ACE0101960E94425B8CEFBB
:1023E00099E00E945A2D81E199E00E94782B8EEAB3
:1023F00098E00E94D01F65E18EEA98E00E941D1DC2
:102400008823A9F38CEF99E00E944C2D62E370E0E1
:1024100080E090E00E94111C0E946A5527960FB63A
:10242000F894DEBF0FBECDBFDF91CF91089569EA6A
:1024300071E085E696E00E94A75B62ED71E08EE5B3
:1024400096E00C94A75B8EE596E00E94425B85E6E1
:1024500096E00C94425B97FD08C0853091051CF016
:1024600007972CF002C087E0089580E0089585E08A
:1024700008958730910590F5FC01EA5AFF4F70E00E
:102480000C94715FFB01EE0FFF1FE95DFD4F23C050
:10249000FB01EE0FFF1FE75EFD4F1DC0FB01EE0FBE
:1024A000FF1FE55FFD4F17C0FB01EE0FFF1FE3505D
:1024B000FE4F11C0FB01EE0FFF1FE151FE4F0BC09D
:1024C000FB01EE0FFF1FEB51FE4F05C0FB01EE0FAE
:1024D000FF1FE552FE4F80819181089580E090E0DA
:1024E0000895DB010D900020E9F7AD01415051093D
:1024F000461B570BDC01ED91FC910280F381E02D2E
:1025000009940F931F93CF93DF93EC010E942758F8
:102510008C01CE010E947858800F911FDF91CF91DE
:102520001F910F9108950F931F93CF93DF93EC01A9
:10253000AB0160E070E020E00E9492588C01CE0177
:102540000E947858800F911FDF91CF911F910F91BA
:102550000895CF93DF93C0E0D0E06FEFCE010E94EB
:1025600007602196C11580E1D807B9F7DF91CF91B7
:102570000895FC0185E0808381E090E0908F878B57
:1025800094A783A72AE030E0328F218F96A785A7F2
:102590002EEB30E0348F238F90AB87A728E334E015
:1025A000368F258F92AB81AB22ED30E030A3278FA1
:1025B00094AB83AB21E027AFDF01AA5ABF4F26E7D8
:1025C00032E011963C932E93549611969C938E93E1
:1025D000549686E08C93579629E030E011963C9310
:1025E0002E93549682E090E011969C938E9352978E
:1025F00011963C932E93549611969C938E935297DA
:1026000011963C932E93549611969C938E935297C9
:1026100011963C932E93549611969C938E935297B9
:1026200011963C932E93549611969C938E935297A9
:102630002D933C93ED54FF4F9183808308952F9207
:102640003F924F925F926F927F928F929F92AF9242
:10265000BF92CF92DF92EF92FF920F931F93CF938F
:10266000DF934C0169E671E086EB9EE04ADF86EB82
:102670009EE00E9478588401C12CD12C760116016D
:1026800069E571E086EB9EE00E942758B701A6013C
:1026900086EB9EE00E94EE5886EB9EE00E94785802
:1026A000E8012196412C512C32015201F801208180
:1026B000822F90E0481659060CF055C060E571E095
:1026C00086EB9EE00E942758B301A20186EB9EE0B4
:1026D0000E94EE5864E471E086EB9EE00E94275869
:1026E000AB2821F4F8011482138231C088A599A582
:1026F00081309105E9F082309105F9F0892B39F5A7
:102700008C899D8963E0969587956A95E1F7288184
:102710003981820F931F2E893F892770332741E02B
:1027200050E0232B11F440E050E0840F951F0DC0C2
:10273000888199812C893D8906C08C899D89880F63
:10274000991F28813981820F931F9B838A836A8115
:102750007B8186EB9EE0E7DE2296FFEF4F1A5F0A51
:102760006F0A7F0AA2CF8FEF820F9FE3929DF00145
:10277000939DF00D1124E80FF11DE80FF11DE80DF8
:10278000F91D83A594A581309105D1F08230910582
:10279000D1F0892B09F52789308DC90143E0969541
:1027A00087954A95E1F743815481840F951F2770DF
:1027B0003327C1E0D0E0232B61F4C0E0D0E009C0B2
:1027C000C789D08D04C0C789D08DCC0FDD1F838110
:1027D0009481C80FD91F02C0C0E0D0E06FE271E061
:1027E00086EB9EE00E942758AE0160E070E020E09A
:1027F00086EB9EE00E94925868E271E086EB9EE0D4
:1028000080DE86EB9EE00E947858E2E02E163104CE
:1028100049F0F801818192818C0F9D1FE05CFF4F90
:1028200091838083FFEFCF1ADF0AEF0AFF0A015C72
:102830001F4F83E0C816D104E104F10409F01FCF53
:102840006FEF70E086EB9EE05CDEE401C12CD12CE2
:10285000760165E372E086EB9EE043DEB701A601F8
:1028600086EB9EE00E94EE586CE372E086EB9EE001
:1028700038DE69817A8186EB9EE055DE9FEFC91ACA
:10288000D90AE90AF90AEF96E3E0CE16D104E10489
:10289000F104F9F666ED70E086EB9EE0DF91CF91F2
:1028A0001F910F91FF90EF90DF90CF90BF90AF906E
:1028B0009F908F907F906F905F904F903F902F9060
:1028C00020CE4F925F926F927F928F929F92AF92A3
:1028D000BF92CF92DF92EF92FF920F931F93CF930D
:1028E000DF938C01FC01E180F2808381948160E0C0
:1028F0008E0D9F1D0E940760F801C580D680CE0C0A
:10290000DF1CC0E0D0E060E0CE018C0D9D1D0E9478
:1029100007602196CA30D105B1F7C12CD12CF8013E
:10292000C781D085CE0DDF1DCC0DDD1DE4EB8E2ED5
:10293000E2E09E2EA12CB12CF40161914F01C50162
:102940008C0F9D1F0E940760FFEFAF1ABF0A83E143
:10295000A816B10489F7E3E1CE0ED11CFEEBCF1629
:10296000D104E9F6C12CD12CF801C185D285CE0D58
:10297000DF1DCC0DDD1D412C512C32016C0E7D1E56
:1029800078EA872E72E0972EA12CB12CF401619188
:102990004F01C501860D971D0E940760FFEFAF1A1A
:1029A000BF0A8CE0A816B10489F7ECE04E0E511C6A
:1029B000FCE64F16510409F78CE6C80ED11CE8E37B
:1029C000CE16E4E0DE0681F6C12CD12CF801C385D9
:1029D000D485CE0DDF1DCC0DDD1DA12CB12C64E006
:1029E000CE010E94076060E0CE0101960E94076060
:1029F00060E0CE0102960E940760FFEFAF1ABF0AA7
:102A0000239687E0A816B10451F7E5E1CE0ED11C5C
:102A1000F2EDCF16D104D1F6DF91CF911F910F9136
:102A2000FF90EF90DF90CF90BF90AF909F908F90EE
:102A30007F906F905F904F9008958F929F92AF928A
:102A4000BF92CF92DF92EF92FF920F931F93CF939B
:102A5000DF93FC01E05CFF4FA080B180E12CF12C02
:102A60004C0122E4820E911CF401C081D181CA0D77
:102A7000DB1DCE0DDF1DC12CD12C00E010E00115B7
:102A8000110519F460E3CE0104C060E8C8018C0FA1
:102A90009D1F0E9407600F5F1F4F0730110579F7D8
:102AA000FFEFCF1ADF0A279629E0C216D10429F7D3
:102AB0008FE3E80EF11CE6E7EE16E2E0FE06A1F673
:102AC000DF91CF911F910F91FF90EF90DF90CF900A
:102AD000BF90AF909F908F900895CF92DF92EF922A
:102AE000FF920F931F93CF93DF93EC01FC01E1580A
:102AF000FF4F00811181E12CF12C6C0181E8C80E9F
:102B0000D11CF60180819181800F911F63E270E0FA
:102B10008E0D9F1D0E941960F2E0EF0EF11C82E104
:102B2000E816F10471F7E12CF12C6E01E3E8CE0E0A
:102B3000D11CF60180819181800F911F6EE571E0BB
:102B40008E0D9F1D0E941960F2E0EF0EF11C82E1D4
:102B5000E816F10471F7E12CF12C6E01E5E8CE0ED8
:102B6000D11CF60180819181800F911F64EA71E090
:102B70008E0D9F1D0E941960F2E0EF0EF11C82E1A4
:102B8000E816F10471F7E12CF12C6E01E7E8CE0EA6
:102B9000D11CF60180819181800F911F64E372E066
:102BA0008E0D9F1D0E941960F2E0EF0EF11C82E174
:102BB000E816F10471F7E12CF12C6E01E9E8CE0E74
:102BC000D11CF60180819181800F911F62EC71E030
:102BD0008E0D9F1D0E941960F2E0EF0EF11C82E144
:102BE000E816F10471F7E12CF12CC557DF4F88810D
:102BF0009981800F911F68E572E08E0D9F1D0E94E4
:102C00001960E2E0EE0EF11CF2E1EF16F10479F743
:102C1000DF91CF911F910F91FF90EF90DF90CF90B8
:102C20000895CF93DF93EC014CDECE0106DFCE0199
:102C300054DF65E18DEF9FE00E94076065E18EEF54
:102C40009FE00E94076065E18FEF9FE0DF91CF91E9
:102C50000C9407601F93CF93DF93EC0160E080E05A
:102C6000C3D28DE492E051D213E360E081E1BCD2A3
:102C7000812F49D22FEF83ED90E321508040904087
:102C8000E1F700C000001150103379F73AD260E04C
:102C900080E0AAD28EE592E038D261E080E0A4D252
:102CA0008FE692E032D2CE0154DC61E080E09CD22B
:102CB0008DE792E02AD2CE01B4DF23D260E080E03B
:102CC00093D280E992E021D261E080E08DD28EE95A
:102CD00092E01BD22FEF87EA91E62150804090408E
:102CE000E1F700C00000DF91CF911F910895CF92CE
:102CF000DF92EF92FF927C013CDCC701A0DC8DEFFC
:102D00009FE00E94FA5F853161F48EEF9FE00E94A0
:102D1000FA5F853131F48FEF9FE00E94FA5F8531D1
:102D200011F0C70197DF67EE71E086EB9EE0E9DB0B
:102D30006EEB71E086EB9EE0E4DBC12CD12C7601DA
:102D4000B701A60186EB9EE00E94EE586BEB71E0A6
:102D500086EB9EE00E942758C6010E94FA5F482F2A
:102D600050E060E070E020E086EB9EE00E94925828
:102D700086EB9EE00E9478588FEFC81AD80AE80ABE
:102D8000F80AC11480E1D806E104F104C9F662E949
:102D900071E086EB9EE0FF90EF90DF90CF90B1CB9B
:102DA000CF92DF92EF92FF920F931F93CF93DF9317
:102DB000E9012FE3629FB0011124FB01E40FF11D33
:102DC000E40FF11DE80FF91FDC01A60FB71FE38028
:102DD000F48011968D919C911297E80EF91E83A5AF
:102DE000813009F440C080F0823009F04BC06E01A0
:102DF000CC0CDD1CCE0CDF1CB801C6010E94196092
:102E0000C6018C1B9D0B36C0CE01D7FD0796A3E0F3
:102E100095958795AA95E1F728EF829FC00D11241B
:102E2000E80EF11CC7010E94FA5F41E050E060E04B
:102E300070E004C0440F551F661F771FCA95D2F774
:102E4000012B19F0C82FC42B03C0C42FC095C82371
:102E50006C2FC7010E940760C7010E94FA5F91E0D2
:102E6000C81310C010C0EC0EFD1E602FC7010E94D9
:102E70000760C7010E94FA5F282F30E091E0021737
:102E8000130709F090E0892FDF91CF911F910F91E7
:102E9000FF90EF90DF90CF90089569EA71E080E3B2
:102EA00097E00E94A75B62ED71E089E297E00C94E5
:102EB000A75B89E297E00E94425B80E397E00C9475
:102EC000425B5C9808955C9A08954F925F926F926E
:102ED0007F928F929F92AF92BF92CF92DF92EF92AA
:102EE000FF920F931F93CF93DF931F92CDB7DEB75F
:102EF000882319F0898397D0898190913707992386
:102F000031F03AE13A95F1F700C010923707882383
:102F100029F02F9A81E08093370701C02F985A9AA1
:102F20006898579856985598CEDF82E08A95F1F7C1
:102F300000C069B079B099B08CB0C3DF92E09A95C7
:102F4000F1F700C0C0DFE2E0EA95F1F700C099B107
:102F500089B129B13CB130FB442440F8512C33E015
:102F6000440C551C3A95E1F795FBAA24A0F8B12C26
:102F70004A285B2886FBCC24C0F8D12CCC0CDD1C65
:102F80004C285D28332727FD30952227330F221F39
:102F90003327220F331F220F331F422A532A65FA89
:102FA000EE24E0F8F12C74E0EE0CFF1C7A95E1F7CA
:102FB00076FA002700F910E0E5E0000F111FEA950E
:102FC000E1F70E29282D279522272795202B892DDB
:102FD000992787FD90958827990F881F9927A6E044
:102FE000880F991FAA95E1F7282B422A6ADF689A71
:102FF000579A569A559A709A5F9A5E9A5D9A5A981D
:10300000842D0F90DF91CF911F910F91FF90EF9042
:10301000DF90CF90BF90AF909F908F907F906F90F8
:103020005F904F900895CF93DF93C1EDD3E080E0A0
:103030004CDF87FF02C02197D1F7DF91CF91089530
:103040001F93CF93DF931F92CDB7DEB7182F6983FD
:10305000EADF809137076981882331F08AE18A9518
:10306000F1F700C010923707662329F02F9A81E00C
:103070008093370703C02F981092370717FF02C0BD
:10308000709A01C0709816FF02C05F9A01C05F98E5
:1030900015FF02C05E9A01C05E9814FF02C05D9ADF
:1030A00001C05D9800C00FDFE2E0EA95F1F700C0D3
:1030B00008DF13FF02C0709A01C0709812FF02C0AF
:1030C0005F9A01C05F9811FF02C05E9A01C05E98CE
:1030D00010FF02C05D9A01C05D9800C0F4DEF2E00E
:1030E000FA95F1F700C0EDDE709A5F9A5E9A5D9AEC
:1030F0000F90DF91CF911F91089560E0A1CF80588C
:10310000FCCF81E0FACF61E09BCFCF93DF93EC015E
:103110008991882311F0F7DFFBCFDF91CF910895DC
:10312000549A279A529A689A579A569A559AC9DE8B
:103130002F985A98709A5F9A5E9A5D9A8FE59AEEE8
:103140000197F1F700C0000070985F9800C0BBDEE7
:1031500092E09A95F1F700C0B4DE8FE090E4019719
:10316000F1F700C00000AFDE92E09A95F1F700C0E1
:10317000A8DE8FE891E00197F1F700C00000A3DE20
:1031800092E09A95F1F700C09CDE85ED8A95F1F703
:1031900000005D9800C097DE92E09A95F1F700C0BC
:1031A00090DE85ED8A95F1F700005D9800C08BDE1A
:1031B00092E09A95F1F700C084DE82E08A95F1F7FB
:1031C00000C0709A00C07FDE92E09A95F1F700C0CF
:1031D00078DE85ED8A95F1F7000088E08EDF91DFDB
:1031E00086E08BDF8CE089CFE62FF0E0E953FD4FDE
:1031F0009081890F84CF0F931F93813021F58091A7
:103200003C0781110CC081E080933C07FED26093A3
:1032100038077093390780933A0790933B07F5D2AC
:10322000009138071091390720913A0730913B07F8
:10323000601B710B820B930B21E0693B7B40810586
:10324000910520F402C010923C0720E0822F1F91CC
:103250000F910895CF92DF92FF920F931F93CF9318
:10326000DF93082F10E0F801EB52FD4F80810E94A0
:103270004554F801E553FD4F80810E944554680193
:10328000CC0CDD1CD601A356B84F0D90BC91A02DDF
:10329000FC90D601A757B84F0D90BC91A02D9C91E2
:1032A000D801AB58B84F8C919823E801C559D84F35
:1032B000888183709801220F331F220F331FD90199
:1032C000AD5BB84F4D915D916D917C91D801A15846
:1032D000B84FAC91FA2209F0846091118860A82F50
:1032E000B0E0B595A795B595A795A88390E001970F
:1032F0008E30910560F5835A9F4FFC010C94715FED
:10330000E901CD5BD84FDB01CA010196A11DB11DBA
:103310001AC0E901CD5BD84FDB01CA010197A109B1
:10332000B10911C0E901CD5BD84FDB01CA0102969A
:10333000A11DB11D08C0E901CD5BD84FDB01CA0159
:103340000297A109B10988839983AA83BB83D90114
:10335000AD5BB84F8D919D910D90BC91A02D8417C0
:103360009507A607B707C9F08C019D0103701127C7
:1033700022273327012B022B032B79F4F601EF547C
:10338000F84F481759076A077B071CF48FE790E04E
:1033900002C081E090E091838083DF91CF911F9103
:1033A0000F91FF90DF90CF90089580FF02C0299A7F
:1033B00001C0299890E09C013595279520FF02C017
:1033C0002A9A01C02A98959587959595879580FFAB
:1033D00002C02B9A08952B9808951F920F920FB652
:1033E0000F9211240BB60F922F933F934F935F933D
:1033F0006F937F938F939F93AF93BF93CF93EF93ED
:10340000FF9320913D07222399F080913F079091EF
:103410004007A0914107B09142070196A11DB11D3F
:1034200080933F0790934007A0934107B0934207D2
:1034300081E0822780933D07C0E08C2F0BDFCF5FB8
:10344000CA30D9F7FF91EF91CF91BF91AF919F9182
:103450008F917F916F915F914F913F912F910F903D
:103460000BBE0F900FBE0F901F9018951F920F92DA
:103470000FB60F9211240BB60F922F933F934F93D9
:103480005F936F937F938F939F93AF93BF93CF93EC
:10349000EF93FF932C988091B0008F778093B000CA
:1034A0002D98809180008F77809380002E98809156
:1034B00080008F7D809380008091250876DFA0E0DA
:1034C000B0E06FEF70E0809125088B0F90E0880FDF
:1034D000991FFC01EB50F84F20813181FC01EB5327
:1034E000F84F40815181452B21F140815181A1301C
:1034F00059F0A23099F0249A4093B3004091B00063
:1035000040684093B00015C0259A55275093890014
:103510004093880040918000406809C0269A552752
:1035200050938B0040938A0040918000406240930A
:103530008000FC01EB53F84F408151814217530743
:1035400044F4C0910401408151814C0F511D5183BD
:103550004083FC01EB53F84F408151814F3F5105AF
:1035600019F014F0718360832115310519F02634A8
:10357000310599F4C0910401FC01EB53F84F4081EF
:1035800051814C1B5109518340832634310529F464
:103590004081518146345105D4F0FC01EB53F84F82
:1035A0008081918197FF02C011821082B85FAF5F66
:1035B000B83109F088CF809125088F5F8093250866
:1035C00080912508883031F41092250803C031839A
:1035D0002083E3CFFF91EF91CF91BF91AF919F9166
:1035E0008F917F916F915F914F913F912F910F90AC
:1035F0000BBE0F900FBE0F901F901895E62FF0E0B6
:10360000EE0FFF1FEB50F84F808191810895E62F58
:10361000F0E0EE0FFF1FEB50F84F51834083089509
:10362000E62FF0E0EE0FFF1FEF54F84F80819181FD
:10363000118210820895CF93DF9370E050E0440F21
:10364000551FFA01E95FF14F849190E0DB01AA0F69
:10365000BB1FA356B84F8D939C93FA01EA5FF14FBD
:103660004491DB01A158B84F4C9330E0220F331F37
:10367000F901E95FF14FC491D0E0DB01AA0FBB1F54
:10368000A757B84FCD93DC93F901EA5FF14F24912E
:10369000FB01EB58F84F2083DB01AA0FBB1FAA0FD9
:1036A000BB1FAD5BB84F1D921D921D921C921397CC
:1036B000DC019C91DB01A158B84F8C91982381E0EB
:1036C00009F480E098812081922309F08260FB0157
:1036D000E559F84F8083DF91CF910895DF92EF9203
:1036E000FF920F931F93CF93DF937C011092900072
:1036F0001092910010929500109294001092710017
:10370000109299001092980010929B0010929A00CB
:1037100010929D0010929C0080919100886080938F
:103720009100809191008460809391008EE590E0FB
:1037300090939900809398001092800010928100DD
:103740001092820010926F001092850010928400F7
:10375000109289001092880010928B0010928A00BB
:1037600010928D0010928C001092B0001092B10057
:10377000109270001092B2001092B3001092B40038
:10378000809180008160809380008091B000816092
:103790008093B0008091810081608093810080914E
:1037A000B10081608093B10014BC15BC16BC1092AE
:1037B0006E0017BC18BC84B5826084BD85B583607B
:1037C00085BD8CE787BD8091710082608093710018
:1037D00080916E00826080936E000BEC12E0C5ED6C
:1037E000D2E0D12CF80121918F0149916D2DC701B3
:1037F00022DFD394FAE0DF12F5CFDF91CF911F9152
:103800000F91FF90EF90DF9008952FB7F89460919B
:103810003F077091400780914107909142072FBF69
:1038200008950F931F9300E010E098010617170703
:103830002807390759F0EFE9FFE03197F1F700C0A9
:1038400000000F5F1F4F2F4F3F4FF0CF1F910F9181
:1038500008951F920F920FB60F9211240BB60F927C
:103860002F938F939F93EF93FF939091CE0080912E
:103870002D088F5F803408F080E020912C0882179B
:1038800039F0E82FF0E0E25DF74F908380932D0848
:10389000FF91EF919F918F912F910F900BBE0F9001
:1038A0000FBE0F901F9018951F920F920FB60F9298
:1038B00011240BB60F928F939F93EF93FF939091E8
:1038C0002B0880912A0898130AC08091280881113A
:1038D00002C088E401C088ED8093C9000FC08091C8
:1038E0002A088F5F803408F080E0E82FF0E0E2598A
:1038F000F74F90819093CE0080932A08FF91EF912B
:103900009F918F910F900BBE0F900FBE0F901F9045
:1039100018951F920F920FB60F921124109229083A
:103920000F900FBE0F901F901895CF92DF92EF92DD
:10393000FF920F93CF936A017B01C22F2093280837
:1039400000932708CB01BA019695879577956795DF
:1039500060587B47814E9F4FA70196010E94335FBD
:10396000B90161707727672B41F0213060E136079C
:1039700024F482E08093C80004C01092C8003595FA
:103980002795215031093093CD002093CC008091B0
:10399000C90083FD1AC010922D0810922C081092B5
:1039A0002B0810922A081092290886E08093CA00FA
:1039B000CC2331F0002311F088ED05C080E903C06D
:1039C000002319F088E48093C900CF910F91FF90F4
:1039D000EF90DF90CF900895DC01ED91FC91019084
:1039E000F081E02D0994FC0110AA11AA12AA13AAD1
:1039F00014A615A616A617A610861186128613867B
:103A000014AA4FEF5FEFBA0145AB56AB67AB70AF8F
:103A100080E090E020EFDF01A80FB91F1C962C93E7
:103A2000019680329105B9F71182108215821482B5
:103A300017821682138212820895FC0184A595A52F
:103A4000A6A5B7A504C0B695A795979587956A953D
:103A5000D2F781700895406FFC01E60FF11D948547
:103A6000990F942B948781E0903F21F09F3F11F0B4
:103A700080E0089508950F931F93FC01862F04A5FD
:103A800015A526A537A5442381F041E050E060E06C
:103A900070E004C0440F551F661F771F8A95D2F748
:103AA000402B512B622B732B13C041E050E060E0A0
:103AB00070E004C0440F551F661F771F8A95D2F728
:103AC0004095509560957095402351236223732350
:103AD00044A755A766A777A71F910F910895AF92A6
:103AE000BF92CF92DF92EF92FF920F931F93CF93EB
:103AF000DF931F92CDB7DEB75C01562FF42EDC01A9
:103B00009C960D911D912D913C919F97062E04C07E
:103B100036952795179507950A94D2F701701127C6
:103B200022273327401709F4C7C05983A4DF5981DE
:103B3000FF20D9F1F50105A916A927A930AD543107
:103B400028F45E30D0F4563080F517C085EE850F2E
:103B5000853058F5052E04C036952795179507959D
:103B60000A94D2F700FF21C06F2D70E00190F08120
:103B7000E02D852F5983099517C0E52FF0E0E1521C
:103B8000FD4F8081052E04C0369527951795079522
:103B90000A94D2F700FF09C0D5011696ED91FC9169
:103BA000179790E0598309955981F50105A916A940
:103BB00027A930AD573049F018F45630D1F03FC046
:103BC0008CEE850F833050F13AC057E0369527953B
:103BD000179507955A95D1F700FF31C061E0F110B4
:103BE00001C060E0D5011496ED91FC91159780E03D
:103BF00013C046E036952795179507954A95D1F756
:103C000000FF1DC061E0F11001C060E0D501149615
:103C1000ED91FC91159781E0099511C0052E04C026
:103C200036952795179507950A94D2F700FF07C098
:103C30006F2D70E00280F381E02D852F099580E0E3
:103C400090E0C12CD12C7601C394F50105A916A9E9
:103C500027A930ADB901A801082E04C07695679553
:103C6000579547950A94D2F740FD0EC044A555A537
:103C700066A577A5082E04C0769567955795479554
:103C80000A94D2F740FF05C0019680329105E9F60B
:103C900013C0B701A601082E04C0440F551F661FAC
:103CA000771F0A94D2F7402B512B622B732B45AB15
:103CB00056AB67AB70AFE8CF0F90DF91CF911F91FC
:103CC0000F91FF90EF90DF90CF90BF90AF9008954D
:103CD000FC01718360830895FC01758364830895FA
:103CE000FC01778366830895FC01738362830895E2
:103CF0000F931F93262F41E050E060E070E004C076
:103D0000440F551F661F771F2A95D2F7409550958F
:103D100060957095FC0105A916A927A930AD04236B
:103D200015232623372305AB16AB27AB30AF1F91E6
:103D30000F9108958EEA98E056CE80EA95E00E94B1
:103D40007C0861E280EA95E00E94930860E080EAE6
:103D500095E00E9440086FEF70E080EA95E03CDE5D
:103D600080EA95E00E94AF0861E280EA95E00E9457
:103D7000930861E080EA95E00E9440086FEF70E0F0
:103D800080EA95E029DE80EA95E00E94AF0860E2D3
:103D900080EA95E00E94930860E080EA95E00E9446
:103DA00040086FEF70E080EA95E016DE80EA95E06B
:103DB0000E94AF0860E280EA95E00E94930861E00B
:103DC00080EA95E00E9440086FEF70E080EA95E09D
:103DD00003DE80EA95E00E94AF0861E280EA95E0A8
:103DE0000E9493086CE080EA95E00E9440086FEF23
:103DF00070E080EA95E0F0DD80EA95E00E94AF088F
:103E000061E280EA95E00E9493086DE080EA95E027
:103E10000E9440086FEF70E080EA95E0DDDD80EA07
:103E200095E00E94AF0860E280EA95E00E94930866
:103E30006CE080EA95E00E9440086FEF70E080EA55
:103E400095E0CADD80EA95E00E94AF0860E280EA72
:103E500095E00E9493086DE080EA95E00E9440089A
:103E60006FEF70E080EA95E0B7DD80EA95E00C94B2
:103E7000AF08CF93DF93EC0188859985AA85BB8530
:103E8000BA2FA92F982F882788879987AA87BB8759
:103E9000ECA9F0E0ED50FD4F608180EA95E00E94D2
:103EA000930862E180EA95E00E94400880EA95E08C
:103EB0000E94AF08ECA9F0E0ED50FD4F608170E08A
:103EC00041E050E080EA95E00E94910880EA95E0A8
:103ED0000E94E907892BD1F380EA95E00E94F1075F
:103EE000AA2797FDA095BA2F488559856A857B85B5
:103EF000842B952BA62BB72BBA2FA92F982F882769
:103F000088879987AA87BB8780EA95E00E94AF08D7
:103F1000ECA9F0E0ED50FD4F608180EA95E00E9451
:103F2000930863E180EA95E00E94400880EA95E00A
:103F30000E94AF08ECA9F0E0ED50FD4F608170E009
:103F400041E050E080EA95E00E94910880EA95E027
:103F50000E94E907892BD1F380EA95E00E94F107DE
:103F6000AA2797FDA095BA2F488559856A857B8534
:103F7000482B592B6A2B7B2B488759876A877B876D
:103F800080EA95E00E94AF088CA98F5F823019F01B
:103F90008CAB80E002C01CAA81E0DF91CF91089534
:103FA000CF92DF92EF92FF920F931F93CF93DF9305
:103FB000EC012BDCC8A8D9A8EAA8FBA86C197D09DC
:103FC0008E099F09633071058105910588F1CE0145
:103FD00050DF882341F100E010E0C884D984EA84EE
:103FE000FB84002E04C0F694E794D794C7940A94F7
:103FF000D2F781E0C822DD24EE24FF2481E0C82628
:104000004C2D602FCE0127DD882321F04C2D602F11
:10401000CE0165DD0F5F1F4F00321105F1F61886E6
:1040200019861A861B86F1DB68AB79AB8AAB9BAB32
:10403000DF91CF911F910F91FF90EF90DF90CF9084
:10404000089520E030E0FC01E20FF31F128213829A
:10405000148215822C5F3F4F28323105A1F7FC01F5
:1040600011821082089508956F927F928F929F928D
:10407000AF92BF92DF92EF92FF920F931F93CF9375
:10408000DF931F92CDB7DEB77C013C01D12C6D2DA3
:104090008EE397E0C5DA8C01009739F1B6DBD301E6
:1040A00012968D909D90AD90BC90159768197909E6
:1040B0008A099B09653671058105910510F041E07B
:1040C00001C045E04983A1DBF301628373838483EC
:1040D0009583D701ED91FC9149810130110511F4CF
:1040E00060E001C061E08D2D0995D394B4E06B0EC2
:1040F000711CEAE0DE12CBCF0F90DF91CF911F91C0
:104100000F91FF90EF90DF90BF90AF909F908F90B6
:104110007F906F900895FC0171836083089587EE0E
:1041200098E08FCFCF93DF9384ED99E00E94425BBC
:104130008DEC99E00E94425B81EB99E0892B29F498
:1041400085E999E0892B91F41BC086EC99E00E94E7
:10415000425B8FEB99E00E94425B88EB99E00E9402
:10416000425B81EB99E00E94425BEACFC1EBD9E070
:104170002797CE010E94425B89E0C539D807C1F775
:1041800089E799E0892B51F0C5E9D9E02797CE015D
:104190000E94425B89E0C937D807C1F78DE599E0F5
:1041A000892B51F0C9E7D9E02797CE010E94425BE5
:1041B00089E0CD35D807C1F78EEE99E00E94425BC9
:1041C00085EF99E0DF91CF910C94425B0C944B5CAE
:1041D00070E00C945F5CEF92FF920F931F93CF936C
:1041E000DF93EC010E94EB55FE01EC5BFF4F608317
:1041F0007183828393838E01045B1F4F78018CE16E
:10420000E80EF11C60E070E0C8010E94A75B095F46
:104210001F4F0E151F05B1F78E0108591F4F78016A
:104220008CE1E80EF11C60E070E0C8010E94A75B21
:10423000095F1F4F0E151F05B1F78E010C571F4F59
:1042400078018CE1E80EF11C60E070E0C8010E948A
:10425000A75B095F1F4F0E151F05B1F78E010056B2
:104260001F4F78018CE1E80EF11C60E070E0C8019E
:104270000E94A75B095F1F4F0E151F05B1F760E095
:1042800070E0CE0184549F4F0E94A75B60E070E015
:10429000CE018D539F4F0E94A75B18AA18A619A69E
:1042A0001AA61BA61AAA1AAEDF91CF911F910F91E1
:1042B000FF90EF900C9490189F92AF92BF92CF9284
:1042C000DF92EF92FF920F931F93CF93DF93EC0156
:1042D0000E9481188E017E01C12CD12C99249394C7
:1042E000F801E85BFF4F108257018CE4A80EB11C67
:1042F00068E270E0C5010E945F5B65EF79E0C5018F
:104300000E94F15B570188E6A80EB11C68E270E0DC
:10431000C5010E945F5B65EF79E0C5010E94F15B1A
:10432000F801E653FF4F108234961082570180EA5D
:10433000A80EB11C68E270E0C5010E945F5B65EFEA
:1043400079E0C5010E94F15BF801EE52FF4F108247
:10435000570184E8A80EB11C68E270E0C5010E9414
:104360005F5B65EF79E0C5010E94F15BF801EA52FD
:10437000FF4F90828FEFC81AD80A0F5F1F4F87E058
:10438000E80EF11C84E0C816D10409F0A9CF1FEF94
:1043900018AF19AFFE01E452FF4F10831CA61DA6F3
:1043A0001EA61FA61BAA68E270E0CE0184549F4F90
:1043B0000E945F5B68E270E0CE018D539F4F0E94C8
:1043C0005F5BFE01E652FF4F1083C552DF4F18833B
:1043D00060E080E0DF91CF911F910F91FF90EF900F
:1043E000DF90CF90BF90AF909F900C94F418CF9334
:1043F000DF93EC0181E08AAF08DA6BAF7CAF8DAF61
:104400009EAFDF91CF910895CF93DF934130510557
:10441000B1F04230510521F1452B99F5EC0127E02F
:10442000629FC00DD11D1124C45BDF4F8C819D8123
:10443000449738F560ED71E0CE01C8DEF7CFEC01AE
:1044400027E0629FC00DD11D1124C859DF4F8C8118
:104450009D814497B0F460ED71E0CE01B7DEF7CFF7
:10446000EC0127E0629FC00DD11D1124CC57DF4F16
:104470008C819D81449728F460ED71E0CE01A6DE29
:10448000F7CFDF91CF910895BF92CF92DF92EF9255
:10449000FF920F931F93CF93DF93CDB7DEB728978B
:1044A0000FB6F894DEBF0FBECDBF8C01B22E242F05
:1044B00030E0FC01E652FF4F8081992787FD9095FF
:1044C0002817390719F0408351E001C050E02B2D27
:1044D00030E0F801E552FF4F8081992787FD9095E4
:1044E0002817390711F0B08203C0552309F454C0CE
:1044F000EFE0F2E065917491C80148870E94B75FD0
:1045000078018CEBE80EF11CB801C7010E940F5C2A
:10451000E1E1F2E065917491C8010E94B75F680122
:10452000E3ECCE0ED11CB801C6010E940F5C488599
:10453000642FC7014DDE48854A3018F46FEC71E0F6
:1045400004C0443620F460ED71E0C7013FDE60ED49
:1045500071E0C7013BDE6B2DC6013ADEB701CE012B
:1045600001960E94FB5BB601CE0101960E948F5C12
:10457000BC01C8018F599F4F0E94F15BCE0101968B
:104580000E94425B40E050E063E0C8013DDF81E013
:10459000F801E353FF4F808338D9F801FF96608319
:1045A000718382839383F80112AE28960FB6F89434
:1045B000DEBF0FBECDBFDF91CF911F910F91FF9056
:1045C000EF90DF90CF90BF9008950F931F93CF93FC
:1045D000DF93EC0188AD8F3F09F449C089AD8F3F6F
:1045E00009F445C08E01045B1F4F65EF79E0C801F7
:1045F0000E94F15B64E073E0C8010E940F5C68AD4B
:10460000772767FD7095C8010E945F5C60ED71E0DF
:10461000C801DCDDE9ADE73068F4EE0FFF0BE15BCC
:10462000FD4F65917491CE010E94B75FBE01C80134
:10463000CDDD0DC066E073E0C801C8DD69AD772748
:1046400067FD709566507109C8010E945F5C40E08B
:1046500050E060E0CE01D8DEFE01E653FF4F81E07E
:104660008083D3D8EF96688379838A839B83DF9195
:10467000CF911F910F910895FC0160AFA6CFFC016F
:1046800061AFA3CF2F923F924F925F926F927F9232
:104690008F929F92AF92BF92CF92DF92EF92FF9252
:1046A0000F931F93CF93DF9300D000D000D0CDB7EE
:1046B000DEB79E838D83162F202E0E2D462E512C75
:1046C0006C018CEDC80ED11CD6018C91992787FD09
:1046D00090954816590609F46BC06C93ED80FE80E6
:1046E000B3E5EB0EF11C65EF79E0C7012B833C834A
:1046F00049835A830E94F15B2B81622E3C81732E89
:104700004981842E5A81952EA12CB12C312CA214D2
:10471000B3044CF5D401ED914D01F0E0EE0FFF1F15
:10472000EB59FD4F659174918D819E810E94B75F19
:104730006D817E81C701A114B10419F40E940F5C40
:1047400001C044DDF30161913F0170E062507109E5
:10475000C7010E945F5C60ED71E0C70137DDFFEFCC
:10476000AF1ABF0AD4CFED81FE81E95AFF4F808195
:104770009181ED81FE81ED52FF4F459760F081E020
:104780008083ED81FE81E952FF4F8083AD81BE8140
:10479000D3961C9201C0108240E050E061E08D8110
:1047A0009E8132DE81E0ED81FE81E553FF4F808303
:1047B000F6012081822F992787FD9095481659068A
:1047C00011F02F3FD1F5ED80FE80FCEBEF0EF11CD8
:1047D00063E173E0C7010E940F5C602FC701F8DC42
:1047E0000A3060F46FEC71E0C701F0DCA12CB12C51
:1047F0006D807E808AE5680E711C05C00436B0F7B6
:1048000060ED71E0F1CFB501C3010E949C5C4C01E9
:10481000B501C7010E949C5CDC018C91F40180838E
:10482000FFEFAF1ABF0A84E0A816B10461F781E078
:10483000ED81FE81E453FF4F8083D6011C930E94DB
:10484000051CED81FE81FF966083718382839383D3
:10485000ED81FE8112AE26960FB6F894DEBF0FBE34
:10486000CDBFDF91CF911F910F91FF90EF90DF901F
:10487000CF90BF90AF909F908F907F906F905F9000
:104880004F903F902F900895AF92BF92CF92DF92BA
:10489000EF92FF920F931F93CF93DF93EC01F62ECD
:1048A00040E050E062E0B0DD8E0104541F4F65E14E
:1048B00073E0C8010E940F5C6F2DC80189DC89E09C
:1048C0008F1558F06FEC71E0C80180DCE12CF12C01
:1048D0005E01EAE5AE0EB11C06C0F3E6FF15B0F3CB
:1048E00060ED71E0F1CFB701615F7F4FC5010E94BC
:1048F0009C5C6C01B701C8010E949C5CFC0180813A
:10490000F6018083FFEFEF1AFF0A85E0E816F10455
:1049100051F7FE01E453FF4F81E080830E94051CA4
:10492000FE01FF9660837183828393831AAEDF91C9
:10493000CF911F910F91FF90EF90DF90CF90BF909C
:10494000AF9008956F927F928F929F92AF92BF9295
:10495000CF92DF92EF920F931F93CF93DF93EC01EF
:10496000D42E122F40E050E062E04EDD5E018CEB71
:10497000A80EB11C68E173E0C5010E940F5C6D2DAB
:10498000C50126DC99E09D1518F06FEC71E005C0BB
:10499000E3E6ED1520F060ED71E0C50117DC6E0176
:1049A000F3ECCF0ED11C6FE371E0C6010E940F5CE7
:1049B000612FC6010DDC1A3018F46FEC71E004C0F1
:1049C000143620F460ED71E0C60100DCCE01865A99
:1049D0009F4F4C010023E1F000E010E0B8016B5F55
:1049E0007F4FC4010E949C5C3C01B801C5010E943C
:1049F0009C5CFC018081F30180830F5F1F4F0430BA
:104A0000110561F7EE2009F44DC0A12CB12C18C09E
:104A1000A12CB12CB5016B5F7F4FC4010E949C5C3F
:104A20008C01B50185EF99E00E94AE5CF8018083AE
:104A3000FFEFAF1ABF0A84E0A816B10459F7E2CF1E
:104A4000B501665F7F4FC4010E949C5C8C01B5017B
:104A5000C6010E949C5CFC018081F8018083FFEF0D
:104A6000AF1ABF0A84E0A816B10451F7FE01E4535F
:104A7000FF4F81E080830E94051CFE01FF9660834A
:104A80007183828393831AAEDF91CF911F910F912F
:104A9000EF90DF90CF90BF90AF909F908F907F90DE
:104AA0006F900895C12CD12CB601665F7F4FC40171
:104AB0000E949C5C8C01B60185EF99E00E94AE5C7F
:104AC000F8018083FFEFCF1ADF0A84E0C816D10413
:104AD00059F7CCCF6F927F928F929F92AF92BF92F5
:104AE000CF92DF92EF92FF920F931F93CF93DF93BA
:104AF0001F92CDB7DEB73C017B016A01A12CB12C1E
:104B00004C0188E6880E911C65EF79E0C4018A0D9E
:104B10009B1D29830E94F15BE7E0AE0EB11C298149
:104B2000FCE1AF16B10481F782E0E816F10409F464
:104B300060C044F4E114F10481F0EA94EF2809F430
:104B400044C0ADC083E0E816F10409F466C0E4E0B7
:104B5000EE16F10409F475C0A2C0F2E0CF16D1043C
:104B6000F9F4211103C0E7E3F2E002C0EFE2F2E062
:104B700065917491C3010E94B75FB301C30181596C
:104B80009F4F0E940F5C6FE673E0730186E7E80EAB
:104B9000F11CC7010E940F5C602FC70119DB7FC0A9
:104BA000211103C0E7E4F2E002C0EFE3F2E0659117
:104BB0007491C3010E94B75FB301C30181599F4F34
:104BC0000E940F5C6AE173E065C0E2E0CE16D1049A
:104BD00041F4211103C0E9E3F2E0CACFE1E3F2E0DE
:104BE000C7CF211103C0E9E4F2E0E1CFE1E4F2E054
:104BF000DECFF2E0CF16D10441F4211103C0EBE384
:104C0000F2E0B6CFE3E3F2E0B3CF211103C0EBE46F
:104C1000F2E0CDCFE3E4F2E0CACF82E0C816D104DF
:104C200041F4211103C0EDE3F2E0A2CFE5E3F2E0AD
:104C30009FCF211103C0EDE4F2E0B9CFE5E4F2E04B
:104C4000B6CF830101591F4FC114D10419F4EDE20D
:104C5000F2E005C0CA94CD2851F4E9E2F2E0659192
:104C60007491C3010E94B75FB301C80116C0E9E2A5
:104C7000F2E065917491C3010E94B75FB301C8016E
:104C80000E940F5CEBE2F2E065917491C3010E9417
:104C9000B75FB301C3018A589F4F0E940F5C10E0B9
:104CA00041E050E0612FC301AFDB1F5F1430C1F75B
:104CB0000E94051CF30160A771A782A793A781E05A
:104CC00080AB0F90DF91CF911F910F91FF90EF90EC
:104CD000DF90CF90BF90AF909F908F907F906F901C
:104CE0000895AF92BF92CF92DF92EF92FF920F930F
:104CF0001F93CF93DF931F92CDB7DEB75C017B018B
:104D000000E010E06C0188E6C80ED11C65EF79E088
:104D1000C601800F911F49830E94F15B095F1F4FFD
:104D200049810C31110591F7E1E0EE16F10489F0AB
:104D3000F2E0EF16F10429F0EF28C1F4EFE7F2E01A
:104D40000AC0442319F0E1E8F2E005C0E3E8F2E02C
:104D500002C0EDE7F2E065917491C5010E94B75F72
:104D6000B501C50181599F4F0E940F5C10E041E0E1
:104D700050E0612FC50148DB1F5F1430C1F70E946E
:104D8000051CF50160A771A782A793A781E080ABFE
:104D90000F90DF91CF911F910F91FF90EF90DF90D7
:104DA000CF90BF90AF9008956F927F928F929F9215
:104DB000AF92BF92CF92DF92EF920F93CF93DF9398
:104DC000EC014B015901C12CD12C3C0188E6680E45
:104DD000711C65EF79E0C3018C0D9D1D0E94F15B94
:104DE00087E0C80ED11C8CE1C816D10491F7F401FC
:104DF000FF27EE0FFF1FED5EFD4F65917491CE0111
:104E00000E94B75FBE016E018FE6C80ED11CC601BD
:104E10000E940F5C602FC601DBD9F501FF27EE0F62
:104E2000FF1FE350FE4F65917491CE010E94B75F62
:104E30006E0186E7C80ED11CBE01C6010E940F5C40
:104E4000AB2819F06E2DC601C3D900E041E050E057
:104E5000602FCE01D9DA0F5F0430C1F70E94051C24
:104E600068A779A78AA79BA781E088ABDF91CF913C
:104E70000F91EF90DF90CF90BF90AF909F908F9069
:104E80007F906F9008956F927F928F929F92AF92D2
:104E9000BF92CF92DF92EF920F93CF93DF93EC010B
:104EA0004B015901C12CD12C3C0188E6680E711CC4
:104EB00065EF79E0C3018C0D9D1D0E94F15B87E0D9
:104EC000C80ED11C8CE1C816D10491F7F401FF275C
:104ED000EE0FFF1FE95EFD4F65917491CE010E94B8
:104EE000B75FBE016E018FE6C80ED11CC6010E94DD
:104EF0000F5C602FC6016CD9F501FF27EE0FFF1F75
:104F0000E350FE4F65917491CE010E94B75F6E0130
:104F100086E7C80ED11CBE01C6010E940F5CAB28FB
:104F200019F06E2DC60154D900E041E050E0602F29
:104F3000CE016ADA0F5F0430C1F70E94051C68A732
:104F400079A78AA79BA781E088ABDF91CF910F91CA
:104F5000EF90DF90CF90BF90AF909F908F907F9019
:104F60006F9008956F927F928F929F92AF92BF92AF
:104F7000CF92DF92EF920F931F93CF93DF93EC01C9
:104F80004B015901C12CD12C3C0188E6680E711CE3
:104F900065EF79E0C3018C0D9D1D0E94F15B87E0F8
:104FA000C80ED11C8CE1C816D10491F7F401FF277B
:104FB000EE0FFF1FEB5DFD4F65917491CE010E94D6
:104FC000B75FBE016E018FE6C80ED11CC6010E94FC
:104FD0000F5CF801EE0FFF1FE15EFD4F65917491CC
:104FE000CE010E94B75FBE01C601F0D8F501FF27D0
:104FF000EE0FFF1FE350FE4F65917491CE010E94AA
:10500000B75F8E010A581F4FBE01C8010E940F5C96
:10501000AB2819F06E2DC801DBD810E041E050E05C
:10502000612FCE01F1D91F5F1430C1F70E94051C1A
:1050300068A779A78AA79BA781E088ABDF91CF916A
:105040001F910F91EF90DF90CF90BF90AF909F9006
:105050008F907F906F9008959F92AF92BF92CF9262
:10506000DF92EF92FF920F931F93CF93DF93EC01A8
:105070006B018A01922EE12CF12C5C0188E6A80ECE
:10508000B11C65EF79E0C5018E0D9F1D0E94F15B9B
:1050900087E0E80EF11C8CE1E816F10491F702308C
:1050A000110551F581E0C816D10441F4992019F099
:1050B00063E273E009C06FE273E006C082E0C816E5
:1050C000D10449F46DE373E0CE0181599F4F0E94F2
:1050D0000F5C10E051C083E0C816D104D1F76BE437
:1050E00073E0CE0181599F4F0E940F5C65E573E02C
:1050F000CE018A589F4FEBCFE12CF12C65EF79E080
:10510000C5018E0D9F1D0E94F15B87E0E80EF11C2A
:105110008CE1E816F10491F7F801EE0FFF1FED5F47
:10512000FD4F65917491CE010E94B75F7E018FE6BD
:10513000E80EF11CBE01C7010E940F5C0130110591
:1051400051F4692D772767FD709562507109C70189
:105150000E945F5CBECF012B09F0BBCFE92DEE0FA3
:10516000FF0BEB59FD4F65917491CE010E94B75F23
:10517000BE01C7012BD8ADCF41E050E0612FCE0179
:1051800043D91F5F1430C1F70E94051C68A779A797
:105190008AA79BA781E088ABDF91CF911F910F91E8
:1051A000FF90EF90DF90CF90BF90AF909F900895C9
:1051B000DF92EF92FF920F931F93CF93DF93EC0157
:1051C000D62E00E010E07C0188E6E80EF11C65EFC9
:1051D00079E0C701800F911F0E94F15B095F1F4FAB
:1051E0000C311105A1F7EDE0F2E065917491CE016B
:1051F0000E94B75FBE018E0101591F4FC8010E9476
:105200000F5C6D2DC8010E94E82010E041E050E0E5
:10521000612FCE01F9D81F5F1430C1F70E94051C21
:1052200068A779A78AA79BA781E088ABDF91CF9178
:105230001F910F91FF90EF90DF900895FF920F93D1
:105240001F93CF93DF93EC01F62E8C01045B1F4F6D
:1052500065EF79E0C8010E94F15B65EF79E0CE016E
:105260008D5A9F4F0E94F15B65EF79E0CE01865A1F
:105270009F4F0E94F15B65EF79E0CE018F599F4F00
:105280000E94F15B67E673E0C8010E940F5C6F2D1E
:10529000C8010E94E82040E050E060E0CE01B4D8B0
:1052A00040E050E061E0CE01AFD840E050E062E085
:1052B000CE01AAD840E050E063E0CE01A5D8FE01BF
:1052C000E653FF4F81E0808331968083319680835F
:1052D000C353DF4F8883DF91CF911F910F91FF90D0
:1052E0000895CF93DF93EC0170D965EF79E0CE019B
:1052F0008D5A9F4F0E94F15B65EF79E0CE01865A8F
:105300009F4F0E94F15B65EF79E0CE018F599F4F6F
:105310000E94F15B1BAAFE01EA52FF4F81E08083ED
:105320003497108235968083349710823596808327
:105330003497108235968083349710823A97808311
:1053400031968083C353DF4F8883DF91CF910895D7
:10535000DF92EF92FF920F931F93CF93DF93EC01B5
:105360006130710511F0D12C02C002E0D02E00E0B6
:1053700010E07E0188E6E80EF11C65EF79E0C701D8
:10538000800F911F0E94F15B095F1F4F0C311105C7
:10539000A1F70D2D10E0C801880F991F835A9D4F6A
:1053A000FC0165917491CE010E94B75FBE01CE01F0
:1053B00081599F4F0E940F5CF8013196EE0FFF1F3D
:1053C000E35AFD4F65917491CE010E94B75FBE0113
:1053D000CE018A589F4F0E940F5C41E050E061E08F
:1053E000CE0112D841E050E062E0CE010DD80E941B
:1053F000051C68A779A78AA79BA781E088ABDF91E6
:10540000CF911F910F91FF90EF90DF900895FF9241
:105410000F931F93CF93DF93EC01F62E8C01065A66
:105420001F4F64E773E0C8010E940F5C6F2D70E0AE
:1054300062507109C8010E945F5CFE01E453FF4F96
:1054400081E0808340E050E062E0CE01DF91CF91C7
:105450001F910F91FF900C940422AF92BF92CF92B4
:10546000DF92EF92FF920F931F93CF93DF93EC01A4
:105470008B015A017C0183E5E80EF11C65EF79E0B0
:10548000C7010E94F15B680100E010E0D601ED91D8
:105490006D01EC3019F1F0E0EE0FFF1FEB59FD4FFD
:1054A00065917491CE010E94B75FBE01C7010115DD
:1054B000110519F40E940F5C02C00E94E620F5015C
:1054C000E00FF11F608170E062507109C7010E9416
:1054D0005F5C60ED71E0C7010E94E6200F5F1F4F27
:1054E0000730110599F6FE01E95AFF4F808191813D
:1054F000E458FF4F459710F081E006C010821BAAC8
:1055000081E0FE01E952FF4F8083FE01E553FF4F2A
:1055100081E0808340E050E061E0CE01DF91CF91F7
:105520001F910F91FF90EF90DF90CF90BF90AF90C1
:105530000C940422EF92FF920F931F93CF93DF936B
:10554000EC016230710541F500E010E07C0188E675
:10555000E80EF11C65EF79E0C701800F911F0E94F2
:10556000F15B095F1F4F0C311105A1F764E873E08F
:10557000CE0181599F4F0E940F5C66E973E0CE0116
:105580008A589F4F0E940F5C0E94051C68A779A74C
:105590008AA79BA781E088AB10E041E050E0612F33
:1055A000CE010E9404221F5F1430B9F7DF91CF9122
:1055B0001F910F91FF90EF900895CF92DF92EF929D
:1055C000FF920F931F93CF93DF93EC016B0100E0E9
:1055D00010E07C018CE4E80EF11C65EF79E0C70176
:1055E000800F911F0E94F15B095F1F4F0C31110565
:1055F000A1F7B601C7010E94F15B40E050E060E016
:10560000CE010E940422FE01E653FF4F81E0808319
:105610003196808331968083C353DF4F8883DF9137
:10562000CF911F910F91FF90EF90DF90CF90089551
:10563000FF920F931F93CF93DF93EC01FAACFF20FF
:1056400009F44EC04BAD5CAD6DAD7EADFC01FF9677
:105650000081118122813381401B510B620B730B3E
:10566000493C51056105710578F40E94051C0BAD9C
:105670001CAD2DAD3EAD601B710B820B930B693CD5
:1056800071058105910560F165EF79E0CE018D5AD4
:105690009F4F0E94F15B65EF79E0CE01865A9F4FE4
:1056A0000E94F15B65EF79E0CE018F599F4F0E9418
:1056B000F15BFE01E553FF4F81E0808331968083EB
:1056C0003196808336961082349680831BAA339657
:1056D0008FEF808331968083319680831AAE01C02C
:1056E000F12C8F2DDF91CF911F910F91FF90089595
:1056F0003F924F925F926F927F928F929F92AF9262
:10570000BF92CF92DF92EF92FF920F931F93CF93AE
:10571000DF93CDB7DEB727970FB6F894DEBF0FBE85
:10572000CDBF8C0180917A0086FD74C1C80180DFF5
:105730000E94051CF801FF96C080D180E280F380B2
:105740006C197D098E099F096A30710581059105E3
:1057500030F4D801DA968C91882309F45BC1F80102
:1057600080A981111BC1D801D1968C9181110DC0E6
:1057700048016801B0EACB0ED11C7801ECE4EE0ED2
:10578000F11C512C4424439433C00E94051CD801C1
:105790009896CD90DD90ED90FC909B976C197D09CB
:1057A0008E099F096D3D75408105910508F432C150
:1057B000F80111AA6801F8E6CF0ED11CE12CF12CFA
:1057C000BB24B39465EF79E0C6010E94F15BF80158
:1057D000EE0DFF1DE653FF4FB0822FEFE21AF20AE3
:1057E00087E0C80ED11CA4E0EA16F10459F7C0CF37
:1057F000F401EE52FF4F8081882309F487C00E9494
:10580000051CF80124A535A546A557A5621B730BF9
:10581000840B950B653F71408105910508F4A3C089
:10582000D801D3964C91552747FD509528E230E09A
:10583000B701CE0101960E94BF5C3601BCE16B1A34
:105840007108BE016F5F7F4FC3010E94045CCE01EF
:1058500001960E94425B42E050E0652DC8010E9423
:105860000422A12CB12CB501C6010E949C5CFC0154
:105870003080B501C3010E949C5CDC018C9138161C
:1058800061F0652D8A2D0E94F418B501C3010E94B4
:105890009C5CFC0180810E948318FFEFAF1ABF0A55
:1058A00024E1A216B104F9F60E94051CD8019C96C9
:1058B0006D937D938D939C939F97F401EA52FF4FD4
:1058C0008081D3964C918823A9F0842F992787FD56
:1058D000909580959095D70114962D913C911597B0
:1058E000820F931F459720F04F5FF80143AB0CC028
:1058F00010820AC04150D801D3964C93D39747FFEA
:1059000003C04082D3961C92B3012AC0F401E6532F
:10591000FF4F8081882339F1A12CB12CB501C7013B
:105920000E949C5CFC017080B501C6010E949C5CD9
:10593000DC018C91781661F0652D8A2D0E94F41897
:10594000B501C7010E949C5CFC0180810E94831804
:10595000FFEFAF1ABF0A24E1A216B104F9F6B701AE
:10596000C6010E94F15BF401E653FF4F10828FEFF6
:10597000881A980AA7E0CA0ED11CB7E0EB0EF11CFA
:105980005394E4E05E1234CF0E94051CD801D496F3
:105990006D937D938D939C93D7973CC06801F0EAFB
:1059A000CF0ED11C912CE12CF12C5601B8E3AB1A8F
:1059B000B108B701C5010E949C5CFC018080B70161
:1059C000C6010E949C5CDC018C91881661F0692DF7
:1059D0008E2D0E94F418B701C5010E949C5CFC0149
:1059E00080810E948318FFEFEF1AFF0A24E1E2167C
:1059F000F104F9F6B501C6010E94F15B87E0C80E1B
:105A0000D11C9394A4E09A12CECFF80110AA81E0A1
:105A100081ABA9CE27960FB6F894DEBF0FBECDBFDF
:105A2000DF91CF911F910F91FF90EF90DF90CF907A
:105A3000BF90AF909F908F907F906F905F904F90AE
:105A40003F90089569EA71E085EF99E00E94A75BB5
:105A500062ED71E08EEE99E00E94A75B81E199E032
:105A60000C94EB200C949220249A259A269A2C9838
:105A7000E0EBF0E080818F7780832D98E0E8F0E024
:105A800080818F7780832E9880818F7D8083219A7B
:105A9000229A239A08950895CF93C0E040E050E001
:105AA0006C2F8EE397E00E94071BCF5FC831B1F7E0
:105AB000CF910895CF93C0E04FEF50E06C2F8EE36D
:105AC00097E00E94071BCF5FC831B1F7CF910895CF
:105AD0008EE397E00C94071B8EE397E00C94FE1A7C
