:10000000BCC70000E9C70000E7C70000E5C7000063
:10001000E3C70000E1C70000DFC70000DDC7000044
:10002000DBC70000D9C700000C94B4560C943157BC
:10003000D3C70000D1C70000CFC70000CDC7000064
:10004000CBC70000C9C70000C7C70000C5C7000074
:10005000C3C700000C941D1ABFC700000C941856AB
:10006000BBC700000C944B1C0C94761C0C94AB1C6E
:10007000B3C700000C943330AFC70000ADC7000019
:100080000C94EE1AA9C70000A7C70000A5C700007E
:100090000C949809A1C70000960DEE0DAE0E460E09
:1000A000C50E910E5F0E2B0E140E780EA912AF1214
:1000B000B512BB12C112C712CD122D2D2D2D2D2D13
:1000C0002D2D2D2D2D2D2D2D2D2D2D2D2D2D2D2D60
:1000D0002D2D2D2D2D2D2D2D2D2D2D2D2D2D2D2D50
:1000E0002D2D002D2D2D2D2D2D2D2D2D2D2D2D2D6D
:1000F0002D2D2D2D2D2D2D2D2D2D2D2D2D2D2D2D30
:100100002D2D2D2D2D2D2D2D2D2D2D002062797491
:10011000657300546F74616C206D656D6F7279202A
:1001200075736167653A20002C20616464726573A1
:10013000733A200053656374696F6E2000437265E3
:100140006174696E6720626C6F636B200057652075
:10015000617265206E6F77206372656174696E6786
:1001600020454550524F4D206D656D6F7279206C62
:1001700061796F7574002D2D2D2D2D2D2D2D2D2D8B
:100180002D2D2D2D2D2D2D2D2D2D2D2D2D2D2D2D9F
:100190002D2D2D2D2D2D2D2D2D2D2D2D2D2D003AAF
:1001A00020002D2D2D2D2D2D2D2D2D2D2D2D2D2DB9
:1001B0002D2D2D2D2D2D2D2D2D2D2D2D2D2D2D2D6F
:1001C0002D2D2D2D2D2D2D2D2D2D00454550524FF2
:1001D0004D206D656D6F727920726561646F757405
:1001E00000690272027202C102B902B502AB02A436
:1001F000029602CC02C802D602D002EA02F102DC68
:1002000002E3020E030203F8021E03150376036ADB
:1002100003600399038B0386038103BD03AE03A828
:1002200003A203DF03D103CC03C7030304F403EEEB
:1002300003E8036104530444043E042F041E040D28
:10024000044D033B032F0327038A0487048504829C
:100250000480047E047B0479047604740471046FC2
:100260000491028C0282027702616C6C20706164DE
:10027000730070616420005265636F7264206F6662
:1002800066005265636F7264206F6E0053746F7006
:1002900000506C6179004D494449206368616E6E7D
:1002A000656C2000437572766520004343206C69BD
:1002B0006D69742000434320004F637461766520AC
:1002C00000546F6E69632000636379006363780094
:1002D000592043433D00582043433D0059206D6958
:1002E0006E3D0059206D61783D0058206D696E3D6E
:1002F0000058206D61783D007769646520656E6403
:10030000730077696465206D6964646C65006C696D
:100310006E65617200592063757276653D005820E4
:1003200063757276653D00746F2065646974005270
:10033000656C656173652070616400746F2065642D
:10034000697420706164206E6F7465730053656C0E
:1003500065637420757365722070726573657400CF
:1003600053706C6974206F6666002B2066756E632F
:1003700074696F6E730053706C697420582C205927
:100380000059206F6E0058206F6E004166746572D0
:10039000746F756368206F6E004E6F746573206FA5
:1003A0006E0059206F66660058206F6666004166D1
:1003B000746572746F756368206F6666004E6F7443
:1003C0006573206F66660059206F6E0058206F6E4F
:1003D000004166746572746F756368206F6E004EBD
:1003E0006F746573206F6E0059206F666600582029
:1003F0006F6666004166746572746F756368206F1E
:100400006666004E6F746573206F6666004D616AA4
:100410006F722050656E7461746F6E6963004D6910
:100420006E6F722050656E7461746F6E6963004800
:1004300061726D6F6E6963204D616A6F72004D610C
:100440006A6F72004861726D6F6E6963204D696EEC
:100450006F72004D656C6F646963204D696E6F72D9
:10046000004E61747572616C204D696E6F7200424E
:100470000041230041004723004700462300460077
:100480004500442300440043230043002061667478
:100490006572746F7563682076616C75653A2000CB
:1004A000506164200056656C6F636974793A20006E
:1004B000206F666621000A5061642000207072651A
:1004C000737365642E204E6F7465733A200050611B
:1004D000642000592043433A20003A200059206606
:1004E0006F72207061642000582043433A20003A24
:1004F00020005820666F722070616420003A20004E
:1005000055707065722059206C696D697420666F32
:10051000722070616420003A20004C6F7765722071
:1005200059206C696D697420666F72207061642057
:10053000002D2D2D2D2D2D2D2D2D2D2D2D2D2D2D18
:100540002D2D2D2D2D2D2D2D2D2D2D2D2D2D2D2DDB
:100550002D2D2D2D2D2D2D2D2D005072696E746990
:100560006E67206F75742059206C696D69747320F3
:10057000666F722070616473002D2D2D2D2D2D2D31
:100580002D2D2D2D2D2D2D2D2D2D2D2D2D2D2D2D9B
:100590002D2D2D2D2D2D2D2D2D2D2D2D2D2D2D2D8B
:1005A0002D003A200055707065722058206C696DDE
:1005B000697420666F722070616420003A20004CDC
:1005C0006F7765722058206C696D697420666F7250
:1005D0002070616420002D2D2D2D2D2D2D2D2D2DE4
:1005E0002D2D2D2D2D2D2D2D2D2D2D2D2D2D2D2D3B
:1005F0002D2D2D2D2D2D2D2D2D2D2D2D2D2D005035
:1006000072696E74696E67206F75742058206C690A
:100610006D69747320666F722070616473002D2D94
:100620002D2D2D2D2D2D2D2D2D2D2D2D2D2D2D2DFA
:100630002D2D2D2D2D2D2D2D2D2D2D2D2D2D2D2DEA
:100640002D2D2D2D2D2D003A200055707065722016
:100650007072657373757265206C696D697420665C
:100660006F722070616420003A20004C6F776572D1
:10067000207072657373757265206C696D69742082
:10068000666F722070616420002D2D2D2D2D2D2D73
:100690002D2D2D2D2D2D2D2D2D2D2D2D2D2D2D2D8A
:1006A0002D2D2D2D2D2D2D2D2D2D2D2D2D2D2D2D7A
:1006B0002D005072696E74696E67206F75742070BA
:1006C00072657373757265206C696D6974732066E9
:1006D0006F722070616473002D2D2D2D2D2D2D2D09
:1006E0002D2D2D2D2D2D2D2D2D2D2D2D2D2D2D2D3A
:1006F0002D2D2D2D2D2D2D2D2D2D2D2D2D2D2D2D2A
:10070000002D2D2D2D2D2D2D2D2D2D2D2D2D2D2D46
:100710002D2D2D2D2D2D2D2D2D2D2D2D2D2D2D2D09
:100720002D2D2D2D2D2D2D2D2D005072696E7469BE
:100730006E67206F7574206C696D69747320666FC5
:10074000722070616473002D2D2D2D2D2D2D2D2DDA
:100750002D2D2D2D2D2D2D2D2D2D2D2D2D2D2D2DC9
:100760002D2D2D2D2D2D2D2D2D2D2D2D2D2D2D00E6
:100770003A0050616420002D2D2D2D2D2D2D2D2D75
:100780002D2D2D2D2D2D2D2D2D2D2D2D2D2D2D2D99
:100790002D2D2D2D2D2D2D2D2D2D2D2D2D2D2D00B6
:1007A0005072696E74696E67206F7574206E6F7415
:1007B000657320666F722070616473002D2D2D2D7E
:1007C0002D2D2D2D2D2D2D2D2D2D2D2D2D2D2D2D59
:1007D0002D2D2D2D2D2D2D2D2D2D2D2D2D2D2D2D49
:1007E0002D2D2D2D0053686966743A2000546F6ECC
:1007F00069633A20004F63746176653A20002D2DBD
:100800002D2D2D2D2D2D2D2D2D2D2D2D2D2D2D2D18
:100810002D2D2D2D2D2D2D2D2D2D2D2D2D2D2D2D08
:100820002D2D2D2D2D2D00506172616D6574657219
:100830007320666F722063757272656E74207363C5
:10084000616C653A20002D2D2D2D2D2D2D2D2D2D5A
:100850002D2D2D2D2D2D2D2D2D2D2D2D2D2D2D2DC8
:100860002D2D2D2D2D2D2D2D2D2D2D2D2D2D0041D1
:100870006374697665207072657365743A20002D23
:100880002D2D2D2D2D2D2D2D2D2D2D2D2D2D2D2D98
:100890002D2D2D2D2D2D2D2D2D2D2D2D2D2D2D2D88
:1008A0002D2D2D2D2D2D2D005072696E74696E67C2
:1008B000206F75742070726573657420736574742D
:1008C000696E6773002D2D2D2D2D2D2D2D2D2D2D88
:1008D0002D2D2D2D2D2D2D2D2D2D2D2D2D2D2D2D48
:1008E0002D2D2D2D2D2D2D2D2D2D2D2D2D0050610E
:1008F0006420637572766520666F7220593A200015
:1009000050616420637572766520666F7220583A74
:10091000200043432059207570706572206C696D0A
:1009200069743A200043432059206C6F7765722028
:100930006C696D69743A20004343205820757070CB
:100940006572206C696D69743A2000434320582019
:100950006C6F776572206C696D69743A200043434F
:100960002059204D4944492049443A20004343201E
:1009700058204D4944492049443A20004166746555
:1009800072746F7563682073656E6420656E616252
:100990006C65643A20004E6F74652073656E642048
:1009A000656E61626C65643A2000592073656E64FF
:1009B00020656E61626C65643A2000582073656E34
:1009C0006420656E61626C65643A20005061642049
:1009D0000050616473206861766520696E64697691
:1009E000696475616C2073657474696E67732061E6
:1009F0006E642066756E6374696F6E73202D20734C
:100A0000706C697420782F79202B2066756E637462
:100A1000696F6E730050616420637572766520663D
:100A20006F7220593A2000506164206375727665B8
:100A300020666F7220583A20004343205920757079
:100A4000706572206C696D69743A200043432059C7
:100A5000206C6F776572206C696D69743A20004371
:100A6000432058207570706572206C696D69743A06
:100A7000200043432058206C6F776572206C696DAD
:100A800069743A200043432059204D494449204984
:100A9000443A200043432058204D494449204944CA
:100AA0003A200050616420004166746572746F756D
:100AB00063682073656E6420656E61626C65643A7C
:100AC00020004E6F74652073656E6420656E6162F0
:100AD0006C65643A2000592073656E6420656E6110
:100AE000626C65643A2000582073656E6420656E00
:100AF00061626C65643A20005061642063757276AF
:100B00006520666F7220593A200050616420637539
:100B100072766520666F7220583A20004343205950
:100B2000207570706572206C696D69743A2000439D
:100B3000432059206C6F776572206C696D69743A37
:100B4000200043432058207570706572206C696DD9
:100B500069743A200043432058206C6F77657220F7
:100B60006C696D69743A200043432059204D494413
:100B7000492049443A200043432058204D494449E4
:100B80002049443A20004166746572746F75636849
:100B90002073656E6420656E61626C65643A200046
:100BA0004E6F74652073656E6420656E61626C655E
:100BB000643A2000592073656E6420656E61626C32
:100BC00065643A2000582073656E6420656E61622A
:100BD0006C65643A20002D2D2D2D2D2D2D2D2D2DC4
:100BE0002D2D2D2D2D2D2D2D2D2D2D2D2D2D2D2D35
:100BF0002D2D2D2D2D2D2D2D2D2D2D2D2D2D00502F
:100C000072696E74696E67206F75742070616420FC
:100C1000636F6E66696775726174696F6E002D2D02
:100C20002D2D2D2D2D2D2D2D2D2D2D2D2D2D2D2DF4
:100C30002D2D2D2D2D2D2D2D2D2D2D2D2D2D2D2DE4
:100C40002D2D2D2D2D2D004D494449206368616EB9
:100C50006E656C3A20004163746976652070726538
:100C60007365743A20004163746976652070726F11
:100C70006772616D3A20002D2D2D2D2D2D2D2D2DDE
:100C80002D2D2D2D2D2D2D2D2D2D2D2D2D2D2D2D94
:100C90002D2D2D2D2D2D2D2D2D2D2D2D2D2D2D00B1
:100CA0005072696E74696E67206F75742070726F10
:100CB0006772616D2073657474696E6773002D2DA2
:100CC0002D2D2D2D2D2D2D2D2D2D2D2D2D2D2D2D54
:100CD0002D2D2D2D2D2D2D2D2D2D2D2D2D2D2D2D44
:100CE0002D2D2D2D2D2D0020666F7220706164201A
:100CF000006F6666006F6E004166746572746F7592
:100D000063682000666F7220616C6C207061647390
:100D1000006F666620006F6E200041667465727415
:100D20006F756368200020666F7220706164200018
:100D30006F6666006F6E0020666F7220616C6C20BB
:100D400070616473006F6666006F6E0020666F727C
:100D50002070616420006F6666006F6E005820008E
:100D600020666F7220616C6C2070616473006F6626
:100D700066006F6E0058200020666F7220706164FC
:100D800020006F6666006F6E004E6F746573200002
:100D900020666F7220616C6C2070616473006F66F6
:100DA00066006F6E004E6F746573200020746F20B4
:100DB000706164200052656D6F76696E67206E6F9A
:100DC00074652000416464696E67206E6F746520ED
:100DD000004F637461766520646F776E004F6374B3
:100DE0006176652075700053706C697420585920C5
:100DF0002B2066756E6374696F6E730053706C6937
:100E0000742058590053706C6974206F6666000135
:100E1000290229042908291029202940298029018B
:100E20002C022C0126022604260826102620264005
:100E3000268026402C802C01230223042308231023
:100E40002320234023802301200220042008201097
:100E500020202040208020102C202C012F022F0445
:100E60002F082F102F202F402F802F7EFE7EFD7EFB
:100E7000FB7EF77EEF7EDF7EBF7E7F000100002CD1
:100E80000F1200020000E90E4300030000E50E040B
:100E900001030904CB0E1802030904B30E16030361
:100EA0000904A50E0C0C0331003200330034003568
:100EB0000000001603550053004200200053006557
:100EC000007200690061006C0000001803540065A6
:100ED0000065006E00730079006400750069006EA3
:100EE000006F00000004030904090243000201002E
:100EF000C0320904000001020201000524001001B3
:100F0000052401000104240206052406000107054A
:100F1000820308004009040100020A0000000705DE
:100F20000302400000070584024000001201000295
:100F300002000020C0168304000101020301000129
:100F4000C102018036018136B5087E12B417BC1E7D
:100F5000BA208E2DED2DA82F763AB43ACC45CC523E
:100F6000585328546D5B8A12C0179E2DB42F903AA7
:100F7000C03AD845D8526453335411241FBECFEF22
:100F8000D0E2DEBFCDBF15E0A0E0B1E0ECEAF1ECCD
:100F900000E00BBF02C007900D92A03BB107D9F74C
:100FA0002EE0A0EBB5E001C01D92AF3AB207E1F729
:100FB0001FE0C6E6DFE000E006C022970109FE015F
:100FC0000BBF0E940F60C834D10780E00807A9F763
:100FD0000E94A9580C94C56013C88091DC0590E06C
:100FE0002091DD05821B910908952091DD058091F6
:100FF000DC05281750F4E22FF0E0E252FA4F80812E
:1010000090E02F5F2093DD0508958FEF9FEF089507
:10101000E091DD058091DC05E81730F4F0E0E25264
:10102000FA4F808190E008958FEF9FEF0895089523
:10103000CF92DF92EF92FF920F931F93CF93DF93A4
:101040007C01CB018A012091B805222389F0EB01B4
:101050006B01C40ED51ECC15DD0561F06991D70179
:10106000ED91FC910190F081E02DC7010995F3CF3E
:10107000642F35D1C801DF91CF911F910F91FF905F
:10108000EF90DF90CF900895CF93DF931F92CDB76D
:10109000DEB769832091B8052223C1F02091B905FC
:1010A000203230F021E0FC01228380E090E014C087
:1010B0008091BA05E82FF0E0E554FA4F99819083CA
:1010C0008F5F8093BA058093B90504C061E0CE01BB
:1010D000019605D181E090E00F90DF91CF910895C6
:1010E000FC01128248EE53E060E070E043835483D9
:1010F0006583768317828EE191E0918380830895E2
:101100001092DD051092DC051092BA051092B90517
:101110002FC0862F413208F040E26EED75E048D0D6
:101120001092DD058093DC05089521E0F2CF81E087
:101130008093B8056093DB051092BA051092B9054B
:1011400008950F93062F21E04091B9056BEB75E0F0
:101150008091DB0571D01092BA051092B9051092FA
:10116000B8050F91089561E0ECCF80EB95E0B8CF22
:1011700010926B0681E08093690610926806599A76
:10118000E0EBF0E080818F7D8083589A84B58F7D7D
:1011900084BDE9EBF0E080818E7F808380818D7F4C
:1011A000808388E48093B80085E48093BC00089530
:1011B000413208F03FC090916B069111FCCF91E055
:1011C00090936B06209369062FEF2093FE051092F3
:1011D0004306240F2093420690936A0690916A0674
:1011E000880F892B80936A0680916806813041F4CC
:1011F0001092680680916A068093BB0085EC01C05E
:1012000085EE8093BC0080916B068130E1F3809184
:101210004306841710F44091430624E436E0FB01B2
:10122000D9018A2F821B841718F48D918193F9CFED
:10123000842F089580E008950F93413208F046C04E
:1012400090916B069111FCCF92E090936B06009306
:1012500069069FEF9093FE05109243064093420665
:10126000FB0164E476E0DB019A2F961B941718F4D7
:1012700091919D93F9CF10926A0690916A06880F1A
:10128000892B80936A0680916806813041F4109220
:10129000680680916A068093BB0085EC01C085EEEC
:1012A0008093BC00222321F080916B068230E1F311
:1012B0008091FE058F3F61F08091FE05803251F0F4
:1012C0008091FE05803341F483E007C081E005C0D2
:1012D00080E003C082E001C084E00F910895613294
:1012E00098F420916B06243089F460932006FC0169
:1012F00082E296E0DC012A2F281B261718F42191A0
:101300002D93F9CF80E0089581E0089582E008955B
:1013100085ED8093BC008091BC0084FDFCCF1092D1
:101320006B06089585EC8093BC0010926B060895BF
:101330001F920F920FB60F9211240BB60F922F939C
:101340003F934F935F936F937F938F939F93AF934D
:10135000BF93EF93FF938091B900887F803609F4A3
:101360009CC068F5883209F45BC090F4803109F4C0
:1013700054C038F4882309F4F2C0883009F44DC011
:10138000F1C0883109F44CC0803209F45DC0EAC074
:10139000803409F468C048F4803309F455C08833B8
:1013A00009F0E0C08093FE05A6C0803509F44FC067
:1013B000883509F45DC0883409F0D4C0D2C08839BA
:1013C00009F4C3C0A8F4883709F467C038F4883634
:1013D00009F463C0803709F460C0C4C0883809F4D8
:1013E000B4C0803909F45FC0803809F0BBC05BC06D
:1013F000803B09F482C038F4803A09F466C0883A28
:1014000009F47BC0AFC0803C09F4A3C0883C09F458
:10141000A0C0883B09F486C0A5C080916A0610C0B0
:101420009091430680914206981770F5E09143062B
:1014300081E08E0F80934306F0E0EC5BF94F8081F2
:101440008093BB0085EC82C08093FE058AC0E0914A
:10145000430681E08E0F809343068091BB00F0E04D
:10146000EC5BF94F808390914306809142066AC0FD
:10147000E091430681E08E0F809343068091BB008C
:10148000F0E0EC5BF94F808380916906811169C0BF
:1014900081E08093680684EA5DC083E080936B06F8
:1014A0001092FF05CFCF8091FF05803208F04DC02C
:1014B000E091FF0581E08E0F8093FF058091BB00D6
:1014C000F0E0E050FA4F8083BDCF8091FF0580327D
:1014D00030F4E091FF05F0E0E050FA4F10826091A7
:1014E000FF0570E0E0916406F091650680E096E00B
:1014F00009951092FF0516DF35C084E080936B06D6
:101500001092210610922006E0916606F09167067F
:10151000099580912006811105C081E08093200605
:1015200010922206E091210681E08E0F8093210621
:10153000F0E0EE5DF94F80818093BB009091210631
:1015400080912006981708F47DCF85E88093BC0031
:1015500009C085EC8093BC0010926B0603C010920A
:10156000FE05D6DEFF91EF91BF91AF919F918F91D4
:101570007F916F915F914F913F912F910F900BBE93
:101580000F900FBE0F901F901895AB01682F86EE3D
:1015900099E00C94C72DEF92FF920F93CF93DF93B6
:1015A000C82F85EF99E00E94A138082FCD31D1F0E6
:1015B00030F4CB3109F440C0CC3131F07AC0CE31B7
:1015C000F9F0CF3159F175C085EF99E00E943A5199
:1015D000602F85EF99E00E9403458823D9F1CFEF72
:1015E000D0E03AC085EF99E00E946852602F85EF05
:1015F00099E00E940A45882399F1CFEFD0E032C0EC
:1016000085EF99E00E949E51602F85EF99E00E943E
:10161000F544882361F1CFEFD0E02BC085EF99E04E
:101620000E940252602F85EF99E00E94FC448823BB
:1016300029F1CFEFD0E024C085EF99E00E94AA47BE
:1016400085EF99E00E947337EC0134E0E32EF12C32
:1016500066E01AC0C0E0D0E0E12CF12C62E014C0DA
:10166000C0E0D0E0EE24E394F12C61E00DC0C0E0D6
:10167000D0E092E0E92EF12C63E006C0C0E0D0E0BB
:1016800083E0E82EF12C60E0AE0186EE99E00E9446
:10169000C72D85EF99E00E941145AC010F5F21E055
:1016A000CF3FD10509F020E0B7018BEF98E00E9411
:1016B000D525DF91CF910F91FF90EF9008953F9244
:1016C0004F925F926F927F928F929F92AF92BF9252
:1016D000CF92DF92EF92FF920F931F93CF93DF93FE
:1016E0007B018B01A42EB12C882E912CC8018E1960
:1016F0009F098A159B050CF045C0C0E0D0E0312C55
:101700006C2F85EF99E00E94C731882329F1C81515
:10171000D90511F16C2F85EF99E00E94A6386C0174
:10172000412C512CF60161916F0185EF99E00E94E7
:101730008C383C01F801608185EF99E00E948C387B
:101740006816790611F433243394FFEF4F1A5F0AB9
:1017500087E04816510431F72196C930D10581F64A
:1017600031100DC0F801608185EF99E00E948C383E
:1017700046E450E0BC0186EE99E00E94E52D0F5F43
:101780001F4FB4CFDF91CF911F910F91FF90EF903A
:10179000DF90CF90BF90AF909F908F907F906F9091
:1017A0005F904F903F9008952F923F924F925F929B
:1017B0006F927F928F929F92AF92BF92CF92DF9261
:1017C000EF92FF920F931F93CF93DF93CDB7DEB7C6
:1017D00063970FB6F894DEBF0FBECDBF182F962EBD
:1017E000F42E222E098B3E2C682F85EF99E07A8B00
:1017F0000E9403457A898823F1F15E0188E0A80EF2
:10180000B11CC92CD72EFE0131964F0135019F0125
:101810004F2C512CC50186199709841595051CF587
:10182000D88ACF86F60161916F0185EF99E02A8B06
:101830003B8B0E948C38F50181935F01BC017727B7
:101840004FEF50E086EE99E00E94E52DEF85F88994
:10185000608185EF99E00E949838F40181934F01EF
:101860003B892A89D7CFE22C0F2DA301612F8BEF63
:1018700098E00E94AD23232D4989612F8BEF98E0DA
:101880000E94AF2263960FB6F894DEBF0FBECDBFA5
:10189000DF91CF911F910F91FF90EF90DF90CF904C
:1018A000BF90AF909F908F907F906F905F904F9080
:1018B0003F902F900895682F8BEF98E00C94AF2401
:1018C000EF920F93211102C0002349F0E02E022F66
:1018D000242F462F682F8BEF98E00E940D250F9143
:1018E000EF9008958BEF98E00C9462220F931F9372
:1018F000CF93DF93EC01FB0101900020E9F7AF01EA
:1019000041505109461B570BE881F9810280F38150
:10191000E02D09958C01CE010E940059800F911F86
:10192000DF91CF911F910F910895CF93853199F059
:10193000863121F0843109F03DC015C06130710558
:1019400009F041C06AE271E080EA9EE0CFDFC1E0C9
:1019500061E070E032C0672BB1F561E471E080EACC
:101960009EE0C4DF27C06130710569F564E086EE52
:1019700099E00E94CB2D8F3F910549F468E571E015
:1019800080EA9EE0B3DF80E090E0C0E00AC000970C
:1019900039F466E771E080EA9EE0A8DF8FEF90E01F
:1019A000C1E0AC0164E086EE99E00E94C72D62E0E0
:1019B00070E003C0C1E060E070E04C2F8BEF98E076
:1019C000CF910C94DC26CF910895FF920F931F9333
:1019D000CF93DF93CDB7DEB7E0970FB6F894DEBFB5
:1019E0000FBECDBF61E086EE99E00E94CF2D8E0143
:1019F0000F5F1F4FF12C6F2D86EE99E00E94CB2DCB
:101A0000F801819391938F0140E050E06F2D86EEB5
:101A100099E00E94C72DF394F8E1FF12ECCF86EE17
:101A200099E00E94B92D78948BEF98E00E942222D1
:101A300068E572E080E090E00E94331C8E010F5F49
:101A40001F4FF12CF801419151918F016F2D86EEBE
:101A500099E00E94C72DF394F8E1FF12F3CF6CEDEB
:101A600075E080E090E00E94331C6FE086EE99E024
:101A7000E0960FB6F894DEBF0FBECDBFDF91CF91D9
:101A80001F910F91FF900C94CF2DCF93DF9386EE93
:101A900099E00E94D32DC0E0D0E0BE0185EF99E02F
:101AA0000E94433A882339F046E450E0BE0186EEB6
:101AB00099E00E94E52D2196CC30D10571F7DF9198
:101AC000CF910895AF92BF92CF92DF92EF920F9392
:101AD0001F93CF93DF931F92CDB7DEB7082FD62E7B
:101AE000C42E85EF99E00E942A3A811168C110E066
:101AF000612F85EF99E00E94C731811160C11F5F9E
:101B00001930B1F785EF99E00E94A138E82E85EFF2
:101B100099E00E9411455C0110E00A30110508F0BF
:101B20004EC1F801E45BFF4F0C94F95F65E188E971
:101B300098E00E943F1D882361F165E188E998E003
:101B40000E949A1E85EF99E00E947E45DD2011F0EB
:101B500061E001C06FEF680F21F0613118F061E0C2
:101B600001C060E185EF99E00E940D4F85EF99E09B
:101B70000E947E45682F8BEF98E00F90DF91CF9108
:101B80001F910F91EF90DF90CF90BF90AF900C948A
:101B9000442985EF99E00E942245DD2011F011E0F3
:101BA00001C01FEF180F1A3021F017FF03C019E012
:101BB00001C010E0612F85EF99E00E945E4761E06F
:101BC000610F8BEF98E00E94A72385EF99E00E94B8
:101BD000274589835ADF8981682F18C085EF99E0EE
:101BE0000E942745DD2011F011E001C01FEF180F02
:101BF000113121F017FF03C010E101C010E0612F87
:101C000085EF99E00E94814740DF612F8BEF98E0DC
:101C10000F90DF91CF911F910F91EF90DF90CF90B8
:101C2000BF90AF900C94AA232C2D40E050E06D2D76
:101C300085EF99E00E94F84A6C014E2D60E070E05B
:101C400085EF99E00E946945E394082F9501A6016C
:101C500060E070E016C02C2D41E050E06D2D85EF66
:101C600099E00E94F84A6C014E2D61E070E085EF2A
:101C700099E00E946945E394082F9501A60161E06F
:101C800070E08BEF98E00E943F2799C02C2D41E037
:101C900050E06D2D85EF99E00E94F94B6C012E2DDF
:101CA00041E050E060E070E085EF99E00E9445453A
:101CB000E394082F9501A60161E070E04AC02C2D45
:101CC00040E050E06D2D85EF99E00E94F94B6C01EA
:101CD0002E2D40E050E060E070E085EF99E00E943A
:101CE0004545E394082F9501A60160E070E031C0FE
:101CF0002C2D43E050E06D2D85EF99E00E94F94BCB
:101D00006C012E2D43E050E061E070E085EF99E03A
:101D10000E944545E394082F9501A60163E070E019
:101D200018C02C2D42E050E06D2D85EF99E00E9407
:101D3000F94B6C012E2D42E050E061E070E085EF40
:101D400099E00E944545E394082F9501A60162E0C1
:101D500070E08BEF98E00E94AE2731C021E040E0B8
:101D600050E06D2D85EF99E00E94064E6C014E2DDE
:101D700060E070E085EF99E00E942C45E3948C01CF
:101D80009501A60160E070E016C021E041E050E05E
:101D90006D2D85EF99E00E94064E6C014E2D61E09D
:101DA00070E085EF99E00E942C45E3948C01950149
:101DB000A60161E070E08BEF98E00E941D280F9073
:101DC000DF91CF911F910F91EF90DF90CF90BF9057
:101DD000AF90089585EF99E00E942A3A90916D06A0
:101DE000981729F080936D0681E080936C068091AE
:101DF0006C06882371F067E088E998E00E943F1D37
:101E0000811107C066E088E998E00E943F1D8823A1
:101E100039F081E090916C06992349F080E00895B3
:101E200080916C0691E0892710926C06F3CF08959B
:101E30008F929F92AF92BF92CF92DF92EF92FF92DA
:101E40000F931F93CF93DF93CDB7DEB72E970FB6C7
:101E5000F894DEBF0FBECDBF682F85EF99E00E94DA
:101E6000A6386C018E01015F1F4FCE0101965C0107
:101E7000FE0138967F014601F60161916F0185EF01
:101E800099E00E948C38F70181937F01F401608111
:101E900085EF99E00E949838F50181935F01E01683
:101EA000F10649F7CE0108967C01F70141917F01C7
:101EB00050E060E070E020E080EA9EE00E941A5965
:101EC00080EA9EE00E940059E016F10671F7E12CCD
:101ED000F12C40E050E0B70186EE99E00E94E52D3C
:101EE000FFEFEF1AFF0A8CE0E816F10491F7FE010C
:101EF00038967F01F70161917F0170E046E450E080
:101F000086EE99E00E94E52DE016F10699F7CE01E4
:101F100001966C01FE0138967F01F701B1907F01B7
:101F2000FCE0BF1681F0F601A08085EF99E00E94E9
:101F30008145A81208C06B2D70E04FEF50E086EE8F
:101F400099E00E94E52DFFEFCF1ADF0AE016F106B7
:101F500021F72E960FB6F894DEBF0FBECDBFDF91EE
:101F6000CF911F910F91FF90EF90DF90CF90BF9096
:101F7000AF909F908F9008956F927F928F929F92D3
:101F8000AF92BF92CF92DF92EF92FF920F931F9387
:101F9000CF93DF93CDB7DEB761970FB6F894DEBF6E
:101FA0000FBECDBF782E682F85EF99E00E94A6382E
:101FB0008E01085F1F4F6C01CE0101967C014E011E
:101FC0009FE0890E911C602E712FA7015601F6012A
:101FD00061916F0185EF99E0488B598B7F870E9453
:101FE0008C38F80181938F01F501608185EF99E0CC
:101FF0000E949838F70181937F01488959897F852C
:102000000815190519F7662D8BEF98E00E94992A9B
:10201000872D0EDF61960FB6F894DEBF0FBECDBFE1
:10202000DF91CF911F910F91FF90EF90DF90CF90B4
:10203000BF90AF909F908F907F906F9008951F9367
:10204000CF93DF93D82F192F85EF99E00E942A3A7A
:10205000811126C0C0E06C2F85EF99E00E94C73146
:10206000811130C0CF5FC930B1F740E06D2F712FC3
:1020700085EF99E00E94FC49EC018130910509F45B
:1020800004DD85EF99E00E948645282F40E050E06E
:10209000BE018BEF98E0DF91CF911F910C949728B0
:1020A0006D2F85EF99E00E94314FBC018BEF98E0D6
:1020B0000E94062B85EF99E00E94A138DF91CF9115
:1020C0001F915ACFDF91CF911F910895CF93C82FC1
:1020D00061E0680F8BEF98E00E948A298C2F4CDF1B
:1020E00085EF99E00E948145682F8BEF98E0CF91B2
:1020F0000C94732A8BEF98E00E94DD2960E085EF55
:1021000099E00E94273AC1CC1F93CF93DF93C82F49
:10211000D62F67E088E998E00E943F1D8823D9F117
:1021200066E088E998E00E943F1D8823A1F185EFD1
:1021300099E00E942745873008F43FC085EF99E079
:102140000E942A3A11E0682F612785EF99E00E94EA
:10215000273A85EF99E00E942A3A882361F185EFBA
:1021600099E00E94A138682F85EF99E00E94C7315D
:102170008823D9F061E070E08BEF98E00E94142A88
:1021800029DE85EF99E00E942A3A682F612785EFC2
:1021900099E00E94273A85EF99E00E942A3A81113E
:1021A00086C018DE811126C082C085EF99E00E94AA
:1021B000A1388CDFF0CF9EDFEECF85EF99E00E9453
:1021C0002A3A11E0682F612785EF99E00E94273AAB
:1021D00001DE85EF99E00E942A3A682F612785EF9A
:1021E00099E00E94273A60E070E08BEF98E00E944F
:1021F000142AD1CF65E188E998E00E943F1D811142
:1022000026C0D11183C011E0C11101C010E0612FBF
:1022100085EF99E00E940448EC0185EF99E00E9467
:102220008145282F41E050E0BE018BEF98E00E94ED
:10223000972840E050E0112311F06CE001C068E005
:1022400086EE99E0DF91CF911F910C94C72DDD238D
:1022500009F45CC085EF99E00E94A138682F85EFF2
:1022600099E00E94C731882349F061E070E08BEF6C
:1022700098E0DF91CF911F910C94142A65E188E9D1
:1022800098E00E949A1E61E0C11101C060E040E048
:1022900085EF99E00E946450BC012C2F42E050E091
:1022A0008BEF98E0DF91CF911F910C94972885EFE9
:1022B00099E00E942A3A882349F18CDD882331F184
:1022C00085EF99E00E94A138682F85EF99E00E9480
:1022D000C7318111CACFD11119C061E0C11101C04C
:1022E00060E085EF99E00E94EF4785EF99E00E945A
:1022F000A1389EDD85EF99E00E948145682F8BEF24
:1023000098E0DF91CF911F910C94732ADF91CF91C8
:102310001F91089565EC7AE085EF99E00E94A83A54
:1023200064ED7BE085EF99E00E949C3A6FE57BE0ED
:1023300085EF99E00E94A03A60E67CE085EF99E0A5
:102340000E94983A62E77CE085EF99E00E94AC3AFF
:102350006BE57CE085EF99E00E94A43A66E670E1C7
:1023600085EF99E00C94B03A6BEC7AE088E998E05C
:102370000E948A1E64E870E188E998E00E948E1E3F
:102380006FE170E188E998E00E94921E65E97CE0C7
:1023900088E998E00C94961E62E67DE081ED98E075
:1023A0000C94B620B7DFE0DFF7CFCF93DF9388E957
:1023B00098E00E94BF1EF8948CE796E0FFD480E579
:1023C00097E00E94901B83E99EE00E9446548BEFA9
:1023D00098E00E94872186EE99E00E94AA2D85EF61
:1023E00099E00E94A23081ED98E00E94552085EF8F
:1023F00099E00E942245D82F85EF99E00E94274559
:10240000C82F61E06D0F8BEF98E00E94A7236C2F1F
:102410008BEF98E00E94AA2338DBDF91CF91D5CAD9
:1024200040E056E960E070E080EA9EE00E94055BD3
:102430002FEF81EE94E0215080409040E1F700C002
:102440000000B0DFB2CFCF93DF93CDB7DEB72797D1
:102450000FB6F894DEBF0FBECDBF85EF99E00E94A6
:10246000D83988E998E00E94F21F81ED98E00E9437
:1024700056208BEF98E00E94E42B66E188E998E013
:102480000E943F1D1FD7882381F165E971E0CE01CD
:1024900001960E942F5CBE016F5F7F4F8BEF98E02B
:1024A0000E94492BCE0101960E94CA5B86EE99E0FC
:1024B0000E94B92D8BEF98E00E94E42B88E998E008
:1024C0000E94F21F65E188E998E00E943F1D882381
:1024D000A9F386EE99E00E94AB2D62E370E080E004
:1024E00090E00E94331C0E94F25527960FB6F89494
:1024F000DEBF0FBECDBFDF91CF91089569EA71E0D5
:1025000085E796E00E942F5C62ED71E08EE696E032
:102510000C942F5C8EE696E00E94CA5B85E796E0FD
:102520000C94CA5B97FD08C0853091051CF0079795
:102530002CF002C087E0089580E0089585E00895BA
:102540008730910590F5FC01EA5AFF4F70E00C943A
:10255000F95FFB01EE0FFF1FE95DFD4F23C0FB019B
:10256000EE0FFF1FE75EFD4F1DC0FB01EE0FFF1FCB
:10257000E55FFD4F17C0FB01EE0FFF1FE350FE4F5D
:1025800011C0FB01EE0FFF1FE151FE4F0BC0FB011D
:10259000EE0FFF1FEB51FE4F05C0FB01EE0FFF1FBB
:1025A000E552FE4F80819181089580E090E008958A
:1025B000DB010D900020E9F7AD0141505109461BA8
:1025C000570BDC01ED91FC910280F381E02D099421
:1025D0000F931F93CF93DF93EC010E94AF588C01B0
:1025E000CE010E940059800F911FDF91CF911F9162
:1025F0000F9108950F931F93CF93DF93EC01AB01DD
:1026000060E070E020E00E941A598C01CE010E9427
:102610000059800F911FDF91CF911F910F91089565
:10262000CF93DF93C0E0D0E06FEFCE010E948F60C8
:102630002196C11580E1D807B9F7DF91CF910895B0
:10264000FC0185E0808381E090E0908F878B94A7E8
:1026500083A72AE030E0328F218F96A785A72EEB43
:1026600030E0348F238F90AB87A728E334E0368F98
:10267000258F92AB81AB22ED30E030A3278F94AB56
:1026800083AB21E027AFDF01AA5ABF4F26E732E034
:1026900011963C932E93549611969C938E93549638
:1026A00086E08C93579629E030E011963C932E9368
:1026B000549682E090E011969C938E9352971196D7
:1026C0003C932E93549611969C938E935297119609
:1026D0003C932E93549611969C938E9352971196F9
:1026E0003C932E93549611969C938E9352971196E9
:1026F0003C932E93549611969C938E9352972D93C0
:102700003C93ED54FF4F9183808308952F923F9225
:102710004F925F926F927F928F929F92AF92BF92F1
:10272000CF92DF92EF92FF920F931F93CF93DF939D
:102730004C016DE471E080EA9EE04ADF80EA9EE0B1
:102740000E9400598401C12CD12C760116016DE341
:1027500071E080EA9EE00E94AF58B701A60180EACE
:102760009EE00E94765980EA9EE00E940059E801AE
:102770002196412C512C32015201F8012081822FE7
:1027800090E0481659060CF055C064E371E080EA09
:102790009EE00E94AF58B301A20180EA9EE00E9431
:1027A000765968E271E080EA9EE00E94AF58AB285B
:1027B00021F4F8011482138231C088A599A58130D3
:1027C0009105E9F082309105F9F0892B39F58C8972
:1027D0009D8963E0969587956A95E1F7288139810F
:1027E000820F931F2E893F892770332741E050E0E5
:1027F000232B11F440E050E0840F951F0DC0888119
:1028000099812C893D8906C08C899D89880F991FE3
:1028100028813981820F931F9B838A836A817B8100
:1028200080EA9EE0E7DE2296FFEF4F1A5F0A6F0A0A
:102830007F0AA2CF8FEF820F9FE3929DF001939DBD
:10284000F00D1124E80FF11DE80FF11DE80DF91D41
:1028500083A594A581309105D1F082309105D1F006
:10286000892B09F52789308DC90143E09695879515
:102870004A95E1F743815481840F951F27703327D0
:10288000C1E0D0E0232B61F4C0E0D0E009C0C789EB
:10289000D08D04C0C789D08DCC0FDD1F838194817A
:1028A000C80FD91F02C0C0E0D0E063E171E080EA48
:1028B0009EE00E94AF58AE0160E070E020E080EA48
:1028C0009EE00E941A596CE071E080EA9EE080DE92
:1028D00080EA9EE00E940059E2E02E16310449F0A1
:1028E000F801818192818C0F9D1FE05CFF4F9183E5
:1028F0008083FFEFCF1ADF0AEF0AFF0A015C1F4F48
:1029000083E0C816D104E104F10409F01FCF63EE9F
:1029100070E080EA9EE05CDEE401C12CD12C7601FF
:1029200065E372E080EA9EE043DEB701A60180EA3B
:102930009EE00E9476596CE372E080EA9EE038DE09
:1029400069817A8180EA9EE055DE9FEFC91AD90A33
:10295000E90AF90AEF96E3E0CE16D104E104F104A6
:10296000F9F66AEB70E080EA9EE0DF91CF911F916B
:102970000F91FF90EF90DF90CF90BF90AF909F901E
:102980008F907F906F905F904F903F902F9020CED0
:102990004F925F926F927F928F929F92AF92BF926F
:1029A000CF92DF92EF92FF920F931F93CF93DF931B
:1029B0008C01FC01E180F2808381948160E08E0DC6
:1029C0009F1D0E948F60F801C580D680CE0CDF1C51
:1029D000C0E0D0E060E0CE018C0D9D1D0E948F60B4
:1029E0002196CA30D105B1F7C12CD12CF801C7818D
:1029F000D085CE0DDF1DCC0DDD1DE4EB8E2EE2E08B
:102A00009E2EA12CB12CF40161914F01C5018C0FB8
:102A10009D1F0E948F60FFEFAF1ABF0A83E1A816C7
:102A2000B10489F7E3E1CE0ED11CFEEBCF16D10441
:102A3000E9F6C12CD12CF801C185D285CE0DDF1D60
:102A4000CC0DDD1D412C512C32016C0E7D1E78EA1F
:102A5000872E72E0972EA12CB12CF40161914F01C9
:102A6000C501860D971D0E948F60FFEFAF1ABF0A48
:102A70008CE0A816B10489F7ECE04E0E511CFCE680
:102A80004F16510409F78CE6C80ED11CE8E3CE16A8
:102A9000E4E0DE0681F6C12CD12CF801C385D48593
:102AA000CE0DDF1DCC0DDD1DA12CB12C64E0CE01BF
:102AB0000E948F6060E0CE0101960E948F6060E00E
:102AC000CE0102960E948F60FFEFAF1ABF0A2396D5
:102AD00087E0A816B10451F7E5E1CE0ED11CF2ED66
:102AE000CF16D104D1F6DF91CF911F910F91FF90B6
:102AF000EF90DF90CF90BF90AF909F908F907F909E
:102B00006F905F904F9008958F929F92AF92BF9277
:102B1000CF92DF92EF92FF920F931F93CF93DF93A9
:102B2000FC01E05CFF4FA080B180E12CF12C4C0156
:102B300022E4820E911CF401C081D181CA0DDB1DFB
:102B4000CE0DDF1DC12CD12C00E010E001151105C8
:102B500019F460E3CE0104C060E8C8018C0F9D1F2A
:102B60000E948F600F5F1F4F0730110579F7FFEF4D
:102B7000CF1ADF0A279629E0C216D10429F78FE37E
:102B8000E80EF11CE6E7EE16E2E0FE06A1F6DF91A4
:102B9000CF911F910F91FF90EF90DF90CF90BF905A
:102BA000AF909F908F900895CF92DF92EF92FF9217
:102BB0000F931F93CF93DF93EC01FC01E158FF4F7C
:102BC00000811181E12CF12C6C0181E8C80ED11C2F
:102BD000F60180819181800F911F63E270E08E0D7C
:102BE0009F1D0E94A160F2E0EF0EF11C82E1E81649
:102BF000F10471F7E12CF12C6E01E3E8CE0ED11C4B
:102C0000F60180819181800F911F6EE571E08E0D3C
:102C10009F1D0E94A160F2E0EF0EF11C82E1E81618
:102C2000F10471F7E12CF12C6E01E5E8CE0ED11C18
:102C3000F60180819181800F911F64EA71E08E0D11
:102C40009F1D0E94A160F2E0EF0EF11C82E1E816E8
:102C5000F10471F7E12CF12C6E01E7E8CE0ED11CE6
:102C6000F60180819181800F911F64E372E08E0DE7
:102C70009F1D0E94A160F2E0EF0EF11C82E1E816B8
:102C8000F10471F7E12CF12C6E01E9E8CE0ED11CB4
:102C9000F60180819181800F911F62EC71E08E0DB1
:102CA0009F1D0E94A160F2E0EF0EF11C82E1E81688
:102CB000F10471F7E12CF12CC557DF4F8881998120
:102CC000800F911F68E572E08E0D9F1D0E94A1602C
:102CD000E2E0EE0EF11CF2E1EF16F10479F7DF917C
:102CE000CF911F910F91FF90EF90DF90CF900895BB
:102CF000CF93DF93EC014CDECE0106DFCE0154DF33
:102D000065E18DEF9FE00E948F6065E18EEF9FE0AF
:102D10000E948F6065E18FEF9FE0DF91CF910C946F
:102D20008F601F93CF93DF93EC0160E080E0C3D20C
:102D30008DE492E051D213E360E081E1BCD2812FB7
:102D400049D22FEF83ED90E3215080409040E1F78E
:102D500000C000001150103379F73AD260E080E0F3
:102D6000AAD28EE592E038D261E080E0A4D28FE66C
:102D700092E032D2CE0154DC61E080E09CD28DE75B
:102D800092E02AD2CE01B4DF23D260E080E093D279
:102D900080E992E021D261E080E08DD28EE992E07C
:102DA0001BD22FEF87EA91E6215080409040E1F757
:102DB00000C00000DF91CF911F910895CF92DF9264
:102DC000EF92FF927C013CDCC701A0DC8DEF9FE01D
:102DD0000E948260853161F48EEF9FE00E948260E4
:102DE000853131F48FEF9FE00E948260853111F0D0
:102DF000C70197DF6BEC71E080EA9EE0E9DB62EAF5
:102E000071E080EA9EE0E4DBC12CD12C7601B701B1
:102E1000A60180EA9EE00E9476596FE971E080EA9F
:102E20009EE00E94AF58C6010E948260482F50E089
:102E300060E070E020E080EA9EE00E941A5980EA9B
:102E40009EE00E9400598FEFC81AD80AE80AF80AD3
:102E5000C11480E1D806E104F104C9F666E771E027
:102E600080EA9EE0FF90EF90DF90CF90B1CBCF92C1
:102E7000DF92EF92FF920F931F93CF93DF93E901BD
:102E80002FE3629FB0011124FB01E40FF11DE40F59
:102E9000F11DE80FF91FDC01A60FB71FE380F480D6
:102EA00011968D919C911297E80EF91E83A58130A1
:102EB00009F440C080F0823009F04BC06E01CC0CA8
:102EC000DD1CCE0CDF1CB801C6010E94A160C6014A
:102ED0008C1B9D0B36C0CE01D7FD0796A3E09595C0
:102EE0008795AA95E1F728EF829FC00D1124E80E7F
:102EF000F11CC7010E94826041E050E060E070E098
:102F000004C0440F551F661F771FCA95D2F7012BC7
:102F100019F0C82FC42B03C0C42FC095C8236C2F31
:102F2000C7010E948F60C7010E94826091E0C813B0
:102F300010C010C0EC0EFD1E602FC7010E948F60F4
:102F4000C7010E948260282F30E091E0021713072A
:102F500009F090E0892FDF91CF911F910F91FF90A1
:102F6000EF90DF90CF90089569EA71E080E497E0F8
:102F70000E942F5C62ED71E089E397E00C942F5C76
:102F800089E397E00E94CA5B80E497E00C94CA5BF7
:102F90005C9808955C9A08954F925F926F927F9229
:102FA0008F929F92AF92BF92CF92DF92EF92FF9259
:102FB0000F931F93CF93DF931F92CDB7DEB7882374
:102FC00019F0898397D0898190914707992331F02F
:102FD0003AE13A95F1F700C010924707882329F0AB
:102FE0002F9A81E08093470701C02F985A9A6898DA
:102FF000579856985598CEDF82E08A95F1F700C031
:1030000069B079B099B08CB0C3DF92E09A95F1F7CE
:1030100000C0C0DFE2E0EA95F1F700C099B189B1E4
:1030200029B13CB130FB442440F8512C33E0440C2E
:10303000551C3A95E1F795FBAA24A0F8B12C4A2833
:103040005B2886FBCC24C0F8D12CCC0CDD1C4C2892
:103050005D28332727FD30952227330F221F332782
:10306000220F331F220F331F422A532A65FAEE2400
:10307000E0F8F12C74E0EE0CFF1C7A95E1F776FA9B
:10308000002700F910E0E5E0000F111FEA95E1F7D5
:103090000E29282D279522272795202B892D992722
:1030A00087FD90958827990F881F9927A6E0880F9C
:1030B000991FAA95E1F7282B422A6ADF689A579A46
:1030C000569A559A709A5F9A5E9A5D9A5A98842D8C
:1030D0000F90DF91CF911F910F91FF90EF90DF90B4
:1030E000CF90BF90AF909F908F907F906F905F90A8
:1030F0004F900895CF93DF93C1EDD3E080E04CDF94
:1031000087FF02C02197D1F7DF91CF9108951F93D8
:10311000CF93DF931F92CDB7DEB7182F6983EADF15
:10312000809147076981882331F08AE18A95F1F718
:1031300000C010924707662329F02F9A81E0809300
:10314000470703C02F981092470717FF02C0709AD5
:1031500001C0709816FF02C05F9A01C05F9815FF0A
:1031600002C05E9A01C05E9814FF02C05D9A01C061
:103170005D9800C00FDFE2E0EA95F1F700C008DFDC
:1031800013FF02C0709A01C0709812FF02C05F9ACC
:1031900001C05F9811FF02C05E9A01C05E9810FFE7
:1031A00002C05D9A01C05D9800C0F4DEF2E0FA95BD
:1031B000F1F700C0EDDE709A5F9A5E9A5D9A0F900B
:1031C000DF91CF911F91089560E0A1CF8058FCCF8F
:1031D00081E0FACF61E09BCFCF93DF93EC0189913F
:1031E000882311F0F7DFFBCFDF91CF910895549A38
:1031F000279A529A689A579A569A559AC9DE2F98E2
:103200005A98709A5F9A5E9A5D9A8FE59AEE019746
:10321000F1F700C0000070985F9800C0BBDE92E03C
:103220009A95F1F700C0B4DE8FE090E40197F1F7D2
:1032300000C00000AFDE92E09A95F1F700C0A8DE72
:103240008FE891E00197F1F700C00000A3DE92E063
:103250009A95F1F700C09CDE85ED8A95F1F70000A4
:103260005D9800C097DE92E09A95F1F700C090DE7D
:1032700085ED8A95F1F700005D9800C08BDE92E045
:103280009A95F1F700C084DE82E08A95F1F700C0DC
:10329000709A00C07FDE92E09A95F1F700C078DE68
:1032A00085ED8A95F1F7000088E08EDF91DF86E0FA
:1032B0008BDF8CE089CFE62FF0E0E953FD4F908162
:1032C000890F84CF0F931F93813021F580914C0794
:1032D00081110CC081E080934C07B9D260934807FC
:1032E0007093490780934A0790934B07B0D200919F
:1032F00048071091490720914A0730914B07601BFE
:10330000710B820B930B21E0693B7B40810591059A
:1033100020F402C010924C0720E0822F1F910F91E1
:103320000895CF93E82FF0E09F01220F331FD901BA
:10333000AF56B84F0D90BC91A02D5C91D901A35808
:10334000B84F0D90BC91A02D8C91D901AB5AB84FBC
:103350006D917C91DF01A759B84F9C91892341E081
:1033600009F440E0962F990F990F9F70942BDF017D
:10337000AD58B84F4C91452381E009F480E0880FA7
:10338000892B90E0607F682B792BD901AB5AB84F1D
:103390006D937C93DC01A152BD4F4C914423D9F134
:1033A000C1E014160CF0C0E0CB0154E0969587956F
:1033B0005A95E1F78F70840F90E18902A0011124E2
:1033C0006F70462B572BD901AB5AB84F11965C93AF
:1033D0004E93952F991F9927991FCC2311F0506870
:1033E00001C05F774D935C939C1315C0837099F473
:1033F000D901AB5AB84F4D915C9111974F7040680D
:103400004D935C93EB55F84F8081992311F08F5FBA
:1034100001C081508083CF91089580FF02C0299A16
:1034200001C0299881FF02C02A9A01C02A9882FF10
:1034300002C02B9A08952B9808951F920F920FB6F1
:103440000F9211240BB60F922F933F934F935F93DC
:103450006F937F938F939F93AF93BF93EF93FF935C
:1034600080914F07823009F086C010924F078091FB
:10347000B0008F778093B000809180008F77809329
:103480008000809180008F7D809380002E982E9800
:103490002E9880910F08883011F410920F088091B7
:1034A0000F08BBDFB0E0A0E020910F082A0F30E04A
:1034B000220F331FF901E155F84F60817181AB0193
:1034C0005527F901E152F84F808191816623E9F097
:1034D000B13051F0B23081F06093B3006091B00030
:1034E00060686093B00011C05093890040938800D9
:1034F00060918000606807C050938B0040938A0001
:10350000609180006062609380004817590749F11C
:1035100061E070E04817590714F060E070E0613036
:10352000710579F460910401F901E155F84F40818A
:103530005181460F511D51834083841795078CF4A8
:103540000EC060910401F901E155F84F40815181AD
:10355000461B5109518340834817590714F491833E
:103560008083A85FBF5FA83109F09ECF80910F08CC
:103570008F5F80930F0880914F078F5F80934F0775
:1035800020914E07222399F0809151079091520784
:10359000A0915307B09154070196A11DB11D8093CE
:1035A000510790935207A0935307B093540781E0BB
:1035B000822780934E07FF91EF91BF91AF919F912A
:1035C0008F917F916F915F914F913F912F910F90CC
:1035D0000BBE0F900FBE0F901F9018951F920F9269
:1035E0000FB60F9211240BB60F922F933F934F9368
:1035F0005F936F937F938F939F93AF93BF93CF937B
:10360000EF93FF93C0914D078C2F8BDECF5FCA30B5
:1036100019F0C0934D0702C010924D07FF91EF9132
:10362000CF91BF91AF919F918F917F916F915F915A
:103630004F913F912F910F900BBE0F900FBE0F90A7
:103640001F901895E62FF0E0EE0FFF1FE152F84FA4
:10365000808191810895E62FF0E0EE0FFF1FE15287
:10366000F84F518340830895E62FF0E0EB55F84F73
:103670008081108208956093040108951F93CF9371
:10368000DF9300D0CDB7DEB7122F842F4A83698332
:103690000E94CD54812F0E94CD54698170E04A81EF
:1036A00050E0440F551FFA01E05FF14FE491DB0158
:1036B000AA0FBB1FAF56B84FF0E0ED93FC93FA0191
:1036C000E15FF14F4491DB01AD58B84F4C93212F8E
:1036D00030E0220F331FF901E05FF14FE491DB018D
:1036E000AA0FBB1FA358B84FF0E0ED93FC93F9016C
:1036F000E15FF14F2491FB01E759F84F2083E5E5A5
:10370000F7E08081918180688193919387E0E93629
:10371000F807B9F70F900F90DF91CF911F9108959F
:10372000DF92EF92FF920F931F93CF93DF937C0171
:1037300010929000109291001092950010929400B7
:1037400010927100109299001092980010929B00B4
:1037500010929A0010929D0010929C00809191000E
:1037600088608093910080919100846080939100A3
:1037700010928000109281001092820010926F00CF
:103780001092850010928400109289001092880097
:1037900010928B0010928A0010928D0010928C0073
:1037A0001092B0001092B100109270001092B2000E
:1037B0001092B3001092B4008091800081608093D9
:1037C00080008091B00081608093B0008091810082
:1037D0008160809381008091B10081608093B1000D
:1037E00014BC15BC16BC10926E0017BC18BC84B576
:1037F000826084BD85B5836085BD8CE787BD8AE026
:1038000090E0909399008093980080916E00826080
:1038100080936E00809171008260809371000BEC48
:1038200012E0C5EDD2E0D12CF80121918F01499130
:103830006D2DC70123DFD394FAE0DF12F5CFDF91BE
:10384000CF911F910F91FF90EF90DF9008952FB7C8
:10385000F8946091510770915207809153079091AD
:1038600054072FBF08950F931F9300E010E09801B5
:10387000061717072807390759F0EFE9FFE03197D6
:10388000F1F700C000000F5F1F4F2F4F3F4FF0CFE9
:103890001F910F9108951F920F920FB60F9211244E
:1038A0000BB60F922F938F939F93EF93FF9390916B
:1038B000CE00809117088F5F803408F080E020915F
:1038C0001608821739F0E82FF0E0E85EF74F908392
:1038D00080931708FF91EF919F918F912F910F90F7
:1038E0000BBE0F900FBE0F901F9018951F920F9256
:1038F0000FB60F9211240BB60F928F939F93EF93F5
:10390000FF93909115088091140898130AC0809134
:103910001208811102C088E401C088ED8093C900BB
:103920000FC0809114088F5F803408F080E0E82F8A
:10393000F0E0E85AF74F90819093CE0080931408FE
:10394000FF91EF919F918F910F900BBE0F900FBE43
:103950000F901F9018951F920F920FB60F9211247F
:10396000109213080F900FBE0F901F901895CF92D2
:10397000DF92EF92FF920F93CF936A017B01C22FE8
:103980002093120800931108CB01BA0196958795F0
:103990007795679560587B47814E9F4FA7019601A9
:1039A0000E94BB5FB90161707727672B41F021301E
:1039B00060E1360724F482E08093C80004C01092CE
:1039C000C80035952795215031093093CD002093BB
:1039D000CC008091C90083FD1AC010921708109284
:1039E000160810921508109214081092130886E019
:1039F0008093CA00CC2331F0002311F088ED05C07C
:103A000080E903C0002319F088E48093C900CF91B6
:103A10000F91FF90EF90DF90CF900895DC01ED9132
:103A2000FC910190F081E02D0994FC0110AA11AAEB
:103A300012AA13AA14A615A616A617A610861186F2
:103A40001286138614AA4FEF5FEFBA0145AB56AB4F
:103A500067AB70AF80E090E020EFDF01A80FB91FE7
:103A60001C962C93019680329105B9F71182108231
:103A70001582148217821682138212820895FC0125
:103A800084A595A5A6A5B7A504C0B695A7959795B5
:103A900087956A95D2F781700895406FFC01E60F13
:103AA000F11D9485990F942B948781E0903F21F02C
:103AB0009F3F11F080E0089508950F931F93FC013C
:103AC000862F04A515A526A537A5442381F041E03E
:103AD00050E060E070E004C0440F551F661F771F80
:103AE0008A95D2F7402B512B622B732B13C041E0E8
:103AF00050E060E070E004C0440F551F661F771F60
:103B00008A95D2F740955095609570954023512342
:103B10006223732344A755A766A777A71F910F9128
:103B20000895AF92BF92CF92DF92EF92FF920F93E0
:103B30001F93CF93DF931F92CDB7DEB75C01562F53
:103B4000F42EDC019C960D911D912D913C919F9737
:103B5000062E04C036952795179507950A94D2F737
:103B60000170112722273327401709F4C7C0598352
:103B7000A4DF5981FF20D9F1F50105A916A927A9CC
:103B800030AD543128F45E30D0F4563080F517C093
:103B900085EE850F853058F5052E04C0369527959E
:103BA000179507950A94D2F700FF21C06F2D70E09A
:103BB0000190F081E02D852F5983099517C0E52FDD
:103BC000F0E0E151FD4F8081052E04C03695279528
:103BD000179507950A94D2F700FF09C0D5011696EC
:103BE000ED91FC91179790E0598309955981F50162
:103BF00005A916A927A930AD573049F018F4563059
:103C0000D1F03FC08CEE850F833050F13AC057E0C1
:103C100036952795179507955A95D1F700FF31C02E
:103C200061E0F11001C060E0D5011496ED91FC91C6
:103C3000159780E013C046E03695279517950795B0
:103C40004A95D1F700FF1DC061E0F11001C060E0AE
:103C5000D5011496ED91FC91159781E0099511C05D
:103C6000052E04C036952795179507950A94D2F727
:103C700000FF07C06F2D70E00280F381E02D852FDB
:103C8000099580E090E0C12CD12C7601C394F50118
:103C900005A916A927A930ADB901A801082E04C0AD
:103CA00076956795579547950A94D2F740FD0EC0D3
:103CB00044A555A566A577A5082E04C076956795F9
:103CC000579547950A94D2F740FF05C00196803278
:103CD0009105E9F613C0B701A601082E04C0440FF0
:103CE000551F661F771F0A94D2F7402B512B622B6A
:103CF000732B45AB56AB67AB70AFE8CF0F90DF913E
:103D0000CF911F910F91FF90EF90DF90CF90BF90D8
:103D1000AF900895FC01718360830895FC01758361
:103D200064830895FC01778366830895FC0173839F
:103D3000628308950F931F93262F41E050E060E0C7
:103D400070E004C0440F551F661F771F2A95D2F7F5
:103D50004095509560957095FC0105A916A927A975
:103D600030AD042315232623372305AB16AB27AB31
:103D700030AF1F910F91089588E998E056CE80EBFF
:103D800095E00E94800861E280EB95E00E94970830
:103D900060E080EB95E00E9444086FEF70E080EBFC
:103DA00095E03CDE80EB95E00E94B30861E280EB99
:103DB00095E00E94970861E080EB95E00E9444083E
:103DC0006FEF70E080EB95E029DE80EB95E00E94DC
:103DD000B30860E280EB95E00E94970860E080EB1A
:103DE00095E00E9444086FEF70E080EB95E016DEEE
:103DF00080EB95E00E94B30860E280EB95E00E94C2
:103E0000970861E080EB95E00E9444086FEF70E056
:103E100080EB95E003DE80EB95E00E94B30861E261
:103E200080EB95E00E9497086CE080EB95E00E94A3
:103E300044086FEF70E080EB95E0F0DD80EB95E0FB
:103E40000E94B30861E280EB95E00E9497086DE064
:103E500080EB95E00E9444086FEF70E080EB95E006
:103E6000DDDD80EB95E00E94B30860E280EB95E039
:103E70000E9497086CE080EB95E00E9444086FEF89
:103E800070E080EB95E0CADD80EB95E00E94B3081E
:103E900060E280EB95E00E9497086DE080EB95E092
:103EA0000E9444086FEF70E080EB95E0B7DD80EB97
:103EB00095E00C94B308CF93DF93EC018885998546
:103EC000AA85BB85BA2FA92F982F8827888799871D
:103ED000AA87BB87ECA9F0E0ED5FFC4F608180EB27
:103EE00095E00E94970862E180EB95E00E9444080B
:103EF00080EB95E00E94B308ECA9F0E0ED5FFC4F89
:103F0000608170E041E050E080EB95E00E94950810
:103F100080EB95E00E94ED07892BD1F380EB95E0D3
:103F20000E94F507AA2797FDA095BA2F48855985C5
:103F30006A857B85842B952BA62BB72BBA2FA92FAF
:103F4000982F882788879987AA87BB8780EB95E079
:103F50000E94B308ECA9F0E0ED5FFC4F608180EBBC
:103F600095E00E94970863E180EB95E00E94440889
:103F700080EB95E00E94B308ECA9F0E0ED5FFC4F08
:103F8000608170E041E050E080EB95E00E94950890
:103F900080EB95E00E94ED07892BD1F380EB95E053
:103FA0000E94F507AA2797FDA095BA2F4885598545
:103FB0006A857B85482B592B6A2B7B2B4887598731
:103FC0006A877B8780EB95E00E94B3088CA98F5F9E
:103FD000823019F08CAB80E002C01CAA81E0DF9136
:103FE000CF910895CF92DF92EF92FF920F931F939C
:103FF000CF93DF93EC012BDCC8A8D9A8EAA8FBA8D3
:104000006C197D098E099F09633071058105910541
:1040100088F1CE0150DF882341F100E010E0C88430
:10402000D984EA84FB84002E04C0F694E794D794E4
:10403000C7940A94D2F781E0C822DD24EE24FF243D
:1040400081E0C8264C2D602FCE0127DD882321F08A
:104050004C2D602FCE0165DD0F5F1F4F0032110523
:10406000F1F6188619861A861B86F1DB68AB79ABE8
:104070008AAB9BABDF91CF911F910F91FF90EF9097
:10408000DF90CF90089520E030E0FC01E20FF31FB5
:1040900012821382148215822C5F3F4F2832310521
:1040A000A1F7FC0111821082089508957F928F92EA
:1040B0009F92AF92BF92CF92DF92EF92FF920F93B7
:1040C0001F93CF93DF938C01EC01B12C6B2D80E516
:1040D00097E0CADAA82E811113C0B39424968AE01F
:1040E000B812F4CFDF91CF911F910F91FF90EF9015
:1040F000DF90CF90BF90AF909F908F907F9008956A
:10410000A6DBCA80DB80EC80FD806C197D098E09FE
:104110009F09653671058105910518F07724739420
:1041200002C085E0782E93DB6A837B838C839D833A
:10413000E12CF12CCA2CDD24C7FCD09488249924CE
:104140008C189D08C601D7FCC401E816F9062CF6A8
:1041500061E01A140CF060E0D801ED91FC91472D5C
:104160008B2D0995BFEFEB1AFB0AECCFFC01718395
:104170006083089581ED98E086CFCF93DF938EEB37
:1041800099E00E94CA5B87EB99E00E94CA5B8BE9C9
:1041900099E0892B29F48FE799E0892B91F41BC0D2
:1041A00080EB99E00E94CA5B89EA99E00E94CA5BB1
:1041B00082EA99E00E94CA5B8BE999E00E94CA5B9F
:1041C000EACFCBE9D9E02797CE010E94CA5B89E00C
:1041D000CF37D807C1F783E699E0892B51F0CFE7B5
:1041E000D9E02797CE010E94CA5B89E0C336D80781
:1041F000C1F787E499E0892B51F0C3E6D9E027970E
:10420000CE010E94CA5B89E0C734D807C1F788EDA8
:1042100099E00E94CA5B8FED99E0DF91CF910C94F9
:10422000CA5B0C94D35C70E00C94E75CEF92FF9255
:104230000F931F93CF93DF93EC010E947356FE01FF
:10424000EC5BFF4F60837183828393838E01045BF9
:104250001F4F78018CE1E80EF11C60E070E0C801AE
:104260000E942F5C095F1F4F0E151F05B1F78E01CD
:1042700008591F4F78018CE1E80EF11C60E070E0F6
:10428000C8010E942F5C095F1F4F0E151F05B1F773
:104290008E010C571F4F78018CE1E80EF11C60E095
:1042A00070E0C8010E942F5C095F1F4F0E151F05AB
:1042B000B1F78E0100561F4F78018CE1E80EF11C1A
:1042C00060E070E0C8010E942F5C095F1F4F0E156F
:1042D0001F05B1F760E070E0CE0184549F4F0E944B
:1042E0002F5C60E070E0CE018D539F4F0E942F5CE9
:1042F00018AA18A619A61AA61BA61AAA1AAEDF9102
:10430000CF911F910F91FF90EF900C94F7189F920F
:10431000AF92BF92CF92DF92EF92FF920F931F93D3
:10432000CF93DF93EC010E94E8188E017E01C12C2F
:10433000D12C99249394F801E85BFF4F1082570128
:104340008CE4A80EB11C68E270E0C5010E94E75B36
:104350006FED79E0C5010E94795C570188E6A80EEF
:10436000B11C68E270E0C5010E94E75B6FED79E087
:10437000C5010E94795CF801E653FF4F1082349624
:104380001082570180EAA80EB11C68E270E0C501F6
:104390000E94E75B6FED79E0C5010E94795CF8014E
:1043A000EE52FF4F1082570184E8A80EB11C68E25C
:1043B00070E0C5010E94E75B6FED79E0C5010E94E6
:1043C000795CF801EA52FF4F90828FEFC81AD80A41
:1043D0000F5F1F4F87E0E80EF11C84E0C816D10480
:1043E00009F0A9CF1FEF18AF19AFFE01E452FF4F3C
:1043F00010831CA61DA61EA61FA61BAA68E270E0BD
:10440000CE0184549F4F0E94E75B68E270E0CE01CA
:104410008D539F4F0E94E75BFE01E652FF4F1083D2
:10442000C552DF4F188360E080E0DF91CF911F918C
:104430000F91FF90EF90DF90CF90BF90AF909F9043
:104440000C945B19CF92DF92EF92FF920F931F9320
:10445000CF93DF938C017C0180EAE80EF11C68EDBC
:1044600079E0C7010E94795CC0E0D0E06801E4EA2D
:10447000CE0ED11CF60180819181C817D9077CF43A
:10448000BE01C7010E94245DFC0180810E94EA18E0
:104490006BE470E080E090E0E6D92196EBCF6AEF24
:1044A00070E080E090E0DFD9F801E653FF4F81E053
:1044B0008083DF91CF911F910F91FF90EF90DF905C
:1044C000CF900895CF93DF93EC0181E08AAFBFD9FD
:1044D0006BAF7CAF8DAF9EAFDF91CF910895CF933F
:1044E000DF9341305105B1F04230510521F1452BA8
:1044F00099F5EC0127E0629FC00DD11D1124C45B2A
:10450000DF4F8C819D81449738F560ED71E0CE01DD
:1045100088DEF7CFEC0127E0629FC00DD11D11248A
:10452000C859DF4F8C819D814497B0F460ED71E0F4
:10453000CE0177DEF7CFEC0127E0629FC00DD11DE1
:104540001124CC57DF4F8C819D81449728F460ED76
:1045500071E0CE0166DEF7CFDF91CF910895BF9273
:10456000CF92DF92EF92FF920F931F93CF93DF933F
:10457000CDB7DEB728970FB6F894DEBF0FBECDBF1C
:104580008C01B22E242F30E0FC01E652FF4F8081D7
:10459000992787FD90952817390719F0408351E036
:1045A00001C050E02B2D30E0F801E552FF4F808133
:1045B000992787FD90952817390711F0B08203C01D
:1045C000552309F454C0E3EFF1E065917491C801FB
:1045D00048870E943F6078018CEBE80EF11CB8011F
:1045E000C7010E94975CE5EFF1E065917491C80105
:1045F0000E943F606801E3ECCE0ED11CB801C601F9
:104600000E94975C4885642FC7010DDE48854A30BB
:1046100018F46FEC71E004C0443620F460ED71E0F2
:10462000C701FFDD60ED71E0C701FBDD6B2DC60149
:10463000FADDB701CE0101960E94835CB601CE017E
:1046400001960E94175DBC01C8018F599F4F0E94BF
:10465000795CCE0101960E94CA5B40E050E063E0C5
:10466000C8013DDF81E0F801E353FF4F8083EFD8BD
:10467000F801FF966083718382839383F80112AE01
:1046800028960FB6F894DEBF0FBECDBFDF91CF9155
:104690001F910F91FF90EF90DF90CF90BF90089502
:1046A0000F931F93CF93DF93EC0188AD8F3F09F4F5
:1046B00049C089AD8F3F09F445C08E01045B1F4F8F
:1046C0006FED79E0C8010E94795C64E173E0C80194
:1046D0000E94975C68AD772767FD7095C8010E94BE
:1046E000E75C60ED71E0C8019CDDE9ADE73068F49E
:1046F000EE0FFF0BED5CFD4F65917491CE010E94B2
:104700003F60BE01C8018DDD0DC066E173E0C801E8
:1047100088DD69AD772767FD709566507109C8011E
:104720000E94E75C40E050E060E0CE01D8DEFE0190
:10473000E653FF4F81E080838AD8EF9668837983C0
:104740008A839B83DF91CF911F910F910895FC0184
:1047500060AFA6CFFC0161AFA3CF2F923F924F92E3
:104760005F926F927F928F929F92AF92BF92CF9201
:10477000DF92EF92FF920F931F93CF93DF9300D0BE
:1047800000D000D0CDB7DEB79E838D83162F202EAC
:104790000E2D462E512C6C018CEDC80ED11CD6016D
:1047A0008C91992787FD90954816590609F46BC09E
:1047B0006C93ED80FE80B3E5EB0EF11C6FED79E0BC
:1047C000C7012B833C8349835A830E94795C2B81E8
:1047D000622E3C81732E4981842E5A81952EA12C04
:1047E000B12C312CA214B3044CF5D401ED914D0140
:1047F000F0E0EE0FFF1FE75BFD4F659174918D8137
:104800009E810E943F606D817E81C701A114B10429
:1048100019F40E94975C01C004DDF30161913F012E
:1048200070E062507109C7010E94E75C60ED71E0C1
:10483000C701F7DCFFEFAF1ABF0AD4CFED81FE81CD
:10484000E95AFF4F80819181ED81FE81ED52FF4F4A
:10485000459760F081E08083ED81FE81E952FF4F52
:104860008083AD81BE81D3961C9201C0108240E04E
:1048700050E061E08D819E8132DE81E0ED81FE813C
:10488000E553FF4F8083F6012081822F992787FD12
:1048900090954816590611F02F3FD1F5ED80FE8016
:1048A000FCEBEF0EF11C63E273E0C7010E94975C22
:1048B000602FC701B8DC0A3060F46FEC71E0C7010B
:1048C000B0DCA12CB12C6D807E808AE5680E711C55
:1048D00005C00436B0F760ED71E0F1CFB501C3015A
:1048E0000E94245D4C01B501C7010E94245DDC01DA
:1048F0008C91F4018083FFEFAF1ABF0A84E0A81601
:10490000B10461F781E0ED81FE81E453FF4F8083C4
:10491000D6011C930E94271CED81FE81FF966083C7
:10492000718382839383ED81FE8112AE26960FB64A
:10493000F894DEBF0FBECDBFDF91CF911F910F91D5
:10494000FF90EF90DF90CF90BF90AF909F908F90AF
:104950007F906F905F904F903F902F900895AF920F
:10496000BF92CF92DF92EF92FF920F931F93CF935C
:10497000DF93EC01F62E40E050E062E0B0DD8E0106
:1049800004541F4F65E273E0C8010E94975C6F2DCD
:10499000C80149DC89E08F1558F06FEC71E0C8015F
:1049A00040DCE12CF12C5E01EAE5AE0EB11C06C044
:1049B000F3E6FF15B0F360ED71E0F1CFB701615F91
:1049C0007F4FC5010E94245D6C01B701C8010E94A0
:1049D000245DFC018081F6018083FFEFEF1AFF0A5E
:1049E00085E0E816F10451F7FE01E453FF4F81E042
:1049F00080830E94271CFE01FF966083718382835F
:104A000093831AAEDF91CF911F910F91FF90EF909A
:104A1000DF90CF90BF90AF9008956F927F928F926A
:104A20009F92AF92BF92CF92DF92EF920F931F931C
:104A3000CF93DF93EC01D42E122F40E050E062E0E0
:104A40004EDD5E018CEBA80EB11C68E273E0C5017F
:104A50000E94975C6D2DC501E6DB99E09D1518F06D
:104A60006FEC71E005C0E3E6ED1520F060ED71E05C
:104A7000C501D7DB6E01F3ECCF0ED11C6FE371E003
:104A8000C6010E94975C612FC601CDDB1A3018F475
:104A90006FEC71E004C0143620F460ED71E0C601E3
:104AA000C0DBCE01865A9F4F4C010023E1F000E0AD
:104AB00010E0B8016B5F7F4FC4010E94245D3C0190
:104AC000B801C5010E94245DFC018081F30180834F
:104AD0000F5F1F4F0430110561F7EE2009F44DC040
:104AE000A12CB12C18C0A12CB12CB5016B5F7F4F4C
:104AF000C4010E94245D8C01B5018FED99E00E94F4
:104B0000365DF8018083FFEFAF1ABF0A84E0A81674
:104B1000B10459F7E2CFB501665F7F4FC4010E942F
:104B2000245D8C01B501C6010E94245DFC018081D9
:104B3000F8018083FFEFAF1ABF0A84E0A816B10422
:104B400051F7FE01E453FF4F81E080830E94271C50
:104B5000FE01FF9660837183828393831AAEDF9197
:104B6000CF911F910F91EF90DF90CF90BF90AF90BA
:104B70009F908F907F906F900895C12CD12CB6019B
:104B8000665F7F4FC4010E94245D8C01B6018FEDEA
:104B900099E00E94365DF8018083FFEFCF1ADF0AAB
:104BA00084E0C816D10459F7CCCF6F927F928F92D0
:104BB0009F92AF92BF92CF92DF92EF92FF920F93AC
:104BC0001F93CF93DF931F92CDB7DEB73C017B01DC
:104BD0006A01A12CB12C4C0188E6880E911C6FED66
:104BE00079E0C4018A0D9B1D29830E94795CE7E06E
:104BF000AE0EB11C2981FCE1AF16B10481F782E051
:104C0000E816F10409F460C044F4E114F10481F001
:104C1000EA94EF2809F444C0ADC083E0E816F1043B
:104C200009F466C0E4E0EE16F10409F475C0A2C010
:104C3000F2E0CF16D104F9F4211103C0EBE1F2E068
:104C400002C0E3E1F2E065917491C3010E943F600C
:104C5000B301C30181599F4F0E94975C6FE773E0D6
:104C6000730186E7E80EF11CC7010E94975C602F74
:104C7000C701D9DA7FC0211103C0EBE2F2E002C024
:104C8000E3E2F2E065917491C3010E943F60B301D9
:104C9000C30181599F4F0E94975C6AE273E065C02F
:104CA000E2E0CE16D10441F4211103C0EDE1F2E0BF
:104CB000CACFE5E1F2E0C7CF211103C0EDE2F2E097
:104CC000E1CFE5E2F2E0DECFF2E0CF16D10441F42D
:104CD000211103C0EFE1F2E0B6CFE7E1F2E0B3CF9C
:104CE000211103C0EFE2F2E0CDCFE7E2F2E0CACF5C
:104CF00082E0C816D10441F4211103C0E1E2F2E0E0
:104D0000A2CFE9E1F2E09FCF211103C0E1E3F2E09D
:104D1000B9CFE9E2F2E0B6CF830101591F4FC114C8
:104D2000D10419F4E1E1F2E005C0CA94CD2851F4B0
:104D3000EDE0F2E065917491C3010E943F60B30120
:104D4000C80116C0EDE0F2E065917491C3010E94C4
:104D50003F60B301C8010E94975CEFE0F2E065910B
:104D60007491C3010E943F60B301C3018A589F4FF1
:104D70000E94975C10E041E050E0612FC301AFDB7F
:104D80001F5F1430C1F70E94271CF30160A771A7B1
:104D900082A793A781E080AB0F90DF91CF911F9105
:104DA0000F91FF90EF90DF90CF90BF90AF909F90CA
:104DB0008F907F906F900895AF92BF92CF92DF92C5
:104DC000EF92FF920F931F93CF93DF931F92CDB774
:104DD000DEB75C017B0100E010E06C0188E6C80EE4
:104DE000D11C6FED79E0C601800F911F49830E94AD
:104DF000795C095F1F4F49810C31110591F7E1E0A2
:104E0000EE16F10489F0F2E0EF16F10429F0EF2834
:104E1000C1F4E3E6F2E00AC0442319F0E5E6F2E06B
:104E200005C0E7E6F2E002C0E1E6F2E065917491C8
:104E3000C5010E943F60B501C50181599F4F0E9485
:104E4000975C10E041E050E0612FC50148DB1F5F37
:104E50001430C1F70E94271CF50160A771A782A733
:104E600093A781E080AB0F90DF91CF911F910F91BD
:104E7000FF90EF90DF90CF90BF90AF9008956F922A
:104E80007F928F929F92AF92BF92CF92DF92EF92DA
:104E90000F93CF93DF93EC014B015901C12CD12C1F
:104EA0003C0188E6680E711C6FED79E0C3018C0D42
:104EB0009D1D0E94795C87E0C80ED11C8CE1C8164C
:104EC000D10491F7F401FF27EE0FFF1FE950FE4FC9
:104ED00065917491CE010E943F60BE016E018FE624
:104EE000C80ED11CC6010E94975C602FC6019BD9D9
:104EF000F501FF27EE0FFF1FEF51FE4F65917491F3
:104F0000CE010E943F606E0186E7C80ED11CBE0133
:104F1000C6010E94975CAB2819F06E2DC60183D99B
:104F200000E041E050E0602FCE01D9DA0F5F04309D
:104F3000C1F70E94271C68A779A78AA79BA781E0D1
:104F400088ABDF91CF910F91EF90DF90CF90BF9022
:104F5000AF909F908F907F906F9008956F927F9207
:104F60008F929F92AF92BF92CF92DF92EF920F9368
:104F7000CF93DF93EC014B015901C12CD12C3C01A3
:104F800088E6680E711C6FED79E0C3018C0D9D1DE4
:104F90000E94795C87E0C80ED11C8CE1C816D10450
:104FA00091F7F401FF27EE0FFF1FE550FE4F6591CB
:104FB0007491CE010E943F60BE016E018FE6C80E63
:104FC000D11CC6010E94975C602FC6012CD9F50147
:104FD000FF27EE0FFF1FEF51FE4F65917491CE0139
:104FE0000E943F606E0186E7C80ED11CBE01C6015B
:104FF0000E94975CAB2819F06E2DC60114D900E011
:1050000041E050E0602FCE016ADA0F5F0430C1F753
:105010000E94271C68A779A78AA79BA781E088AB75
:10502000DF91CF910F91EF90DF90CF90BF90AF9035
:105030009F908F907F906F9008956F927F928F9244
:105040009F92AF92BF92CF92DF92EF920F931F93F6
:10505000CF93DF93EC014B015901C12CD12C3C01C2
:1050600088E6680E711C6FED79E0C3018C0D9D1D03
:105070000E94795C87E0C80ED11C8CE1C816D1046F
:1050800091F7F401FF27EE0FFF1FE75FFD4F6591DA
:105090007491CE010E943F60BE016E018FE6C80E82
:1050A000D11CC6010E94975CF801EE0FFF1FED5F57
:1050B000FD4F65917491CE010E943F60BE01C60113
:1050C000B0D8F501FF27EE0FFF1FEF51FE4F65919E
:1050D0007491CE010E943F608E010A581F4FBE019D
:1050E000C8010E94975CAB2819F06E2DC8019BD8AF
:1050F00010E041E050E0612FCE01F1D91F5F143084
:10510000C1F70E94271C68A779A78AA79BA781E0FF
:1051100088ABDF91CF911F910F91EF90DF90CF90EF
:10512000BF90AF909F908F907F906F9008959F92C7
:10513000AF92BF92CF92DF92EF92FF920F931F93A5
:10514000CF93DF93EC016B018A01922EE12CF12CBD
:105150005C0188E6A80EB11C6FED79E0C5018E0DEB
:105160009F1D0E94795C87E0E80EF11C8CE1E81637
:10517000F10491F70230110551F581E0C816D10410
:1051800041F4992019F063E373E009C06FE373E021
:1051900006C082E0C816D10449F46DE473E0CE0184
:1051A00081599F4F0E94975C10E052C083E0C8165F
:1051B000D104D1F76BE573E0CE0181599F4F0E9476
:1051C000975C65E673E0CE018A589F4FEBCFE12CE8
:1051D000F12C6FED79E0C5018E0D9F1D0E94795C69
:1051E00087E0E80EF11C8CE1E816F10491F7F80174
:1051F000EE0FFF1FE951FE4F65917491CE010E94A1
:105200003F607E018FE6E80EF11CBE01C7010E94DF
:10521000975C0130110551F4692D772767FD709572
:1052200062507109C7010E94E75CBECF012B09F0F3
:10523000BBCFE92DEE0FFF0BE75BFD4F659174913E
:10524000CE010E943F60BE01C7010E941121ACCF78
:1052500041E050E0612FCE0142D91F5F1430C1F709
:105260000E94271C68A779A78AA79BA781E088AB23
:10527000DF91CF911F910F91FF90EF90DF90CF9032
:10528000BF90AF909F900895DF92EF92FF920F939F
:105290001F93CF93DF93EC01D62E00E010E07C014A
:1052A00088E6E80EF11C6FED79E0C701800F911FD1
:1052B0000E94795C095F1F4F0C311105A1F7E1EFE6
:1052C000F1E065917491CE010E943F60BE018E01B4
:1052D00001591F4FC8010E94975C6D2DC8010E94A3
:1052E000132110E041E050E0612FCE01F8D81F5F9C
:1052F0001430C1F70E94271C68A779A78AA79BA72B
:1053000081E088ABDF91CF911F910F91FF90EF90DB
:10531000DF900895FF920F931F93CF93DF93EC01DB
:10532000F62E8C01045B1F4F6FED79E0C8010E94DF
:10533000795C6FED79E0CE018D5A9F4F0E94795CC8
:105340006FED79E0CE01865A9F4F0E94795C6FED38
:1053500079E0CE018F599F4F0E94795C67E773E037
:10536000C8010E94975C6F2DC8010E94132140E084
:1053700050E060E0CE01B3D840E050E061E0CE0103
:10538000AED840E050E062E0CE01A9D840E050E065
:1053900063E0CE01A4D8FE01E653FF4F81E0808395
:1053A0003196808331968083C353DF4F8883DF91AA
:1053B000CF911F910F91FF900895CF93DF93EC0150
:1053C0006FD96FED79E0CE018D5A9F4F0E94795CC5
:1053D0006FED79E0CE01865A9F4F0E94795C6FEDA8
:1053E00079E0CE018F599F4F0E94795C1BAAFE0184
:1053F000EA52FF4F81E08083349710823596808394
:105400003497108235968083349710823596808346
:10541000349710823A97808331968083C353DF4F4D
:105420008883DF91CF910895DF92EF92FF920F93DF
:105430001F93CF93DF93EC016130710511F0D12CF4
:1054400002C002E0D02E00E010E07E0188E6E80E07
:10545000F11C6FED79E0C701800F911F0E94795C0C
:10546000095F1F4F0C311105A1F70D2D10E0C80188
:10547000880F991F8F5B9D4FFC0165917491CE0140
:105480000E943F60BE01CE0181599F4F0E94975CF0
:10549000F8013196EE0FFF1FEF5BFD4F65917491A0
:1054A000CE010E943F60BE01CE018A589F4F0E94EC
:1054B000975C41E050E061E0CE0111D841E050E05E
:1054C00062E0CE010CD80E94271C68A779A78AA7A2
:1054D0009BA781E088ABDF91CF911F910F91FF9047
:1054E000EF90DF900895FF920F931F93CF93DF9378
:1054F000EC01F62E8C01065A1F4F64E873E0C801D8
:105500000E94975C6F2D70E062507109C8010E9483
:10551000E75CFE01E453FF4F81E0808340E050E010
:1055200062E0CE01DF91CF911F910F91FF900C941B
:105530006F22AF92BF92CF92DF92EF92FF920F93C2
:105540001F93CF93DF93EC018B015A017C0183E51C
:10555000E80EF11C6FED79E0C7010E94795C6801EB
:1055600000E010E0D601ED916D01EC3019F1F0E0B2
:10557000EE0FFF1FE75BFD4F65917491CE010E9416
:105580003F60BE01C7010115110519F40E94975C27
:1055900002C00E941121F501E00FF11F608170E04F
:1055A00062507109C7010E94E75C60ED71E0C701BC
:1055B0000E9411210F5F1F4F0730110599F6FE0160
:1055C000E95AFF4F80819181E458FF4F459710F0D1
:1055D00081E006C010821BAA81E0FE01E952FF4F64
:1055E0008083FE01E553FF4F81E0808340E050E07F
:1055F00061E0CE01DF91CF911F910F91FF90EF906D
:10560000DF90CF90BF90AF900C946F22EF92FF92FB
:105610000F931F93CF93DF93EC016230710541F537
:1056200000E010E07C0188E6E80EF11C6FED79E007
:10563000C701800F911F0E94795C095F1F4F0C31D9
:105640001105A1F764E973E0CE0181599F4F0E94D3
:10565000975C66EA73E0CE018A589F4F0E94975C80
:105660000E94271C68A779A78AA79BA781E088AB1F
:1056700010E041E050E0612FCE010E946F221F5FD9
:105680001430B9F7DF91CF911F910F91FF90EF90F8
:105690000895CF92DF92EF92FF920F931F93CF93D3
:1056A000DF93EC016B0100E010E07C018CE4E80E7C
:1056B000F11C6FED79E0C701800F911F0E94795CAA
:1056C000095F1F4F0C311105A1F7B601C7010E94F8
:1056D000795C40E050E060E0CE010E946F22FE0164
:1056E000E653FF4F81E0808331968083319680833B
:1056F000C353DF4F8883DF91CF911F910F91FF90AC
:10570000EF90DF90CF900895FF920F931F93CF9368
:10571000DF93EC01FAACFF2009F44EC04BAD5CAD59
:105720006DAD7EADFC01FF96008111812281338138
:10573000401B510B620B730B493C51056105710510
:1057400078F40E94271C0BAD1CAD2DAD3EAD601B47
:10575000710B820B930B693C71058105910560F11A
:105760006FED79E0CE018D5A9F4F0E94795C6FED0D
:1057700079E0CE01865A9F4F0E94795C6FED79E007
:10578000CE018F599F4F0E94795CFE01E553FF4F78
:1057900081E08083319680833196808336961082B3
:1057A000349680831BAA33968FEF80833196808353
:1057B000319680831AAE01C0F12C8F2DDF91CF91ED
:1057C0001F910F91FF9008953F924F925F926F92B9
:1057D0007F928F929F92AF92BF92CF92DF92EF9281
:1057E000FF920F931F93CF93DF93CDB7DEB7279729
:1057F0000FB6F894DEBF0FBECDBF8C0180917A004A
:1058000086FD74C1C80180DF0E94271CF801FF9645
:10581000C080D180E280F3806C197D098E099F09D8
:105820006A3071058105910530F4D801DA968C91C2
:10583000882309F45BC1F80180A981111BC1D8013B
:10584000D1968C9181110DC048016801B0EACB0E50
:10585000D11C7801ECE4EE0EF11C512C442443944D
:1058600033C00E94271CD8019896CD90DD90ED9012
:10587000FC909B976C197D098E099F096D3D7540C1
:105880008105910508F432C1F80111AA6801F8E612
:10589000CF0ED11CE12CF12CBB24B3946FED79E039
:1058A000C6010E94795CF801EE0DFF1DE653FF4F23
:1058B000B0822FEFE21AF20A87E0C80ED11CA4E0F2
:1058C000EA16F10459F7C0CFF401EE52FF4F808180
:1058D000882309F487C00E94271CF80124A535A558
:1058E00046A557A5621B730B840B950B653F714052
:1058F0008105910508F4A3C0D801D3964C91552792
:1059000047FD509528E230E0B701CE0101960E9494
:10591000475D3601BCE16B1A7108BE016F5F7F4FB6
:10592000C3010E948C5CCE0101960E94CA5B42E0DA
:1059300050E0652DC8010E946F22A12CB12CB50149
:10594000C6010E94245DFC013080B501C3010E94A4
:10595000245DDC018C91381661F0652D8A2D0E9442
:105960005B19B501C3010E94245DFC0180810E9486
:10597000EA18FFEFAF1ABF0A24E1A216B104F9F644
:105980000E94271CD8019C966D937D938D939C93C8
:105990009F97F401EA52FF4F8081D3964C91882360
:1059A000A9F0842F992787FD909580959095D70130
:1059B00014962D913C911597820F931F459720F0D7
:1059C0004F5FF80143AB0CC010820AC04150D801B0
:1059D000D3964C93D39747FF03C04082D3961C9233
:1059E000B3012AC0F401E653FF4F8081882339F1C7
:1059F000A12CB12CB501C7010E94245DFC0170806F
:105A0000B501C6010E94245DDC018C91781661F01D
:105A1000652D8A2D0E945B19B501C7010E94245D86
:105A2000FC0180810E94EA18FFEFAF1ABF0A24E14F
:105A3000A216B104F9F6B701C6010E94795CF4011F
:105A4000E653FF4F10828FEF881A980AA7E0CA0E1C
:105A5000D11CB7E0EB0EF11C5394E4E05E1234CF9E
:105A60000E94271CD801D4966D937D938D939C93AF
:105A7000D7973CC06801F0EACF0ED11C912CE12CE5
:105A8000F12C5601B8E3AB1AB108B701C5010E9469
:105A9000245DFC018080B701C6010E94245DDC0109
:105AA0008C91881661F0692D8E2D0E945B19B701CB
:105AB000C5010E94245DFC0180810E94EA18FFEF6D
:105AC000EF1AFF0A24E1E216F104F9F6B501C60166
:105AD0000E94795C87E0C80ED11C9394A4E09A12CE
