:10000000AAC70000D7C70000D5C70000D3C70000AB
:10001000D1C70000CFC70000CDC70000CBC700008C
:10002000C9C70000C7C700000C949A560C94175714
:10003000C1C70000BFC70000BDC70000BBC70000AC
:10004000B9C70000B7C70000B5C70000B3C70000BC
:10005000B1C700000C941E1AADC700000C94FE55E9
:10006000A9C700000C944C1C0C94771C0C94AC1C7D
:10007000A1C700000C943C309DC700009BC7000046
:100080000C94EF1A97C7000095C7000093C70000B3
:100090000C9486098FC70000840DDC0D9C0E340E75
:1000A000B30E7F0E4D0E190E020E660EAA12B0127E
:1000B000B612BC12C212C812CE122D2D2D2D2D2D0E
:1000C0002D2D2D2D2D2D2D2D2D2D2D2D2D2D2D2D60
:1000D0002D2D2D2D2D2D2D2D2D2D2D2D2D2D2D2D50
:1000E0002D2D002D2D2D2D2D2D2D2D2D2D2D2D2D6D
:1000F0002D2D2D2D2D2D2D2D2D2D2D2D2D2D2D2D30
:100100002D2D2D2D2D2D2D2D2D2D2D002062797491
:10011000657300546F74616C206D656D6F7279202A
:1001200075736167653A20002C20616464726573A1
:10013000733A200053656374696F6E2000437265E3
:100140006174696E6720626C6F636B200057652075
:10015000617265206E6F77206372656174696E6786
:1001600020454550524F4D206D656D6F7279206C62
:1001700061796F7574002D2D2D2D2D2D2D2D2D2D8B
:100180002D2D2D2D2D2D2D2D2D2D2D2D2D2D2D2D9F
:100190002D2D2D2D2D2D2D2D2D2D2D2D2D2D003AAF
:1001A00020002D2D2D2D2D2D2D2D2D2D2D2D2D2DB9
:1001B0002D2D2D2D2D2D2D2D2D2D2D2D2D2D2D2D6F
:1001C0002D2D2D2D2D2D2D2D2D2D00454550524FF2
:1001D0004D206D656D6F727920726561646F757405
:1001E00000690272027202C102B902B502AB02A436
:1001F000029602CC02C802D602D002EA02F102DC68
:1002000002E3020E030203F8021E03150376036ADB
:1002100003600399038B0386038103BD03AE03A828
:1002200003A203DF03D103CC03C7030304F403EEEB
:1002300003E8036104530444043E042F041E040D28
:10024000044D033B032F0327038A0487048504829C
:100250000480047E047B0479047604740471046FC2
:100260000491028C0282027702616C6C20706164DE
:10027000730070616420005265636F7264206F6662
:1002800066005265636F7264206F6E0053746F7006
:1002900000506C6179004D494449206368616E6E7D
:1002A000656C2000437572766520004343206C69BD
:1002B0006D69742000434320004F637461766520AC
:1002C00000546F6E69632000636379006363780094
:1002D000592043433D00582043433D0059206D6958
:1002E0006E3D0059206D61783D0058206D696E3D6E
:1002F0000058206D61783D007769646520656E6403
:10030000730077696465206D6964646C65006C696D
:100310006E65617200592063757276653D005820E4
:1003200063757276653D00746F2065646974005270
:10033000656C656173652070616400746F2065642D
:10034000697420706164206E6F7465730053656C0E
:1003500065637420757365722070726573657400CF
:1003600053706C6974206F6666002B2066756E632F
:1003700074696F6E730053706C697420582C205927
:100380000059206F6E0058206F6E004166746572D0
:10039000746F756368206F6E004E6F746573206FA5
:1003A0006E0059206F66660058206F6666004166D1
:1003B000746572746F756368206F6666004E6F7443
:1003C0006573206F66660059206F6E0058206F6E4F
:1003D000004166746572746F756368206F6E004EBD
:1003E0006F746573206F6E0059206F666600582029
:1003F0006F6666004166746572746F756368206F1E
:100400006666004E6F746573206F6666004D616AA4
:100410006F722050656E7461746F6E6963004D6910
:100420006E6F722050656E7461746F6E6963004800
:1004300061726D6F6E6963204D616A6F72004D610C
:100440006A6F72004861726D6F6E6963204D696EEC
:100450006F72004D656C6F646963204D696E6F72D9
:10046000004E61747572616C204D696E6F7200424E
:100470000041230041004723004700462300460077
:100480004500442300440043230043002061667478
:100490006572746F7563682076616C75653A2000CB
:1004A000506164200056656C6F636974793A20006E
:1004B000206F666621000A5061642000207072651A
:1004C000737365642E204E6F7465733A200050611B
:1004D000642000592043433A20003A200059206606
:1004E0006F72207061642000582043433A20003A24
:1004F00020005820666F722070616420003A20004E
:1005000055707065722059206C696D697420666F32
:10051000722070616420003A20004C6F7765722071
:1005200059206C696D697420666F72207061642057
:10053000002D2D2D2D2D2D2D2D2D2D2D2D2D2D2D18
:100540002D2D2D2D2D2D2D2D2D2D2D2D2D2D2D2DDB
:100550002D2D2D2D2D2D2D2D2D005072696E746990
:100560006E67206F75742059206C696D69747320F3
:10057000666F722070616473002D2D2D2D2D2D2D31
:100580002D2D2D2D2D2D2D2D2D2D2D2D2D2D2D2D9B
:100590002D2D2D2D2D2D2D2D2D2D2D2D2D2D2D2D8B
:1005A0002D003A200055707065722058206C696DDE
:1005B000697420666F722070616420003A20004CDC
:1005C0006F7765722058206C696D697420666F7250
:1005D0002070616420002D2D2D2D2D2D2D2D2D2DE4
:1005E0002D2D2D2D2D2D2D2D2D2D2D2D2D2D2D2D3B
:1005F0002D2D2D2D2D2D2D2D2D2D2D2D2D2D005035
:1006000072696E74696E67206F75742058206C690A
:100610006D69747320666F722070616473002D2D94
:100620002D2D2D2D2D2D2D2D2D2D2D2D2D2D2D2DFA
:100630002D2D2D2D2D2D2D2D2D2D2D2D2D2D2D2DEA
:100640002D2D2D2D2D2D003A200055707065722016
:100650007072657373757265206C696D697420665C
:100660006F722070616420003A20004C6F776572D1
:10067000207072657373757265206C696D69742082
:10068000666F722070616420002D2D2D2D2D2D2D73
:100690002D2D2D2D2D2D2D2D2D2D2D2D2D2D2D2D8A
:1006A0002D2D2D2D2D2D2D2D2D2D2D2D2D2D2D2D7A
:1006B0002D005072696E74696E67206F75742070BA
:1006C00072657373757265206C696D6974732066E9
:1006D0006F722070616473002D2D2D2D2D2D2D2D09
:1006E0002D2D2D2D2D2D2D2D2D2D2D2D2D2D2D2D3A
:1006F0002D2D2D2D2D2D2D2D2D2D2D2D2D2D2D2D2A
:10070000002D2D2D2D2D2D2D2D2D2D2D2D2D2D2D46
:100710002D2D2D2D2D2D2D2D2D2D2D2D2D2D2D2D09
:100720002D2D2D2D2D2D2D2D2D005072696E7469BE
:100730006E67206F7574206C696D69747320666FC5
:10074000722070616473002D2D2D2D2D2D2D2D2DDA
:100750002D2D2D2D2D2D2D2D2D2D2D2D2D2D2D2DC9
:100760002D2D2D2D2D2D2D2D2D2D2D2D2D2D2D00E6
:100770003A0050616420002D2D2D2D2D2D2D2D2D75
:100780002D2D2D2D2D2D2D2D2D2D2D2D2D2D2D2D99
:100790002D2D2D2D2D2D2D2D2D2D2D2D2D2D2D00B6
:1007A0005072696E74696E67206F7574206E6F7415
:1007B000657320666F722070616473002D2D2D2D7E
:1007C0002D2D2D2D2D2D2D2D2D2D2D2D2D2D2D2D59
:1007D0002D2D2D2D2D2D2D2D2D2D2D2D2D2D2D2D49
:1007E0002D2D2D2D0053686966743A2000546F6ECC
:1007F00069633A20004F63746176653A20002D2DBD
:100800002D2D2D2D2D2D2D2D2D2D2D2D2D2D2D2D18
:100810002D2D2D2D2D2D2D2D2D2D2D2D2D2D2D2D08
:100820002D2D2D2D2D2D00506172616D6574657219
:100830007320666F722063757272656E74207363C5
:10084000616C653A20002D2D2D2D2D2D2D2D2D2D5A
:100850002D2D2D2D2D2D2D2D2D2D2D2D2D2D2D2DC8
:100860002D2D2D2D2D2D2D2D2D2D2D2D2D2D0041D1
:100870006374697665207072657365743A20002D23
:100880002D2D2D2D2D2D2D2D2D2D2D2D2D2D2D2D98
:100890002D2D2D2D2D2D2D2D2D2D2D2D2D2D2D2D88
:1008A0002D2D2D2D2D2D2D005072696E74696E67C2
:1008B000206F75742070726573657420736574742D
:1008C000696E6773002D2D2D2D2D2D2D2D2D2D2D88
:1008D0002D2D2D2D2D2D2D2D2D2D2D2D2D2D2D2D48
:1008E0002D2D2D2D2D2D2D2D2D2D2D2D2D0050610E
:1008F0006420637572766520666F7220593A200015
:1009000050616420637572766520666F7220583A74
:10091000200043432059207570706572206C696D0A
:1009200069743A200043432059206C6F7765722028
:100930006C696D69743A20004343205820757070CB
:100940006572206C696D69743A2000434320582019
:100950006C6F776572206C696D69743A200043434F
:100960002059204D4944492049443A20004343201E
:1009700058204D4944492049443A20004166746555
:1009800072746F7563682073656E6420656E616252
:100990006C65643A20004E6F74652073656E642048
:1009A000656E61626C65643A2000592073656E64FF
:1009B00020656E61626C65643A2000582073656E34
:1009C0006420656E61626C65643A20005061642049
:1009D0000050616473206861766520696E64697691
:1009E000696475616C2073657474696E67732061E6
:1009F0006E642066756E6374696F6E73202D20734C
:100A0000706C697420782F79202B2066756E637462
:100A1000696F6E730050616420637572766520663D
:100A20006F7220593A2000506164206375727665B8
:100A300020666F7220583A20004343205920757079
:100A4000706572206C696D69743A200043432059C7
:100A5000206C6F776572206C696D69743A20004371
:100A6000432058207570706572206C696D69743A06
:100A7000200043432058206C6F776572206C696DAD
:100A800069743A200043432059204D494449204984
:100A9000443A200043432058204D494449204944CA
:100AA0003A200050616420004166746572746F756D
:100AB00063682073656E6420656E61626C65643A7C
:100AC00020004E6F74652073656E6420656E6162F0
:100AD0006C65643A2000592073656E6420656E6110
:100AE000626C65643A2000582073656E6420656E00
:100AF00061626C65643A20005061642063757276AF
:100B00006520666F7220593A200050616420637539
:100B100072766520666F7220583A20004343205950
:100B2000207570706572206C696D69743A2000439D
:100B3000432059206C6F776572206C696D69743A37
:100B4000200043432058207570706572206C696DD9
:100B500069743A200043432058206C6F77657220F7
:100B60006C696D69743A200043432059204D494413
:100B7000492049443A200043432058204D494449E4
:100B80002049443A20004166746572746F75636849
:100B90002073656E6420656E61626C65643A200046
:100BA0004E6F74652073656E6420656E61626C655E
:100BB000643A2000592073656E6420656E61626C32
:100BC00065643A2000582073656E6420656E61622A
:100BD0006C65643A20002D2D2D2D2D2D2D2D2D2DC4
:100BE0002D2D2D2D2D2D2D2D2D2D2D2D2D2D2D2D35
:100BF0002D2D2D2D2D2D2D2D2D2D2D2D2D2D00502F
:100C000072696E74696E67206F75742070616420FC
:100C1000636F6E66696775726174696F6E002D2D02
:100C20002D2D2D2D2D2D2D2D2D2D2D2D2D2D2D2DF4
:100C30002D2D2D2D2D2D2D2D2D2D2D2D2D2D2D2DE4
:100C40002D2D2D2D2D2D004D494449206368616EB9
:100C50006E656C3A20004163746976652070726538
:100C60007365743A20004163746976652070726F11
:100C70006772616D3A20002D2D2D2D2D2D2D2D2DDE
:100C80002D2D2D2D2D2D2D2D2D2D2D2D2D2D2D2D94
:100C90002D2D2D2D2D2D2D2D2D2D2D2D2D2D2D00B1
:100CA0005072696E74696E67206F75742070726F10
:100CB0006772616D2073657474696E6773002D2DA2
:100CC0002D2D2D2D2D2D2D2D2D2D2D2D2D2D2D2D54
:100CD0002D2D2D2D2D2D2D2D2D2D2D2D2D2D2D2D44
:100CE0002D2D2D2D2D2D0020666F7220706164201A
:100CF000006F6666006F6E004166746572746F7592
:100D000063682000666F7220616C6C207061647390
:100D1000006F666620006F6E200041667465727415
:100D20006F756368200020666F7220706164200018
:100D30006F6666006F6E0020666F7220616C6C20BB
:100D400070616473006F6666006F6E0020666F727C
:100D50002070616420006F6666006F6E005820008E
:100D600020666F7220616C6C2070616473006F6626
:100D700066006F6E0058200020666F7220706164FC
:100D800020006F6666006F6E004E6F746573200002
:100D900020666F7220616C6C2070616473006F66F6
:100DA00066006F6E004E6F74657320004F63746150
:100DB000766520646F776E004F6374617665207589
:100DC000700053706C6974205859202B2066756E22
:100DD0006374696F6E730053706C697420585900A6
:100DE00053706C6974206F6666000129022904291A
:100DF00008291029202940298029012C022C0126AC
:100E00000226042608261026202640268026402C6E
:100E1000802C0123022304230823102320234023B2
:100E200080230120022004200820102020204020C0
:100E30008020102C202C012F022F042F082F102F80
:100E4000202F402F802F7EFE7EFD7EFB7EF77EEFE3
:100E50007EDF7EBF7E7F00010000070F12000200D0
:100E600000C40E4300030000C00E0401030904A6E1
:100E70000E18020309048E0E1603030904800E0CDB
:100E80000C0331003200330034003500000016033B
:100E900055005300420020005300650072006900B5
:100EA00061006C00000018035400650065006E00CE
:100EB000730079006400750069006E006F00000027
:100EC0000403090409024300020100C032090400BE
:100ED00000010202010005240010010524010001A7
:100EE00004240206052406000107058203080040C9
:100EF00009040100020A0000000705030240000087
:100F0000070584024000001201000202000020C018
:100F10001683040001010203010001C102018036B1
:100F200001813600A3087F12B517BD1EBB208F2D8F
:100F3000F62DB12F7F3ABD3AD545B2523E530E54ED
:100F4000535B8B12C1179F2DBD2F993AC93AE145CA
:100F5000BE524A53195411241FBECFEFD0E2DEBF58
:100F6000CDBF15E0A0E0B1E0E8E7F1EC00E00BBF99
:100F700002C007900D92A03BB107D9F72EE0A0EB7D
:100F8000B5E001C01D92AF3AB207E1F71FE0C2E43D
:100F9000DFE000E006C022970109FE010BBF0E94BE
:100FA000F55FC432D10780E00807A9F70E948F5887
:100FB0000C94AB6025C88091DC0590E02091DD05A4
:100FC000821B910908952091DD058091DC05281789
:100FD00050F4E22FF0E0E252FA4F808190E02F5F70
:100FE0002093DD0508958FEF9FEF0895E091DD05D3
:100FF0008091DC05E81730F4F0E0E252FA4F80818E
:1010000090E008958FEF9FEF08950895CF92DF92BB
:10101000EF92FF920F931F93CF93DF937C01CB014D
:101020008A012091B805222389F0EB016B01C40EDF
:10103000D51ECC15DD0561F06991D701ED91FC91CC
:101040000190F081E02DC7010995F3CF642F35D1D0
:10105000C801DF91CF911F910F91FF90EF90DF902A
:10106000CF900895CF93DF931F92CDB7DEB76983FA
:101070002091B8052223C1F02091B905203230F02B
:1010800021E0FC01228380E090E014C08091BA0549
:10109000E82FF0E0E554FA4F998190838F5F8093B9
:1010A000BA058093B90504C061E0CE01019605D16F
:1010B00081E090E00F90DF91CF910895FC011282C2
:1010C00048EE53E060E070E04383548365837683A9
:1010D00017828EE191E09183808308951092DD055F
:1010E0001092DC051092BA051092B9052FC0862F18
:1010F000413208F040E26EED75E048D01092DD0517
:101100008093DC05089521E0F2CF81E08093B8055B
:101110006093DB051092BA051092B90508950F93FC
:10112000062F21E04091B9056BEB75E08091DB055E
:1011300071D01092BA051092B9051092B8050F91AE
:10114000089561E0ECCF80EB95E0B8CF10926B068C
:1011500081E08093690610926806599AE0EBF0E00E
:1011600080818F7D8083589A84B58F7D84BDE9EB23
:10117000F0E080818E7F808380818D7F808388E412
:101180008093B80085E48093BC000895413208F054
:101190003FC090916B069111FCCF91E090936B064C
:1011A000209369062FEF2093FE0510924306240F2B
:1011B0002093420690936A0690916A06880F892BC5
:1011C00080936A0680916806813041F41092680627
:1011D00080916A068093BB0085EC01C085EE809308
:1011E000BC0080916B068130E1F380914306841747
:1011F00010F44091430624E436E0FB01D9018A2F24
:10120000821B841718F48D918193F9CF842F089550
:1012100080E008950F93413208F046C090916B062C
:101220009111FCCF92E090936B06009369069FEFBB
:101230009093FE051092430640934206FB0164E43E
:1012400076E0DB019A2F961B941718F491919D93E9
:10125000F9CF10926A0690916A06880F892B8093C5
:101260006A0680916806813041F410926806809188
:101270006A068093BB0085EC01C085EE8093BC00BC
:10128000222321F080916B068230E1F38091FE05EC
:101290008F3F61F08091FE05803251F08091FE0514
:1012A000803341F483E007C081E005C080E003C0E3
:1012B00082E001C084E00F910895613298F420919A
:1012C0006B06243089F460932006FC0182E296E0EC
:1012D000DC012A2F281B261718F421912D93F9CF12
:1012E00080E0089581E0089582E0089585ED80937F
:1012F000BC008091BC0084FDFCCF10926B06089569
:1013000085EC8093BC0010926B0608951F920F929B
:101310000FB60F9211240BB60F922F933F934F935A
:101320005F936F937F938F939F93AF93BF93EF934D
:10133000FF938091B900887F803609F49CC068F5DE
:10134000883209F45BC090F4803109F454C038F459
:10135000882309F4F2C0883009F44DC0F1C0883107
:1013600009F44CC0803209F45DC0EAC0803409F44D
:1013700068C048F4803309F455C0883309F0E0C0F0
:101380008093FE05A6C0803509F44FC0883509F466
:101390005DC0883409F0D4C0D2C0883909F4C3C014
:1013A000A8F4883709F467C038F4883609F463C0B4
:1013B000803709F460C0C4C0883809F4B4C08039EB
:1013C00009F45FC0803809F0BBC05BC0803B09F402
:1013D00082C038F4803A09F466C0883A09F47BC0C8
:1013E000AFC0803C09F4A3C0883C09F4A0C0883B8E
:1013F00009F486C0A5C080916A0610C0909143068A
:1014000080914206981770F5E091430681E08E0FB7
:1014100080934306F0E0EC5BF94F80818093BB0042
:1014200085EC82C08093FE058AC0E091430681E08E
:101430008E0F809343068091BB00F0E0EC5BF94F88
:10144000808390914306809142066AC0E0914306F2
:1014500081E08E0F809343068091BB00F0E0EC5B4F
:10146000F94F808380916906811169C081E0809382
:10147000680684EA5DC083E080936B061092FF05E6
:10148000CFCF8091FF05803208F04DC0E091FF057D
:1014900081E08E0F8093FF058091BB00F0E0E0506B
:1014A000FA4F8083BDCF8091FF05803230F4E09108
:1014B000FF05F0E0E050FA4F10826091FF0570E008
:1014C000E0916406F091650680E096E0099510923F
:1014D000FF0516DF35C084E080936B06109221066D
:1014E00010922006E0916606F091670609958091BA
:1014F0002006811105C081E080932006109222060B
:10150000E091210681E08E0F80932106F0E0EE5DF0
:10151000F94F80818093BB00909121068091200635
:10152000981708F47DCF85E88093BC0009C085EC4E
:101530008093BC0010926B0603C01092FE05D6DEAD
:10154000FF91EF91BF91AF919F918F917F916F919B
:101550005F914F913F912F910F900BBE0F900FBE57
:101560000F901F901895AB01682F86EE99E00C94B0
:10157000C82DEF92FF920F93CF93DF93C82F85EF83
:1015800099E00E94AA38082FCD31D1F030F4CB3148
:1015900009F440C0CC3131F07AC0CE31F9F0CF310E
:1015A00059F175C085EF99E00E942051602F85EFB9
:1015B00099E00E940C458823D9F1CFEFD0E03AC0E2
:1015C00085EF99E00E944E52602F85EF99E00E94CE
:1015D0001345882399F1CFEFD0E032C085EF99E031
:1015E0000E948451602F85EF99E00E94FE44882379
:1015F00061F1CFEFD0E02BC085EF99E00E94E85178
:10160000602F85EF99E00E940545882329F1CFEFEF
:10161000D0E024C085EF99E00E94B34785EF99E0C0
:101620000E947C37EC0134E0E32EF12C66E01AC016
:10163000C0E0D0E0E12CF12C62E014C0C0E0D0E0CA
:10164000EE24E394F12C61E00DC0C0E0D0E092E024
:10165000E92EF12C63E006C0C0E0D0E083E0E82E84
:10166000F12C60E0AE0186EE99E00E94C82D85EF76
:1016700099E00E941A45AC010F5F21E0CF3FD105F0
:1016800009F020E0B7018BEF98E00E94D625DF91AA
:10169000CF910F91FF90EF9008953F924F925F92FC
:1016A0006F927F928F929F92AF92BF92CF92DF9272
:1016B000EF92FF920F931F93CF93DF937B018B01E8
:1016C000A42EB12C882E912CC8018E199F098A1541
:1016D0009B050CF045C0C0E0D0E0312C6C2F85EFAD
:1016E00099E00E94D031882329F1C815D90511F15C
:1016F0006C2F85EF99E00E94AF386C01412C512C82
:10170000F60161916F0185EF99E00E9495383C01E7
:10171000F801608185EF99E00E9495386816790696
:1017200011F433243394FFEF4F1A5F0A87E0481611
:10173000510431F72196C930D10581F631100DC021
:10174000F801608185EF99E00E94953846E450E009
:10175000BC0186EE99E00E94E62D0F5F1F4FB4CFCB
:10176000DF91CF911F910F91FF90EF90DF90CF907D
:10177000BF90AF909F908F907F906F905F904F90B1
:101780003F9008952F923F924F925F926F927F9277
:101790008F929F92AF92BF92CF92DF92EF92FF9281
:1017A0000F931F93CF93DF93CDB7DEB763970FB639
:1017B000F894DEBF0FBECDBF182F962EF42E222E2A
:1017C000098B3E2C682F85EF99E07A8B0E940C459F
:1017D0007A898823F1F15E0188E0A80EB11CC92C3A
:1017E000D72EFE0131964F0135019F014F2C512C10
:1017F000C50186199709841595051CF5D88ACF86E9
:10180000F60161916F0185EF99E02A8B3B8B0E9475
:101810009538F50181935F01BC0177274FEF50E0C8
:1018200086EE99E00E94E62DEF85F889608185EFCC
:1018300099E00E94A138F40181934F013B892A89E4
:10184000D7CFE22C0F2DA301612F8BEF98E00E94E0
:10185000AE23232D4989612F8BEF98E00E94B0229F
:1018600063960FB6F894DEBF0FBECDBFDF91CF9168
:101870001F910F91FF90EF90DF90CF90BF90AF90AE
:101880009F908F907F906F905F904F903F902F90A0
:101890000895682F8BEF98E00C94B024EF920F938B
:1018A000211102C0002349F0E02E022F242F462FE1
:1018B000682F8BEF98E00E940E250F91EF9008950E
:1018C0008BEF98E00C9463220F931F93CF93DF93D9
:1018D000EC01FB0101900020E9F7AF0141505109F3
:1018E000461B570BE881F9810280F381E02D0995B1
:1018F0008C01CE010E94E658800F911FDF91CF919D
:101900001F910F910895CF93853199F0863121F081
:10191000843109F03DC015C06130710509F041C046
:101920006AE271E080EA9EE0CFDFC1E061E070E052
:1019300032C0672BB1F561E471E080EA9EE0C4DF5C
:1019400027C06130710569F564E086EE99E00E9478
:10195000CC2D8F3F910549F468E571E080EA9EE067
:10196000B3DF80E090E0C0E00AC0009739F466E79A
:1019700071E080EA9EE0A8DF8FEF90E0C1E0AC016B
:1019800064E086EE99E00E94C82D62E070E003C03A
:10199000C1E060E070E04C2F8BEF98E0CF910C94A9
:1019A000DD26CF910895FF920F931F93CF93DF937E
:1019B000CDB7DEB7E0970FB6F894DEBF0FBECDBF50
:1019C00061E086EE99E00E94D02D8E010F5F1F4FDF
:1019D000F12C6F2D86EE99E00E94CC2DF8018193B9
:1019E00091938F0140E050E06F2D86EE99E00E94C8
:1019F000C82DF394F8E1FF12ECCF86EE99E00E9437
:101A0000BA2D78948BEF98E00E94232268E572E06B
:101A100080E090E00E94341C8E010F5F1F4FF12C7C
:101A2000F801419151918F016F2D86EE99E00E944E
:101A3000C82DF394F8E1FF12F3CF6CED75E080E070
:101A400090E00E94341C6FE086EE99E0E0960FB6BD
:101A5000F894DEBF0FBECDBFDF91CF911F910F91E4
:101A6000FF900C94D02DCF93DF9386EE99E00E94E7
:101A7000D42DC0E0D0E0BE0185EF99E00E944C3A41
:101A8000882339F046E450E0BE0186EE99E00E94DA
:101A9000E62D2196CC30D10571F7DF91CF910895D5
:101AA000AF92BF92CF92DF92EF920F931F93CF939B
:101AB000DF931F92CDB7DEB7082FD62EC42E85EF49
:101AC00099E00E94333A811168C110E0612F85EFDF
:101AD00099E00E94D031811160C11F5F1930B1F7C8
:101AE00085EF99E00E94AA38E82E85EF99E00E94E0
:101AF0001A455C0110E00A30110508F04EC1F801EA
:101B0000E45BFF4F0C94DF5F65E188E998E00E9499
:101B1000401D882361F165E188E998E00E949B1EE1
:101B200085EF99E00E948745DD2011F061E001C05A
:101B30006FEF680F21F0613118F061E001C060E1E2
:101B400085EF99E00E94164F85EF99E00E94874546
:101B5000682F8BEF98E00F90DF91CF911F910F913D
:101B6000EF90DF90CF90BF90AF900C94452985EF18
:101B700099E00E942B45DD2011F011E001C01FEF1C
:101B8000180F1A3021F017FF03C019E001C010E050
:101B9000612F85EF99E00E94674761E0610F8BEF4D
:101BA00098E00E94A82385EF99E00E943045898340
:101BB0005ADF8981682F18C085EF99E00E9430456F
:101BC000DD2011F011E001C01FEF180F113121F0DD
:101BD00017FF03C010E101C010E0612F85EF99E00D
:101BE0000E948A4740DF612F8BEF98E00F90DF91D2
:101BF000CF911F910F91EF90DF90CF90BF90AF905A
:101C00000C94AB232C2D40E050E06D2D85EF99E036
:101C10000E94014B6C014E2D60E070E085EF99E071
:101C20000E947245E394082F9501A60160E070E0E0
:101C300016C02C2D41E050E06D2D85EF99E00E94FB
:101C4000014B6C014E2D61E070E085EF99E00E9440
:101C50007245E394082F9501A60161E070E08BEFD7
:101C600098E00E94402799C02C2D41E050E06D2D56
:101C700085EF99E00E94024C6C012E2D41E050E06E
:101C800060E070E085EF99E00E944E45E394082FF4
:101C90009501A60161E070E04AC02C2D40E050E0C3
:101CA0006D2D85EF99E00E94024C6C012E2D40E0D5
:101CB00050E060E070E085EF99E00E944E45E394CB
:101CC000082F9501A60160E070E031C02C2D43E0A3
:101CD00050E06D2D85EF99E00E94024C6C012E2D95
:101CE00043E050E061E070E085EF99E00E944E45EE
:101CF000E394082F9501A60163E070E018C02C2D35
:101D000042E050E06D2D85EF99E00E94024C6C019D
:101D10002E2D42E050E061E070E085EF99E00E94F6
:101D20004E45E394082F9501A60162E070E08BEF29
:101D300098E00E94AF2731C021E040E050E06D2DD7
:101D400085EF99E00E940F4E6C014E2D60E070E02F
:101D500085EF99E00E943545E3948C019501A60139
:101D600060E070E016C021E041E050E06D2D85EFAD
:101D700099E00E940F4E6C014E2D61E070E085EFFE
:101D800099E00E943545E3948C019501A60161E03C
:101D900070E08BEF98E00E941E280F90DF91CF91AA
:101DA0001F910F91EF90DF90CF90BF90AF9008956B
:101DB00085EF99E00E94333A90916D06981729F0CB
:101DC00080936D0681E080936C0680916C06882379
:101DD00071F067E088E998E00E94401D811107C01A
:101DE00066E088E998E00E94401D882339F081E090
:101DF00090916C06992349F080E0089580916C06DB
:101E000091E0892710926C06F3CF08956F927F922C
:101E10008F929F92AF92BF92CF92DF92EF92FF92FA
:101E20000F931F93CF93DF93CDB7DEB72E970FB6E7
:101E3000F894DEBF0FBECDBF682F85EF99E00E94FA
:101E4000AF385C01CE0101966C013E019FE0690E46
:101E5000711C8E01085F1F4F76014501F5016191EC
:101E60005F0185EF99E00E949538F80181938F0119
:101E7000F401608185EF99E00E94A138F601819319
:101E80006F010615170549F700E010E040E050E04B
:101E9000B80186EE99E00E94E62D0F5F1F4F0C30CF
:101EA0001105A1F7CE0108966C0100E010E0F601E3
:101EB00081916F018C3039F046E450E0B80186EE34
:101EC00099E00E94E62D0F5F1F4F0730110579F74B
:101ED000CE0108966C0100E010E0F60181916F01DF
:101EE0008C3089F0F701E00FF11FB08085EF99E0A9
:101EF0000E948A45B81207C04FEF50E0B80186EE45
:101F000099E00E94E62D0F5F1F4F0730110529F75A
:101F10002E960FB6F894DEBF0FBECDBFDF91CF91E6
:101F20001F910F91FF90EF90DF90CF90BF90AF90F7
:101F30009F908F907F906F9008956F927F928F9275
:101F40009F92AF92BF92CF92DF92EF92FF920F9348
:101F50001F93CF93DF93CDB7DEB761970FB6F89499
:101F6000DEBF0FBECDBF782E682F85EF99E00E94AF
:101F7000AF388E01085F1F4F6C01CE0101967C01C6
:101F80004E019FE0890E911C602E712FA701560112
:101F9000F60161916F0185EF99E0488B598B7F873E
:101FA0000E949538F80181938F01F501608185EFDA
:101FB00099E00E94A138F70181937F0148895989EE
:101FC0007F850815190519F7662D8BEF98E00E949B
:101FD0009A2A872D1BDF61960FB6F894DEBF0FBEDD
:101FE000CDBFDF91CF911F910F91FF90EF90DF90C8
:101FF000CF90BF90AF909F908F907F906F900895FB
:102000001F93CF93DF93D82F192F85EF99E00E946C
:10201000333A811126C0C0E06C2F85EF99E00E9411
:10202000D031811130C0CF5FC930B1F740E06D2FA2
:10203000712F85EF99E00E94054AEC0181309105EE
:1020400009F411DD85EF99E00E948F45282F40E0CB
:1020500050E0BE018BEF98E0DF91CF911F910C947F
:1020600098286D2F85EF99E00E943A4FBC018BEFC5
:1020700098E00E94072B85EF99E00E94AA38DF9133
:10208000CF911F915ACFDF91CF911F910895CF9398
:10209000C82F61E0680F8BEF98E00E948B298C2F8E
:1020A0004CDF85EF99E00E948A45682F8BEF98E01E
:1020B000CF910C94742ACF93DF938BEF98E00E941A
:1020C000DE2960E085EF99E00E94303AC0E0D0E080
:1020D000BE0186EE99E00E94EE2D8F3F910539F406
:1020E00046E450E0BE0186EE99E00E94E62D21967E
:1020F000CC30D10569F7DF91CF9108951F93CF932D
:10210000DF93C82FD62F67E088E998E00E94401D32
:102110008823D9F166E088E998E00E94401D882371
:10212000A1F185EF99E00E943045873008F43FC067
:1021300085EF99E00E94333A11E0682F612785EF1F
:1021400099E00E94303A85EF99E00E94333A882363
:1021500061F185EF99E00E94AA38682F85EF99E038
:102160000E94D0318823D9F061E070E08BEF98E0D5
:102170000E94152A1DDE85EF99E00E94333A682FF0
:10218000612785EF99E00E94303A85EF99E00E943F
:10219000333A811129C00CDE811131C025C085EF91
:1021A00099E00E94AA3873DFF0CF85DFEECF85EF8C
:1021B00099E00E94333A11E0682F612785EF99E09A
:1021C0000E94303AF5DD85EF99E00E94333A682F9E
:1021D000612785EF99E00E94303A60E070E08BEF74
:1021E00098E00E94152AD1CF85EF99E00E94333AFA
:1021F000882309F48CC0DCDD811163C088C065E1EF
:1022000088E998E00E94401D81112BC0D1111BC0AC
:1022100011E0C11101C010E0612F85EF99E00E942B
:102220000D48EC0185EF99E00E948A45282F41E096
:1022300050E0BE018BEF98E00E94982840E050E00B
:10224000112329F00CC04FEF50E0C11108C068E025
:1022500086EE99E0DF91CF911F910C94C82D6CE030
:10226000F7CFDD2309F453C085EF99E00E94AA3827
:10227000682F85EF99E00E94D031882349F061E012
:1022800070E08BEF98E0DF91CF911F910C94152AAD
:1022900065E188E998E00E949B1E61E0C11101C0E0
:1022A00060E040E085EF99E00E944A50BC012C2F8D
:1022B00042E050E08BEF98E0DF91CF911F910C94BA
:1022C000982885EF99E00E94AA38682F85EF99E059
:1022D0000E94D0318111D3CFD11119C061E0C11159
:1022E00001C060E085EF99E00E94F84785EF99E032
:1022F0000E94AA388BDD85EF99E00E948A45682FFD
:102300008BEF98E0DF91CF911F910C94742ADF91AD
:10231000CF911F91089563EB7AE085EF99E00E94D9
:10232000B13A62EC7BE085EF99E00E94A53A6DE45A
:102330007BE085EF99E00E94A93A6EE47CE085EFAE
:1023400099E00E94A13A60E67CE085EF99E00E9466
:10235000B53A69E47CE085EF99E00E94AD3A67E424
:1023600070E185EF99E00C94B93A69EB7AE088E97D
:1023700098E00E948B1E6EE770E188E998E00E9469
:102380008F1E60E070E188E998E00E94931E63E888
:102390007CE088E998E00C94971E60E57DE081ED93
:1023A00098E00C94B720B7DFE0DFF7CFCF93DF934F
:1023B00088E998E00E94C01EF8948CE796E0FFD46C
:1023C00080E597E00E94911B83E99EE00E942C54D7
:1023D0008BEF98E00E94882186EE99E00E94AB2D59
:1023E00085EF99E00E94AB3081ED98E00E94562085
:1023F00085EF99E00E942B45D82F85EF99E00E9448
:102400003045C82F61E06D0F8BEF98E00E94A82344
:102410006C2F8BEF98E00E94AB2325DBDF91CF91EF
:10242000C2CA40E056E960E070E080EA9EE00E94A7
:10243000EB5A2FEF81EE94E0215080409040E1F77D
:1024400000C00000B0DFB2CFCF93DF93CDB7DEB7CF
:1024500027970FB6F894DEBF0FBECDBF85EF99E08A
:102460000E94E13988E998E00E94F31F81ED98E02D
:102470000E9457208BEF98E00E94E52B66E188E9E7
:1024800098E00E94401D1FD7882381F165E971E023
:10249000CE0101960E94155CBE016F5F7F4F8BEFEE
:1024A00098E00E944A2BCE0101960E94B05B86EE16
:1024B00099E00E94BA2D8BEF98E00E94E52B88E905
:1024C00098E00E94F31F65E188E998E00E94401DB2
:1024D0008823A9F386EE99E00E94AC2D62E370E0B8
:1024E00080E090E00E94341C0E94D85527960FB6D9
:1024F000F894DEBF0FBECDBFDF91CF91089569EA9A
:1025000071E085E796E00E94155C62ED71E08EE671
:1025100096E00C94155C8EE696E00E94B05B85E731
:1025200096E00C94B05B97FD08C0853091051CF0D7
:1025300007972CF002C087E0089580E0089585E0B9
:1025400008958730910590F5FC01EA5AFF4F70E03D
:102550000C94DF5FFB01EE0FFF1FE95DFD4F23C011
:10256000FB01EE0FFF1FE75EFD4F1DC0FB01EE0FED
:10257000FF1FE55FFD4F17C0FB01EE0FFF1FE3508C
:10258000FE4F11C0FB01EE0FFF1FE151FE4F0BC0CC
:10259000FB01EE0FFF1FEB51FE4F05C0FB01EE0FDD
:1025A000FF1FE552FE4F80819181089580E090E009
:1025B0000895DB010D900020E9F7AD01415051096C
:1025C000461B570BDC01ED91FC910280F381E02D5D
:1025D00009940F931F93CF93DF93EC010E949558BA
:1025E0008C01CE010E94E658800F911FDF91CF91A0
:1025F0001F910F9108950F931F93CF93DF93EC01D9
:10260000AB0160E070E020E00E9400598C01CE0137
:102610000E94E658800F911FDF91CF911F910F917B
:102620000895CF93DF93C0E0D0E06FEFCE010E941A
:1026300075602196C11580E1D807B9F7DF91CF9178
:102640000895FC0185E0808381E090E0908F878B86
:1026500094A783A72AE030E0328F218F96A785A721
:102660002EEB30E0348F238F90AB87A728E334E044
:10267000368F258F92AB81AB22ED30E030A3278FD0
:1026800094AB83AB21E027AFDF01AA5ABF4F26E707
:1026900032E011963C932E93549611969C938E9310
:1026A000549686E08C93579629E030E011963C933F
:1026B0002E93549682E090E011969C938E935297BD
:1026C00011963C932E93549611969C938E93529709
:1026D00011963C932E93549611969C938E935297F9
:1026E00011963C932E93549611969C938E935297E9
:1026F00011963C932E93549611969C938E935297D9
:102700002D933C93ED54FF4F9183808308952F9236
:102710003F924F925F926F927F928F929F92AF9271
:10272000BF92CF92DF92EF92FF920F931F93CF93BE
:10273000DF934C016DE471E080EA9EE04ADF80EABD
:102740009EE00E94E6588401C12CD12C760116012E
:102750006DE371E080EA9EE00E949558B701A60102
:1027600080EA9EE00E945C5980EA9EE00E94E65862
:10277000E8012196412C512C32015201F8012081AF
:10278000822F90E0481659060CF055C064E371E0C2
:1027900080EA9EE00E949558B301A20180EA9EE083
:1027A0000E945C5968E271E080EA9EE00E949558C0
:1027B000AB2821F4F8011482138231C088A599A5B1
:1027C00081309105E9F082309105F9F0892B39F5D6
:1027D0008C899D8963E0969587956A95E1F72881B4
:1027E0003981820F931F2E893F892770332741E05B
:1027F00050E0232B11F440E050E0840F951F0DC0F2
:10280000888199812C893D8906C08C899D89880F92
:10281000991F28813981820F931F9B838A836A8144
:102820007B8180EA9EE0E7DE2296FFEF4F1A5F0A87
:102830006F0A7F0AA2CF8FEF820F9FE3929DF00174
:10284000939DF00D1124E80FF11DE80FF11DE80D27
:10285000F91D83A594A581309105D1F082309105B1
:10286000D1F0892B09F52789308DC90143E0969570
:1028700087954A95E1F743815481840F951F27700E
:102880003327C1E0D0E0232B61F4C0E0D0E009C0E1
:10289000C789D08D04C0C789D08DCC0FDD1F83813F
:1028A0009481C80FD91F02C0C0E0D0E063E171E09D
:1028B00080EA9EE00E949558AE0160E070E020E062
:1028C00080EA9EE00E9400596CE071E080EA9EE0A0
:1028D00080DE80EA9EE00E94E658E2E02E16310497
:1028E00049F0F801818192818C0F9D1FE05CFF4FC0
:1028F00091838083FFEFCF1ADF0AEF0AFF0A015CA2
:102900001F4F83E0C816D104E104F10409F01FCF82
:1029100063EE70E080EA9EE05CDEE401C12CD12C25
:10292000760165E372E080EA9EE043DEB701A6012E
:1029300080EA9EE00E945C596CE372E080EA9EE0CF
:1029400038DE69817A8180EA9EE055DE9FEFC91A00
:10295000D90AE90AF90AEF96E3E0CE16D104E104B8
:10296000F104F9F66AEB70E080EA9EE0DF91CF9126
:102970001F910F91FF90EF90DF90CF90BF90AF909D
:102980009F908F907F906F905F904F903F902F908F
:1029900020CE4F925F926F927F928F929F92AF92D2
:1029A000BF92CF92DF92EF92FF920F931F93CF933C
:1029B000DF938C01FC01E180F2808381948160E0EF
:1029C0008E0D9F1D0E947560F801C580D680CE0CCB
:1029D000DF1CC0E0D0E060E0CE018C0D9D1D0E94A8
:1029E00075602196CA30D105B1F7C12CD12CF80100
:1029F000C781D085CE0DDF1DCC0DDD1DE4EB8E2E05
:102A0000E2E09E2EA12CB12CF40161914F01C50191
:102A10008C0F9D1F0E947560FFEFAF1ABF0A83E104
:102A2000A816B10489F7E3E1CE0ED11CFEEBCF1658
:102A3000D104E9F6C12CD12CF801C185D285CE0D87
:102A4000DF1DCC0DDD1D412C512C32016C0E7D1E85
:102A500078EA872E72E0972EA12CB12CF4016191B7
:102A60004F01C501860D971D0E947560FFEFAF1ADB
:102A7000BF0A8CE0A816B10489F7ECE04E0E511C99
:102A8000FCE64F16510409F78CE6C80ED11CE8E3AA
:102A9000CE16E4E0DE0681F6C12CD12CF801C38508
:102AA000D485CE0DDF1DCC0DDD1DA12CB12C64E035
:102AB000CE010E94756060E0CE0101960E947560B3
:102AC00060E0CE0102960E947560FFEFAF1ABF0A68
:102AD000239687E0A816B10451F7E5E1CE0ED11C8C
:102AE000F2EDCF16D104D1F6DF91CF911F910F9166
:102AF000FF90EF90DF90CF90BF90AF909F908F901E
:102B00007F906F905F904F9008958F929F92AF92B9
:102B1000BF92CF92DF92EF92FF920F931F93CF93CA
:102B2000DF93FC01E05CFF4FA080B180E12CF12C31
:102B30004C0122E4820E911CF401C081D181CA0DA6
:102B4000DB1DCE0DDF1DC12CD12C00E010E00115E6
:102B5000110519F460E3CE0104C060E8C8018C0FD0
:102B60009D1F0E9475600F5F1F4F0730110579F799
:102B7000FFEFCF1ADF0A279629E0C216D10429F702
:102B80008FE3E80EF11CE6E7EE16E2E0FE06A1F6A2
:102B9000DF91CF911F910F91FF90EF90DF90CF9039
:102BA000BF90AF909F908F900895CF92DF92EF9259
:102BB000FF920F931F93CF93DF93EC01FC01E15839
:102BC000FF4F00811181E12CF12C6C0181E8C80ECE
:102BD000D11CF60180819181800F911F63E270E02A
:102BE0008E0D9F1D0E948760F2E0EF0EF11C82E1C6
:102BF000E816F10471F7E12CF12C6E01E3E8CE0E3A
:102C0000D11CF60180819181800F911F6EE571E0EA
:102C10008E0D9F1D0E948760F2E0EF0EF11C82E195
:102C2000E816F10471F7E12CF12C6E01E5E8CE0E07
:102C3000D11CF60180819181800F911F64EA71E0BF
:102C40008E0D9F1D0E948760F2E0EF0EF11C82E165
:102C5000E816F10471F7E12CF12C6E01E7E8CE0ED5
:102C6000D11CF60180819181800F911F64E372E095
:102C70008E0D9F1D0E948760F2E0EF0EF11C82E135
:102C8000E816F10471F7E12CF12C6E01E9E8CE0EA3
:102C9000D11CF60180819181800F911F62EC71E05F
:102CA0008E0D9F1D0E948760F2E0EF0EF11C82E105
:102CB000E816F10471F7E12CF12CC557DF4F88813C
:102CC0009981800F911F68E572E08E0D9F1D0E9413
:102CD0008760E2E0EE0EF11CF2E1EF16F10479F705
:102CE000DF91CF911F910F91FF90EF90DF90CF90E8
:102CF0000895CF93DF93EC014CDECE0106DFCE01C9
:102D000054DF65E18DEF9FE00E94756065E18EEF15
:102D10009FE00E94756065E18FEF9FE0DF91CF91AA
:102D20000C9475601F93CF93DF93EC0160E080E01B
:102D3000C3D28DE492E051D213E360E081E1BCD2D2
:102D4000812F49D22FEF83ED90E3215080409040B6
:102D5000E1F700C000001150103379F73AD260E07B
:102D600080E0AAD28EE592E038D261E080E0A4D281
:102D70008FE692E032D2CE0154DC61E080E09CD25A
:102D80008DE792E02AD2CE01B4DF23D260E080E06A
:102D900093D280E992E021D261E080E08DD28EE989
:102DA00092E01BD22FEF87EA91E6215080409040BD
:102DB000E1F700C00000DF91CF911F910895CF92FD
:102DC000DF92EF92FF927C013CDCC701A0DC8DEF2B
:102DD0009FE00E946860853161F48EEF9FE00E9461
:102DE0006860853131F48FEF9FE00E946860853123
:102DF00011F0C70197DF6BEC71E080EA9EE0E9DB40
:102E000062EA71E080EA9EE0E4DBC12CD12C76011D
:102E1000B701A60180EA9EE00E945C596FE971E06B
:102E200080EA9EE00E949558C6010E946860482F83
:102E300050E060E070E020E080EA9EE00E940059EF
:102E400080EA9EE00E94E6588FEFC81AD80AE80A86
:102E5000F80AC11480E1D806E104F104C9F666E776
:102E600071E080EA9EE0FF90EF90DF90CF90B1CBD1
:102E7000CF92DF92EF92FF920F931F93CF93DF9346
:102E8000E9012FE3629FB0011124FB01E40FF11D62
:102E9000E40FF11DE80FF91FDC01A60FB71FE38057
:102EA000F48011968D919C911297E80EF91E83A5DE
:102EB000813009F440C080F0823009F04BC06E01CF
:102EC000CC0CDD1CCE0CDF1CB801C6010E94876053
:102ED000C6018C1B9D0B36C0CE01D7FD0796A3E023
:102EE00095958795AA95E1F728EF829FC00D11244B
:102EF000E80EF11CC7010E94686041E050E060E00C
:102F000070E004C0440F551F661F771FCA95D2F7A3
:102F1000012B19F0C82FC42B03C0C42FC095C823A0
:102F20006C2FC7010E947560C7010E94686091E024
:102F3000C81310C010C0EC0EFD1E602FC7010E9408
:102F40007560C7010E946860282F30E091E0021789
:102F5000130709F090E0892FDF91CF911F910F9116
:102F6000FF90EF90DF90CF90089569EA71E080E4E0
:102F700097E00E94155C62ED71E089E397E00C94A4
:102F8000155C89E397E00E94B05B80E497E00C94C5
:102F9000B05B5C9808955C9A08954F925F926F922F
:102FA0007F928F929F92AF92BF92CF92DF92EF92D9
:102FB000FF920F931F93CF93DF931F92CDB7DEB78E
:102FC000882319F0898397D08981909147079923A5
:102FD00031F03AE13A95F1F700C0109247078823A3
:102FE00029F02F9A81E08093470701C02F985A9AC1
:102FF0006898579856985598CEDF82E08A95F1F7F1
:1030000000C069B079B099B08CB0C3DF92E09A95F6
:10301000F1F700C0C0DFE2E0EA95F1F700C099B136
:1030200089B129B13CB130FB442440F8512C33E044
:10303000440C551C3A95E1F795FBAA24A0F8B12C55
:103040004A285B2886FBCC24C0F8D12CCC0CDD1C94
:103050004C285D28332727FD30952227330F221F68
:103060003327220F331F220F331F422A532A65FAB8
:10307000EE24E0F8F12C74E0EE0CFF1C7A95E1F7F9
:1030800076FA002700F910E0E5E0000F111FEA953D
:10309000E1F70E29282D279522272795202B892D0A
:1030A000992787FD90958827990F881F9927A6E073
:1030B000880F991FAA95E1F7282B422A6ADF689AA0
:1030C000579A569A559A709A5F9A5E9A5D9A5A984C
:1030D000842D0F90DF91CF911F910F91FF90EF9072
:1030E000DF90CF90BF90AF909F908F907F906F9028
:1030F0005F904F900895CF93DF93C1EDD3E080E0D0
:103100004CDF87FF02C02197D1F7DF91CF9108955F
:103110001F93CF93DF931F92CDB7DEB7182F69832C
:10312000EADF809147076981882331F08AE18A9537
:10313000F1F700C010924707662329F02F9A81E02B
:103140008093470703C02F981092470717FF02C0CC
:10315000709A01C0709816FF02C05F9A01C05F9814
:1031600015FF02C05E9A01C05E9814FF02C05D9A0E
:1031700001C05D9800C00FDFE2E0EA95F1F700C002
:1031800008DF13FF02C0709A01C0709812FF02C0DE
:103190005F9A01C05F9811FF02C05E9A01C05E98FD
:1031A00010FF02C05D9A01C05D9800C0F4DEF2E03D
:1031B000FA95F1F700C0EDDE709A5F9A5E9A5D9A1B
:1031C0000F90DF91CF911F91089560E0A1CF8058BB
:1031D000FCCF81E0FACF61E09BCFCF93DF93EC018E
:1031E0008991882311F0F7DFFBCFDF91CF9108950C
:1031F000549A279A529A689A579A569A559AC9DEBB
:103200002F985A98709A5F9A5E9A5D9A8FE59AEE17
:103210000197F1F700C0000070985F9800C0BBDE16
:1032200092E09A95F1F700C0B4DE8FE090E4019748
:10323000F1F700C00000AFDE92E09A95F1F700C010
:10324000A8DE8FE891E00197F1F700C00000A3DE4F
:1032500092E09A95F1F700C09CDE85ED8A95F1F732
:1032600000005D9800C097DE92E09A95F1F700C0EB
:1032700090DE85ED8A95F1F700005D9800C08BDE49
:1032800092E09A95F1F700C084DE82E08A95F1F72A
:1032900000C0709A00C07FDE92E09A95F1F700C0FE
:1032A00078DE85ED8A95F1F7000088E08EDF91DF0A
:1032B00086E08BDF8CE089CFE62FF0E0E953FD4F0D
:1032C0009081890F84CF0F931F93813021F58091D6
:1032D0004C0781110CC081E080934C07B9D26093F8
:1032E00048077093490780934A0790934B07B0D2E1
:1032F000009148071091490720914A0730914B07E8
:10330000601B710B820B930B21E0693B7B408105B5
:10331000910520F402C010924C0720E0822F1F91EB
:103320000F910895CF93E82FF0E09F01220F331FF4
:10333000D901AF56B84F0D90BC91A02D5C91D90129
:10334000A358B84F0D90BC91A02D8C91D901AB5AC8
:10335000B84F6D917C91DF01A759B84F9C9189239B
:1033600041E009F440E0962F990F990F9F70942B3C
:10337000DF01AD58B84F4C91452381E009F480E05E
:10338000880F892B90E0607F682B792BD901AB5A8D
:10339000B84F6D937C93DC01A152BD4F4C914423F7
:1033A000D9F1C1E014160CF0C0E0CB0154E09695C1
:1033B00087955A95E1F78F70840F90E18902A001FB
:1033C00011246F70462B572BD901AB5AB84F119669
:1033D0005C934E93952F991F9927991FCC2311F039
:1033E000506801C05F774D935C939C1315C0837048
:1033F00099F4D901AB5AB84F4D915C9111974F7028
:1034000040684D935C93EB55F84F8081992311F000
:103410008F5F01C081508083CF91089580FF02C0EB
:10342000299A01C0299881FF02C02A9A01C02A98CE
:1034300082FF02C02B9A08952B9808951F920F9235
:103440000FB60F9211240BB60F922F933F934F9309
:103450005F936F937F938F939F93AF93BF93EF93FC
:10346000FF9380914F07823009F086C010924F077A
:103470008091B0008F778093B000809180008F772B
:1034800080938000809180008F7D809380002E98B3
:103490002E982E9880910F08883011F410920F0802
:1034A00080910F08BBDFB0E0A0E020910F082A0F49
:1034B00030E0220F331FF901E155F84F608171812F
:1034C000AB015527F901E152F84F808191816623C4
:1034D000E9F0B13051F0B23081F06093B300609107
:1034E000B00060686093B00011C0509389004093B1
:1034F000880060918000606807C050938B00409303
:103500008A006091800060626093800048175907CC
:1035100049F161E070E04817590714F060E070E08D
:103520006130710579F460910401F901E155F84FBA
:1035300040815181460F511D518340838417950767
:103540008CF40EC060910401F901E155F84F4081FF
:103550005181461B5109518340834817590714F480
:1035600091838083A85FBF5FA83109F09ECF8091CF
:103570000F088F5F80930F0880914F078F5F8093B4
:103580004F0720914E07222399F080915107909187
:103590005207A0915307B09154070196A11DB11D88
:1035A0008093510790935207A0935307B093540709
:1035B00081E0822780934E07FF91EF91BF91AF91F9
:1035C0009F918F917F916F915F914F913F912F913B
:1035D0000F900BBE0F900FBE0F901F9018951F926B
:1035E0000F920FB60F9211240BB60F922F933F93A9
:1035F0004F935F936F937F938F939F93AF93BF93FB
:10360000CF93EF93FF93C0914D078C2F8BDECF5F4D
:10361000CA3019F0C0934D0702C010924D07FF91B8
:10362000EF91CF91BF91AF919F918F917F916F91CA
:103630005F914F913F912F910F900BBE0F900FBE56
:103640000F901F901895E62FF0E0EE0FFF1FE1524C
:10365000F84F808191810895E62FF0E0EE0FFF1F73
:10366000E152F84F518340830895E62FF0E0EB5587
:10367000F84F8081108208956093040108951F938C
:10368000CF93DF9300D0CDB7DEB7122F842F4A83BC
:1036900069830E94B354812F0E94B354698170E002
:1036A0004A8150E0440F551FFA01E551F24FE49171
:1036B000DB01AA0FBB1FAF56B84FF0E0ED93FC93B0
:1036C000FA01E651F24F4491DB01AD58B84F4C93EB
:1036D000212F30E0220F331FF901E551F24FE49121
:1036E000DB01AA0FBB1FA358B84FF0E0ED93FC938A
:1036F000F901E651F24F2491FB01E759F84F20837D
:10370000E5E5F7E08081918180688193919387E07E
:10371000E936F807B9F70F900F90DF91CF911F911D
:103720000895DF92EF92FF920F931F93CF93DF9351
:103730007C011092900010929100109295001092CE
:1037400094001092710010929900109298001092BB
:103750009B0010929A0010929D0010929C00809104
:1037600091008860809391008091910084608093A3
:1037700091001092800010928100109282001092AD
:103780006F001092850010928400109289001092B0
:10379000880010928B0010928A0010928D00109277
:1037A0008C001092B0001092B10010927000109234
:1037B000B2001092B3001092B4008091800081603A
:1037C000809380008091B00081608093B0008091F0
:1037D00081008160809381008091B100816080933D
:1037E000B10014BC15BC16BC10926E0017BC18BCFE
:1037F00084B5826084BD85B5836085BD8CE787BD57
:103800008AE090E0909399008093980080916E00F8
:10381000826080936E00809171008260809371005D
:103820000BEC12E0C5EDD2E0D12CF80121918F0113
:1038300049916D2DC70123DFD394FAE0DF12F5CF54
:10384000DF91CF911F910F91FF90EF90DF9008953E
:103850002FB7F894609151077091520780915307E8
:10386000909154072FBF08950F931F9300E010E02D
:103870009801061717072807390759F0EFE9FFE005
:103880003197F1F700C000000F5F1F4F2F4F3F4FE0
:10389000F0CF1F910F9108951F920F920FB60F92C4
:1038A00011240BB60F922F938F939F93EF93FF9357
:1038B0009091CE00809117088F5F803408F080E0EF
:1038C00020911608821739F0E82FF0E0E85EF74FF4
:1038D000908380931708FF91EF919F918F912F9183
:1038E0000F900BBE0F900FBE0F901F9018951F9258
:1038F0000F920FB60F9211240BB60F928F939F93D6
:10390000EF93FF93909115088091140898130AC0C3
:1039100080911208811102C088E401C088ED809373
:10392000C9000FC0809114088F5F803408F080E0D8
:10393000E82FF0E0E85AF74F90819093CE00809303
:103940001408FF91EF919F918F910F900BBE0F90F4
:103950000FBE0F901F9018951F920F920FB60F92E7
:103960001124109213080F900FBE0F901F901895FE
:10397000CF92DF92EF92FF920F93CF936A017B0178
:10398000C22F2093120800931108CB01BA0196951B
:1039900087957795679560587B47814E9F4FA70124
:1039A00096010E94A15FB90161707727672B41F0F2
:1039B000213060E1360724F482E08093C80004C01F
:1039C0001092C80035952795215031093093CD00CC
:1039D0002093CC008091C90083FD1AC01092170873
:1039E00010921608109215081092140810921308DD
:1039F00086E08093CA00CC2331F0002311F088EDDB
:103A000005C080E903C0002319F088E48093C90051
:103A1000CF910F91FF90EF90DF90CF900895DC0150
:103A2000ED91FC910190F081E02D0994FC0110AA28
:103A300011AA12AA13AA14A615A616A617A61086CE
:103A400011861286138614AA4FEF5FEFBA0145ABB9
:103A500056AB67AB70AF80E090E020EFDF01A80FBE
:103A6000B91F1C962C93019680329105B9F71182EB
:103A70001082158214821782168213821282089590
:103A8000FC0184A595A5A6A5B7A504C0B695A795E4
:103A9000979587956A95D2F781700895406FFC01DC
:103AA000E60FF11D9485990F942B948781E0903F48
:103AB00021F09F3F11F080E0089508950F931F9328
:103AC000FC01862F04A515A526A537A5442381F062
:103AD00041E050E060E070E004C0440F551F661FF5
:103AE000771F8A95D2F7402B512B622B732B13C073
:103AF00041E050E060E070E004C0440F551F661FD5
:103B0000771F8A95D2F74095509560957095402320
:103B100051236223732344A755A766A777A71F9154
:103B20000F910895AF92BF92CF92DF92EF92FF92E2
:103B30000F931F93CF93DF931F92CDB7DEB75C0136
:103B4000562FF42EDC019C960D911D912D913C91E8
:103B50009F97062E04C036952795179507950A94CA
:103B6000D2F70170112722273327401709F4C7C065
:103B70005983A4DF5981FF20D9F1F50105A916A9C0
:103B800027A930AD543128F45E30D0F4563080F59A
:103B900017C085EE850F853058F5052E04C0369583
:103BA0002795179507950A94D2F700FF21C06F2D2E
:103BB00070E00190F081E02D852F5983099517C0A1
:103BC000E52FF0E0E151FD4F8081052E04C03695D0
:103BD0002795179507950A94D2F700FF09C0D501DC
:103BE0001696ED91FC91179790E0598309955981AC
:103BF000F50105A916A927A930AD573049F018F4E9
:103C00005630D1F03FC08CEE850F833050F13AC072
:103C100057E036952795179507955A95D1F700FFE8
:103C200031C061E0F11001C060E0D5011496ED9162
:103C3000FC91159780E013C046E0369527951795BF
:103C400007954A95D1F700FF1DC061E0F11001C052
:103C500060E0D5011496ED91FC91159781E00995EE
:103C600011C0052E04C036952795179507950A941F
:103C7000D2F700FF07C06F2D70E00280F381E02DC6
:103C8000852F099580E090E0C12CD12C7601C3945A
:103C9000F50105A916A927A930ADB901A801082E7B
:103CA00004C076956795579547950A94D2F740FDDD
:103CB0000EC044A555A566A577A5082E04C0769527
:103CC0006795579547950A94D2F740FF05C001962E
:103CD00080329105E9F613C0B701A601082E04C091
:103CE000440F551F661F771F0A94D2F7402B512BA4
:103CF000622B732B45AB56AB67AB70AFE8CF0F9021
:103D0000DF91CF911F910F91FF90EF90DF90CF90B7
:103D1000BF90AF900895FC01718360830895FC010A
:103D2000758364830895FC01778366830895FC019D
:103D30007383628308950F931F93262F41E050E011
:103D400060E070E004C0440F551F661F771F2A957E
:103D5000D2F74095509560957095FC0105A916A97C
:103D600027A930AD042315232623372305AB16AB33
:103D700027AB30AF1F910F91089588E998E056CE98
:103D800080EB95E00E946E0861E280EB95E00E9476
:103D9000850860E080EB95E00E9432086FEF70E0EC
:103DA00080EB95E03CDE80EB95E00E94A10861E2AB
:103DB00080EB95E00E94850861E080EB95E00E9431
:103DC00032086FEF70E080EB95E029DE80EB95E044
:103DD0000E94A10860E280EB95E00E94850860E007
:103DE00080EB95E00E9432086FEF70E080EB95E089
:103DF00016DE80EB95E00E94A10860E280EB95E082
:103E00000E94850861E080EB95E00E9432086FEF28
:103E100070E080EB95E003DE80EB95E00E94A10866
:103E200061E280EB95E00E9485086CE080EB95E014
:103E30000E9432086FEF70E080EB95E0F0DD80EBE0
:103E400095E00E94A10861E280EB95E00E94850860
:103E50006DE080EB95E00E9432086FEF70E080EB40
:103E600095E0DDDD80EB95E00E94A10860E280EB4B
:103E700095E00E9485086CE080EB95E00E94320896
:103E80006FEF70E080EB95E0CADD80EB95E00E947B
:103E9000A10860E280EB95E00E9485086DE080EB70
:103EA00095E00E9432086FEF70E080EB95E0B7DD9F
:103EB00080EB95E00C94A108CF93DF93EC0188850B
:103EC0009985AA85BB85BA2FA92F982F882788871F
:103ED0009987AA87BB87ECA9F0E0ED5FFC4F608172
:103EE00080EB95E00E94850862E180EB95E00E94FE
:103EF000320880EB95E00E94A108ECA9F0E0ED5FAC
:103F0000FC4F608170E041E050E080EB95E00E9462
:103F1000830880EB95E00E94DB07892BD1F380EBCF
:103F200095E00E94E307AA2797FDA095BA2F488540
:103F300059856A857B85842B952BA62BB72BBA2FA9
:103F4000A92F982F882788879987AA87BB8780EB16
:103F500095E00E94A108ECA9F0E0ED5FFC4F6081C4
:103F600080EB95E00E94850863E180EB95E00E947C
:103F7000320880EB95E00E94A108ECA9F0E0ED5F2B
:103F8000FC4F608170E041E050E080EB95E00E94E2
:103F9000830880EB95E00E94DB07892BD1F380EB4F
:103FA00095E00E94E307AA2797FDA095BA2F4885C0
:103FB00059856A857B85482B592B6A2B7B2B488733
:103FC00059876A877B8780EB95E00E94A1088CA9BE
:103FD0008F5F823019F08CAB80E002C01CAA81E0B8
:103FE000DF91CF910895CF92DF92EF92FF920F93DE
:103FF0001F93CF93DF93EC012BDCC8A8D9A8EAA8C4
:10400000FBA86C197D098E099F0963307105810534
:10401000910588F1CE0150DF882341F100E010E0E6
:10402000C884D984EA84FB84002E04C0F694E79403
:10403000D794C7940A94D2F781E0C822DD24EE24F5
:10404000FF2481E0C8264C2D602FCE0127DD882378
:1040500021F04C2D602FCE0165DD0F5F1F4F003228
:104060001105F1F6188619861A861B86F1DB68ABF6
:1040700079AB8AAB9BABDF91CF911F910F91FF90F2
:10408000EF90DF90CF90089520E030E0FC01E20F48
:10409000F31F12821382148215822C5F3F4F283245
:1040A0003105A1F7FC0111821082089508957F92D5
:1040B0008F929F92AF92BF92CF92DF92EF92FF9238
:1040C0000F931F93CF93DF938C01EC01B12C6B2DD9
:1040D00080E597E0CADAA82E811113C0B394249624
:1040E0008AE0B812F4CFDF91CF911F910F91FF902A
:1040F000EF90DF90CF90BF90AF909F908F907F9088
:104100000895A6DBCA80DB80EC80FD806C197D09F8
:104110008E099F09653671058105910518F0772490
:10412000739402C085E0782E93DB6A837B838C8353
:104130009D83E12CF12CCA2CDD24C7FCD09488246B
:1041400099248C189D08C601D7FCC401E816F9060D
:104150002CF661E01A140CF060E0D801ED91FC91AE
:10416000472D8B2D0995BFEFEB1AFB0AECCFFC0115
:1041700071836083089581ED98E086CFCF93DF93BC
:104180008EEB99E00E94B05B87EB99E00E94B05BF8
:104190008BE999E0892B29F48FE799E0892B91F439
:1041A0001BC080EB99E00E94B05B89EA99E00E9415
:1041B000B05B82EA99E00E94B05B8BE999E00E94D3
:1041C000B05BEACFCBE9D9E02797CE010E94B05B84
:1041D00089E0CF37D807C1F783E699E0892B51F002
:1041E000CFE7D9E02797CE010E94B05B89E0C336C4
:1041F000D807C1F787E499E0892B51F0C3E6D9E0ED
:104200002797CE010E94B05B89E0C734D807C1F779
:1042100088ED99E00E94B05B8FED99E0DF91CF913E
:104220000C94B05B0C94B95C70E00C94CD5CEF9294
:10423000FF920F931F93CF93DF93EC010E94595687
:10424000FE01EC5BFF4F60837183828393838E0159
:10425000045B1F4F78018CE1E80EF11C60E070E018
:10426000C8010E94155C095F1F4F0E151F05B1F7AD
:104270008E0108591F4F78018CE1E80EF11C60E0B7
:1042800070E0C8010E94155C095F1F4F0E151F05E5
:10429000B1F78E010C571F4F78018CE1E80EF11C2D
:1042A00060E070E0C8010E94155C095F1F4F0E15A9
:1042B0001F05B1F78E0100561F4F78018CE1E80E03
:1042C000F11C60E070E0C8010E94155C095F1F4F9F
:1042D0000E151F05B1F760E070E0CE0184549F4FCA
:1042E0000E94155C60E070E0CE018D539F4F0E94EC
:1042F000155C18AA18A619A61AA61BA61AAA1AAE01
:10430000DF91CF911F910F91FF90EF900C94F818CF
:104310009F92AF92BF92CF92DF92EF92FF920F9354
:104320001F93CF93DF93EC010E94E9188E017E0169
:10433000C12CD12C99249394F801E85BFF4F108293
:1043400057018CE4A80EB11C68E270E0C5010E9420
:10435000CD5B6FED79E0C5010E945F5C570188E697
:10436000A80EB11C68E270E0C5010E94CD5B6FED44
:1043700079E0C5010E945F5CF801E653FF4F1082AF
:1043800034961082570180EAA80EB11C68E270E0F2
:10439000C5010E94CD5B6FED79E0C5010E945F5CB5
:1043A000F801EE52FF4F1082570184E8A80EB11CAD
:1043B00068E270E0C5010E94CD5B6FED79E0C50158
:1043C0000E945F5CF801EA52FF4F90828FEFC81A9B
:1043D000D80A0F5F1F4F87E0E80EF11C84E0C81673
:1043E000D10409F0A9CF1FEF18AF19AFFE01E452B5
:1043F000FF4F10831CA61DA61EA61FA61BAA68E2BF
:1044000070E0CE0184549F4F0E94CD5B68E270E063
:10441000CE018D539F4F0E94CD5BFE01E652FF4FB0
:104420001083C552DF4F188360E080E0DF91CF91A9
:104430001F910F91FF90EF90DF90CF90BF90AF90C2
:104440009F900C945C19CF92DF92EF92FF920F93A2
:104450001F93CF93DF938C017C0180EAE80EF11C5F
:1044600068ED79E0C7010E945F5CC0E0D0E06801C0
:10447000E4EACE0ED11CF60180819181C817D907DC
:104480007CF4BE01C7010E940A5DFC0180810E948C
:10449000EB186BE470E080E090E0E6D92196EBCF7A
:1044A0006AEF70E080E090E0DFD9F801E653FF4F5B
:1044B00081E08083DF91CF911F910F91FF90EF906A
:1044C000DF90CF900895CF93DF93EC0181E08AAF26
:1044D000BFD96BAF7CAF8DAF9EAFDF91CF91089509
:1044E000CF93DF9341305105B1F04230510521F1B6
:1044F000452B99F5EC0127E0629FC00DD11D1124D9
:10450000C45BDF4F8C819D81449738F560ED71E08D
:10451000CE0188DEF7CFEC0127E0629FC00DD11DF0
:104520001124C859DF4F8C819D814497B0F460ED10
:1045300071E0CE0177DEF7CFEC0127E0629FC00D7E
:10454000D11D1124CC57DF4F8C819D81449728F4D5
:1045500060ED71E0CE0166DEF7CFDF91CF91089577
:10456000BF92CF92DF92EF92FF920F931F93CF9360
:10457000DF93CDB7DEB728970FB6F894DEBF0FBE36
:10458000CDBF8C01B22E242F30E0FC01E652FF4F4C
:104590008081992787FD90952817390719F0408366
:1045A00051E001C050E02B2D30E0F801E552FF4F03
:1045B0008081992787FD90952817390711F0B082DF
:1045C00003C0552309F454C0E3EFF1E06591749101
:1045D000C80148870E94256078018CEBE80EF11C29
:1045E000B801C7010E947D5CE5EFF1E0659174912F
:1045F000C8010E9425606801E3ECCE0ED11CB80111
:10460000C6010E947D5C4885642FC7010DDE488588
:104610004A3018F46FEC71E004C0443620F460EDC9
:1046200071E0C701FFDD60ED71E0C701FBDD6B2DBF
:10463000C601FADDB701CE0101960E94695CB601A0
:10464000CE0101960E94FD5CBC01C8018F599F4FAD
:104650000E945F5CCE0101960E94B05B40E050E09A
:1046600063E0C8013DDF81E0F801E353FF4F808341
:10467000EFD8F801FF966083718382839383F801FA
:1046800012AE28960FB6F894DEBF0FBECDBFDF91F5
:10469000CF911F910F91FF90EF90DF90CF90BF903F
:1046A00008950F931F93CF93DF93EC0188AD8F3F55
:1046B00009F449C089AD8F3F09F445C08E01045B00
:1046C0001F4F6FED79E0C8010E945F5C64E173E009
:1046D000C8010E947D5C68AD772767FD7095C801B1
:1046E0000E94CD5C60ED71E0C8019CDDE9ADE73072
:1046F00068F4EE0FFF0BED5CFD4F65917491CE01F8
:104700000E942560BE01C8018DDD0DC066E173E029
:10471000C80188DD69AD772767FD7095665071091E
:10472000C8010E94CD5C40E050E060E0CE01D8DEE0
:10473000FE01E653FF4F81E080838AD8EF966883BD
:1047400079838A839B83DF91CF911F910F91089585
:10475000FC0160AFA6CFFC0161AFA3CF2F923F92C7
:104760004F925F926F927F928F929F92AF92BF9281
:10477000CF92DF92EF92FF920F931F93CF93DF932D
:1047800000D000D000D0CDB7DEB79E838D83162F2A
:10479000202E0E2D462E512C6C018CEDC80ED11CF6
:1047A000D6018C91992787FD90954816590609F4F2
:1047B0006BC06C93ED80FE80B3E5EB0EF11C6FEDEA
:1047C00079E0C7012B833C8349835A830E945F5C55
:1047D0002B81622E3C81732E4981842E5A81952E25
:1047E000A12CB12C312CA214B3044CF5D401ED91C1
:1047F0004D01F0E0EE0FFF1FE75BFD4F65917491F7
:104800008D819E810E9425606D817E81C701A114EA
:10481000B10419F40E947D5C01C004DDF3016191D3
:104820003F0170E062507109C7010E94CD5C60EDEC
:1048300071E0C701F7DCFFEFAF1ABF0AD4CFED81FB
:10484000FE81E95AFF4F80819181ED81FE81ED5219
:10485000FF4F459760F081E08083ED81FE81E95252
:10486000FF4F8083AD81BE81D3961C9201C0108220
:1048700040E050E061E08D819E8132DE81E0ED819B
:10488000FE81E553FF4F8083F6012081822F992717
:1048900087FD90954816590611F02F3FD1F5ED8010
:1048A000FE80FCEBEF0EF11C63E273E0C7010E9497
:1048B0007D5C602FC701B8DC0A3060F46FEC71E0FA
:1048C000C701B0DCA12CB12C6D807E808AE5680E1A
:1048D000711C05C00436B0F760ED71E0F1CFB50191
:1048E000C3010E940A5D4C01B501C7010E940A5D27
:1048F000DC018C91F4018083FFEFAF1ABF0A84E0E2
:10490000A816B10461F781E0ED81FE81E453FF4F09
:104910008083D6011C930E94281CED81FE81FF96A6
:104920006083718382839383ED81FE8112AE26962C
:104930000FB6F894DEBF0FBECDBFDF91CF911F91B0
:104940000F91FF90EF90DF90CF90BF90AF909F902E
:104950008F907F906F905F904F903F902F90089531
:10496000AF92BF92CF92DF92EF92FF920F931F937D
:10497000CF93DF93EC01F62E40E050E062E0B0DD33
:104980008E0104541F4F65E273E0C8010E947D5CF4
:104990006F2DC80149DC89E08F1558F06FEC71E08C
:1049A000C80140DCE12CF12C5E01EAE5AE0EB11C41
:1049B00006C0F3E6FF15B0F360ED71E0F1CFB7018B
:1049C000615F7F4FC5010E940A5D6C01B701C8019C
:1049D0000E940A5DFC018081F6018083FFEFEF1ADF
:1049E000FF0A85E0E816F10451F7FE01E453FF4F9A
:1049F00081E080830E94281CFE01FF966083718302
:104A0000828393831AAEDF91CF911F910F91FF9014
:104A1000EF90DF90CF90BF90AF9008956F927F920C
:104A20008F929F92AF92BF92CF92DF92EF920F93AD
:104A30001F93CF93DF93EC01D42E122F40E050E070
:104A400062E04EDD5E018CEBA80EB11C68E273E003
:104A5000C5010E947D5C6D2DC501E6DB99E09D15C9
:104A600018F06FEC71E005C0E3E6ED1520F060EDA5
:104A700071E0C501D7DB6E01F3ECCF0ED11C6FE303
:104A800071E0C6010E947D5C612FC601CDDB1A304A
:104A900018F46FEC71E004C0143620F460ED71E09E
:104AA000C601C0DBCE01865A9F4F4C010023E1F0C6
:104AB00000E010E0B8016B5F7F4FC4010E940A5D07
:104AC0003C01B801C5010E940A5DFC018081F3012F
:104AD00080830F5F1F4F0430110561F7EE2009F44A
:104AE0004DC0A12CB12C18C0A12CB12CB5016B5F0D
:104AF0007F4FC4010E940A5D8C01B5018FED99E0E2
:104B00000E941C5DF8018083FFEFAF1ABF0A84E0AA
:104B1000A816B10459F7E2CFB501665F7F4FC40113
:104B20000E940A5D8C01B501C6010E940A5DFC016C
:104B30008081F8018083FFEFAF1ABF0A84E0A816D6
:104B4000B10451F7FE01E453FF4F81E080830E94DE
:104B5000281CFE01FF9660837183828393831AAEC3
:104B6000DF91CF911F910F91EF90DF90CF90BF9089
:104B7000AF909F908F907F906F900895C12CD12C13
:104B8000B601665F7F4FC4010E940A5D8C01B601C9
:104B90008FED99E00E941C5DF8018083FFEFCF1A32
:104BA000DF0A84E0C816D10459F7CCCF6F927F9208
:104BB0008F929F92AF92BF92CF92DF92EF92FF922D
:104BC0000F931F93CF93DF931F92CDB7DEB73C01B6
:104BD0007B016A01A12CB12C4C0188E6880E911C46
:104BE0006FED79E0C4018A0D9B1D29830E945F5CF3
:104BF000E7E0AE0EB11C2981FCE1AF16B10481F7EC
:104C000082E0E816F10409F460C044F4E114F10410
:104C100081F0EA94EF2809F444C0ADC083E0E816BF
:104C2000F10409F466C0E4E0EE16F10409F475C07D
:104C3000A2C0F2E0CF16D104F9F4211103C0EBE1D8
:104C4000F2E002C0E3E1F2E065917491C3010E94D9
:104C50002560B301C30181599F4F0E947D5C6FE7BE
:104C600073E0730186E7E80EF11CC7010E947D5CCA
:104C7000602FC701D9DA7FC0211103C0EBE2F2E057
:104C800002C0E3E2F2E065917491C3010E942560E5
:104C9000B301C30181599F4F0E947D5C6AE273E0BA
:104CA00065C0E2E0CE16D10441F4211103C0EDE16C
:104CB000F2E0CACFE5E1F2E0C7CF211103C0EDE297
:104CC000F2E0E1CFE5E2F2E0DECFF2E0CF16D10490
:104CD00041F4211103C0EFE1F2E0B6CFE7E1F2E0E9
:104CE000B3CF211103C0EFE2F2E0CDCFE7E2F2E073
:104CF000CACF82E0C816D10441F4211103C0E1E219
:104D0000F2E0A2CFE9E1F2E09FCF211103C0E1E39D
:104D1000F2E0B9CFE9E2F2E0B6CF830101591F4FCB
:104D2000C114D10419F4E1E1F2E005C0CA94CD2820
:104D300051F4EDE0F2E065917491C3010E942560A9
:104D4000B301C80116C0EDE0F2E065917491C301B2
:104D50000E942560B301C8010E947D5CEFE0F2E093
:104D600065917491C3010E942560B301C3018A5803
:104D70009F4F0E947D5C10E041E050E0612FC30135
:104D8000AFDB1F5F1430C1F70E94281CF30160A73E
:104D900071A782A793A781E080AB0F90DF91CF919D
:104DA0001F910F91FF90EF90DF90CF90BF90AF9049
:104DB0009F908F907F906F900895AF92BF92CF9207
:104DC000DF92EF92FF920F931F93CF93DF931F9287
:104DD000CDB7DEB75C017B0100E010E06C0188E636
:104DE000C80ED11C6FED79E0C601800F911F498379
:104DF0000E945F5C095F1F4F49810C31110591F7DB
:104E0000E1E0EE16F10489F0F2E0EF16F10429F08A
:104E1000EF28C1F4E3E6F2E00AC0442319F0E5E626
:104E2000F2E005C0E7E6F2E002C0E1E6F2E06591FB
:104E30007491C5010E942560B501C50181599F4F3C
:104E40000E947D5C10E041E050E0612FC50148DB2D
:104E50001F5F1430C1F70E94281CF50160A771A7DD
:104E600082A793A781E080AB0F90DF91CF911F9134
:104E70000F91FF90EF90DF90CF90BF90AF9008958B
:104E80006F927F928F929F92AF92BF92CF92DF925A
:104E9000EF920F93CF93DF93EC014B015901C12C9B
:104EA000D12C3C0188E6680E711C6FED79E0C301DE
:104EB0008C0D9D1D0E945F5C87E0C80ED11C8CE1AB
:104EC000C816D10491F7F401FF27EE0FFF1FE95038
:104ED000FE4F65917491CE010E942560BE016E0166
:104EE0008FE6C80ED11CC6010E947D5C602FC601F2
:104EF0009BD9F501FF27EE0FFF1FEF51FE4F659184
:104F00007491CE010E9425606E0186E7C80ED11C07
:104F1000BE01C6010E947D5CAB2819F06E2DC60152
:104F200083D900E041E050E0602FCE01D9DA0F5F75
:104F30000430C1F70E94281C68A779A78AA79BA7FD
:104F400081E088ABDF91CF910F91EF90DF90CF9010
:104F5000BF90AF909F908F907F906F9008956F92C9
:104F60007F928F929F92AF92BF92CF92DF92EF92F9
:104F70000F93CF93DF93EC014B015901C12CD12C3E
:104F80003C0188E6680E711C6FED79E0C3018C0D61
:104F90009D1D0E945F5C87E0C80ED11C8CE1C81685
:104FA000D10491F7F401FF27EE0FFF1FE550FE4FEC
:104FB00065917491CE010E942560BE016E018FE65D
:104FC000C80ED11CC6010E947D5C602FC6012CD981
:104FD000F501FF27EE0FFF1FEF51FE4F6591749112
:104FE000CE010E9425606E0186E7C80ED11CBE016D
:104FF000C6010E947D5CAB2819F06E2DC60114D944
:1050000000E041E050E0602FCE016ADA0F5F04302B
:10501000C1F70E94281C68A779A78AA79BA781E0EF
:1050200088ABDF91CF910F91EF90DF90CF90BF9041
:10503000AF909F908F907F906F9008956F927F9226
:105040008F929F92AF92BF92CF92DF92EF920F9387
:105050001F93CF93DF93EC014B015901C12CD12C4D
:105060003C0188E6680E711C6FED79E0C3018C0D80
:105070009D1D0E945F5C87E0C80ED11C8CE1C816A4
:10508000D10491F7F401FF27EE0FFF1FE75FFD4FFB
:1050900065917491CE010E942560BE016E018FE67C
:1050A000C80ED11CC6010E947D5CF801EE0FFF1FE7
:1050B000ED5FFD4F65917491CE010E942560BE01A8
:1050C000C601B0D8F501FF27EE0FFF1FEF51FE4FCD
:1050D00065917491CE010E9425608E010A581F4F80
:1050E000BE01C8010E947D5CAB2819F06E2DC8017D
:1050F0009BD810E041E050E0612FCE01F1D91F5F55
:105100001430C1F70E94281C68A779A78AA79BA71B
:1051100081E088ABDF91CF911F910F91EF90DF90ED
:10512000CF90BF90AF909F908F907F906F90089599
:105130009F92AF92BF92CF92DF92EF92FF920F9326
:105140001F93CF93DF93EC016B018A01922EE12C28
:10515000F12C5C0188E6A80EB11C6FED79E0C50169
:105160008E0D9F1D0E945F5C87E0E80EF11C8CE1B4
:10517000E816F10491F70230110551F581E0C816E7
:10518000D10441F4992019F063E373E009C06FE39F
:1051900073E006C082E0C816D10449F46DE473E000
:1051A000CE0181599F4F0E947D5C10E052C083E088
:1051B000C816D104D1F76BE573E0CE0181599F4F3A
:1051C0000E947D5C65E673E0CE018A589F4FEBCF6D
:1051D000E12CF12C6FED79E0C5018E0D9F1D0E9431
:1051E0005F5C87E0E80EF11C8CE1E816F10491F7B2
:1051F000F801EE0FFF1FE951FE4F65917491CE014A
:105200000E9425607E018FE6E80EF11CBE01C701F9
:105210000E947D5C0130110551F4692D772767FDEF
:10522000709562507109C7010E94CD5CBECF012B01
:1052300009F0BBCFE92DEE0FFF0BE75BFD4F65914A
:105240007491CE010E942560BE01C7010E94122107
:10525000ACCF41E050E0612FCE0142D91F5F143046
:10526000C1F70E94281C68A779A78AA79BA781E09D
:1052700088ABDF91CF911F910F91FF90EF90DF905E
:10528000CF90BF90AF909F900895DF92EF92FF92E2
:105290000F931F93CF93DF93EC01D62E00E010E025
:1052A0007C0188E6E80EF11C6FED79E0C701800F04
:1052B000911F0E945F5C095F1F4F0C311105A1F720
:1052C000E1EFF1E065917491CE010E942560BE018D
:1052D0008E0101591F4FC8010E947D5C6D2DC801D0
:1052E0000E94142110E041E050E0612FCE01F8D877
:1052F0001F5F1430C1F70E94281C68A779A78AA7EE
:105300009BA781E088ABDF91CF911F910F91FF9018
:10531000EF90DF900895FF920F931F93CF93DF9349
:10532000EC01F62E8C01045B1F4F6FED79E0C80194
:105330000E945F5C6FED79E0CE018D5A9F4F0E9415
:105340005F5C6FED79E0CE01865A9F4F0E945F5CF3
:105350006FED79E0CE018F599F4F0E945F5C67E748
:1053600073E0C8010E947D5C6F2DC8010E9414216A
:1053700040E050E060E0CE01B3D840E050E061E0B2
:10538000CE01AED840E050E062E0CE01A9D840E0C6
:1053900050E063E0CE01A4D8FE01E653FF4F81E068
:1053A00080833196808331968083C353DF4F888317
:1053B000DF91CF911F910F91FF900895CF93DF93CD
:1053C000EC016FD96FED79E0CE018D5A9F4F0E94AD
:1053D0005F5C6FED79E0CE01865A9F4F0E945F5C63
:1053E0006FED79E0CE018F599F4F0E945F5C1BAA41
:1053F000FE01EA52FF4F81E0808334971082359698
:105400008083349710823596808334971082359646
:105410008083349710823A97808331968083C35378
:10542000DF4F8883DF91CF910895DF92EF92FF9253
:105430000F931F93CF93DF93EC016130710511F04F
:10544000D12C02C002E0D02E00E010E07E0188E600
:10545000E80EF11C6FED79E0C701800F911F0E94EB
:105460005F5C095F1F4F0C311105A1F70D2D10E096
:10547000C801880F991F8F5B9D4FFC016591749146
:10548000CE010E942560BE01CE0181599F4F0E942E
:105490007D5CF8013196EE0FFF1FEF5BFD4F6591CC
:1054A0007491CE010E942560BE01CE018A589F4FA3
:1054B0000E947D5C41E050E061E0CE0111D841E006
:1054C00050E062E0CE010CD80E94281C68A779A7A2
:1054D0008AA79BA781E088ABDF91CF911F910F91A5
:1054E000FF90EF90DF900895FF920F931F93CF935B
:1054F000DF93EC01F62E8C01065A1F4F64E873E02F
:10550000C8010E947D5C6F2D70E062507109C80176
:105510000E94CD5CFE01E453FF4F81E0808340E0B8
:1055200050E062E0CE01DF91CF911F910F91FF908B
:105530000C947022AF92BF92CF92DF92EF92FF92C3
:105540000F931F93CF93DF93EC018B015A017C01E2
:1055500083E5E80EF11C6FED79E0C7010E945F5C06
:10556000680100E010E0D601ED916D01EC3019F119
:10557000F0E0EE0FFF1FE75BFD4F65917491CE01E8
:105580000E942560BE01C7010115110519F40E9492
:105590007D5C02C00E941221F501E00FF11F6081C5
:1055A00070E062507109C7010E94CD5C60ED71E04E
:1055B000C7010E9412210F5F1F4F0730110599F696
:1055C000FE01E95AFF4F80819181E458FF4F4597D2
:1055D00010F081E006C010821BAA81E0FE01E952B2
:1055E000FF4F8083FE01E553FF4F81E0808340E061
:1055F00050E061E0CE01DF91CF911F910F91FF90BC
:10560000EF90DF90CF90BF90AF900C947022EF920C
:10561000FF920F931F93CF93DF93EC0162307105DC
:1056200041F500E010E07C0188E6E80EF11C6FED2A
:1056300079E0C701800F911F0E945F5C095F1F4FD7
:105640000C311105A1F764E973E0CE0181599F4F38
:105650000E947D5C66EA73E0CE018A589F4F0E94EB
:105660007D5C0E94281C68A779A78AA79BA781E078
:1056700088AB10E041E050E0612FCE010E94702223
:105680001F5F1430B9F7DF91CF911F910F91FF90F9
:10569000EF900895CF92DF92EF92FF920F931F93B6
:1056A000CF93DF93EC016B0100E010E07C018CE410
:1056B000E80EF11C6FED79E0C701800F911F0E9489
:1056C0005F5C095F1F4F0C311105A1F7B601C701DF
:1056D0000E945F5C40E050E060E0CE010E947022DA
:1056E000FE01E653FF4F81E080833196808331963F
:1056F0008083C353DF4F8883DF91CF911F910F9138
:10570000FF90EF90DF90CF900895FF920F931F933B
:10571000CF93DF93EC01FAACFF2009F44EC04BAD00
:105720005CAD6DAD7EADFC01FF96008111812281E3
:105730003381401B510B620B730B493C51056105D2
:10574000710578F40E94281C0BAD1CAD2DAD3EAD4B
:10575000601B710B820B930B693C710581059105F0
:1057600060F16FED79E0CE018D5A9F4F0E945F5C32
:105770006FED79E0CE01865A9F4F0E945F5C6FED1E
:1057800079E0CE018F599F4F0E945F5CFE01E55387
:10579000FF4F81E0808331968083319680833696F7
:1057A0001082349680831BAA33968FEF80833196C4
:1057B0008083319680831AAE01C0F12C8F2DDF914A
:1057C000CF911F910F91FF9008953F924F925F925A
:1057D0006F927F928F929F92AF92BF92CF92DF9201
:1057E000EF92FF920F931F93CF93DF93CDB7DEB766
:1057F00027970FB6F894DEBF0FBECDBF8C01809106
:105800007A0086FD74C1C80180DF0E94281CF8015F
:10581000FF96C080D180E280F3806C197D098E09EB
:105820009F096A3071058105910530F4D801DA9637
:105830008C91882309F45BC1F80180A981111BC1F7
:10584000D801D1968C9181110DC048016801B0EA50
:10585000CB0ED11C7801ECE4EE0EF11C512C44244B
:10586000439433C00E94281CD8019896CD90DD90B7
:10587000ED90FC909B976C197D098E099F096D3DF9
:1058800075408105910508F432C1F80111AA68013B
:10589000F8E6CF0ED11CE12CF12CBB24B3946FEDB4
:1058A00079E0C6010E945F5CF801EE0DFF1DE65332
:1058B000FF4FB0822FEFE21AF20A87E0C80ED11C28
:1058C000A4E0EA16F10459F7C0CFF401EE52FF4FFD
:1058D0008081882309F487C00E94281CF80124A530
:1058E00035A546A557A5621B730B840B950B653F29
:1058F00071408105910508F4A3C0D801D3964C915D
:10590000552747FD509528E230E0B701CE010196BA
:105910000E942D5D3601BCE16B1A7108BE016F5FFC
:105920007F4FC3010E94725CCE0101960E94B05B62
:1059300042E050E0652DC8010E947022A12CB12CDC
:10594000B501C6010E940A5DFC013080B501C301AA
:105950000E940A5DDC018C91381661F0652D8A2D5C
:105960000E945C19B501C3010E940A5DFC0180819F
:105970000E94EB18FFEFAF1ABF0A24E1A216B10490
:10598000F9F60E94281CD8019C966D937D938D9307
:105990009C939F97F401EA52FF4F8081D3964C91DC
:1059A0008823A9F0842F992787FD9095809590955D
:1059B000D70114962D913C911597820F931F45970F
:1059C00020F04F5FF80143AB0CC010820AC0415079
:1059D000D801D3964C93D39747FF03C04082D39608
:1059E0001C92B3012AC0F401E653FF4F8081882343
:1059F00039F1A12CB12CB501C7010E940A5DFC014F
:105A00007080B501C6010E940A5DDC018C91781698
:105A100061F0652D8A2D0E945C19B501C7010E94B5
:105A20000A5DFC0180810E94EB18FFEFAF1ABF0AEC
:105A300024E1A216B104F9F6B701C6010E945F5C29
:105A4000F401E653FF4F10828FEF881A980AA7E0FF
:105A5000CA0ED11CB7E0EB0EF11C5394E4E05E12C9
:105A600034CF0E94281CD801D4966D937D938D93DA
:105A70009C93D7973CC06801F0EACF0ED11C912CC3
:105A8000E12CF12C5601B8E3AB1AB108B701C501FE
:105A90000E940A5DFC018080B701C6010E940A5D78
:105AA000DC018C91881661F0692D8E2D0E945C19A5
:105AB000B701C5010E940A5DFC0180810E94EB18BC
:105AC000FFEFEF1AFF0A24E1E216F104F9F6B5013F
:105AD000C6010E945F5C87E0C80ED11C9394A4E0CD
